{
  "abi": [
    {
      "anonymous": false,
      "inputs": [
        {
          "indexed": true,
          "internalType": "address",
          "name": "token",
          "type": "address"
        },
        {
          "indexed": true,
          "internalType": "address",
          "name": "campaign",
          "type": "address"
        },
        {
          "indexed": true,
          "internalType": "address",
          "name": "campaignOperator",
          "type": "address"
        }
      ],
      "name": "NewCampaign",
      "type": "event"
    },
    {
      "inputs": [
        {
          "internalType": "address",
          "name": "",
          "type": "address"
        }
      ],
      "name": "campaignNonces",
      "outputs": [
        {
          "internalType": "uint256",
          "name": "",
          "type": "uint256"
        }
      ],
      "stateMutability": "view",
      "type": "function"
    },
    {
      "inputs": [
        {
          "internalType": "contract ISuperToken",
          "name": "streamableToken",
          "type": "address"
        },
        {
          "internalType": "address",
          "name": "campaignOperator",
          "type": "address"
        }
      ],
      "name": "deployNewCampaign",
      "outputs": [],
      "stateMutability": "nonpayable",
      "type": "function"
    },
    {
      "inputs": [
        {
          "internalType": "address",
          "name": "caller",
          "type": "address"
        },
        {
          "internalType": "address",
          "name": "superToken",
          "type": "address"
        },
        {
          "internalType": "address",
          "name": "campaignOperator",
          "type": "address"
        }
      ],
      "name": "getCampaignAddress",
      "outputs": [
        {
          "internalType": "address",
          "name": "",
          "type": "address"
        }
      ],
      "stateMutability": "view",
      "type": "function"
    }
  ],
  "bytecode": {
    "object": "0x608060405234801561001057600080fd5b506113c6806100206000396000f3fe60806040523480156200001157600080fd5b5060043610620000465760003560e01c80631233a106146200004b5780635a70b2ee146200007f578063e9b56bd51462000098575b600080fd5b620000626200005c3660046200044d565b620000ca565b6040516001600160a01b0390911681526020015b60405180910390f35b62000096620000903660046200049f565b62000213565b005b620000bb620000a9366004620004dd565b60006020819052908152604090205481565b60405190815260200162000076565b6001600160a01b0383166000908152602081905260408120548185620000f08362000504565b9250826040516020016200011d92919060609290921b6001600160601b0319168252601482015260340190565b6040516020818303038152906040528051906020012090506000856001600160a01b031663ee719bc86040518163ffffffff1660e01b8152600401602060405180830381865afa15801562000176573d6000803e3d6000fd5b505050506040513d601f19601f820116820180604052508101906200019c91906200052c565b905060006001600160f81b03193084620001b88a868b6200039a565b6040516001600160f81b031994909416602085015260609290921b6001600160601b03191660218401526035830152605582015260750160408051808303601f19018152919052805160209091012098975050505050505050565b336000818152602081905260408120805491620002308362000504565b90915550506001600160a01b0381166000908152602081815260408083205490516001600160601b0319606086901b169281019290925260348201526054016040516020818303038152906040528051906020012090506000846001600160a01b031663ee719bc86040518163ffffffff1660e01b8152600401602060405180830381865afa158015620002c8573d6000803e3d6000fd5b505050506040513d601f19601f82011682018060405250810190620002ee91906200052c565b9050600082868387604051620003049062000426565b6001600160a01b039384168152918316602083015290911660408201526060018190604051809103906000f590508015801562000345573d6000803e3d6000fd5b509050846001600160a01b0316816001600160a01b0316836001600160a01b03167ffe4418529fa6244108a72d5e89125dd7cb807866b093c0eef16f911d72fbc32b60405160405180910390a4505050505050565b600060405180602001620003ae9062000426565b601f1982820381018352601f9091011660408181526001600160a01b038781166020840152868116918301919091528416606082015260800160408051601f19818403018152908290526200040792916020016200057e565b6040516020818303038152906040528051906020012090509392505050565b610df180620005a083390190565b6001600160a01b03811681146200044a57600080fd5b50565b6000806000606084860312156200046357600080fd5b8335620004708162000434565b92506020840135620004828162000434565b91506040840135620004948162000434565b809150509250925092565b60008060408385031215620004b357600080fd5b8235620004c08162000434565b91506020830135620004d28162000434565b809150509250929050565b600060208284031215620004f057600080fd5b8135620004fd8162000434565b9392505050565b6000600182016200052557634e487b7160e01b600052601160045260246000fd5b5060010190565b6000602082840312156200053f57600080fd5b8151620004fd8162000434565b6000815160005b818110156200056f576020818501810151868301520162000553565b50600093019283525090919050565b6000620005976200059083866200054c565b846200054c565b94935050505056fe60c06040523480156200001157600080fd5b5060405162000df138038062000df18339810160408190526200003491620005e5565b6001600160a01b0380841660805282811660a05281166200006857604051631dabc86960e21b815260040160405180910390fd5b60805162000080906001600160a01b0316826200012d565b5060a05160805160405163095ea7b360e01b81526001600160a01b039182166004820152600019602482015291169063095ea7b3906044016020604051808303816000875af1158015620000d8573d6000803e3d6000fd5b505050506040513d601f19601f82011682018060405250810190620000fe919062000639565b50600080546001600160a01b0319166001600160a01b038316179055620001246200026c565b505050620008ba565b600080806200013c8562000419565b91509150816001600160a01b03166339255d5b82836001600160a01b03166354b770e3898960006001600160401b038111156200017d576200017d62000664565b6040519080825280601f01601f191660200182016040528015620001a8576020820181803683370190505b50604051602401620001bd93929190620006ce565b60408051601f19818403018152918152602080830180516001600160e01b031660e095861b179052815160008152908101918290529286901b6001600160e01b031916905262000214939250906024810162000705565b6000604051808303816000875af115801562000234573d6000803e3d6000fd5b505050506040513d6000823e601f3d908101601f191682016040526200025e919081019062000749565b506001925050505b92915050565b60a0516040516370a0823160e01b81523060048201526000916001600160a01b0316906370a0823190602401602060405180830381865afa158015620002b6573d6000803e3d6000fd5b505050506040513d601f19601f82011682018060405250810190620002dc919062000801565b905080600003620002ea5750565b6000612710620002fd8361012c62000831565b6200030991906200084b565b60a05160005460405163a9059cbb60e01b81526001600160a01b03918216600482015260248101849052929350169063a9059cbb906044016020604051808303816000875af115801562000361573d6000803e3d6000fd5b505050506040513d601f19601f8201168201806040525081019062000387919062000639565b620003a55760405163289aef6960e01b815260040160405180910390fd5b6080516001600160a01b03166345977d03620003c283856200086e565b6040518263ffffffff1660e01b8152600401620003e191815260200190565b600060405180830381600087803b158015620003fc57600080fd5b505af115801562000411573d6000803e3d6000fd5b505050505050565b7f65599bf746e17a00ea62e3610586992d88101b78eec3cf380706621fb97ea8375460008051602062000dd1833981519152546001600160a01b03811662000595576001600160a01b038216620004d257826001600160a01b03166320bc44256040518163ffffffff1660e01b8152600401602060405180830381865afa158015620004a9573d6000803e3d6000fd5b505050506040513d601f19601f82011682018060405250810190620004cf919062000884565b91505b604051635b69006f60e11b81527fa9214cc96615e0085d3bb077758db69497dc2dce3b2b1e97bc93c3d18d83efd360048201526001600160a01b0383169063b6d200de90602401602060405180830381865afa15801562000537573d6000803e3d6000fd5b505050506040513d601f19601f820116820180604052508101906200055d919062000884565b9050817f65599bf746e17a00ea62e3610586992d88101b78eec3cf380706621fb97ea837558060008051602062000dd1833981519152555b6001600160a01b038216620005ae57620005ae620008a4565b6001600160a01b038116620005c757620005c7620008a4565b915091565b6001600160a01b0381168114620005e257600080fd5b50565b600080600060608486031215620005fb57600080fd5b83516200060881620005cc565b60208501519093506200061b81620005cc565b60408501519092506200062e81620005cc565b809150509250925092565b6000602082840312156200064c57600080fd5b815180151581146200065d57600080fd5b9392505050565b634e487b7160e01b600052604160045260246000fd5b60005b83811015620006975781810151838201526020016200067d565b50506000910152565b60008151808452620006ba8160208601602086016200067a565b601f01601f19169290920160200192915050565b6001600160a01b03848116825283166020820152606060408201819052600090620006fc90830184620006a0565b95945050505050565b6001600160a01b03841681526060602082018190526000906200072b90830185620006a0565b82810360408401526200073f8185620006a0565b9695505050505050565b6000602082840312156200075c57600080fd5b81516001600160401b03808211156200077457600080fd5b818401915084601f8301126200078957600080fd5b8151818111156200079e576200079e62000664565b604051601f8201601f19908116603f01168101908382118183101715620007c957620007c962000664565b81604052828152876020848701011115620007e357600080fd5b620007f68360208301602088016200067a565b979650505050505050565b6000602082840312156200081457600080fd5b5051919050565b634e487b7160e01b600052601160045260246000fd5b80820281158282048414176200026657620002666200081b565b6000826200086957634e487b7160e01b600052601260045260246000fd5b500490565b818103818111156200026657620002666200081b565b6000602082840312156200089757600080fd5b81516200065d81620005cc565b634e487b7160e01b600052600160045260246000fd5b60805160a0516104de620008f36000396000818160b6015281816101e801526102af0152600081816056015261034301526104de6000f3fe608060405234801561001057600080fd5b506004361061004c5760003560e01c806339cba11f146100515780639e281a9814610094578063d261e43e146100a9578063fc0c546a146100b1575b600080fd5b6100787f000000000000000000000000000000000000000000000000000000000000000081565b6040516001600160a01b03909116815260200160405180910390f35b6100a76100a23660046103c6565b6100d8565b005b6100a761019b565b6100787f000000000000000000000000000000000000000000000000000000000000000081565b6000546001600160a01b0316331461010357604051635fc483c560e01b815260040160405180910390fd5b60005460405163a9059cbb60e01b81526001600160a01b039182166004820152602481018390529083169063a9059cbb906044016020604051808303816000875af1158015610156573d6000803e3d6000fd5b505050506040513d601f19601f8201168201806040525081019061017a91906103fe565b6101975760405163289aef6960e01b815260040160405180910390fd5b5050565b6000546001600160a01b031633146101c657604051635fc483c560e01b815260040160405180910390fd5b6101ce6101d0565b565b6040516370a0823160e01b81523060048201526000907f00000000000000000000000000000000000000000000000000000000000000006001600160a01b0316906370a0823190602401602060405180830381865afa158015610237573d6000803e3d6000fd5b505050506040513d601f19601f8201168201806040525081019061025b9190610427565b9050806000036102685750565b60006127106102798361012c610456565b6102839190610473565b60005460405163a9059cbb60e01b81526001600160a01b039182166004820152602481018390529192507f0000000000000000000000000000000000000000000000000000000000000000169063a9059cbb906044016020604051808303816000875af11580156102f8573d6000803e3d6000fd5b505050506040513d601f19601f8201168201806040525081019061031c91906103fe565b6103395760405163289aef6960e01b815260040160405180910390fd5b6001600160a01b037f0000000000000000000000000000000000000000000000000000000000000000166345977d036103728385610495565b6040518263ffffffff1660e01b815260040161039091815260200190565b600060405180830381600087803b1580156103aa57600080fd5b505af11580156103be573d6000803e3d6000fd5b505050505050565b600080604083850312156103d957600080fd5b82356001600160a01b03811681146103f057600080fd5b946020939093013593505050565b60006020828403121561041057600080fd5b8151801515811461042057600080fd5b9392505050565b60006020828403121561043957600080fd5b5051919050565b634e487b7160e01b600052601160045260246000fd5b808202811582820484141761046d5761046d610440565b92915050565b60008261049057634e487b7160e01b600052601260045260246000fd5b500490565b8181038181111561046d5761046d61044056fea2646970667358221220a9fc65305872a88c8b1e34eada4efe90b02d1983d4753ac10d786f6828b57d6264736f6c63430008130033b969d79d88acd02d04ed7ee7d43b949e7daf093d363abcfbbc43dfdfd1ce969aa264697066735822122002f6fade765911fb30a4cc8b719feff54978c465cbf4ce4b3ddf33a5d82b769264736f6c63430008130033",
    "linkReferences": {}
  },
  "methodIdentifiers": {
    "campaignNonces(address)": "e9b56bd5",
    "deployNewCampaign(address,address)": "5a70b2ee",
    "getCampaignAddress(address,address,address)": "1233a106"
  },
  "id": 106
}