{
  "abi": [
    {
      "inputs": [
        {
          "internalType": "contract ISuperfluid",
          "name": "host",
          "type": "address"
        },
        {
          "internalType": "contract IConstantOutflowNFT",
          "name": "constantOutflowNFT",
          "type": "address"
        },
        {
          "internalType": "string",
          "name": "baseURI",
          "type": "string"
        }
      ],
      "stateMutability": "nonpayable",
      "type": "constructor"
    },
    {
      "inputs": [],
      "name": "CFA_NFT_APPROVE_CALLER_NOT_OWNER_OR_APPROVED_FOR_ALL",
      "type": "error"
    },
    {
      "inputs": [],
      "name": "CFA_NFT_APPROVE_TO_CALLER",
      "type": "error"
    },
    {
      "inputs": [],
      "name": "CFA_NFT_APPROVE_TO_CURRENT_OWNER",
      "type": "error"
    },
    {
      "inputs": [],
      "name": "CFA_NFT_INVALID_TOKEN_ID",
      "type": "error"
    },
    {
      "inputs": [],
      "name": "CFA_NFT_ONLY_SUPER_TOKEN_FACTORY",
      "type": "error"
    },
    {
      "inputs": [],
      "name": "CFA_NFT_TRANSFER_CALLER_NOT_OWNER_OR_APPROVED_FOR_ALL",
      "type": "error"
    },
    {
      "inputs": [],
      "name": "CFA_NFT_TRANSFER_FROM_INCORRECT_OWNER",
      "type": "error"
    },
    {
      "inputs": [],
      "name": "CFA_NFT_TRANSFER_IS_NOT_ALLOWED",
      "type": "error"
    },
    {
      "inputs": [],
      "name": "CFA_NFT_TRANSFER_TO_ZERO_ADDRESS",
      "type": "error"
    },
    {
      "inputs": [],
      "name": "CIF_NFT_ONLY_CONSTANT_OUTFLOW",
      "type": "error"
    },
    {
      "anonymous": false,
      "inputs": [
        {
          "indexed": true,
          "internalType": "address",
          "name": "owner",
          "type": "address"
        },
        {
          "indexed": true,
          "internalType": "address",
          "name": "approved",
          "type": "address"
        },
        {
          "indexed": true,
          "internalType": "uint256",
          "name": "tokenId",
          "type": "uint256"
        }
      ],
      "name": "Approval",
      "type": "event"
    },
    {
      "anonymous": false,
      "inputs": [
        {
          "indexed": true,
          "internalType": "address",
          "name": "owner",
          "type": "address"
        },
        {
          "indexed": true,
          "internalType": "address",
          "name": "operator",
          "type": "address"
        },
        {
          "indexed": false,
          "internalType": "bool",
          "name": "approved",
          "type": "bool"
        }
      ],
      "name": "ApprovalForAll",
      "type": "event"
    },
    {
      "anonymous": false,
      "inputs": [
        {
          "indexed": false,
          "internalType": "bytes32",
          "name": "uuid",
          "type": "bytes32"
        },
        {
          "indexed": false,
          "internalType": "address",
          "name": "codeAddress",
          "type": "address"
        }
      ],
      "name": "CodeUpdated",
      "type": "event"
    },
    {
      "anonymous": false,
      "inputs": [
        {
          "indexed": false,
          "internalType": "uint8",
          "name": "version",
          "type": "uint8"
        }
      ],
      "name": "Initialized",
      "type": "event"
    },
    {
      "anonymous": false,
      "inputs": [
        {
          "indexed": false,
          "internalType": "uint256",
          "name": "tokenId",
          "type": "uint256"
        }
      ],
      "name": "MetadataUpdate",
      "type": "event"
    },
    {
      "anonymous": false,
      "inputs": [
        {
          "indexed": true,
          "internalType": "address",
          "name": "from",
          "type": "address"
        },
        {
          "indexed": true,
          "internalType": "address",
          "name": "to",
          "type": "address"
        },
        {
          "indexed": true,
          "internalType": "uint256",
          "name": "tokenId",
          "type": "uint256"
        }
      ],
      "name": "Transfer",
      "type": "event"
    },
    {
      "inputs": [],
      "name": "CONSTANT_FLOW_AGREEMENT_V1",
      "outputs": [
        {
          "internalType": "contract IConstantFlowAgreementV1",
          "name": "",
          "type": "address"
        }
      ],
      "stateMutability": "view",
      "type": "function"
    },
    {
      "inputs": [],
      "name": "CONSTANT_OUTFLOW_NFT",
      "outputs": [
        {
          "internalType": "contract IConstantOutflowNFT",
          "name": "",
          "type": "address"
        }
      ],
      "stateMutability": "view",
      "type": "function"
    },
    {
      "inputs": [],
      "name": "HOST",
      "outputs": [
        {
          "internalType": "contract ISuperfluid",
          "name": "",
          "type": "address"
        }
      ],
      "stateMutability": "view",
      "type": "function"
    },
    {
      "inputs": [
        {
          "internalType": "address",
          "name": "to",
          "type": "address"
        },
        {
          "internalType": "uint256",
          "name": "tokenId",
          "type": "uint256"
        }
      ],
      "name": "approve",
      "outputs": [],
      "stateMutability": "nonpayable",
      "type": "function"
    },
    {
      "inputs": [
        {
          "internalType": "address",
          "name": "",
          "type": "address"
        }
      ],
      "name": "balanceOf",
      "outputs": [
        {
          "internalType": "uint256",
          "name": "balance",
          "type": "uint256"
        }
      ],
      "stateMutability": "pure",
      "type": "function"
    },
    {
      "inputs": [
        {
          "internalType": "uint256",
          "name": "tokenId",
          "type": "uint256"
        }
      ],
      "name": "burn",
      "outputs": [],
      "stateMutability": "nonpayable",
      "type": "function"
    },
    {
      "inputs": [],
      "name": "castrate",
      "outputs": [],
      "stateMutability": "nonpayable",
      "type": "function"
    },
    {
      "inputs": [
        {
          "internalType": "uint256",
          "name": "tokenId",
          "type": "uint256"
        }
      ],
      "name": "flowDataByTokenId",
      "outputs": [
        {
          "components": [
            {
              "internalType": "address",
              "name": "superToken",
              "type": "address"
            },
            {
              "internalType": "address",
              "name": "flowSender",
              "type": "address"
            },
            {
              "internalType": "address",
              "name": "flowReceiver",
              "type": "address"
            },
            {
              "internalType": "uint32",
              "name": "flowStartDate",
              "type": "uint32"
            }
          ],
          "internalType": "struct IFlowNFTBase.FlowNFTData",
          "name": "flowData",
          "type": "tuple"
        }
      ],
      "stateMutability": "view",
      "type": "function"
    },
    {
      "inputs": [
        {
          "internalType": "uint256",
          "name": "tokenId",
          "type": "uint256"
        }
      ],
      "name": "getApproved",
      "outputs": [
        {
          "internalType": "address",
          "name": "",
          "type": "address"
        }
      ],
      "stateMutability": "view",
      "type": "function"
    },
    {
      "inputs": [],
      "name": "getCodeAddress",
      "outputs": [
        {
          "internalType": "address",
          "name": "codeAddress",
          "type": "address"
        }
      ],
      "stateMutability": "view",
      "type": "function"
    },
    {
      "inputs": [
        {
          "internalType": "address",
          "name": "superToken",
          "type": "address"
        },
        {
          "internalType": "address",
          "name": "sender",
          "type": "address"
        },
        {
          "internalType": "address",
          "name": "receiver",
          "type": "address"
        }
      ],
      "name": "getTokenId",
      "outputs": [
        {
          "internalType": "uint256",
          "name": "tokenId",
          "type": "uint256"
        }
      ],
      "stateMutability": "view",
      "type": "function"
    },
    {
      "inputs": [
        {
          "internalType": "string",
          "name": "nftName",
          "type": "string"
        },
        {
          "internalType": "string",
          "name": "nftSymbol",
          "type": "string"
        }
      ],
      "name": "initialize",
      "outputs": [],
      "stateMutability": "nonpayable",
      "type": "function"
    },
    {
      "inputs": [
        {
          "internalType": "address",
          "name": "owner",
          "type": "address"
        },
        {
          "internalType": "address",
          "name": "operator",
          "type": "address"
        }
      ],
      "name": "isApprovedForAll",
      "outputs": [
        {
          "internalType": "bool",
          "name": "",
          "type": "bool"
        }
      ],
      "stateMutability": "view",
      "type": "function"
    },
    {
      "inputs": [
        {
          "internalType": "address",
          "name": "to",
          "type": "address"
        },
        {
          "internalType": "uint256",
          "name": "newTokenId",
          "type": "uint256"
        }
      ],
      "name": "mint",
      "outputs": [],
      "stateMutability": "nonpayable",
      "type": "function"
    },
    {
      "inputs": [],
      "name": "name",
      "outputs": [
        {
          "internalType": "string",
          "name": "",
          "type": "string"
        }
      ],
      "stateMutability": "view",
      "type": "function"
    },
    {
      "inputs": [
        {
          "internalType": "uint256",
          "name": "tokenId",
          "type": "uint256"
        }
      ],
      "name": "ownerOf",
      "outputs": [
        {
          "internalType": "address",
          "name": "",
          "type": "address"
        }
      ],
      "stateMutability": "view",
      "type": "function"
    },
    {
      "inputs": [],
      "name": "proxiableUUID",
      "outputs": [
        {
          "internalType": "bytes32",
          "name": "",
          "type": "bytes32"
        }
      ],
      "stateMutability": "pure",
      "type": "function"
    },
    {
      "inputs": [
        {
          "internalType": "address",
          "name": "from",
          "type": "address"
        },
        {
          "internalType": "address",
          "name": "to",
          "type": "address"
        },
        {
          "internalType": "uint256",
          "name": "tokenId",
          "type": "uint256"
        }
      ],
      "name": "safeTransferFrom",
      "outputs": [],
      "stateMutability": "nonpayable",
      "type": "function"
    },
    {
      "inputs": [
        {
          "internalType": "address",
          "name": "from",
          "type": "address"
        },
        {
          "internalType": "address",
          "name": "to",
          "type": "address"
        },
        {
          "internalType": "uint256",
          "name": "tokenId",
          "type": "uint256"
        },
        {
          "internalType": "bytes",
          "name": "data",
          "type": "bytes"
        }
      ],
      "name": "safeTransferFrom",
      "outputs": [],
      "stateMutability": "nonpayable",
      "type": "function"
    },
    {
      "inputs": [
        {
          "internalType": "address",
          "name": "operator",
          "type": "address"
        },
        {
          "internalType": "bool",
          "name": "approved",
          "type": "bool"
        }
      ],
      "name": "setApprovalForAll",
      "outputs": [],
      "stateMutability": "nonpayable",
      "type": "function"
    },
    {
      "inputs": [
        {
          "internalType": "bytes4",
          "name": "interfaceId",
          "type": "bytes4"
        }
      ],
      "name": "supportsInterface",
      "outputs": [
        {
          "internalType": "bool",
          "name": "",
          "type": "bool"
        }
      ],
      "stateMutability": "pure",
      "type": "function"
    },
    {
      "inputs": [],
      "name": "symbol",
      "outputs": [
        {
          "internalType": "string",
          "name": "",
          "type": "string"
        }
      ],
      "stateMutability": "view",
      "type": "function"
    },
    {
      "inputs": [
        {
          "internalType": "uint256",
          "name": "tokenId",
          "type": "uint256"
        }
      ],
      "name": "tokenURI",
      "outputs": [
        {
          "internalType": "string",
          "name": "",
          "type": "string"
        }
      ],
      "stateMutability": "view",
      "type": "function"
    },
    {
      "inputs": [
        {
          "internalType": "address",
          "name": "from",
          "type": "address"
        },
        {
          "internalType": "address",
          "name": "to",
          "type": "address"
        },
        {
          "internalType": "uint256",
          "name": "tokenId",
          "type": "uint256"
        }
      ],
      "name": "transferFrom",
      "outputs": [],
      "stateMutability": "nonpayable",
      "type": "function"
    },
    {
      "inputs": [
        {
          "internalType": "uint256",
          "name": "tokenId",
          "type": "uint256"
        }
      ],
      "name": "triggerMetadataUpdate",
      "outputs": [],
      "stateMutability": "nonpayable",
      "type": "function"
    },
    {
      "inputs": [
        {
          "internalType": "address",
          "name": "newAddress",
          "type": "address"
        }
      ],
      "name": "updateCode",
      "outputs": [],
      "stateMutability": "nonpayable",
      "type": "function"
    }
  ],
  "bytecode": {
    "object": "0x60e06040523480156200001157600080fd5b506040516200237d3803806200237d833981016040819052620000349162000127565b6001600160a01b03831660a0819052604051635b69006f60e11b81527fa9214cc96615e0085d3bb077758db69497dc2dce3b2b1e97bc93c3d18d83efd360048201528491839163b6d200de90602401602060405180830381865afa158015620000a1573d6000803e3d6000fd5b505050506040513d601f19601f82011682018060405250810190620000c7919062000227565b6001600160a01b03166080526003620000e18282620002dd565b505050506001600160a01b031660c05250620003a9565b6001600160a01b03811681146200010e57600080fd5b50565b634e487b7160e01b600052604160045260246000fd5b6000806000606084860312156200013d57600080fd5b83516200014a81620000f8565b809350506020808501516200015f81620000f8565b60408601519093506001600160401b03808211156200017d57600080fd5b818701915087601f8301126200019257600080fd5b815181811115620001a757620001a762000111565b604051601f8201601f19908116603f01168101908382118183101715620001d257620001d262000111565b816040528281528a86848701011115620001eb57600080fd5b600093505b828410156200020f5784840186015181850187015292850192620001f0565b60008684830101528096505050505050509250925092565b6000602082840312156200023a57600080fd5b81516200024781620000f8565b9392505050565b600181811c908216806200026357607f821691505b6020821081036200028457634e487b7160e01b600052602260045260246000fd5b50919050565b601f821115620002d857600081815260208120601f850160051c81016020861015620002b35750805b601f850160051c820191505b81811015620002d457828155600101620002bf565b5050505b505050565b81516001600160401b03811115620002f957620002f962000111565b62000311816200030a84546200024e565b846200028a565b602080601f831160018114620003495760008415620003305750858301515b600019600386901b1c1916600185901b178555620002d4565b600085815260208120601f198616915b828110156200037a5788860151825594840194600190910190840162000359565b5085821015620003995787850151600019600388901b60f8161c191681555b5050505050600190811b01905550565b60805160a05160c051611f81620003fc6000396000818161040f0152818161061101528181610683015261095d0152600081816102ae01526106ce015260008181610215015261104d0152611f816000f3fe608060405234801561001057600080fd5b506004361061018e5760003560e01c806350d75d25116100de57806395d89b4111610097578063b88d4fde11610071578063b88d4fde146103d1578063c87b56dd146103e4578063e985e9c5146103f7578063ef43d2c61461040a57600080fd5b806395d89b41146103ae5780639903ad38146103b6578063a22cb465146103be57600080fd5b806350d75d25146102e357806352d1902d146102eb5780636352211e1461031b57806370a082311461032e57806389f71d2d146103425780638d47859e1461035557600080fd5b80632f3885601161014b57806342966c681161012557806342966c6814610283578063469519541461029657806349f289dc146102a95780634cd88b76146102d057600080fd5b80632f3885601461024a57806340c10f191461025d57806342842e0e1461027057600080fd5b806301ffc9a71461019357806306fdde03146101bb578063081812fc146101d0578063095ea7b3146101fb578063181561011461021057806323b872dd14610237575b600080fd5b6101a66101a13660046115f8565b610431565b60405190151581526020015b60405180910390f35b6101c3610483565b6040516101b29190611646565b6101e36101de366004611679565b610515565b6040516001600160a01b0390911681526020016101b2565b61020e6102093660046116a7565b61053c565b005b6101e37f000000000000000000000000000000000000000000000000000000000000000081565b61020e6102453660046116d3565b6105c8565b61020e610258366004611679565b6105fa565b61020e61026b3660046116a7565b610606565b61020e61027e3660046116d3565b61065d565b61020e610291366004611679565b610678565b61020e6102a4366004611714565b6106ca565b6101e37f000000000000000000000000000000000000000000000000000000000000000081565b61020e6102de3660046117fe565b610782565b6101e3610868565b7f9a61ea3469d742a522f41a67608e442d2c27902bed81123f00ba6d3e12e9871e5b6040519081526020016101b2565b6101e3610329366004611679565b610897565b61030d61033c366004611714565b50600190565b61030d610350366004611862565b6108cc565b610368610363366004611679565b61091f565b6040805182516001600160a01b03908116825260208085015182169083015283830151169181019190915260609182015163ffffffff16918101919091526080016101b2565b6101c36109c8565b61020e6109d7565b61020e6103cc3660046118ad565b610a99565b61020e6103df3660046118eb565b610aa4565b6101c36103f2366004611679565b610add565b6101a661040536600461196b565b610aea565b6101e37f000000000000000000000000000000000000000000000000000000000000000081565b60006301ffc9a760e01b6001600160e01b03198316148061046257506380ac58cd60e01b6001600160e01b03198316145b8061047d5750635b5e139f60e01b6001600160e01b03198316145b92915050565b60606001805461049290611999565b80601f01602080910402602001604051908101604052809291908181526020018280546104be90611999565b801561050b5780601f106104e05761010080835404028352916020019161050b565b820191906000526020600020905b8154815290600101906020018083116104ee57829003601f168201915b5050505050905090565b600061052082610b18565b506000908152600460205260409020546001600160a01b031690565b600061054782610897565b9050806001600160a01b0316836001600160a01b03160361057b5760405163e4790b2560e01b815260040160405180910390fd5b336001600160a01b0382161480159061059b57506105998133610aea565b155b156105b95760405163519a92c160e11b815260040160405180910390fd5b6105c38383610b3e565b505050565b6105d23382610bac565b6105ef576040516312a8eb0360e11b815260040160405180910390fd5b6105c3838383610c0a565b61060381610c23565b50565b336001600160a01b037f0000000000000000000000000000000000000000000000000000000000000000161461064f5760405163740f7abd60e11b815260040160405180910390fd5b6106598282610c53565b5050565b6105c383838360405180602001604052806000815250610aa4565b336001600160a01b037f000000000000000000000000000000000000000000000000000000000000000016146106c15760405163740f7abd60e11b815260040160405180910390fd5b61060381610c8f565b60007f00000000000000000000000000000000000000000000000000000000000000006001600160a01b031663731aed6e6040518163ffffffff1660e01b8152600401602060405180830381865afa15801561072a573d6000803e3d6000fd5b505050506040513d601f19601f8201168201806040525081019061074e91906119d3565b9050336001600160a01b038216146107795760405163ebb7505b60e01b815260040160405180910390fd5b61065982610d02565b600054610100900460ff16158080156107a25750600054600160ff909116105b806107bc5750303b1580156107bc575060005460ff166001145b6107e15760405162461bcd60e51b81526004016107d8906119f0565b60405180910390fd5b6000805460ff191660011790558015610804576000805461ff0019166101001790555b60016108108482611a8c565b50600261081d8382611a8c565b5080156105c3576000805461ff0019169055604051600181527f7f26b83ff96e1f2b6a682f133852f6798a09c465da95921460cefb38474024989060200160405180910390a1505050565b60006108927f360894a13ba1a3210667c828492db98dca3e2076cc3735a920a3ca505d382bbc5490565b905090565b6000806108a383610f3c565b90506001600160a01b03811661047d5760405163eab95e3b60e01b815260040160405180910390fd5b60408051466020808301919091526001600160a01b0380871683850152808616606084015284166080808401919091528351808403909101815260a090920190925280519101206000905b949350505050565b60408051608081018252600080825260208201819052818301819052606082015290516346a3c2cf60e11b8152600481018390526001600160a01b037f00000000000000000000000000000000000000000000000000000000000000001690638d47859e90602401608060405180830381865afa1580156109a4573d6000803e3d6000fd5b505050506040513d601f19601f8201168201806040525081019061047d9190611b4c565b60606002805461049290611999565b600054610100900460ff16158080156109f75750600054600160ff909116105b80610a115750303b158015610a11575060005460ff166001145b610a2d5760405162461bcd60e51b81526004016107d8906119f0565b6000805460ff191660011790558015610a50576000805461ff0019166101001790555b8015610603576000805461ff0019169055604051600181527f7f26b83ff96e1f2b6a682f133852f6798a09c465da95921460cefb3847402498906020015b60405180910390a150565b610659338383610f53565b610aae3383610bac565b610acb576040516312a8eb0360e11b815260040160405180910390fd5b610ad784848484610ff2565b50505050565b606061047d826001610ffd565b6001600160a01b03918216600090815260056020908152604080832093909416825291909152205460ff1690565b610b2181611152565b6106035760405163eab95e3b60e01b815260040160405180910390fd5b600081815260046020526040902080546001600160a01b0319166001600160a01b0384169081179091558190610b7382610f3c565b6001600160a01b03167f8c5be1e5ebec7d5bd14f71427d1e84f3dd0314c0f7b2291e5b200ac8c7c3b92560405160405180910390a45050565b600080610bb883610897565b9050806001600160a01b0316846001600160a01b03161480610bdf5750610bdf8185610aea565b806109175750836001600160a01b0316610bf884610515565b6001600160a01b031614949350505050565b60405163553a3f6560e11b815260040160405180910390fd5b6040518181527ff8e1a15aba9398e019f0b49df1a4fde98ee17ae345cb5f6b5e2c27f5033e8ce790602001610a8e565b60405181906001600160a01b038416906000907fddf252ad1be2c89b69c2b068fc378daa952ba7f163c4a11628f55a4df523b3ef908290a45050565b6000610c9a8261091f565b600083815260046020526040902080546001600160a01b031916905590508160006001600160a01b031682604001516001600160a01b03167fddf252ad1be2c89b69c2b068fc378daa952ba7f163c4a11628f55a4df523b3ef60405160405180910390a45050565b6000610d2c7f360894a13ba1a3210667c828492db98dca3e2076cc3735a920a3ca505d382bbc5490565b6001600160a01b031603610d825760405162461bcd60e51b815260206004820152601d60248201527f5555505350726f786961626c653a206e6f742075706772616461626c6500000060448201526064016107d8565b806001600160a01b03166352d1902d6040518163ffffffff1660e01b8152600401602060405180830381865afa158015610dc0573d6000803e3d6000fd5b505050506040513d601f19601f82011682018060405250810190610de49190611bda565b7f9a61ea3469d742a522f41a67608e442d2c27902bed81123f00ba6d3e12e9871e14610e5e5760405162461bcd60e51b815260206004820152602360248201527f5555505350726f786961626c653a206e6f7420636f6d70617469626c65206c6f60448201526267696360e81b60648201526084016107d8565b6001600160a01b0381163003610eb65760405162461bcd60e51b815260206004820152601960248201527f5555505350726f786961626c653a2070726f7879206c6f6f700000000000000060448201526064016107d8565b610ede817f360894a13ba1a3210667c828492db98dca3e2076cc3735a920a3ca505d382bbc55565b7fe011bc04c286c344a8fcbb8de77f953da762c3e25d8cdea984147fc4168a5dcc7f9a61ea3469d742a522f41a67608e442d2c27902bed81123f00ba6d3e12e9871e604080519182526001600160a01b038416602083015201610a8e565b600080610f488361091f565b604001519392505050565b816001600160a01b0316836001600160a01b031603610f855760405163d3c7732960e01b815260040160405180910390fd5b6001600160a01b03838116600081815260056020908152604080832094871680845294825291829020805460ff191686151590811790915591519182527f17307eab39ab6107e8899845ad3d59bd9653f200f220920489ca2b5937696c31910160405180910390a3505050565b610ad7848484610c0a565b6060600061100a8461091f565b805160208201516040808401519051631cd43d1160e31b81526001600160a01b0380851660048301529283166024820152908216604482015292935090916000917f0000000000000000000000000000000000000000000000000000000000000000169063e6a1e88890606401608060405180830381865afa158015611094573d6000803e3d6000fd5b505050506040513d601f19601f820116820180604052508101906110b89190611bf3565b505091505060036110c88761116f565b6110df836bffffffffffffffffffffffff166112ea565b87611107576040518060400160405280600581526020016466616c736560d81b815250611125565b604051806040016040528060048152602001637472756560e01b8152505b6040516020016111389493929190611c53565b604051602081830303815290604052935050505092915050565b60008061115e83610f3c565b6001600160a01b0316141592915050565b6060600061117c8361091f565b905061119681600001516001600160a01b0316601461137d565b61119f466112ea565b82600001516001600160a01b03166395d89b416040518163ffffffff1660e01b8152600401600060405180830381865afa1580156111e1573d6000803e3d6000fd5b505050506040513d6000823e601f3d908101601f191682016040526112099190810190611d1f565b61122184602001516001600160a01b0316601461137d565b61123985604001516001600160a01b0316601461137d565b6112aa86600001516001600160a01b031663313ce5676040518163ffffffff1660e01b8152600401602060405180830381865afa15801561127e573d6000803e3d6000fd5b505050506040513d601f19601f820116820180604052508101906112a29190611d96565b60ff166112ea565b6112bd876060015163ffffffff166112ea565b6040516020016112d39796959493929190611db9565b604051602081830303815290604052915050919050565b606060006112f783611520565b600101905060008167ffffffffffffffff81111561131757611317611731565b6040519080825280601f01601f191660200182016040528015611341576020820181803683370190505b5090508181016020015b600019016f181899199a1a9b1b9c1cb0b131b232b360811b600a86061a8153600a850494508461134b57509392505050565b6060600061138c836002611ef4565b611397906002611f0b565b67ffffffffffffffff8111156113af576113af611731565b6040519080825280601f01601f1916602001820160405280156113d9576020820181803683370190505b509050600360fc1b816000815181106113f4576113f4611f1e565b60200101906001600160f81b031916908160001a905350600f60fb1b8160018151811061142357611423611f1e565b60200101906001600160f81b031916908160001a9053506000611447846002611ef4565b611452906001611f0b565b90505b60018111156114ca576f181899199a1a9b1b9c1cb0b131b232b360811b85600f166010811061148657611486611f1e565b1a60f81b82828151811061149c5761149c611f1e565b60200101906001600160f81b031916908160001a90535060049490941c936114c381611f34565b9050611455565b5083156115195760405162461bcd60e51b815260206004820181905260248201527f537472696e67733a20686578206c656e67746820696e73756666696369656e7460448201526064016107d8565b9392505050565b60008072184f03e93ff9f4daa797ed6e38ed64bf6a1f0160401b831061155f5772184f03e93ff9f4daa797ed6e38ed64bf6a1f0160401b830492506040015b6d04ee2d6d415b85acef8100000000831061158b576d04ee2d6d415b85acef8100000000830492506020015b662386f26fc1000083106115a957662386f26fc10000830492506010015b6305f5e10083106115c1576305f5e100830492506008015b61271083106115d557612710830492506004015b606483106115e7576064830492506002015b600a831061047d5760010192915050565b60006020828403121561160a57600080fd5b81356001600160e01b03198116811461151957600080fd5b60005b8381101561163d578181015183820152602001611625565b50506000910152565b6020815260008251806020840152611665816040850160208701611622565b601f01601f19169190910160400192915050565b60006020828403121561168b57600080fd5b5035919050565b6001600160a01b038116811461060357600080fd5b600080604083850312156116ba57600080fd5b82356116c581611692565b946020939093013593505050565b6000806000606084860312156116e857600080fd5b83356116f381611692565b9250602084013561170381611692565b929592945050506040919091013590565b60006020828403121561172657600080fd5b813561151981611692565b634e487b7160e01b600052604160045260246000fd5b604051601f8201601f1916810167ffffffffffffffff8111828210171561177057611770611731565b604052919050565b600067ffffffffffffffff82111561179257611792611731565b50601f01601f191660200190565b60006117b36117ae84611778565b611747565b90508281528383830111156117c757600080fd5b828260208301376000602084830101529392505050565b600082601f8301126117ef57600080fd5b611519838335602085016117a0565b6000806040838503121561181157600080fd5b823567ffffffffffffffff8082111561182957600080fd5b611835868387016117de565b9350602085013591508082111561184b57600080fd5b50611858858286016117de565b9150509250929050565b60008060006060848603121561187757600080fd5b833561188281611692565b9250602084013561189281611692565b915060408401356118a281611692565b809150509250925092565b600080604083850312156118c057600080fd5b82356118cb81611692565b9150602083013580151581146118e057600080fd5b809150509250929050565b6000806000806080858703121561190157600080fd5b843561190c81611692565b9350602085013561191c81611692565b925060408501359150606085013567ffffffffffffffff81111561193f57600080fd5b8501601f8101871361195057600080fd5b61195f878235602084016117a0565b91505092959194509250565b6000806040838503121561197e57600080fd5b823561198981611692565b915060208301356118e081611692565b600181811c908216806119ad57607f821691505b6020821081036119cd57634e487b7160e01b600052602260045260246000fd5b50919050565b6000602082840312156119e557600080fd5b815161151981611692565b6020808252602e908201527f496e697469616c697a61626c653a20636f6e747261637420697320616c72656160408201526d191e481a5b9a5d1a585b1a5e995960921b606082015260800190565b601f8211156105c357600081815260208120601f850160051c81016020861015611a655750805b601f850160051c820191505b81811015611a8457828155600101611a71565b505050505050565b815167ffffffffffffffff811115611aa657611aa6611731565b611aba81611ab48454611999565b84611a3e565b602080601f831160018114611aef5760008415611ad75750858301515b600019600386901b1c1916600185901b178555611a84565b600085815260208120601f198616915b82811015611b1e57888601518255948401946001909101908401611aff565b5085821015611b3c5787850151600019600388901b60f8161c191681555b5050505050600190811b01905550565b600060808284031215611b5e57600080fd5b6040516080810181811067ffffffffffffffff82111715611b8157611b81611731565b6040528251611b8f81611692565b81526020830151611b9f81611692565b60208201526040830151611bb281611692565b6040820152606083015163ffffffff81168114611bce57600080fd5b60608201529392505050565b600060208284031215611bec57600080fd5b5051919050565b60008060008060808587031215611c0957600080fd5b84519350602085015180600b0b8114611c2157600080fd5b6040860151606090960151949790965092505050565b60008151611c49818560208601611622565b9290920192915050565b6000808654611c6181611999565b60018281168015611c795760018114611c8e57611cbd565b60ff1984168752821515830287019450611cbd565b8a60005260208060002060005b85811015611cb45781548a820152908401908201611c9b565b50505082870194505b505050508551611cd1818360208a01611622565b6926666c6f77526174653d60b01b9101908152611d14611d0e611cf7600a840188611c37565b6a2669735f696e666c6f773d60a81b8152600b0190565b85611c37565b979650505050505050565b600060208284031215611d3157600080fd5b815167ffffffffffffffff811115611d4857600080fd5b8201601f81018413611d5957600080fd5b8051611d676117ae82611778565b818152856020838501011115611d7c57600080fd5b611d8d826020830160208601611622565b95945050505050565b600060208284031215611da857600080fd5b815160ff8116811461151957600080fd5b6e26746f6b656e5f616464726573733d60881b815260008851611de381600f850160208d01611622565b693f636861696e5f69643d60b01b600f918401918201528851611e0d816019840160208d01611622565b6d26746f6b656e5f73796d626f6c3d60901b601992909101918201528751611e3c816027840160208c01611622565b672673656e6465723d60c01b602792909101918201528651611e6581602f840160208b01611622565b692672656365697665723d60b01b602f9290910191820152611ed0611d0e611eb8611eb2611e96603986018b611c37565b6f26746f6b656e5f646563696d616c733d60801b815260100190565b88611c37565b6b2673746172745f646174653d60a01b8152600c0190565b9a9950505050505050505050565b634e487b7160e01b600052601160045260246000fd5b808202811582820484141761047d5761047d611ede565b8082018082111561047d5761047d611ede565b634e487b7160e01b600052603260045260246000fd5b600081611f4357611f43611ede565b50600019019056fea2646970667358221220f2434a3a977141033955ac999f59d833944de31db076e0e4bb41a94b6f86dd8264736f6c63430008130033",
    "linkReferences": {}
  },
  "methodIdentifiers": {
    "CONSTANT_FLOW_AGREEMENT_V1()": "18156101",
    "CONSTANT_OUTFLOW_NFT()": "ef43d2c6",
    "HOST()": "49f289dc",
    "approve(address,uint256)": "095ea7b3",
    "balanceOf(address)": "70a08231",
    "burn(uint256)": "42966c68",
    "castrate()": "9903ad38",
    "flowDataByTokenId(uint256)": "8d47859e",
    "getApproved(uint256)": "081812fc",
    "getCodeAddress()": "50d75d25",
    "getTokenId(address,address,address)": "89f71d2d",
    "initialize(string,string)": "4cd88b76",
    "isApprovedForAll(address,address)": "e985e9c5",
    "mint(address,uint256)": "40c10f19",
    "name()": "06fdde03",
    "ownerOf(uint256)": "6352211e",
    "proxiableUUID()": "52d1902d",
    "safeTransferFrom(address,address,uint256)": "42842e0e",
    "safeTransferFrom(address,address,uint256,bytes)": "b88d4fde",
    "setApprovalForAll(address,bool)": "a22cb465",
    "supportsInterface(bytes4)": "01ffc9a7",
    "symbol()": "95d89b41",
    "tokenURI(uint256)": "c87b56dd",
    "transferFrom(address,address,uint256)": "23b872dd",
    "triggerMetadataUpdate(uint256)": "2f388560",
    "updateCode(address)": "46951954"
  },
  "id": 84
}