{
  "abi": [
    {
      "inputs": [
        {
          "internalType": "contract ISuperfluid",
          "name": "host",
          "type": "address"
        },
        {
          "internalType": "contract IConstantInflowNFT",
          "name": "constantInflowNFT",
          "type": "address"
        },
        {
          "internalType": "string",
          "name": "baseURI",
          "type": "string"
        }
      ],
      "stateMutability": "nonpayable",
      "type": "constructor"
    },
    {
      "inputs": [],
      "name": "CFA_NFT_APPROVE_CALLER_NOT_OWNER_OR_APPROVED_FOR_ALL",
      "type": "error"
    },
    {
      "inputs": [],
      "name": "CFA_NFT_APPROVE_TO_CALLER",
      "type": "error"
    },
    {
      "inputs": [],
      "name": "CFA_NFT_APPROVE_TO_CURRENT_OWNER",
      "type": "error"
    },
    {
      "inputs": [],
      "name": "CFA_NFT_INVALID_TOKEN_ID",
      "type": "error"
    },
    {
      "inputs": [],
      "name": "CFA_NFT_ONLY_SUPER_TOKEN_FACTORY",
      "type": "error"
    },
    {
      "inputs": [],
      "name": "CFA_NFT_TRANSFER_CALLER_NOT_OWNER_OR_APPROVED_FOR_ALL",
      "type": "error"
    },
    {
      "inputs": [],
      "name": "CFA_NFT_TRANSFER_FROM_INCORRECT_OWNER",
      "type": "error"
    },
    {
      "inputs": [],
      "name": "CFA_NFT_TRANSFER_IS_NOT_ALLOWED",
      "type": "error"
    },
    {
      "inputs": [],
      "name": "CFA_NFT_TRANSFER_TO_ZERO_ADDRESS",
      "type": "error"
    },
    {
      "inputs": [],
      "name": "COF_NFT_INVALID_SUPER_TOKEN",
      "type": "error"
    },
    {
      "inputs": [],
      "name": "COF_NFT_MINT_TO_AND_FLOW_RECEIVER_SAME",
      "type": "error"
    },
    {
      "inputs": [],
      "name": "COF_NFT_MINT_TO_ZERO_ADDRESS",
      "type": "error"
    },
    {
      "inputs": [],
      "name": "COF_NFT_ONLY_CONSTANT_INFLOW",
      "type": "error"
    },
    {
      "inputs": [],
      "name": "COF_NFT_ONLY_FLOW_AGREEMENTS",
      "type": "error"
    },
    {
      "inputs": [],
      "name": "COF_NFT_TOKEN_ALREADY_EXISTS",
      "type": "error"
    },
    {
      "anonymous": false,
      "inputs": [
        {
          "indexed": true,
          "internalType": "address",
          "name": "owner",
          "type": "address"
        },
        {
          "indexed": true,
          "internalType": "address",
          "name": "approved",
          "type": "address"
        },
        {
          "indexed": true,
          "internalType": "uint256",
          "name": "tokenId",
          "type": "uint256"
        }
      ],
      "name": "Approval",
      "type": "event"
    },
    {
      "anonymous": false,
      "inputs": [
        {
          "indexed": true,
          "internalType": "address",
          "name": "owner",
          "type": "address"
        },
        {
          "indexed": true,
          "internalType": "address",
          "name": "operator",
          "type": "address"
        },
        {
          "indexed": false,
          "internalType": "bool",
          "name": "approved",
          "type": "bool"
        }
      ],
      "name": "ApprovalForAll",
      "type": "event"
    },
    {
      "anonymous": false,
      "inputs": [
        {
          "indexed": false,
          "internalType": "bytes32",
          "name": "uuid",
          "type": "bytes32"
        },
        {
          "indexed": false,
          "internalType": "address",
          "name": "codeAddress",
          "type": "address"
        }
      ],
      "name": "CodeUpdated",
      "type": "event"
    },
    {
      "anonymous": false,
      "inputs": [
        {
          "indexed": false,
          "internalType": "uint8",
          "name": "version",
          "type": "uint8"
        }
      ],
      "name": "Initialized",
      "type": "event"
    },
    {
      "anonymous": false,
      "inputs": [
        {
          "indexed": false,
          "internalType": "uint256",
          "name": "tokenId",
          "type": "uint256"
        }
      ],
      "name": "MetadataUpdate",
      "type": "event"
    },
    {
      "anonymous": false,
      "inputs": [
        {
          "indexed": true,
          "internalType": "address",
          "name": "from",
          "type": "address"
        },
        {
          "indexed": true,
          "internalType": "address",
          "name": "to",
          "type": "address"
        },
        {
          "indexed": true,
          "internalType": "uint256",
          "name": "tokenId",
          "type": "uint256"
        }
      ],
      "name": "Transfer",
      "type": "event"
    },
    {
      "inputs": [],
      "name": "CONSTANT_FLOW_AGREEMENT_V1",
      "outputs": [
        {
          "internalType": "contract IConstantFlowAgreementV1",
          "name": "",
          "type": "address"
        }
      ],
      "stateMutability": "view",
      "type": "function"
    },
    {
      "inputs": [],
      "name": "CONSTANT_INFLOW_NFT",
      "outputs": [
        {
          "internalType": "contract IConstantInflowNFT",
          "name": "",
          "type": "address"
        }
      ],
      "stateMutability": "view",
      "type": "function"
    },
    {
      "inputs": [],
      "name": "HOST",
      "outputs": [
        {
          "internalType": "contract ISuperfluid",
          "name": "",
          "type": "address"
        }
      ],
      "stateMutability": "view",
      "type": "function"
    },
    {
      "inputs": [
        {
          "internalType": "address",
          "name": "to",
          "type": "address"
        },
        {
          "internalType": "uint256",
          "name": "tokenId",
          "type": "uint256"
        }
      ],
      "name": "approve",
      "outputs": [],
      "stateMutability": "nonpayable",
      "type": "function"
    },
    {
      "inputs": [
        {
          "internalType": "address",
          "name": "",
          "type": "address"
        }
      ],
      "name": "balanceOf",
      "outputs": [
        {
          "internalType": "uint256",
          "name": "balance",
          "type": "uint256"
        }
      ],
      "stateMutability": "pure",
      "type": "function"
    },
    {
      "inputs": [],
      "name": "castrate",
      "outputs": [],
      "stateMutability": "nonpayable",
      "type": "function"
    },
    {
      "inputs": [
        {
          "internalType": "uint256",
          "name": "tokenId",
          "type": "uint256"
        }
      ],
      "name": "flowDataByTokenId",
      "outputs": [
        {
          "components": [
            {
              "internalType": "address",
              "name": "superToken",
              "type": "address"
            },
            {
              "internalType": "address",
              "name": "flowSender",
              "type": "address"
            },
            {
              "internalType": "address",
              "name": "flowReceiver",
              "type": "address"
            },
            {
              "internalType": "uint32",
              "name": "flowStartDate",
              "type": "uint32"
            }
          ],
          "internalType": "struct IFlowNFTBase.FlowNFTData",
          "name": "flowData",
          "type": "tuple"
        }
      ],
      "stateMutability": "view",
      "type": "function"
    },
    {
      "inputs": [
        {
          "internalType": "uint256",
          "name": "tokenId",
          "type": "uint256"
        }
      ],
      "name": "getApproved",
      "outputs": [
        {
          "internalType": "address",
          "name": "",
          "type": "address"
        }
      ],
      "stateMutability": "view",
      "type": "function"
    },
    {
      "inputs": [],
      "name": "getCodeAddress",
      "outputs": [
        {
          "internalType": "address",
          "name": "codeAddress",
          "type": "address"
        }
      ],
      "stateMutability": "view",
      "type": "function"
    },
    {
      "inputs": [
        {
          "internalType": "address",
          "name": "superToken",
          "type": "address"
        },
        {
          "internalType": "address",
          "name": "sender",
          "type": "address"
        },
        {
          "internalType": "address",
          "name": "receiver",
          "type": "address"
        }
      ],
      "name": "getTokenId",
      "outputs": [
        {
          "internalType": "uint256",
          "name": "tokenId",
          "type": "uint256"
        }
      ],
      "stateMutability": "view",
      "type": "function"
    },
    {
      "inputs": [
        {
          "internalType": "string",
          "name": "nftName",
          "type": "string"
        },
        {
          "internalType": "string",
          "name": "nftSymbol",
          "type": "string"
        }
      ],
      "name": "initialize",
      "outputs": [],
      "stateMutability": "nonpayable",
      "type": "function"
    },
    {
      "inputs": [
        {
          "internalType": "address",
          "name": "owner",
          "type": "address"
        },
        {
          "internalType": "address",
          "name": "operator",
          "type": "address"
        }
      ],
      "name": "isApprovedForAll",
      "outputs": [
        {
          "internalType": "bool",
          "name": "",
          "type": "bool"
        }
      ],
      "stateMutability": "view",
      "type": "function"
    },
    {
      "inputs": [],
      "name": "name",
      "outputs": [
        {
          "internalType": "string",
          "name": "",
          "type": "string"
        }
      ],
      "stateMutability": "view",
      "type": "function"
    },
    {
      "inputs": [
        {
          "internalType": "contract ISuperfluidToken",
          "name": "superToken",
          "type": "address"
        },
        {
          "internalType": "address",
          "name": "flowSender",
          "type": "address"
        },
        {
          "internalType": "address",
          "name": "flowReceiver",
          "type": "address"
        }
      ],
      "name": "onCreate",
      "outputs": [],
      "stateMutability": "nonpayable",
      "type": "function"
    },
    {
      "inputs": [
        {
          "internalType": "contract ISuperfluidToken",
          "name": "superToken",
          "type": "address"
        },
        {
          "internalType": "address",
          "name": "flowSender",
          "type": "address"
        },
        {
          "internalType": "address",
          "name": "flowReceiver",
          "type": "address"
        }
      ],
      "name": "onDelete",
      "outputs": [],
      "stateMutability": "nonpayable",
      "type": "function"
    },
    {
      "inputs": [
        {
          "internalType": "contract ISuperfluidToken",
          "name": "superToken",
          "type": "address"
        },
        {
          "internalType": "address",
          "name": "flowSender",
          "type": "address"
        },
        {
          "internalType": "address",
          "name": "flowReceiver",
          "type": "address"
        }
      ],
      "name": "onUpdate",
      "outputs": [],
      "stateMutability": "nonpayable",
      "type": "function"
    },
    {
      "inputs": [
        {
          "internalType": "uint256",
          "name": "tokenId",
          "type": "uint256"
        }
      ],
      "name": "ownerOf",
      "outputs": [
        {
          "internalType": "address",
          "name": "",
          "type": "address"
        }
      ],
      "stateMutability": "view",
      "type": "function"
    },
    {
      "inputs": [],
      "name": "proxiableUUID",
      "outputs": [
        {
          "internalType": "bytes32",
          "name": "",
          "type": "bytes32"
        }
      ],
      "stateMutability": "pure",
      "type": "function"
    },
    {
      "inputs": [
        {
          "internalType": "address",
          "name": "from",
          "type": "address"
        },
        {
          "internalType": "address",
          "name": "to",
          "type": "address"
        },
        {
          "internalType": "uint256",
          "name": "tokenId",
          "type": "uint256"
        }
      ],
      "name": "safeTransferFrom",
      "outputs": [],
      "stateMutability": "nonpayable",
      "type": "function"
    },
    {
      "inputs": [
        {
          "internalType": "address",
          "name": "from",
          "type": "address"
        },
        {
          "internalType": "address",
          "name": "to",
          "type": "address"
        },
        {
          "internalType": "uint256",
          "name": "tokenId",
          "type": "uint256"
        },
        {
          "internalType": "bytes",
          "name": "data",
          "type": "bytes"
        }
      ],
      "name": "safeTransferFrom",
      "outputs": [],
      "stateMutability": "nonpayable",
      "type": "function"
    },
    {
      "inputs": [
        {
          "internalType": "address",
          "name": "operator",
          "type": "address"
        },
        {
          "internalType": "bool",
          "name": "approved",
          "type": "bool"
        }
      ],
      "name": "setApprovalForAll",
      "outputs": [],
      "stateMutability": "nonpayable",
      "type": "function"
    },
    {
      "inputs": [
        {
          "internalType": "bytes4",
          "name": "interfaceId",
          "type": "bytes4"
        }
      ],
      "name": "supportsInterface",
      "outputs": [
        {
          "internalType": "bool",
          "name": "",
          "type": "bool"
        }
      ],
      "stateMutability": "pure",
      "type": "function"
    },
    {
      "inputs": [],
      "name": "symbol",
      "outputs": [
        {
          "internalType": "string",
          "name": "",
          "type": "string"
        }
      ],
      "stateMutability": "view",
      "type": "function"
    },
    {
      "inputs": [
        {
          "internalType": "uint256",
          "name": "tokenId",
          "type": "uint256"
        }
      ],
      "name": "tokenURI",
      "outputs": [
        {
          "internalType": "string",
          "name": "",
          "type": "string"
        }
      ],
      "stateMutability": "view",
      "type": "function"
    },
    {
      "inputs": [
        {
          "internalType": "address",
          "name": "from",
          "type": "address"
        },
        {
          "internalType": "address",
          "name": "to",
          "type": "address"
        },
        {
          "internalType": "uint256",
          "name": "tokenId",
          "type": "uint256"
        }
      ],
      "name": "transferFrom",
      "outputs": [],
      "stateMutability": "nonpayable",
      "type": "function"
    },
    {
      "inputs": [
        {
          "internalType": "uint256",
          "name": "tokenId",
          "type": "uint256"
        }
      ],
      "name": "triggerMetadataUpdate",
      "outputs": [],
      "stateMutability": "nonpayable",
      "type": "function"
    },
    {
      "inputs": [
        {
          "internalType": "address",
          "name": "newAddress",
          "type": "address"
        }
      ],
      "name": "updateCode",
      "outputs": [],
      "stateMutability": "nonpayable",
      "type": "function"
    }
  ],
  "bytecode": {
    "object": "0x60e06040523480156200001157600080fd5b506040516200267838038062002678833981016040819052620000349162000127565b6001600160a01b03831660a0819052604051635b69006f60e11b81527fa9214cc96615e0085d3bb077758db69497dc2dce3b2b1e97bc93c3d18d83efd360048201528491839163b6d200de90602401602060405180830381865afa158015620000a1573d6000803e3d6000fd5b505050506040513d601f19601f82011682018060405250810190620000c7919062000227565b6001600160a01b03166080526003620000e18282620002dd565b505050506001600160a01b031660c05250620003a9565b6001600160a01b03811681146200010e57600080fd5b50565b634e487b7160e01b600052604160045260246000fd5b6000806000606084860312156200013d57600080fd5b83516200014a81620000f8565b809350506020808501516200015f81620000f8565b60408601519093506001600160401b03808211156200017d57600080fd5b818701915087601f8301126200019257600080fd5b815181811115620001a757620001a762000111565b604051601f8201601f19908116603f01168101908382118183101715620001d257620001d262000111565b816040528281528a86848701011115620001eb57600080fd5b600093505b828410156200020f5784840186015181850187015292850192620001f0565b60008684830101528096505050505050509250925092565b6000602082840312156200023a57600080fd5b81516200024781620000f8565b9392505050565b600181811c908216806200026357607f821691505b6020821081036200028457634e487b7160e01b600052602260045260246000fd5b50919050565b601f821115620002d857600081815260208120601f850160051c81016020861015620002b35750805b601f850160051c820191505b81811015620002d457828155600101620002bf565b5050505b505050565b81516001600160401b03811115620002f957620002f962000111565b62000311816200030a84546200024e565b846200028a565b602080601f831160018114620003495760008415620003305750858301515b600019600386901b1c1916600185901b178555620002d4565b600085815260208120601f198616915b828110156200037a5788860151825594840194600190910190840162000359565b5085821015620003995787850151600019600388901b60f8161c191681555b5050505050600190811b01905550565b60805160a05160c05161226762000411600039600081816102ca01528181610ad701528181610bd10152610ce80152600081816102a3015261065301526000818161023001528181610a4a01528181610b4d01528181610c4901526111e001526122676000f3fe608060405234801561001057600080fd5b50600436106101a95760003560e01c806352d1902d116100f9578063a22cb46511610097578063e985e9c511610071578063e985e9c514610413578063eb54a7ca14610426578063ef1f023714610439578063f7e3d9831461044c57600080fd5b8063a22cb465146103da578063b88d4fde146103ed578063c87b56dd1461040057600080fd5b806389f71d2d116100d357806389f71d2d1461035e5780638d47859e1461037157806395d89b41146103ca5780639903ad38146103d257600080fd5b806352d1902d146103075780636352211e1461033757806370a082311461034a57600080fd5b80632f3885601161016657806349f289dc1161014057806349f289dc1461029e5780634c5c0c85146102c55780634cd88b76146102ec57806350d75d25146102ff57600080fd5b80632f3885601461026557806342842e0e14610278578063469519541461028b57600080fd5b806301ffc9a7146101ae57806306fdde03146101d6578063081812fc146101eb578063095ea7b314610216578063181561011461022b57806323b872dd14610252575b600080fd5b6101c16101bc36600461196c565b61045f565b60405190151581526020015b60405180910390f35b6101de6104b1565b6040516101cd91906119ba565b6101fe6101f93660046119ed565b610543565b6040516001600160a01b0390911681526020016101cd565b610229610224366004611a1b565b61056a565b005b6101fe7f000000000000000000000000000000000000000000000000000000000000000081565b610229610260366004611a47565b6105f6565b6102296102733660046119ed565b610628565b610229610286366004611a47565b610634565b610229610299366004611a88565b61064f565b6101fe7f000000000000000000000000000000000000000000000000000000000000000081565b6101fe7f000000000000000000000000000000000000000000000000000000000000000081565b6102296102fa366004611b72565b61070b565b6101fe6107f1565b7f87e44dce6a0d65a5ccf441783661f5727c2624b1f0088bbe957ce2c95406b7845b6040519081526020016101cd565b6101fe6103453660046119ed565b610820565b610329610358366004611a88565b50600190565b61032961036c366004611bd6565b610859565b61038461037f3660046119ed565b61086e565b6040805182516001600160a01b03908116825260208085015182169083015283830151169181019190915260609182015163ffffffff16918101919091526080016101cd565b6101de6108ef565b6102296108fe565b6102296103e8366004611c21565b6109c0565b6102296103fb366004611c5f565b6109cb565b6101de61040e3660046119ed565b610a04565b6101c1610421366004611cdf565b610a11565b610229610434366004611bd6565b610a3f565b610229610447366004611bd6565b610b42565b61022961045a366004611bd6565b610c3e565b60006301ffc9a760e01b6001600160e01b03198316148061049057506380ac58cd60e01b6001600160e01b03198316145b806104ab5750635b5e139f60e01b6001600160e01b03198316145b92915050565b6060600180546104c090611d0d565b80601f01602080910402602001604051908101604052809291908181526020018280546104ec90611d0d565b80156105395780601f1061050e57610100808354040283529160200191610539565b820191906000526020600020905b81548152906001019060200180831161051c57829003601f168201915b5050505050905090565b600061054e82610d17565b506000908152600460205260409020546001600160a01b031690565b600061057582610820565b9050806001600160a01b0316836001600160a01b0316036105a95760405163e4790b2560e01b815260040160405180910390fd5b336001600160a01b038216148015906105c957506105c78133610a11565b155b156105e75760405163519a92c160e11b815260040160405180910390fd5b6105f18383610d4f565b505050565b6106003382610db9565b61061d576040516312a8eb0360e11b815260040160405180910390fd5b6105f1838383610e17565b61063181610e30565b50565b6105f1838383604051806020016040528060008152506109cb565b60007f00000000000000000000000000000000000000000000000000000000000000006001600160a01b031663731aed6e6040518163ffffffff1660e01b8152600401602060405180830381865afa1580156106af573d6000803e3d6000fd5b505050506040513d601f19601f820116820180604052508101906106d39190611d47565b9050336001600160a01b038216146106fe5760405163ebb7505b60e01b815260040160405180910390fd5b61070782610e60565b5050565b600054610100900460ff161580801561072b5750600054600160ff909116105b806107455750303b158015610745575060005460ff166001145b61076a5760405162461bcd60e51b815260040161076190611d64565b60405180910390fd5b6000805460ff19166001179055801561078d576000805461ff0019166101001790555b60016107998482611e00565b5060026107a68382611e00565b5080156105f1576000805461ff0019169055604051600181527f7f26b83ff96e1f2b6a682f133852f6798a09c465da95921460cefb38474024989060200160405180910390a1505050565b600061081b7f360894a13ba1a3210667c828492db98dca3e2076cc3735a920a3ca505d382bbc5490565b905090565b6000818152601660205260408120600101546001600160a01b0316806104ab5760405163eab95e3b60e01b815260040160405180910390fd5b600061086684848461109a565b949350505050565b60408051608081018252600080825260208201819052918101829052606081019190915250600090815260166020908152604091829020825160808101845281546001600160a01b039081168252600183015481169382019390935260029091015491821692810192909252600160a01b900463ffffffff16606082015290565b6060600280546104c090611d0d565b600054610100900460ff161580801561091e5750600054600160ff909116105b806109385750303b158015610938575060005460ff166001145b6109545760405162461bcd60e51b815260040161076190611d64565b6000805460ff191660011790558015610977576000805461ff0019166101001790555b8015610631576000805461ff0019169055604051600181527f7f26b83ff96e1f2b6a682f133852f6798a09c465da95921460cefb3847402498906020015b60405180910390a150565b6107073383836110e6565b6109d53383610db9565b6109f2576040516312a8eb0360e11b815260040160405180910390fd5b6109fe84848484611185565b50505050565b60606104ab826000611190565b6001600160a01b03918216600090815260056020908152604080832093909416825291909152205460ff1690565b336001600160a01b037f00000000000000000000000000000000000000000000000000000000000000001614610a885760405163d367b64f60e01b815260040160405180910390fd5b6000610a9584848461109a565b6000818152601660205260409020600101549091506001600160a01b0316156109fe57610ac181610e30565b604051630179c42b60e51b8152600481018290527f00000000000000000000000000000000000000000000000000000000000000006001600160a01b031690632f388560906024015b600060405180830381600087803b158015610b2457600080fd5b505af1158015610b38573d6000803e3d6000fd5b5050505050505050565b336001600160a01b037f00000000000000000000000000000000000000000000000000000000000000001614610b8b5760405163d367b64f60e01b815260040160405180910390fd5b6000610b9884848461109a565b6000818152601660205260409020600101549091506001600160a01b0316156109fe57604051630852cd8d60e31b8152600481018290527f00000000000000000000000000000000000000000000000000000000000000006001600160a01b0316906342966c6890602401600060405180830381600087803b158015610c1d57600080fd5b505af1158015610c31573d6000803e3d6000fd5b505050506109fe816112e5565b336001600160a01b037f00000000000000000000000000000000000000000000000000000000000000001614610c875760405163d367b64f60e01b815260040160405180910390fd5b6000610c9484848461109a565b6000818152601660205260409020600101549091506001600160a01b03166109fe57610cc284848484611381565b6040516340c10f1960e01b81526001600160a01b038381166004830152602482018390527f000000000000000000000000000000000000000000000000000000000000000016906340c10f1990604401610b0a565b6000818152601660205260409020600101546001600160a01b03166106315760405163eab95e3b60e01b815260040160405180910390fd5b600081815260046020908152604080832080546001600160a01b0319166001600160a01b038781169182179092556016909352818420600101549151859492909116917f8c5be1e5ebec7d5bd14f71427d1e84f3dd0314c0f7b2291e5b200ac8c7c3b92591a45050565b600080610dc583610820565b9050806001600160a01b0316846001600160a01b03161480610dec5750610dec8185610a11565b806108665750836001600160a01b0316610e0584610543565b6001600160a01b031614949350505050565b60405163553a3f6560e11b815260040160405180910390fd5b6040518181527ff8e1a15aba9398e019f0b49df1a4fde98ee17ae345cb5f6b5e2c27f5033e8ce7906020016109b5565b6000610e8a7f360894a13ba1a3210667c828492db98dca3e2076cc3735a920a3ca505d382bbc5490565b6001600160a01b031603610ee05760405162461bcd60e51b815260206004820152601d60248201527f5555505350726f786961626c653a206e6f742075706772616461626c650000006044820152606401610761565b806001600160a01b03166352d1902d6040518163ffffffff1660e01b8152600401602060405180830381865afa158015610f1e573d6000803e3d6000fd5b505050506040513d601f19601f82011682018060405250810190610f429190611ec0565b7f87e44dce6a0d65a5ccf441783661f5727c2624b1f0088bbe957ce2c95406b78414610fbc5760405162461bcd60e51b815260206004820152602360248201527f5555505350726f786961626c653a206e6f7420636f6d70617469626c65206c6f60448201526267696360e81b6064820152608401610761565b6001600160a01b03811630036110145760405162461bcd60e51b815260206004820152601960248201527f5555505350726f786961626c653a2070726f7879206c6f6f70000000000000006044820152606401610761565b61103c817f360894a13ba1a3210667c828492db98dca3e2076cc3735a920a3ca505d382bbc55565b7fe011bc04c286c344a8fcbb8de77f953da762c3e25d8cdea984147fc4168a5dcc7f87e44dce6a0d65a5ccf441783661f5727c2624b1f0088bbe957ce2c95406b784604080519182526001600160a01b0384166020830152016109b5565b60408051466020808301919091526001600160a01b03958616828401529385166060820152919093166080808301919091528351808303909101815260a0909101909252815191012090565b816001600160a01b0316836001600160a01b0316036111185760405163d3c7732960e01b815260040160405180910390fd5b6001600160a01b03838116600081815260056020908152604080832094871680845294825291829020805460ff191686151590811790915591519182527f17307eab39ab6107e8899845ad3d59bd9653f200f220920489ca2b5937696c31910160405180910390a3505050565b6109fe848484610e17565b6060600061119d8461086e565b805160208201516040808401519051631cd43d1160e31b81526001600160a01b0380851660048301529283166024820152908216604482015292935090916000917f0000000000000000000000000000000000000000000000000000000000000000169063e6a1e88890606401608060405180830381865afa158015611227573d6000803e3d6000fd5b505050506040513d601f19601f8201168201806040525081019061124b9190611ed9565b5050915050600361125b876114e3565b611272836bffffffffffffffffffffffff1661165e565b8761129a576040518060400160405280600581526020016466616c736560d81b8152506112b8565b604051806040016040528060048152602001637472756560e01b8152505b6040516020016112cb9493929190611f39565b604051602081830303815290604052935050505092915050565b60006112f082610820565b600083815260046020526040902080546001600160a01b0319169055905060008281526016602052604080822080546001600160a01b03199081168255600182018054909116905560020180546001600160c01b0319169055518391906001600160a01b038416907fddf252ad1be2c89b69c2b068fc378daa952ba7f163c4a11628f55a4df523b3ef908390a45050565b6001600160a01b0383166113a8576040516343d05e5160e01b815260040160405180910390fd5b816001600160a01b0316836001600160a01b0316036113da5760405163a07fa90960e01b815260040160405180910390fd5b6000818152601660205260409020600101546001600160a01b0316156114135760405163e248018360e01b815260040160405180910390fd5b604080516080810182526001600160a01b038087168252858116602080840182815287841685870190815263ffffffff4281166060880190815260008a81526016909552888520975188549088166001600160a01b0319918216178955935160018901805491891691909516179093559051600290960180549251909116600160a01b026001600160c01b03199092169590941694909417939093179091559151839291907fddf252ad1be2c89b69c2b068fc378daa952ba7f163c4a11628f55a4df523b3ef908290a450505050565b606060006114f08361086e565b905061150a81600001516001600160a01b031660146116f1565b6115134661165e565b82600001516001600160a01b03166395d89b416040518163ffffffff1660e01b8152600401600060405180830381865afa158015611555573d6000803e3d6000fd5b505050506040513d6000823e601f3d908101601f1916820160405261157d9190810190612005565b61159584602001516001600160a01b031660146116f1565b6115ad85604001516001600160a01b031660146116f1565b61161e86600001516001600160a01b031663313ce5676040518163ffffffff1660e01b8152600401602060405180830381865afa1580156115f2573d6000803e3d6000fd5b505050506040513d601f19601f82011682018060405250810190611616919061207c565b60ff1661165e565b611631876060015163ffffffff1661165e565b604051602001611647979695949392919061209f565b604051602081830303815290604052915050919050565b6060600061166b83611894565b600101905060008167ffffffffffffffff81111561168b5761168b611aa5565b6040519080825280601f01601f1916602001820160405280156116b5576020820181803683370190505b5090508181016020015b600019016f181899199a1a9b1b9c1cb0b131b232b360811b600a86061a8153600a85049450846116bf57509392505050565b606060006117008360026121da565b61170b9060026121f1565b67ffffffffffffffff81111561172357611723611aa5565b6040519080825280601f01601f19166020018201604052801561174d576020820181803683370190505b509050600360fc1b8160008151811061176857611768612204565b60200101906001600160f81b031916908160001a905350600f60fb1b8160018151811061179757611797612204565b60200101906001600160f81b031916908160001a90535060006117bb8460026121da565b6117c69060016121f1565b90505b600181111561183e576f181899199a1a9b1b9c1cb0b131b232b360811b85600f16601081106117fa576117fa612204565b1a60f81b82828151811061181057611810612204565b60200101906001600160f81b031916908160001a90535060049490941c936118378161221a565b90506117c9565b50831561188d5760405162461bcd60e51b815260206004820181905260248201527f537472696e67733a20686578206c656e67746820696e73756666696369656e746044820152606401610761565b9392505050565b60008072184f03e93ff9f4daa797ed6e38ed64bf6a1f0160401b83106118d35772184f03e93ff9f4daa797ed6e38ed64bf6a1f0160401b830492506040015b6d04ee2d6d415b85acef810000000083106118ff576d04ee2d6d415b85acef8100000000830492506020015b662386f26fc10000831061191d57662386f26fc10000830492506010015b6305f5e1008310611935576305f5e100830492506008015b612710831061194957612710830492506004015b6064831061195b576064830492506002015b600a83106104ab5760010192915050565b60006020828403121561197e57600080fd5b81356001600160e01b03198116811461188d57600080fd5b60005b838110156119b1578181015183820152602001611999565b50506000910152565b60208152600082518060208401526119d9816040850160208701611996565b601f01601f19169190910160400192915050565b6000602082840312156119ff57600080fd5b5035919050565b6001600160a01b038116811461063157600080fd5b60008060408385031215611a2e57600080fd5b8235611a3981611a06565b946020939093013593505050565b600080600060608486031215611a5c57600080fd5b8335611a6781611a06565b92506020840135611a7781611a06565b929592945050506040919091013590565b600060208284031215611a9a57600080fd5b813561188d81611a06565b634e487b7160e01b600052604160045260246000fd5b604051601f8201601f1916810167ffffffffffffffff81118282101715611ae457611ae4611aa5565b604052919050565b600067ffffffffffffffff821115611b0657611b06611aa5565b50601f01601f191660200190565b6000611b27611b2284611aec565b611abb565b9050828152838383011115611b3b57600080fd5b828260208301376000602084830101529392505050565b600082601f830112611b6357600080fd5b61188d83833560208501611b14565b60008060408385031215611b8557600080fd5b823567ffffffffffffffff80821115611b9d57600080fd5b611ba986838701611b52565b93506020850135915080821115611bbf57600080fd5b50611bcc85828601611b52565b9150509250929050565b600080600060608486031215611beb57600080fd5b8335611bf681611a06565b92506020840135611c0681611a06565b91506040840135611c1681611a06565b809150509250925092565b60008060408385031215611c3457600080fd5b8235611c3f81611a06565b915060208301358015158114611c5457600080fd5b809150509250929050565b60008060008060808587031215611c7557600080fd5b8435611c8081611a06565b93506020850135611c9081611a06565b925060408501359150606085013567ffffffffffffffff811115611cb357600080fd5b8501601f81018713611cc457600080fd5b611cd387823560208401611b14565b91505092959194509250565b60008060408385031215611cf257600080fd5b8235611cfd81611a06565b91506020830135611c5481611a06565b600181811c90821680611d2157607f821691505b602082108103611d4157634e487b7160e01b600052602260045260246000fd5b50919050565b600060208284031215611d5957600080fd5b815161188d81611a06565b6020808252602e908201527f496e697469616c697a61626c653a20636f6e747261637420697320616c72656160408201526d191e481a5b9a5d1a585b1a5e995960921b606082015260800190565b601f8211156105f157600081815260208120601f850160051c81016020861015611dd95750805b601f850160051c820191505b81811015611df857828155600101611de5565b505050505050565b815167ffffffffffffffff811115611e1a57611e1a611aa5565b611e2e81611e288454611d0d565b84611db2565b602080601f831160018114611e635760008415611e4b5750858301515b600019600386901b1c1916600185901b178555611df8565b600085815260208120601f198616915b82811015611e9257888601518255948401946001909101908401611e73565b5085821015611eb05787850151600019600388901b60f8161c191681555b5050505050600190811b01905550565b600060208284031215611ed257600080fd5b5051919050565b60008060008060808587031215611eef57600080fd5b84519350602085015180600b0b8114611f0757600080fd5b6040860151606090960151949790965092505050565b60008151611f2f818560208601611996565b9290920192915050565b6000808654611f4781611d0d565b60018281168015611f5f5760018114611f7457611fa3565b60ff1984168752821515830287019450611fa3565b8a60005260208060002060005b85811015611f9a5781548a820152908401908201611f81565b50505082870194505b505050508551611fb7818360208a01611996565b6926666c6f77526174653d60b01b9101908152611ffa611ff4611fdd600a840188611f1d565b6a2669735f696e666c6f773d60a81b8152600b0190565b85611f1d565b979650505050505050565b60006020828403121561201757600080fd5b815167ffffffffffffffff81111561202e57600080fd5b8201601f8101841361203f57600080fd5b805161204d611b2282611aec565b81815285602083850101111561206257600080fd5b612073826020830160208601611996565b95945050505050565b60006020828403121561208e57600080fd5b815160ff8116811461188d57600080fd5b6e26746f6b656e5f616464726573733d60881b8152600088516120c981600f850160208d01611996565b693f636861696e5f69643d60b01b600f9184019182015288516120f3816019840160208d01611996565b6d26746f6b656e5f73796d626f6c3d60901b601992909101918201528751612122816027840160208c01611996565b672673656e6465723d60c01b60279290910191820152865161214b81602f840160208b01611996565b692672656365697665723d60b01b602f92909101918201526121b6611ff461219e61219861217c603986018b611f1d565b6f26746f6b656e5f646563696d616c733d60801b815260100190565b88611f1d565b6b2673746172745f646174653d60a01b8152600c0190565b9a9950505050505050505050565b634e487b7160e01b600052601160045260246000fd5b80820281158282048414176104ab576104ab6121c4565b808201808211156104ab576104ab6121c4565b634e487b7160e01b600052603260045260246000fd5b600081612229576122296121c4565b50600019019056fea2646970667358221220dc538143e33fab1f50d1b3755f5ec8a166ff00198f2fb0e6a23af8b165d9eeb564736f6c63430008130033",
    "linkReferences": {}
  },
  "methodIdentifiers": {
    "CONSTANT_FLOW_AGREEMENT_V1()": "18156101",
    "CONSTANT_INFLOW_NFT()": "4c5c0c85",
    "HOST()": "49f289dc",
    "approve(address,uint256)": "095ea7b3",
    "balanceOf(address)": "70a08231",
    "castrate()": "9903ad38",
    "flowDataByTokenId(uint256)": "8d47859e",
    "getApproved(uint256)": "081812fc",
    "getCodeAddress()": "50d75d25",
    "getTokenId(address,address,address)": "89f71d2d",
    "initialize(string,string)": "4cd88b76",
    "isApprovedForAll(address,address)": "e985e9c5",
    "name()": "06fdde03",
    "onCreate(address,address,address)": "f7e3d983",
    "onDelete(address,address,address)": "ef1f0237",
    "onUpdate(address,address,address)": "eb54a7ca",
    "ownerOf(uint256)": "6352211e",
    "proxiableUUID()": "52d1902d",
    "safeTransferFrom(address,address,uint256)": "42842e0e",
    "safeTransferFrom(address,address,uint256,bytes)": "b88d4fde",
    "setApprovalForAll(address,bool)": "a22cb465",
    "supportsInterface(bytes4)": "01ffc9a7",
    "symbol()": "95d89b41",
    "tokenURI(uint256)": "c87b56dd",
    "transferFrom(address,address,uint256)": "23b872dd",
    "triggerMetadataUpdate(uint256)": "2f388560",
    "updateCode(address)": "46951954"
  },
  "id": 85
}