{
  "abi": [
    {
      "inputs": [
        {
          "internalType": "bool",
          "name": "nonUpgradable",
          "type": "bool"
        },
        {
          "internalType": "bool",
          "name": "appWhiteListingEnabled",
          "type": "bool"
        }
      ],
      "stateMutability": "nonpayable",
      "type": "constructor"
    },
    {
      "inputs": [
        {
          "internalType": "uint256",
          "name": "_code",
          "type": "uint256"
        }
      ],
      "name": "APP_RULE",
      "type": "error"
    },
    {
      "inputs": [],
      "name": "HOST_AGREEMENT_ALREADY_REGISTERED",
      "type": "error"
    },
    {
      "inputs": [],
      "name": "HOST_AGREEMENT_CALLBACK_IS_NOT_ACTION",
      "type": "error"
    },
    {
      "inputs": [],
      "name": "HOST_AGREEMENT_IS_NOT_REGISTERED",
      "type": "error"
    },
    {
      "inputs": [],
      "name": "HOST_CALL_AGREEMENT_WITH_CTX_FROM_WRONG_ADDRESS",
      "type": "error"
    },
    {
      "inputs": [],
      "name": "HOST_CALL_APP_ACTION_WITH_CTX_FROM_WRONG_ADDRESS",
      "type": "error"
    },
    {
      "inputs": [],
      "name": "HOST_CANNOT_DOWNGRADE_TO_NON_UPGRADEABLE",
      "type": "error"
    },
    {
      "inputs": [],
      "name": "HOST_INVALID_CONFIG_WORD",
      "type": "error"
    },
    {
      "inputs": [],
      "name": "HOST_INVALID_OR_EXPIRED_SUPER_APP_REGISTRATION_KEY",
      "type": "error"
    },
    {
      "inputs": [],
      "name": "HOST_MAX_256_AGREEMENTS",
      "type": "error"
    },
    {
      "inputs": [],
      "name": "HOST_MUST_BE_CONTRACT",
      "type": "error"
    },
    {
      "inputs": [],
      "name": "HOST_NON_UPGRADEABLE",
      "type": "error"
    },
    {
      "inputs": [],
      "name": "HOST_NON_ZERO_LENGTH_PLACEHOLDER_CTX",
      "type": "error"
    },
    {
      "inputs": [],
      "name": "HOST_NOT_A_SUPER_APP",
      "type": "error"
    },
    {
      "inputs": [],
      "name": "HOST_NO_APP_REGISTRATION_PERMISSIONS",
      "type": "error"
    },
    {
      "inputs": [],
      "name": "HOST_ONLY_GOVERNANCE",
      "type": "error"
    },
    {
      "inputs": [],
      "name": "HOST_ONLY_LISTED_AGREEMENT",
      "type": "error"
    },
    {
      "inputs": [],
      "name": "HOST_RECEIVER_IS_NOT_SUPER_APP",
      "type": "error"
    },
    {
      "inputs": [],
      "name": "HOST_SENDER_IS_NOT_SUPER_APP",
      "type": "error"
    },
    {
      "inputs": [],
      "name": "HOST_SOURCE_APP_NEEDS_HIGHER_APP_LEVEL",
      "type": "error"
    },
    {
      "inputs": [],
      "name": "HOST_SUPER_APP_ALREADY_REGISTERED",
      "type": "error"
    },
    {
      "inputs": [],
      "name": "HOST_SUPER_APP_IS_JAILED",
      "type": "error"
    },
    {
      "inputs": [],
      "name": "HOST_UNAUTHORIZED_SUPER_APP_FACTORY",
      "type": "error"
    },
    {
      "inputs": [],
      "name": "HOST_UNKNOWN_BATCH_CALL_OPERATION_TYPE",
      "type": "error"
    },
    {
      "anonymous": false,
      "inputs": [
        {
          "indexed": false,
          "internalType": "bytes32",
          "name": "agreementType",
          "type": "bytes32"
        },
        {
          "indexed": false,
          "internalType": "address",
          "name": "code",
          "type": "address"
        }
      ],
      "name": "AgreementClassRegistered",
      "type": "event"
    },
    {
      "anonymous": false,
      "inputs": [
        {
          "indexed": false,
          "internalType": "bytes32",
          "name": "agreementType",
          "type": "bytes32"
        },
        {
          "indexed": false,
          "internalType": "address",
          "name": "code",
          "type": "address"
        }
      ],
      "name": "AgreementClassUpdated",
      "type": "event"
    },
    {
      "anonymous": false,
      "inputs": [
        {
          "indexed": true,
          "internalType": "contract ISuperApp",
          "name": "app",
          "type": "address"
        }
      ],
      "name": "AppRegistered",
      "type": "event"
    },
    {
      "anonymous": false,
      "inputs": [
        {
          "indexed": false,
          "internalType": "bytes32",
          "name": "uuid",
          "type": "bytes32"
        },
        {
          "indexed": false,
          "internalType": "address",
          "name": "codeAddress",
          "type": "address"
        }
      ],
      "name": "CodeUpdated",
      "type": "event"
    },
    {
      "anonymous": false,
      "inputs": [
        {
          "indexed": false,
          "internalType": "contract ISuperfluidGovernance",
          "name": "oldGov",
          "type": "address"
        },
        {
          "indexed": false,
          "internalType": "contract ISuperfluidGovernance",
          "name": "newGov",
          "type": "address"
        }
      ],
      "name": "GovernanceReplaced",
      "type": "event"
    },
    {
      "anonymous": false,
      "inputs": [
        {
          "indexed": false,
          "internalType": "uint8",
          "name": "version",
          "type": "uint8"
        }
      ],
      "name": "Initialized",
      "type": "event"
    },
    {
      "anonymous": false,
      "inputs": [
        {
          "indexed": true,
          "internalType": "contract ISuperApp",
          "name": "app",
          "type": "address"
        },
        {
          "indexed": false,
          "internalType": "uint256",
          "name": "reason",
          "type": "uint256"
        }
      ],
      "name": "Jail",
      "type": "event"
    },
    {
      "anonymous": false,
      "inputs": [
        {
          "indexed": false,
          "internalType": "contract ISuperTokenFactory",
          "name": "newFactory",
          "type": "address"
        }
      ],
      "name": "SuperTokenFactoryUpdated",
      "type": "event"
    },
    {
      "anonymous": false,
      "inputs": [
        {
          "indexed": true,
          "internalType": "contract ISuperToken",
          "name": "token",
          "type": "address"
        },
        {
          "indexed": false,
          "internalType": "address",
          "name": "code",
          "type": "address"
        }
      ],
      "name": "SuperTokenLogicUpdated",
      "type": "event"
    },
    {
      "inputs": [],
      "name": "APP_WHITE_LISTING_ENABLED",
      "outputs": [
        {
          "internalType": "bool",
          "name": "",
          "type": "bool"
        }
      ],
      "stateMutability": "view",
      "type": "function"
    },
    {
      "inputs": [],
      "name": "CALLBACK_GAS_LIMIT",
      "outputs": [
        {
          "internalType": "uint64",
          "name": "",
          "type": "uint64"
        }
      ],
      "stateMutability": "view",
      "type": "function"
    },
    {
      "inputs": [],
      "name": "MAX_APP_CALLBACK_LEVEL",
      "outputs": [
        {
          "internalType": "uint256",
          "name": "",
          "type": "uint256"
        }
      ],
      "stateMutability": "view",
      "type": "function"
    },
    {
      "inputs": [],
      "name": "NON_UPGRADABLE_DEPLOYMENT",
      "outputs": [
        {
          "internalType": "bool",
          "name": "",
          "type": "bool"
        }
      ],
      "stateMutability": "view",
      "type": "function"
    },
    {
      "inputs": [
        {
          "internalType": "uint256",
          "name": "bitmap",
          "type": "uint256"
        },
        {
          "internalType": "bytes32",
          "name": "agreementType",
          "type": "bytes32"
        }
      ],
      "name": "addToAgreementClassesBitmap",
      "outputs": [
        {
          "internalType": "uint256",
          "name": "newBitmap",
          "type": "uint256"
        }
      ],
      "stateMutability": "view",
      "type": "function"
    },
    {
      "inputs": [
        {
          "internalType": "contract ISuperApp",
          "name": "targetApp",
          "type": "address"
        }
      ],
      "name": "allowCompositeApp",
      "outputs": [],
      "stateMutability": "nonpayable",
      "type": "function"
    },
    {
      "inputs": [
        {
          "internalType": "bytes",
          "name": "ctx",
          "type": "bytes"
        },
        {
          "internalType": "int256",
          "name": "appCreditUsedDelta",
          "type": "int256"
        }
      ],
      "name": "appCallbackPop",
      "outputs": [
        {
          "internalType": "bytes",
          "name": "newCtx",
          "type": "bytes"
        }
      ],
      "stateMutability": "nonpayable",
      "type": "function"
    },
    {
      "inputs": [
        {
          "internalType": "bytes",
          "name": "ctx",
          "type": "bytes"
        },
        {
          "internalType": "contract ISuperApp",
          "name": "app",
          "type": "address"
        },
        {
          "internalType": "uint256",
          "name": "appCreditGranted",
          "type": "uint256"
        },
        {
          "internalType": "int256",
          "name": "appCreditUsed",
          "type": "int256"
        },
        {
          "internalType": "contract ISuperfluidToken",
          "name": "appCreditToken",
          "type": "address"
        }
      ],
      "name": "appCallbackPush",
      "outputs": [
        {
          "internalType": "bytes",
          "name": "appCtx",
          "type": "bytes"
        }
      ],
      "stateMutability": "nonpayable",
      "type": "function"
    },
    {
      "inputs": [
        {
          "components": [
            {
              "internalType": "uint32",
              "name": "operationType",
              "type": "uint32"
            },
            {
              "internalType": "address",
              "name": "target",
              "type": "address"
            },
            {
              "internalType": "bytes",
              "name": "data",
              "type": "bytes"
            }
          ],
          "internalType": "struct ISuperfluid.Operation[]",
          "name": "operations",
          "type": "tuple[]"
        }
      ],
      "name": "batchCall",
      "outputs": [],
      "stateMutability": "nonpayable",
      "type": "function"
    },
    {
      "inputs": [
        {
          "internalType": "contract ISuperAgreement",
          "name": "agreementClass",
          "type": "address"
        },
        {
          "internalType": "bytes",
          "name": "callData",
          "type": "bytes"
        },
        {
          "internalType": "bytes",
          "name": "userData",
          "type": "bytes"
        }
      ],
      "name": "callAgreement",
      "outputs": [
        {
          "internalType": "bytes",
          "name": "returnedData",
          "type": "bytes"
        }
      ],
      "stateMutability": "nonpayable",
      "type": "function"
    },
    {
      "inputs": [
        {
          "internalType": "contract ISuperAgreement",
          "name": "agreementClass",
          "type": "address"
        },
        {
          "internalType": "bytes",
          "name": "callData",
          "type": "bytes"
        },
        {
          "internalType": "bytes",
          "name": "userData",
          "type": "bytes"
        },
        {
          "internalType": "bytes",
          "name": "ctx",
          "type": "bytes"
        }
      ],
      "name": "callAgreementWithContext",
      "outputs": [
        {
          "internalType": "bytes",
          "name": "newCtx",
          "type": "bytes"
        },
        {
          "internalType": "bytes",
          "name": "returnedData",
          "type": "bytes"
        }
      ],
      "stateMutability": "nonpayable",
      "type": "function"
    },
    {
      "inputs": [
        {
          "internalType": "contract ISuperApp",
          "name": "app",
          "type": "address"
        },
        {
          "internalType": "bytes",
          "name": "callData",
          "type": "bytes"
        }
      ],
      "name": "callAppAction",
      "outputs": [
        {
          "internalType": "bytes",
          "name": "returnedData",
          "type": "bytes"
        }
      ],
      "stateMutability": "nonpayable",
      "type": "function"
    },
    {
      "inputs": [
        {
          "internalType": "contract ISuperApp",
          "name": "app",
          "type": "address"
        },
        {
          "internalType": "bytes",
          "name": "callData",
          "type": "bytes"
        },
        {
          "internalType": "bytes",
          "name": "ctx",
          "type": "bytes"
        }
      ],
      "name": "callAppActionWithContext",
      "outputs": [
        {
          "internalType": "bytes",
          "name": "newCtx",
          "type": "bytes"
        }
      ],
      "stateMutability": "nonpayable",
      "type": "function"
    },
    {
      "inputs": [
        {
          "internalType": "contract ISuperApp",
          "name": "app",
          "type": "address"
        },
        {
          "internalType": "bytes",
          "name": "callData",
          "type": "bytes"
        },
        {
          "internalType": "bool",
          "name": "isTermination",
          "type": "bool"
        },
        {
          "internalType": "bytes",
          "name": "ctx",
          "type": "bytes"
        }
      ],
      "name": "callAppAfterCallback",
      "outputs": [
        {
          "internalType": "bytes",
          "name": "newCtx",
          "type": "bytes"
        }
      ],
      "stateMutability": "nonpayable",
      "type": "function"
    },
    {
      "inputs": [
        {
          "internalType": "contract ISuperApp",
          "name": "app",
          "type": "address"
        },
        {
          "internalType": "bytes",
          "name": "callData",
          "type": "bytes"
        },
        {
          "internalType": "bool",
          "name": "isTermination",
          "type": "bool"
        },
        {
          "internalType": "bytes",
          "name": "ctx",
          "type": "bytes"
        }
      ],
      "name": "callAppBeforeCallback",
      "outputs": [
        {
          "internalType": "bytes",
          "name": "cbdata",
          "type": "bytes"
        }
      ],
      "stateMutability": "nonpayable",
      "type": "function"
    },
    {
      "inputs": [],
      "name": "castrate",
      "outputs": [],
      "stateMutability": "nonpayable",
      "type": "function"
    },
    {
      "inputs": [
        {
          "internalType": "bytes",
          "name": "ctx",
          "type": "bytes"
        },
        {
          "internalType": "int256",
          "name": "appCreditUsedMore",
          "type": "int256"
        }
      ],
      "name": "ctxUseCredit",
      "outputs": [
        {
          "internalType": "bytes",
          "name": "newCtx",
          "type": "bytes"
        }
      ],
      "stateMutability": "nonpayable",
      "type": "function"
    },
    {
      "inputs": [
        {
          "internalType": "bytes",
          "name": "ctx",
          "type": "bytes"
        }
      ],
      "name": "decodeCtx",
      "outputs": [
        {
          "components": [
            {
              "internalType": "uint8",
              "name": "appCallbackLevel",
              "type": "uint8"
            },
            {
              "internalType": "uint8",
              "name": "callType",
              "type": "uint8"
            },
            {
              "internalType": "uint256",
              "name": "timestamp",
              "type": "uint256"
            },
            {
              "internalType": "address",
              "name": "msgSender",
              "type": "address"
            },
            {
              "internalType": "bytes4",
              "name": "agreementSelector",
              "type": "bytes4"
            },
            {
              "internalType": "bytes",
              "name": "userData",
              "type": "bytes"
            },
            {
              "internalType": "uint256",
              "name": "appCreditGranted",
              "type": "uint256"
            },
            {
              "internalType": "uint256",
              "name": "appCreditWantedDeprecated",
              "type": "uint256"
            },
            {
              "internalType": "int256",
              "name": "appCreditUsed",
              "type": "int256"
            },
            {
              "internalType": "address",
              "name": "appAddress",
              "type": "address"
            },
            {
              "internalType": "contract ISuperfluidToken",
              "name": "appCreditToken",
              "type": "address"
            }
          ],
          "internalType": "struct ISuperfluid.Context",
          "name": "context",
          "type": "tuple"
        }
      ],
      "stateMutability": "pure",
      "type": "function"
    },
    {
      "inputs": [
        {
          "components": [
            {
              "internalType": "uint32",
              "name": "operationType",
              "type": "uint32"
            },
            {
              "internalType": "address",
              "name": "target",
              "type": "address"
            },
            {
              "internalType": "bytes",
              "name": "data",
              "type": "bytes"
            }
          ],
          "internalType": "struct ISuperfluid.Operation[]",
          "name": "operations",
          "type": "tuple[]"
        }
      ],
      "name": "forwardBatchCall",
      "outputs": [],
      "stateMutability": "nonpayable",
      "type": "function"
    },
    {
      "inputs": [
        {
          "internalType": "bytes32",
          "name": "agreementType",
          "type": "bytes32"
        }
      ],
      "name": "getAgreementClass",
      "outputs": [
        {
          "internalType": "contract ISuperAgreement",
          "name": "agreementClass",
          "type": "address"
        }
      ],
      "stateMutability": "view",
      "type": "function"
    },
    {
      "inputs": [
        {
          "internalType": "contract ISuperApp",
          "name": "appAddr",
          "type": "address"
        }
      ],
      "name": "getAppCallbackLevel",
      "outputs": [
        {
          "internalType": "uint8",
          "name": "",
          "type": "uint8"
        }
      ],
      "stateMutability": "view",
      "type": "function"
    },
    {
      "inputs": [
        {
          "internalType": "contract ISuperApp",
          "name": "app",
          "type": "address"
        }
      ],
      "name": "getAppManifest",
      "outputs": [
        {
          "internalType": "bool",
          "name": "isSuperApp",
          "type": "bool"
        },
        {
          "internalType": "bool",
          "name": "isJailed",
          "type": "bool"
        },
        {
          "internalType": "uint256",
          "name": "noopMask",
          "type": "uint256"
        }
      ],
      "stateMutability": "view",
      "type": "function"
    },
    {
      "inputs": [],
      "name": "getCodeAddress",
      "outputs": [
        {
          "internalType": "address",
          "name": "codeAddress",
          "type": "address"
        }
      ],
      "stateMutability": "view",
      "type": "function"
    },
    {
      "inputs": [],
      "name": "getGovernance",
      "outputs": [
        {
          "internalType": "contract ISuperfluidGovernance",
          "name": "",
          "type": "address"
        }
      ],
      "stateMutability": "view",
      "type": "function"
    },
    {
      "inputs": [],
      "name": "getNow",
      "outputs": [
        {
          "internalType": "uint256",
          "name": "",
          "type": "uint256"
        }
      ],
      "stateMutability": "view",
      "type": "function"
    },
    {
      "inputs": [],
      "name": "getSuperTokenFactory",
      "outputs": [
        {
          "internalType": "contract ISuperTokenFactory",
          "name": "factory",
          "type": "address"
        }
      ],
      "stateMutability": "view",
      "type": "function"
    },
    {
      "inputs": [],
      "name": "getSuperTokenFactoryLogic",
      "outputs": [
        {
          "internalType": "address",
          "name": "logic",
          "type": "address"
        }
      ],
      "stateMutability": "view",
      "type": "function"
    },
    {
      "inputs": [
        {
          "internalType": "contract ISuperfluidGovernance",
          "name": "gov",
          "type": "address"
        }
      ],
      "name": "initialize",
      "outputs": [],
      "stateMutability": "nonpayable",
      "type": "function"
    },
    {
      "inputs": [
        {
          "internalType": "contract ISuperAgreement",
          "name": "agreementClass",
          "type": "address"
        }
      ],
      "name": "isAgreementClassListed",
      "outputs": [
        {
          "internalType": "bool",
          "name": "yes",
          "type": "bool"
        }
      ],
      "stateMutability": "view",
      "type": "function"
    },
    {
      "inputs": [
        {
          "internalType": "bytes32",
          "name": "agreementType",
          "type": "bytes32"
        }
      ],
      "name": "isAgreementTypeListed",
      "outputs": [
        {
          "internalType": "bool",
          "name": "yes",
          "type": "bool"
        }
      ],
      "stateMutability": "view",
      "type": "function"
    },
    {
      "inputs": [
        {
          "internalType": "contract ISuperApp",
          "name": "app",
          "type": "address"
        }
      ],
      "name": "isApp",
      "outputs": [
        {
          "internalType": "bool",
          "name": "",
          "type": "bool"
        }
      ],
      "stateMutability": "view",
      "type": "function"
    },
    {
      "inputs": [
        {
          "internalType": "contract ISuperApp",
          "name": "app",
          "type": "address"
        }
      ],
      "name": "isAppJailed",
      "outputs": [
        {
          "internalType": "bool",
          "name": "",
          "type": "bool"
        }
      ],
      "stateMutability": "view",
      "type": "function"
    },
    {
      "inputs": [
        {
          "internalType": "contract ISuperApp",
          "name": "app",
          "type": "address"
        },
        {
          "internalType": "contract ISuperApp",
          "name": "targetApp",
          "type": "address"
        }
      ],
      "name": "isCompositeAppAllowed",
      "outputs": [
        {
          "internalType": "bool",
          "name": "",
          "type": "bool"
        }
      ],
      "stateMutability": "view",
      "type": "function"
    },
    {
      "inputs": [
        {
          "internalType": "bytes",
          "name": "ctx",
          "type": "bytes"
        }
      ],
      "name": "isCtxValid",
      "outputs": [
        {
          "internalType": "bool",
          "name": "",
          "type": "bool"
        }
      ],
      "stateMutability": "view",
      "type": "function"
    },
    {
      "inputs": [
        {
          "internalType": "address",
          "name": "forwarder",
          "type": "address"
        }
      ],
      "name": "isTrustedForwarder",
      "outputs": [
        {
          "internalType": "bool",
          "name": "",
          "type": "bool"
        }
      ],
      "stateMutability": "view",
      "type": "function"
    },
    {
      "inputs": [
        {
          "internalType": "bytes",
          "name": "ctx",
          "type": "bytes"
        },
        {
          "internalType": "contract ISuperApp",
          "name": "app",
          "type": "address"
        },
        {
          "internalType": "uint256",
          "name": "reason",
          "type": "uint256"
        }
      ],
      "name": "jailApp",
      "outputs": [
        {
          "internalType": "bytes",
          "name": "newCtx",
          "type": "bytes"
        }
      ],
      "stateMutability": "nonpayable",
      "type": "function"
    },
    {
      "inputs": [
        {
          "internalType": "uint256",
          "name": "bitmap",
          "type": "uint256"
        }
      ],
      "name": "mapAgreementClasses",
      "outputs": [
        {
          "internalType": "contract ISuperAgreement[]",
          "name": "agreementClasses",
          "type": "address[]"
        }
      ],
      "stateMutability": "view",
      "type": "function"
    },
    {
      "inputs": [],
      "name": "proxiableUUID",
      "outputs": [
        {
          "internalType": "bytes32",
          "name": "",
          "type": "bytes32"
        }
      ],
      "stateMutability": "pure",
      "type": "function"
    },
    {
      "inputs": [
        {
          "internalType": "contract ISuperAgreement",
          "name": "agreementClassLogic",
          "type": "address"
        }
      ],
      "name": "registerAgreementClass",
      "outputs": [],
      "stateMutability": "nonpayable",
      "type": "function"
    },
    {
      "inputs": [
        {
          "internalType": "uint256",
          "name": "configWord",
          "type": "uint256"
        }
      ],
      "name": "registerApp",
      "outputs": [],
      "stateMutability": "nonpayable",
      "type": "function"
    },
    {
      "inputs": [
        {
          "internalType": "contract ISuperApp",
          "name": "app",
          "type": "address"
        },
        {
          "internalType": "uint256",
          "name": "configWord",
          "type": "uint256"
        }
      ],
      "name": "registerAppByFactory",
      "outputs": [],
      "stateMutability": "nonpayable",
      "type": "function"
    },
    {
      "inputs": [
        {
          "internalType": "uint256",
          "name": "configWord",
          "type": "uint256"
        },
        {
          "internalType": "string",
          "name": "registrationKey",
          "type": "string"
        }
      ],
      "name": "registerAppWithKey",
      "outputs": [],
      "stateMutability": "nonpayable",
      "type": "function"
    },
    {
      "inputs": [
        {
          "internalType": "uint256",
          "name": "bitmap",
          "type": "uint256"
        },
        {
          "internalType": "bytes32",
          "name": "agreementType",
          "type": "bytes32"
        }
      ],
      "name": "removeFromAgreementClassesBitmap",
      "outputs": [
        {
          "internalType": "uint256",
          "name": "newBitmap",
          "type": "uint256"
        }
      ],
      "stateMutability": "view",
      "type": "function"
    },
    {
      "inputs": [
        {
          "internalType": "contract ISuperfluidGovernance",
          "name": "newGov",
          "type": "address"
        }
      ],
      "name": "replaceGovernance",
      "outputs": [],
      "stateMutability": "nonpayable",
      "type": "function"
    },
    {
      "inputs": [
        {
          "internalType": "contract ISuperAgreement",
          "name": "agreementClassLogic",
          "type": "address"
        }
      ],
      "name": "updateAgreementClass",
      "outputs": [],
      "stateMutability": "nonpayable",
      "type": "function"
    },
    {
      "inputs": [
        {
          "internalType": "address",
          "name": "newAddress",
          "type": "address"
        }
      ],
      "name": "updateCode",
      "outputs": [],
      "stateMutability": "nonpayable",
      "type": "function"
    },
    {
      "inputs": [
        {
          "internalType": "contract ISuperTokenFactory",
          "name": "newFactory",
          "type": "address"
        }
      ],
      "name": "updateSuperTokenFactory",
      "outputs": [],
      "stateMutability": "nonpayable",
      "type": "function"
    },
    {
      "inputs": [
        {
          "internalType": "contract ISuperToken",
          "name": "token",
          "type": "address"
        }
      ],
      "name": "updateSuperTokenLogic",
      "outputs": [],
      "stateMutability": "nonpayable",
      "type": "function"
    },
    {
      "inputs": [],
      "name": "versionRecipient",
      "outputs": [
        {
          "internalType": "string",
          "name": "",
          "type": "string"
        }
      ],
      "stateMutability": "pure",
      "type": "function"
    }
  ],
  "bytecode": {
    "object": "0x60c06040523480156200001157600080fd5b50604051620051fa380380620051fa83398101604081905262000034916200005b565b901515608052151560a05262000093565b805180151581146200005657600080fd5b919050565b600080604083850312156200006f57600080fd5b6200007a8362000045565b91506200008a6020840162000045565b90509250929050565b60805160a051615102620000f8600039600081816105a301528181611daa0152818161227d01526126910152600081816106df015281816107a101528181610a320152818161105a01528181611195015281816112f401526125bf01526151026000f3fe608060405234801561001057600080fd5b50600436106102bb5760003560e01c8063768fabb011610182578063bb84cfa1116100e9578063c4d66de8116100a2578063e8dccb7d1161007c578063e8dccb7d14610701578063f2e55caf14610723578063f37330521461072b578063f9f522f41461073e57600080fd5b8063c4d66de8146106a7578063c56a069d146106ba578063cd312ec4146106da57600080fd5b8063bb84cfa114610624578063bbe4fd5014610660578063bced3ddc14610666578063bd1c448b14610679578063bd3252c81461068c578063bf4287341461069457600080fd5b80639d297e301161013b5780639d297e301461059e578063a5dbbbcd146105c5578063ad3915c8146105d8578063b6d200de146105eb578063b724211e146105fe578063ba48b5f81461061157600080fd5b8063768fabb014610525578063787afde7146105385780638ca484841461054b5780639378fa131461055e578063989b0c3e146105835780639903ad381461059657600080fd5b806350d75d2511610226578063670e77e3116101df578063670e77e3146104b55780636ad3ca7d146104c85780636b4f3335146104db5780637283100c146104ee578063731aed6e1461050157806374041e021461051257600080fd5b806350d75d251461043157806352d1902d1461043957806354fbc4931461046957806357121e0c1461047c578063572b6c051461048f57806359a29141146104a257600080fd5b806339255d5b1161027857806339255d5b146103715780633ca3ad4e146103845780633f6c923a146103bf5780634329d293146103df5780634695195414610400578063486ff0cd1461041357600080fd5b806306cecba8146102c057806315a024e1146102d55780631e6d0a84146102e85780631e855cf314610311578063289b3c0d1461032457806333d608f11461034f575b600080fd5b6102d36102ce366004613fd1565b61076e565b005b6102d36102e3366004613fd1565b610945565b6102fb6102f636600461404b565b610b95565b6040516103089190614131565b60405180910390f35b6102fb61031f366004614207565b610de1565b6000546201000090046001600160a01b03165b6040516001600160a01b039091168152602001610308565b610359622dc6c081565b6040516001600160401b039091168152602001610308565b6102fb61037f366004614256565b610df7565b6103af610392366004613fd1565b6001600160a01b0316600090815260046020526040902054151590565b6040519015158152602001610308565b6103d26103cd3660046142cb565b610e0d565b60405161030891906142ff565b6103f26103ed3660046143e0565b610e1e565b60405161030892919061448c565b6102d361040e366004613fd1565b611027565b604080518082019091526002815261763160f01b60208201526102fb565b610337611123565b7fcd355cae2c435f8c5e0c626c4691d22fd85aa7422a424c6f0bced6e64c7aba745b604051908152602001610308565b6102d3610477366004613fd1565b611152565b6102d361048a366004613fd1565b6113d5565b6103af61049d366004613fd1565b6114a3565b6102fb6104b03660046144b1565b61152d565b6102d36104c33660046144fc565b61160f565b6102d36104d63660046144fc565b611625565b6103af6104e9366004613fd1565b611630565b6102d36104fc366004613fd1565b611654565b6003546001600160a01b0316610337565b6102fb61052036600461404b565b6116fc565b6102fb610533366004614570565b61184b565b6102d3610546366004613fd1565b6119e7565b6103af610559366004613fd1565b611b2a565b61057161056c366004613fd1565b611bef565b60405160ff9091168152602001610308565b6102fb6105913660046144b1565b611c10565b6102d3611ca3565b6103af7f000000000000000000000000000000000000000000000000000000000000000081565b61045b6105d33660046145eb565b611d5e565b6102d36105e636600461460d565b611da8565b6103376105f936600461460d565b611df3565b6102fb61060c366004614626565b611e5a565b6102fb61061f366004614682565b611f1b565b6103af610632366004614704565b6001600160a01b03918216600090815260056020908152604080832093909416825291909152205460ff1690565b4261045b565b61045b6106743660046145eb565b612232565b6102d361068736600461473d565b61227b565b61045b600181565b6103af6106a2366004614788565b612393565b6102d36106b5366004613fd1565b6123d4565b6106cd6106c836600461460d565b6124b8565b60405161030891906147c9565b6103af7f000000000000000000000000000000000000000000000000000000000000000081565b6103af61070f36600461460d565b600090815260026020526040902054151590565b6103376125a2565b6102d3610739366004614816565b61266a565b61075161074c366004613fd1565b612772565b604080519315158452911515602084015290820152606001610308565b6000546201000090046001600160a01b0316331461079f576040516362e9152760e11b815260040160405180910390fd5b7f0000000000000000000000000000000000000000000000000000000000000000156107de576040516314f72c9f60e01b815260040160405180910390fd5b6000816001600160a01b0316637730599e6040518163ffffffff1660e01b8152600401602060405180830381865afa15801561081e573d6000803e3d6000fd5b505050506040513d601f19601f820116820180604052508101906108429190614842565b60008181526002602052604081205491925081900361087457604051630e4f4df560e11b815260040160405180910390fd5b600060016108828184614871565b8154811061089257610892614884565b6000918252602090912001546040516311a5465560e21b81526001600160a01b03868116600483015290911691508190634695195490602401600060405180830381600087803b1580156108e557600080fd5b505af11580156108f9573d6000803e3d6000fd5b5050604080518681526001600160a01b03881660208201527f9279aa773f2b588996032d8de89911555039f28b13a11a7c17074330bc082d9a935001905060405180910390a150505050565b6000546201000090046001600160a01b03163314610976576040516362e9152760e11b815260040160405180910390fd5b6000816001600160a01b0316637730599e6040518163ffffffff1660e01b8152600401602060405180830381865afa1580156109b6573d6000803e3d6000fd5b505050506040513d601f19601f820116820180604052508101906109da9190614842565b60008181526002602052604090205490915015610a0a57604051631b93bb7560e31b815260040160405180910390fd5b60015461010011610a2e57604051630f85034f60e31b815260040160405180910390fd5b60007f0000000000000000000000000000000000000000000000000000000000000000610ae8576000604051610a6390613f54565b604051809103906000f080158015610a7f573d6000803e3d6000fd5b50604051634a0687ef60e01b81526001600160a01b03868116600483015291925090821690634a0687ef90602401600060405180830381600087803b158015610ac757600080fd5b505af1158015610adb573d6000803e3d6000fd5b5050505080915050610aeb565b50815b6001805480820182557fb10e2d527612073b26eecdfd717e6a320cf44b4afac2b0732d9fcbe2b7fa0cf60180546001600160a01b0384166001600160a01b0319909116179055546000838152600260205260409081902091909155517f878135063a6cfb3bc333e534b1fdc83f4f12221cad6705c31c0567048a8bd3d190610b8890849086909182526001600160a01b0316602082015260400190565b60405180910390a1505050565b6060610ba033611b2a565b610bbd5760405163619c535960e01b815260040160405180910390fd5b82828080601f016020809104026020016040519081016040528093929190818152602001838380828437600092019190915250610bff92508391506127c19050565b610c0b57610c0b61489a565b600080610c858a6000898c8c8080601f01602080910402602001604051908101604052809392919081815260200183838082843760009201919091525050604080516020601f8f018190048102820181019092528d815292508d91508c90819084018382808284376000920191909152506127e192505050565b915091508115610d9a57610c9881612969565b15610d325780806020019051810190610cb191906148f5565b9350610cbc846127c1565b610d2d5786610ce65760405163a85ba64f60e01b8152601460048201526024015b60405180910390fd5b85858080601f016020809104026020016040519081016040528093929190818152602001838380828437600092019190915250929650610d2d92508c9150601490506129bd565b610dd4565b86610d535760405163a85ba64f60e01b815260166004820152602401610cdd565b85858080601f016020809104026020016040519081016040528093929190818152602001838380828437600092019190915250929650610d2d92508c9150601690506129bd565b85858080601f0160208091040260200160405190810160405280939291908181526020018383808284376000920191909152509296505050505b5050509695505050505050565b6060610dee338484612a32565b90505b92915050565b6060610e0533858585612c6d565b949350505050565b610e15613f61565b610df182612d7c565b60608083838080601f016020809104026020016040519081016040528093929190818152602001838380828437600092019190915250610e6392508391506127c19050565b610e835760405163a85ba64f60e01b815260146004820152602401610cdd565b89610e8d81611b2a565b610eaa5760405163619c535960e01b815260040160405180910390fd5b6000610eeb87878080601f016020809104026020016040519081016040528093929190818152602001838380828437600092019190915250610e0d92505050565b6101208101519091506001600160a01b03163314610f1c5760405163066875e160e11b815260040160405180910390fd5b60608101805133909152604080516020601f8c018190048102820181019092528a8152908b908b908190840183828082843760009201919091525050505060a0830152610f6882612e47565b95506000610fae8e8e8e8080601f0160208091040260200160405190810160405280939291908181526020018383808284376000920191909152508c9250612f7b915050565b96509050801561100d5785806020019051810190610fcc91906148f5565b9650610fd7876127c1565b610fe357610fe361489a565b610fec87610e0d565b6001600160a01b0383166060820152925061100683612e47565b9650611016565b61101686613034565b505050505097509795505050505050565b6000546201000090046001600160a01b03163314611058576040516362e9152760e11b815260040160405180910390fd5b7f000000000000000000000000000000000000000000000000000000000000000015611097576040516314f72c9f60e01b815260040160405180910390fd5b806001600160a01b031663cd312ec46040518163ffffffff1660e01b8152600401602060405180830381865afa1580156110d5573d6000803e3d6000fd5b505050506040513d601f19601f820116820180604052508101906110f99190614929565b156111175760405163474e764160e01b815260040160405180910390fd5b6111208161313f565b50565b600061114d7f360894a13ba1a3210667c828492db98dca3e2076cc3735a920a3ca505d382bbc5490565b905090565b6000546201000090046001600160a01b03163314611183576040516362e9152760e11b815260040160405180910390fd5b6003546001600160a01b03166112f2577f00000000000000000000000000000000000000000000000000000000000000006112695760006040516111c690613f54565b604051809103906000f0801580156111e2573d6000803e3d6000fd5b50604051634a0687ef60e01b81526001600160a01b03848116600483015291925090821690634a0687ef90602401600060405180830381600087803b15801561122a57600080fd5b505af115801561123e573d6000803e3d6000fd5b5050600380546001600160a01b0319166001600160a01b039490941693909317909255506112859050565b600380546001600160a01b0319166001600160a01b0383161790555b600360009054906101000a90046001600160a01b03166001600160a01b0316638129fc1c6040518163ffffffff1660e01b8152600401600060405180830381600087803b1580156112d557600080fd5b505af11580156112e9573d6000803e3d6000fd5b50505050611391565b7f000000000000000000000000000000000000000000000000000000000000000015611331576040516314f72c9f60e01b815260040160405180910390fd5b6003546040516311a5465560e21b81526001600160a01b03838116600483015290911690634695195490602401600060405180830381600087803b15801561137857600080fd5b505af115801561138c573d6000803e3d6000fd5b505050505b6003546040516001600160a01b0390911681527fce13a9895a1719ad4493b2ac1a9bfb36070566161abab408e7ecbe586da8d499906020015b60405180910390a150565b33600081815260046020526040902054611402576040516302eb3f7160e61b815260040160405180910390fd5b6001600160a01b03821660009081526004602052604090205461143857604051634b5518af60e11b815260040160405180910390fd5b61144182611bef565b60ff1661144d82611bef565b60ff161161146e57604051630447252760e41b815260040160405180910390fd5b6001600160a01b039081166000908152600560209081526040808320949093168252929092529020805460ff19166001179055565b600080546201000090046001600160a01b03166380f70cba30836114c686613379565b6040518463ffffffff1660e01b81526004016114e493929190614946565b602060405180830381865afa158015611501573d6000803e3d6000fd5b505050506040513d601f19601f820116820180604052508101906115259190614842565b151592915050565b606061153833611b2a565b6115555760405163619c535960e01b815260040160405180910390fd5b83838080601f01602080910402602001604051908101604052809392919081815260200183838082843760009201919091525061159792508391506127c19050565b6115a3576115a361489a565b60006115e486868080601f016020809104026020016040519081016040528093929190818152602001838380828437600092019190915250610e0d92505050565b90508381610100018181516115f9919061496a565b90525061160581612e47565b9695505050505050565b61162161161a613401565b8383613469565b5050565b611621338383613469565b6001600160a01b038116600090815260046020526040812054618000161515610df1565b6000546201000090046001600160a01b03163314611685576040516362e9152760e11b815260040160405180910390fd5b600054604080516001600160a01b03620100009093048316815291831660208301527f13abda02e63c790d0e2818b251282cfe5cbe0a8abd69c54bf5d2260c0907bd2e910160405180910390a1600080546001600160a01b03909216620100000262010000600160b01b0319909216919091179055565b606061170733611b2a565b6117245760405163619c535960e01b815260040160405180910390fd5b82828080601f01602080910402602001604051908101604052809392919081815260200183838082843760009201919091525061176692508391506127c19050565b6117725761177261489a565b6000806117ec8a6001898c8c8080601f01602080910402602001604051908101604052809392919081815260200183838082843760009201919091525050604080516020601f8f018190048102820181019092528d815292508d91508c90819084018382808284376000920191909152506127e192505050565b915091508115610dd4576117ff81612969565b1561181f578080602001905181019061181891906148f5565b9350610dd4565b866118405760405163a85ba64f60e01b815260166004820152602401610cdd565b610dd48a60166129bd565b606061185633611b2a565b6118735760405163619c535960e01b815260040160405180910390fd5b86868080601f0160208091040260200160405190810160405280939291908181526020018383808284376000920191909152506118b592508391506127c19050565b6118c1576118c161489a565b600061190289898080601f016020809104026020016040519081016040528093929190818152602001838380828437600092019190915250610e0d92505050565b905061192981606001516001600160a01b0316600090815260046020526040902054151590565b801561193d57506001816000015160ff1610155b156119905760608101516001600160a01b039081166000908152600560209081526040808320938b168352929052205460ff166119905760405163a85ba64f60e01b8152601e6004820152602401610cdd565b80518161199c82614992565b60ff169052506003602082015260c0810186905261010081018590526001600160a01b0380881661012083015284166101408201526119da81612e47565b9998505050505050505050565b6000546201000090046001600160a01b03163314611a18576040516362e9152760e11b815260040160405180910390fd5b60035460408051634a3852d960e11b815290516000926001600160a01b031691639470a5b29160048083019260209291908290030181865afa158015611a62573d6000803e3d6000fd5b505050506040513d601f19601f82011682018060405250810190611a8691906149b1565b6040516311a5465560e21b81526001600160a01b03808316600483015291925090831690634695195490602401600060405180830381600087803b158015611acd57600080fd5b505af1158015611ae1573d6000803e3d6000fd5b50506040516001600160a01b038481168252851692507f840acbd291b38534819f47f875839277e502f40e1c7bfea2c5fc2c8017442cd391506020015b60405180910390a25050565b600080826001600160a01b0316637730599e6040518163ffffffff1660e01b8152600401602060405180830381865afa158015611b6b573d6000803e3d6000fd5b505050506040513d601f19601f82011682018060405250810190611b8f9190614842565b6000818152600260205260409020549091508015801590610e0557506001600160a01b0384166001611bc18184614871565b81548110611bd157611bd1614884565b6000918252602090912001546001600160a01b031614949350505050565b6001600160a01b03811660009081526004602052604081205460ff16610df1565b6060611c1b33611b2a565b611c385760405163619c535960e01b815260040160405180910390fd5b6000611c7985858080601f016020809104026020016040519081016040528093929190818152602001838380828437600092019190915250610e0d92505050565b9050828161010001818151611c8e919061496a565b905250611c9a81612e47565b95945050505050565b600054610100900460ff1615808015611cc35750600054600160ff909116105b80611cdd5750303b158015611cdd575060005460ff166001145b611cf95760405162461bcd60e51b8152600401610cdd906149ce565b6000805460ff191660011790558015611d1c576000805461ff0019166101001790555b8015611120576000805461ff0019169055604051600181527f7f26b83ff96e1f2b6a682f133852f6798a09c465da95921460cefb3847402498906020016113ca565b600081815260026020526040812054808203611d8d57604051630e4f4df560e11b815260040160405180910390fd5b611d98600182614871565b6001901b19841691505092915050565b7f000000000000000000000000000000000000000000000000000000000000000015611de7576040516305b93ebf60e41b815260040160405180910390fd5b61112081336001613bb9565b600081815260026020526040812054808203611e2257604051630e4f4df560e11b815260040160405180910390fd5b6001611e2e8183614871565b81548110611e3e57611e3e614884565b6000918252602090912001546001600160a01b03169392505050565b6060611e6533611b2a565b611e825760405163619c535960e01b815260040160405180910390fd5b84848080601f016020809104026020016040519081016040528093929190818152602001838380828437600092019190915250611ec492508391506127c19050565b611ed057611ed061489a565b611eda84846129bd565b85858080601f016020809104026020016040519081016040528093929190818152602001838380828437600092019190915250929998505050505050505050565b606082828080601f016020809104026020016040519081016040528093929190818152602001838380828437600092019190915250611f5f92508391506127c19050565b611f7f5760405163a85ba64f60e01b815260146004820152602401610cdd565b6001600160a01b0387166000908152600460205260408120548891819003611fba5760405163163cbe4360e01b815260040160405180910390fd5b618000811615611fdc57604051628e12d960e21b815260040160405180910390fd5b87878080601f0160208091040260200160405190810160405280939291908181526020018383808284376000920182905250925061201d9150839050613cd8565b90506001600160e01b031981166330d9c91560e01b148061204e57506001600160e01b0319811663d86ed3e560e01b145b8061206957506001600160e01b03198116630221347d60e61b145b8061208457506001600160e01b0319811663230dbd2960e01b145b8061209f57506001600160e01b03198116635f9e7d7760e01b145b806120ba57506001600160e01b031981166353c11f9960e01b145b156120d8576040516377a14afb60e11b815260040160405180910390fd5b600061211989898080601f016020809104026020016040519081016040528093929190818152602001838380828437600092019190915250610e0d92505050565b6101208101519091506001600160a01b0316331461214a576040516311cfdef560e21b815260040160405180910390fd5b6060810180513390915261215d82612e47565b97506000806121a48f8f8f8080601f0160208091040260200160405190810160405280939291908181526020018383808284376000920191909152508f9250612f7b915050565b91509150811561221757808060200190518101906121c291906148f5565b99506121cd8a6127c1565b6121ed5760405163a85ba64f60e01b815260146004820152602401610cdd565b6121f68a610e0d565b6001600160a01b0384166060820152935061221084612e47565b9950612220565b61222081613034565b50505050505050505095945050505050565b60008181526002602052604081205480820361226157604051630e4f4df560e11b815260040160405180910390fd5b61226c600182614871565b6001901b841791505092915050565b7f0000000000000000000000000000000000000000000000000000000000000000156123825760006122e33284848080601f016020809104026020016040519081016040528093929190818152602001838380828437600092019190915250613d3492505050565b6000805460405163407b865d60e11b81529293504292620100009091046001600160a01b0316916380f70cba916123209130918790600401614946565b602060405180830381865afa15801561233d573d6000803e3d6000fd5b505050506040513d601f19601f820116820180604052508101906123619190614842565b1015612380576040516319ab84d160e01b815260040160405180910390fd5b505b61238e83336001613bb9565b505050565b6000610dee83838080601f0160208091040260200160405190810160405280939291908181526020018383808284376000920191909152506127c192505050565b600054610100900460ff16158080156123f45750600054600160ff909116105b8061240e5750303b15801561240e575060005460ff166001145b61242a5760405162461bcd60e51b8152600401610cdd906149ce565b6000805460ff19166001179055801561244d576000805461ff0019166101001790555b6000805462010000600160b01b031916620100006001600160a01b038516021790558015611621576000805461ff0019169055604051600181527f7f26b83ff96e1f2b6a682f133852f6798a09c465da95921460cefb38474024989060200160405180910390a15050565b60606000806001805490506001600160401b038111156124da576124da614144565b604051908082528060200260200182016040528015612503578160200160208202803683370190505b50925060009050600091505b60015482101561259a576001821b84161561258a576001828154811061253757612537614884565b6000918252602090912001546001600160a01b0316838261255781614a1c565b93508151811061256957612569614884565b60200260200101906001600160a01b031690816001600160a01b0316815250505b61259382614a1c565b915061250f565b825250919050565b6003546000906001600160a01b03166125bd576125bd61489a565b7f0000000000000000000000000000000000000000000000000000000000000000156125f357506003546001600160a01b031690565b600360009054906101000a90046001600160a01b03166001600160a01b03166350d75d256040518163ffffffff1660e01b8152600401602060405180830381865afa158015612646573d6000803e3d6000fd5b505050506040513d601f19601f8201168201806040525081019061114d91906149b1565b333b600081900361268e5760405163353dacc360e21b815260040160405180910390fd5b507f0000000000000000000000000000000000000000000000000000000000000000156127665760006126c033613d67565b6000805460405163407b865d60e11b81529293509091620100009091046001600160a01b0316906380f70cba906126ff90309085908790600401614946565b602060405180830381865afa15801561271c573d6000803e3d6000fd5b505050506040513d601f19601f820116820180604052508101906127409190614842565b6001149050806127635760405163289533c560e01b815260040160405180910390fd5b50505b61162181836000613bb9565b6001600160a01b0381166000908152600460209081526040808320815192830190915254808252158015929182916127b957805161800081161515935064ff000000001691505b509193909250565b60008151600014158015610df15750600654825160208401201492915050565b600060606001600160a01b0387166127fb576127fb61489a565b6128058484613de1565b935060005a9050861561288357876001600160a01b0316622dc6c06001600160401b0316866040516128379190614a35565b6000604051808303818686fa925050503d8060008114612873576040519150601f19603f3d011682016040523d82523d6000602084013e612878565b606091505b5090935091506128f2565b876001600160a01b0316622dc6c06001600160401b0316866040516128a89190614a35565b60006040518083038160008787f1925050503d80600081146128e6576040519150601f19603f3d011682016040523d82523d6000602084013e6128eb565b606091505b5090935091505b8261295e5761290081613e98565b61292257856129175761291282613034565b61295e565b61291288600a6129bd565b60405162461bcd60e51b815260206004820152601160248201527053463a206e656564206d6f72652067617360781b6044820152606401610cdd565b509550959350505050565b600060408251101561297d57506000919050565b602082810151906000908214612997575060009392505050565b5060408301516129a681613eae565b6129b1906040614a51565b84511492505050919050565b6001600160a01b038216600090815260046020526040812054618000169003611621576001600160a01b038216600081815260046020526040908190208054618000179055517fbe3aa33bd245135e4e26b223d79d14ea479a47bff09f2b03c53838af1edbb14b90611b1e9084815260200190565b60065460609015612a595760405163a85ba64f60e01b815260156004820152602401610cdd565b6001600160a01b0383166000908152600460205260408120548491819003612a945760405163163cbe4360e01b815260040160405180910390fd5b618000811615612ab657604051628e12d960e21b815260040160405180910390fd5b836000612ac282613cd8565b90506001600160e01b031981166330d9c91560e01b1480612af357506001600160e01b0319811663d86ed3e560e01b145b80612b0e57506001600160e01b03198116630221347d60e61b145b80612b2957506001600160e01b0319811663230dbd2960e01b145b80612b4457506001600160e01b03198116635f9e7d7760e01b145b80612b5f57506001600160e01b031981166353c11f9960e01b145b15612b7d576040516377a14afb60e11b815260040160405180910390fd5b60408051610160810182526000808252600260208084019190915242838501526001600160a01b03808d16606085015260808401839052845191820190945281815260a083015260c0820181905260e0820181905261010082018190529189166101208201526101408101829052612bf490612e47565b90506000612c03898984612f7b565b975090508015612c515786806020019051810190612c2191906148f5565b9150612c2c826127c1565b612c4c5760405163a85ba64f60e01b815260146004820152602401610cdd565b612c5a565b612c5a87613034565b5050600060065550929695505050505050565b60065460609015612c945760405163a85ba64f60e01b815260156004820152602401610cdd565b83612c9e81611b2a565b612cbb5760405163619c535960e01b815260040160405180910390fd5b6000612cc685613cd8565b6040805161016081018252600080825260016020830152929350612d499181014281526020018a6001600160a01b03168152602001846001600160e01b031916815260200187815260200160008152602001600081526020016000815260200160006001600160a01b0316815260200160006001600160a01b0316815250612e47565b90506000612d58888884612f7b565b9550905080612d6a57612d6a85613034565b50506000600655509095945050505050565b612d84613f61565b60608083806020019051810190612d9b9190614a64565b81519193509150600090612db89084016020908101908501614abd565b60a08901526001600160e01b03191660808801526001600160a01b031660608701526040860152602081811c600f168187015260ff9091168552825160009250612e09919084018101908401614b41565b6001600160a01b03908116610140890152166101208701526101008601526001600160801b03811660c086015260801c60e085015250919392505050565b60606001826000015160ff161115612e755760405163a85ba64f60e01b815260286004820152602401610cdd565b815160208084015160009260ff1664ff000000009190921b1617905060006080612ea28560e00151613ee7565b6001600160801b0316901b612eba8560c00151613ee7565b6001600160801b0316179050818460400151856060015186608001518760a00151604051602001612eef959493929190614b8c565b60408051601f1981840301815282825261010087015161012088015161014089015160208601879052938501919091526001600160a01b03908116606085015290911660808301529060a00160408051601f1981840301815290829052612f59929160200161448c565b60408051601f1981840301815291905280516020820120600655949350505050565b600060606001600160a01b038516612f9557612f9561489a565b612f9f8484613de1565b9350846001600160a01b031684604051612fb99190614a35565b6000604051808303816000865af19150503d8060008114612ff6576040519150601f19603f3d011682016040523d82523d6000602084013e612ffb565b606091505b509092509050811561302c57805160000361302c5760405163a85ba64f60e01b815260166004820152602401610cdd565b935093915050565b6004815110156130865760405162461bcd60e51b815260206004820152601a60248201527f43616c6c5574696c733a207461726765742072657665727428290000000000006044820152606401610cdd565b602081015163b1b7848f60e01b6001600160e01b03198216016131365760408051808201825260208082527f43616c6c5574696c733a207461726765742070616e69636b65643a2030785f5f90820190815260248501517f43616c6c5574696c733a207461726765742070616e69636b65643a2030780000600482811c600f908116603090810160081b918516011791909117909252925162461bcd60e51b8152919291610cdd91849101614131565b81518060208401fd5b60006131697f360894a13ba1a3210667c828492db98dca3e2076cc3735a920a3ca505d382bbc5490565b6001600160a01b0316036131bf5760405162461bcd60e51b815260206004820152601d60248201527f5555505350726f786961626c653a206e6f742075706772616461626c650000006044820152606401610cdd565b806001600160a01b03166352d1902d6040518163ffffffff1660e01b8152600401602060405180830381865afa1580156131fd573d6000803e3d6000fd5b505050506040513d601f19601f820116820180604052508101906132219190614842565b7fcd355cae2c435f8c5e0c626c4691d22fd85aa7422a424c6f0bced6e64c7aba741461329b5760405162461bcd60e51b815260206004820152602360248201527f5555505350726f786961626c653a206e6f7420636f6d70617469626c65206c6f60448201526267696360e81b6064820152608401610cdd565b6001600160a01b03811630036132f35760405162461bcd60e51b815260206004820152601960248201527f5555505350726f786961626c653a2070726f7879206c6f6f70000000000000006044820152606401610cdd565b61331b817f360894a13ba1a3210667c828492db98dca3e2076cc3735a920a3ca505d382bbc55565b7fe011bc04c286c344a8fcbb8de77f953da762c3e25d8cdea984147fc4168a5dcc7fcd355cae2c435f8c5e0c626c4691d22fd85aa7422a424c6f0bced6e64c7aba74604080519182526001600160a01b0384166020830152016113ca565b6040805160208101829052603260608201527f6f72672e7375706572666c7569642d66696e616e63652e7375706572666c756960808201527132173a393ab9ba32b22337b93bb0b93232b960711b60a08201526001600160a01b0383169181019190915260009060c0015b604051602081830303815290604052805190602001209050919050565b6000601836108015906134185750613418336114a3565b61345c5760405162461bcd60e51b81526020600482015260156024820152742737ba103a393ab9ba32b2103337b93bb0b93232b960591b6044820152606401610cdd565b5060131936013560601c90565b60005b81811015613bb357600083838381811061348857613488614884565b905060200281019061349a9190614bd8565b6134a8906020810190614bee565b905060001963ffffffff82160161359c576000808585858181106134ce576134ce614884565b90506020028101906134e09190614bd8565b6134ee906040810190614c14565b8101906134fb9190614816565b9150915085858581811061351157613511614884565b90506020028101906135239190614bd8565b613534906040810190602001613fd1565b6001600160a01b03166362aa52878884846040518463ffffffff1660e01b815260040161356393929190614946565b600060405180830381600087803b15801561357d57600080fd5b505af1158015613591573d6000803e3d6000fd5b505050505050613ba2565b60011963ffffffff8216016136a75760008060008686868181106135c2576135c2614884565b90506020028101906135d49190614bd8565b6135e2906040810190614c14565b8101906135ef9190614c5a565b92509250925086868681811061360757613607614884565b90506020028101906136199190614bd8565b61362a906040810190602001613fd1565b604051630b682aeb60e11b81526001600160a01b038a81166004830152858116602483015284811660448301526064820184905291909116906316d055d6906084015b600060405180830381600087803b15801561368757600080fd5b505af115801561369b573d6000803e3d6000fd5b50505050505050613ba2565b60021963ffffffff8216016137665760008060008686868181106136cd576136cd614884565b90506020028101906136df9190614bd8565b6136ed906040810190614c14565b8101906136fa9190614c9b565b92509250925086868681811061371257613712614884565b90506020028101906137249190614bd8565b613735906040810190602001613fd1565b6001600160a01b031663ca0c1e7f898585856040518563ffffffff1660e01b815260040161366d9493929190614ce9565b60031963ffffffff82160161381f5760008085858581811061378a5761378a614884565b905060200281019061379c9190614bd8565b6137aa906040810190614c14565b8101906137b79190614816565b915091508585858181106137cd576137cd614884565b90506020028101906137df9190614bd8565b6137f0906040810190602001613fd1565b6001600160a01b0316634b2763b38884846040518463ffffffff1660e01b815260040161356393929190614946565b60041963ffffffff8216016138d85760008085858581811061384357613843614884565b90506020028101906138559190614bd8565b613863906040810190614c14565b8101906138709190614816565b9150915085858581811061388657613886614884565b90506020028101906138989190614bd8565b6138a9906040810190602001613fd1565b6001600160a01b031663c780fd828884846040518463ffffffff1660e01b815260040161356393929190614946565b60641963ffffffff8216016139cd578383838181106138f9576138f9614884565b905060200281019061390b9190614bd8565b61391c906040810190602001613fd1565b6001600160a01b031663ca7894648686868681811061393d5761393d614884565b905060200281019061394f9190614bd8565b61395d906040810190614c14565b81019061396a919061460d565b6040516001600160e01b031960e085901b1681526001600160a01b0390921660048301526024820152604401600060405180830381600087803b1580156139b057600080fd5b505af11580156139c4573d6000803e3d6000fd5b50505050613ba2565b60651963ffffffff821601613a32578383838181106139ee576139ee614884565b9050602002810190613a009190614bd8565b613a11906040810190602001613fd1565b6001600160a01b031663245887fc8686868681811061393d5761393d614884565b60c81963ffffffff821601613acf57600080858585818110613a5657613a56614884565b9050602002810190613a689190614bd8565b613a76906040810190614c14565b810190613a839190614d1c565b91509150613ac787878787818110613a9d57613a9d614884565b9050602002810190613aaf9190614bd8565b613ac0906040810190602001613fd1565b8484612c6d565b505050613ba2565b60c91963ffffffff821601613b8957613b8385858585818110613af457613af4614884565b9050602002810190613b069190614bd8565b613b17906040810190602001613fd1565b868686818110613b2957613b29614884565b9050602002810190613b3b9190614bd8565b613b49906040810190614c14565b8080601f016020809104026020016040519081016040528093929190818152602001838380828437600092019190915250612a3292505050565b50613ba2565b60405163b477011560e01b815260040160405180910390fd5b50613bac81614a1c565b905061346c565b50505050565b323303613bdc5760405163a85ba64f60e01b815260026004820152602401610cdd565b8015613c0857813b8015613c065760405163a85ba64f60e01b815260016004820152602401610cdd565b505b64ff000080ff198316151580613c1f575060ff8316155b80613c2d5750618000831615155b15613c4b57604051633d3200a960e21b815260040160405180910390fd5b6001600160a01b03821660009081526004602052604090205415613c82576040516301b0a93560e01b815260040160405180910390fd5b60408051602080820183528582526001600160a01b038516600081815260049092528382209251909255915190917f0d540ad8f39e07d19909687352b9fa017405d93c91a6760981fbae9cf28bfef791a2505050565b6000600482511015613d2c5760405162461bcd60e51b815260206004820152601b60248201527f43616c6c5574696c733a20696e76616c69642063616c6c4461746100000000006044820152606401610cdd565b506020015190565b60008282604051602001613d49929190614d75565b60405160208183030381529060405280519060200120905092915050565b6040805160208101829052603960608201527f6f72672e7375706572666c7569642d66696e616e63652e7375706572666c756960808201527f642e61707057686974654c697374696e672e666163746f72790000000000000060a08201526001600160a01b0383169181019190915260009060c0016133e4565b815180830151606091908015613e0a576040516367e9985b60e01b815260040160405180910390fd5b50601f1981018452825184908481613e2181613eae565b613e2b9190614871565b6001600160401b03811115613e4257613e42614144565b6040519080825280601f01601f191660200182016040528015613e6c576020820181803683370190505b50604051602001613e809493929190614dfa565b60405160208183030381529060405291505092915050565b6000613ea5603f83614e49565b5a111592915050565b60008082601f1611613ec1576000613ec4565b60015b60ff16613ed2602084614e49565b613edc9190614a51565b610df1906020614e6b565b60006001600160801b03821115613f505760405162461bcd60e51b815260206004820152602760248201527f53616665436173743a2076616c756520646f65736e27742066697420696e20316044820152663238206269747360c81b6064820152608401610cdd565b5090565b61024a80614e8383390190565b604080516101608101825260008082526020820181905291810182905260608082018390526080820183905260a082015260c0810182905260e081018290526101008101829052610120810182905261014081019190915290565b6001600160a01b038116811461112057600080fd5b600060208284031215613fe357600080fd5b8135613fee81613fbc565b9392505050565b60008083601f84011261400757600080fd5b5081356001600160401b0381111561401e57600080fd5b60208301915083602082850101111561403657600080fd5b9250929050565b801515811461112057600080fd5b6000806000806000806080878903121561406457600080fd5b863561406f81613fbc565b955060208701356001600160401b038082111561408b57600080fd5b6140978a838b01613ff5565b9097509550604089013591506140ac8261403d565b909350606088013590808211156140c257600080fd5b506140cf89828a01613ff5565b979a9699509497509295939492505050565b60005b838110156140fc5781810151838201526020016140e4565b50506000910152565b6000815180845261411d8160208601602086016140e1565b601f01601f19169290920160200192915050565b602081526000610dee6020830184614105565b634e487b7160e01b600052604160045260246000fd5b604051601f8201601f191681016001600160401b038111828210171561418257614182614144565b604052919050565b60006001600160401b038211156141a3576141a3614144565b50601f01601f191660200190565b600082601f8301126141c257600080fd5b81356141d56141d08261418a565b61415a565b8181528460208386010111156141ea57600080fd5b816020850160208301376000918101602001919091529392505050565b6000806040838503121561421a57600080fd5b823561422581613fbc565b915060208301356001600160401b0381111561424057600080fd5b61424c858286016141b1565b9150509250929050565b60008060006060848603121561426b57600080fd5b833561427681613fbc565b925060208401356001600160401b038082111561429257600080fd5b61429e878388016141b1565b935060408601359150808211156142b457600080fd5b506142c1868287016141b1565b9150509250925092565b6000602082840312156142dd57600080fd5b81356001600160401b038111156142f357600080fd5b610e05848285016141b1565b6020815261431360208201835160ff169052565b60006020830151614329604084018260ff169052565b5060408301516060830152606083015161434e60808401826001600160a01b03169052565b5060808301516001600160e01b0319811660a08401525060a08301516101608060c0850152614381610180850183614105565b915060c085015160e085015260e08501516101008181870152808701519150506101208181870152808701519150506101406143c7818701836001600160a01b03169052565b909501516001600160a01b031693019290925250919050565b60008060008060008060006080888a0312156143fb57600080fd5b873561440681613fbc565b965060208801356001600160401b038082111561442257600080fd5b61442e8b838c01613ff5565b909850965060408a013591508082111561444757600080fd5b6144538b838c01613ff5565b909650945060608a013591508082111561446c57600080fd5b506144798a828b01613ff5565b989b979a50959850939692959293505050565b60408152600061449f6040830185614105565b8281036020840152611c9a8185614105565b6000806000604084860312156144c657600080fd5b83356001600160401b038111156144dc57600080fd5b6144e886828701613ff5565b909790965060209590950135949350505050565b6000806020838503121561450f57600080fd5b82356001600160401b038082111561452657600080fd5b818501915085601f83011261453a57600080fd5b81358181111561454957600080fd5b8660208260051b850101111561455e57600080fd5b60209290920196919550909350505050565b60008060008060008060a0878903121561458957600080fd5b86356001600160401b0381111561459f57600080fd5b6145ab89828a01613ff5565b90975095505060208701356145bf81613fbc565b9350604087013592506060870135915060808701356145dd81613fbc565b809150509295509295509295565b600080604083850312156145fe57600080fd5b50508035926020909101359150565b60006020828403121561461f57600080fd5b5035919050565b6000806000806060858703121561463c57600080fd5b84356001600160401b0381111561465257600080fd5b61465e87828801613ff5565b909550935050602085013561467281613fbc565b9396929550929360400135925050565b60008060008060006060868803121561469a57600080fd5b85356146a581613fbc565b945060208601356001600160401b03808211156146c157600080fd5b6146cd89838a01613ff5565b909650945060408801359150808211156146e657600080fd5b506146f388828901613ff5565b969995985093965092949392505050565b6000806040838503121561471757600080fd5b823561472281613fbc565b9150602083013561473281613fbc565b809150509250929050565b60008060006040848603121561475257600080fd5b8335925060208401356001600160401b0381111561476f57600080fd5b61477b86828701613ff5565b9497909650939450505050565b6000806020838503121561479b57600080fd5b82356001600160401b038111156147b157600080fd5b6147bd85828601613ff5565b90969095509350505050565b6020808252825182820181905260009190848201906040850190845b8181101561480a5783516001600160a01b0316835292840192918401916001016147e5565b50909695505050505050565b6000806040838503121561482957600080fd5b823561483481613fbc565b946020939093013593505050565b60006020828403121561485457600080fd5b5051919050565b634e487b7160e01b600052601160045260246000fd5b81810381811115610df157610df161485b565b634e487b7160e01b600052603260045260246000fd5b634e487b7160e01b600052600160045260246000fd5b600082601f8301126148c157600080fd5b81516148cf6141d08261418a565b8181528460208386010111156148e457600080fd5b610e058260208301602087016140e1565b60006020828403121561490757600080fd5b81516001600160401b0381111561491d57600080fd5b610e05848285016148b0565b60006020828403121561493b57600080fd5b8151613fee8161403d565b6001600160a01b039384168152919092166020820152604081019190915260600190565b808201828112600083128015821682158216171561498a5761498a61485b565b505092915050565b600060ff821660ff81036149a8576149a861485b565b60010192915050565b6000602082840312156149c357600080fd5b8151613fee81613fbc565b6020808252602e908201527f496e697469616c697a61626c653a20636f6e747261637420697320616c72656160408201526d191e481a5b9a5d1a585b1a5e995960921b606082015260800190565b600060018201614a2e57614a2e61485b565b5060010190565b60008251614a478184602087016140e1565b9190910192915050565b80820180821115610df157610df161485b565b60008060408385031215614a7757600080fd5b82516001600160401b0380821115614a8e57600080fd5b614a9a868387016148b0565b93506020850151915080821115614ab057600080fd5b5061424c858286016148b0565b600080600080600060a08688031215614ad557600080fd5b85519450602086015193506040860151614aee81613fbc565b60608701519093506001600160e01b031981168114614b0c57600080fd5b60808701519092506001600160401b03811115614b2857600080fd5b614b34888289016148b0565b9150509295509295909350565b60008060008060808587031215614b5757600080fd5b84519350602085015192506040850151614b7081613fbc565b6060860151909250614b8181613fbc565b939692955090935050565b858152602081018590526001600160a01b03841660408201526001600160e01b03198316606082015260a060808201819052600090614bcd90830184614105565b979650505050505050565b60008235605e19833603018112614a4757600080fd5b600060208284031215614c0057600080fd5b813563ffffffff81168114613fee57600080fd5b6000808335601e19843603018112614c2b57600080fd5b8301803591506001600160401b03821115614c4557600080fd5b60200191503681900382131561403657600080fd5b600080600060608486031215614c6f57600080fd5b8335614c7a81613fbc565b92506020840135614c8a81613fbc565b929592945050506040919091013590565b600080600060608486031215614cb057600080fd5b8335614cbb81613fbc565b92506020840135915060408401356001600160401b03811115614cdd57600080fd5b6142c1868287016141b1565b6001600160a01b038581168252841660208201526040810183905260806060820181905260009061160590830184614105565b60008060408385031215614d2f57600080fd5b82356001600160401b0380821115614d4657600080fd5b614d52868387016141b1565b93506020850135915080821115614d6857600080fd5b5061424c858286016141b1565b60608152604160608201527f6f72672e7375706572666c7569642d66696e616e63652e7375706572666c756960808201527f642e61707057686974654c697374696e672e726567697374726174696f6e4b6560a0820152607960f81b60c082015260018060a01b038316602082015260e060408201526000610e0560e0830184614105565b600085516020614e0d8285838b016140e1565b81840191508682528551614e2681838501848a016140e1565b8551920191614e3a818385018489016140e1565b91909101019695505050505050565b600082614e6657634e487b7160e01b600052601260045260246000fd5b500490565b8082028115828204841417610df157610df161485b56fe608060405234801561001057600080fd5b5061022a806100206000396000f3fe6080604052600436106100225760003560e01c80634a0687ef1461003957610031565b366100315761002f610059565b005b61002f610059565b34801561004557600080fd5b5061002f6100543660046101c4565b61006b565b610069610064610171565b6101a0565b565b6001600160a01b0381166100c65760405162461bcd60e51b815260206004820152601760248201527f5555505350726f78793a207a65726f206164647265737300000000000000000060448201526064015b60405180910390fd5b60006100f07f360894a13ba1a3210667c828492db98dca3e2076cc3735a920a3ca505d382bbc5490565b6001600160a01b0316146101465760405162461bcd60e51b815260206004820152601e60248201527f5555505350726f78793a20616c726561647920696e697469616c697a6564000060448201526064016100bd565b61016e817f360894a13ba1a3210667c828492db98dca3e2076cc3735a920a3ca505d382bbc55565b50565b600061019b7f360894a13ba1a3210667c828492db98dca3e2076cc3735a920a3ca505d382bbc5490565b905090565b3660008037600080366000845af43d6000803e8080156101bf573d6000f35b3d6000fd5b6000602082840312156101d657600080fd5b81356001600160a01b03811681146101ed57600080fd5b939250505056fea26469706673582212201524a97357cb5a243d80577e1154450ede73c1b6b5b45decba319c216755e56e64736f6c63430008130033a26469706673582212203ce30187dd03093414663d5410fe2698729a0350d0c734566f670e1791b046b364736f6c63430008130033",
    "linkReferences": {}
  },
  "methodIdentifiers": {
    "APP_WHITE_LISTING_ENABLED()": "9d297e30",
    "CALLBACK_GAS_LIMIT()": "33d608f1",
    "MAX_APP_CALLBACK_LEVEL()": "bd3252c8",
    "NON_UPGRADABLE_DEPLOYMENT()": "cd312ec4",
    "addToAgreementClassesBitmap(uint256,bytes32)": "bced3ddc",
    "allowCompositeApp(address)": "57121e0c",
    "appCallbackPop(bytes,int256)": "989b0c3e",
    "appCallbackPush(bytes,address,uint256,int256,address)": "768fabb0",
    "batchCall((uint32,address,bytes)[])": "6ad3ca7d",
    "callAgreement(address,bytes,bytes)": "39255d5b",
    "callAgreementWithContext(address,bytes,bytes,bytes)": "4329d293",
    "callAppAction(address,bytes)": "1e855cf3",
    "callAppActionWithContext(address,bytes,bytes)": "ba48b5f8",
    "callAppAfterCallback(address,bytes,bool,bytes)": "1e6d0a84",
    "callAppBeforeCallback(address,bytes,bool,bytes)": "74041e02",
    "castrate()": "9903ad38",
    "ctxUseCredit(bytes,int256)": "59a29141",
    "decodeCtx(bytes)": "3f6c923a",
    "forwardBatchCall((uint32,address,bytes)[])": "670e77e3",
    "getAgreementClass(bytes32)": "b6d200de",
    "getAppCallbackLevel(address)": "9378fa13",
    "getAppManifest(address)": "f9f522f4",
    "getCodeAddress()": "50d75d25",
    "getGovernance()": "289b3c0d",
    "getNow()": "bbe4fd50",
    "getSuperTokenFactory()": "731aed6e",
    "getSuperTokenFactoryLogic()": "f2e55caf",
    "initialize(address)": "c4d66de8",
    "isAgreementClassListed(address)": "8ca48484",
    "isAgreementTypeListed(bytes32)": "e8dccb7d",
    "isApp(address)": "3ca3ad4e",
    "isAppJailed(address)": "6b4f3335",
    "isCompositeAppAllowed(address,address)": "bb84cfa1",
    "isCtxValid(bytes)": "bf428734",
    "isTrustedForwarder(address)": "572b6c05",
    "jailApp(bytes,address,uint256)": "b724211e",
    "mapAgreementClasses(uint256)": "c56a069d",
    "proxiableUUID()": "52d1902d",
    "registerAgreementClass(address)": "15a024e1",
    "registerApp(uint256)": "ad3915c8",
    "registerAppByFactory(address,uint256)": "f3733052",
    "registerAppWithKey(uint256,string)": "bd1c448b",
    "removeFromAgreementClassesBitmap(uint256,bytes32)": "a5dbbbcd",
    "replaceGovernance(address)": "7283100c",
    "updateAgreementClass(address)": "06cecba8",
    "updateCode(address)": "46951954",
    "updateSuperTokenFactory(address)": "54fbc493",
    "updateSuperTokenLogic(address)": "787afde7",
    "versionRecipient()": "486ff0cd"
  },
  "id": 90
}