{
  "abi": [
    {
      "inputs": [
        {
          "internalType": "contract ISuperfluid",
          "name": "host",
          "type": "address"
        },
        {
          "internalType": "contract IConstantFlowAgreementHook",
          "name": "_hookAddress",
          "type": "address"
        }
      ],
      "stateMutability": "nonpayable",
      "type": "constructor"
    },
    {
      "inputs": [],
      "name": "AGREEMENT_BASE_ONLY_HOST",
      "type": "error"
    },
    {
      "inputs": [
        {
          "internalType": "uint256",
          "name": "_code",
          "type": "uint256"
        }
      ],
      "name": "APP_RULE",
      "type": "error"
    },
    {
      "inputs": [],
      "name": "CFA_ACL_FLOW_RATE_ALLOWANCE_EXCEEDED",
      "type": "error"
    },
    {
      "inputs": [],
      "name": "CFA_ACL_NO_NEGATIVE_ALLOWANCE",
      "type": "error"
    },
    {
      "inputs": [],
      "name": "CFA_ACL_NO_SENDER_CREATE",
      "type": "error"
    },
    {
      "inputs": [],
      "name": "CFA_ACL_NO_SENDER_FLOW_OPERATOR",
      "type": "error"
    },
    {
      "inputs": [],
      "name": "CFA_ACL_NO_SENDER_UPDATE",
      "type": "error"
    },
    {
      "inputs": [],
      "name": "CFA_ACL_OPERATOR_NO_CREATE_PERMISSIONS",
      "type": "error"
    },
    {
      "inputs": [],
      "name": "CFA_ACL_OPERATOR_NO_DELETE_PERMISSIONS",
      "type": "error"
    },
    {
      "inputs": [],
      "name": "CFA_ACL_OPERATOR_NO_UPDATE_PERMISSIONS",
      "type": "error"
    },
    {
      "inputs": [],
      "name": "CFA_ACL_UNCLEAN_PERMISSIONS",
      "type": "error"
    },
    {
      "inputs": [],
      "name": "CFA_DEPOSIT_TOO_BIG",
      "type": "error"
    },
    {
      "inputs": [],
      "name": "CFA_FLOW_ALREADY_EXISTS",
      "type": "error"
    },
    {
      "inputs": [],
      "name": "CFA_FLOW_DOES_NOT_EXIST",
      "type": "error"
    },
    {
      "inputs": [],
      "name": "CFA_FLOW_RATE_TOO_BIG",
      "type": "error"
    },
    {
      "inputs": [],
      "name": "CFA_HOOK_OUT_OF_GAS",
      "type": "error"
    },
    {
      "inputs": [],
      "name": "CFA_INSUFFICIENT_BALANCE",
      "type": "error"
    },
    {
      "inputs": [],
      "name": "CFA_INVALID_FLOW_RATE",
      "type": "error"
    },
    {
      "inputs": [],
      "name": "CFA_NON_CRITICAL_SENDER",
      "type": "error"
    },
    {
      "inputs": [],
      "name": "CFA_NO_SELF_FLOW",
      "type": "error"
    },
    {
      "inputs": [],
      "name": "CFA_ZERO_ADDRESS_RECEIVER",
      "type": "error"
    },
    {
      "inputs": [],
      "name": "CFA_ZERO_ADDRESS_SENDER",
      "type": "error"
    },
    {
      "inputs": [],
      "name": "OUT_OF_GAS",
      "type": "error"
    },
    {
      "anonymous": false,
      "inputs": [
        {
          "indexed": false,
          "internalType": "bytes32",
          "name": "uuid",
          "type": "bytes32"
        },
        {
          "indexed": false,
          "internalType": "address",
          "name": "codeAddress",
          "type": "address"
        }
      ],
      "name": "CodeUpdated",
      "type": "event"
    },
    {
      "anonymous": false,
      "inputs": [
        {
          "indexed": true,
          "internalType": "contract ISuperfluidToken",
          "name": "token",
          "type": "address"
        },
        {
          "indexed": true,
          "internalType": "address",
          "name": "sender",
          "type": "address"
        },
        {
          "indexed": true,
          "internalType": "address",
          "name": "flowOperator",
          "type": "address"
        },
        {
          "indexed": false,
          "internalType": "uint8",
          "name": "permissions",
          "type": "uint8"
        },
        {
          "indexed": false,
          "internalType": "int96",
          "name": "flowRateAllowance",
          "type": "int96"
        }
      ],
      "name": "FlowOperatorUpdated",
      "type": "event"
    },
    {
      "anonymous": false,
      "inputs": [
        {
          "indexed": true,
          "internalType": "contract ISuperfluidToken",
          "name": "token",
          "type": "address"
        },
        {
          "indexed": true,
          "internalType": "address",
          "name": "sender",
          "type": "address"
        },
        {
          "indexed": true,
          "internalType": "address",
          "name": "receiver",
          "type": "address"
        },
        {
          "indexed": false,
          "internalType": "int96",
          "name": "flowRate",
          "type": "int96"
        },
        {
          "indexed": false,
          "internalType": "int256",
          "name": "totalSenderFlowRate",
          "type": "int256"
        },
        {
          "indexed": false,
          "internalType": "int256",
          "name": "totalReceiverFlowRate",
          "type": "int256"
        },
        {
          "indexed": false,
          "internalType": "bytes",
          "name": "userData",
          "type": "bytes"
        }
      ],
      "name": "FlowUpdated",
      "type": "event"
    },
    {
      "anonymous": false,
      "inputs": [
        {
          "indexed": true,
          "internalType": "address",
          "name": "flowOperator",
          "type": "address"
        },
        {
          "indexed": false,
          "internalType": "uint256",
          "name": "deposit",
          "type": "uint256"
        }
      ],
      "name": "FlowUpdatedExtension",
      "type": "event"
    },
    {
      "anonymous": false,
      "inputs": [
        {
          "indexed": false,
          "internalType": "uint8",
          "name": "version",
          "type": "uint8"
        }
      ],
      "name": "Initialized",
      "type": "event"
    },
    {
      "inputs": [],
      "name": "CFA_HOOK_GAS_LIMIT",
      "outputs": [
        {
          "internalType": "uint64",
          "name": "",
          "type": "uint64"
        }
      ],
      "stateMutability": "view",
      "type": "function"
    },
    {
      "inputs": [],
      "name": "DEFAULT_MINIMUM_DEPOSIT",
      "outputs": [
        {
          "internalType": "uint256",
          "name": "",
          "type": "uint256"
        }
      ],
      "stateMutability": "view",
      "type": "function"
    },
    {
      "inputs": [],
      "name": "MAXIMUM_DEPOSIT",
      "outputs": [
        {
          "internalType": "uint256",
          "name": "",
          "type": "uint256"
        }
      ],
      "stateMutability": "view",
      "type": "function"
    },
    {
      "inputs": [],
      "name": "MAXIMUM_FLOW_RATE",
      "outputs": [
        {
          "internalType": "uint256",
          "name": "",
          "type": "uint256"
        }
      ],
      "stateMutability": "view",
      "type": "function"
    },
    {
      "inputs": [],
      "name": "agreementType",
      "outputs": [
        {
          "internalType": "bytes32",
          "name": "",
          "type": "bytes32"
        }
      ],
      "stateMutability": "pure",
      "type": "function"
    },
    {
      "inputs": [
        {
          "internalType": "contract ISuperfluidToken",
          "name": "token",
          "type": "address"
        },
        {
          "internalType": "address",
          "name": "flowOperator",
          "type": "address"
        },
        {
          "internalType": "bytes",
          "name": "ctx",
          "type": "bytes"
        }
      ],
      "name": "authorizeFlowOperatorWithFullControl",
      "outputs": [
        {
          "internalType": "bytes",
          "name": "newCtx",
          "type": "bytes"
        }
      ],
      "stateMutability": "nonpayable",
      "type": "function"
    },
    {
      "inputs": [],
      "name": "castrate",
      "outputs": [],
      "stateMutability": "nonpayable",
      "type": "function"
    },
    {
      "inputs": [],
      "name": "constantFlowAgreementHook",
      "outputs": [
        {
          "internalType": "contract IConstantFlowAgreementHook",
          "name": "",
          "type": "address"
        }
      ],
      "stateMutability": "view",
      "type": "function"
    },
    {
      "inputs": [
        {
          "internalType": "contract ISuperfluidToken",
          "name": "token",
          "type": "address"
        },
        {
          "internalType": "address",
          "name": "receiver",
          "type": "address"
        },
        {
          "internalType": "int96",
          "name": "flowRate",
          "type": "int96"
        },
        {
          "internalType": "bytes",
          "name": "ctx",
          "type": "bytes"
        }
      ],
      "name": "createFlow",
      "outputs": [
        {
          "internalType": "bytes",
          "name": "newCtx",
          "type": "bytes"
        }
      ],
      "stateMutability": "nonpayable",
      "type": "function"
    },
    {
      "inputs": [
        {
          "internalType": "contract ISuperfluidToken",
          "name": "token",
          "type": "address"
        },
        {
          "internalType": "address",
          "name": "sender",
          "type": "address"
        },
        {
          "internalType": "address",
          "name": "receiver",
          "type": "address"
        },
        {
          "internalType": "int96",
          "name": "flowRate",
          "type": "int96"
        },
        {
          "internalType": "bytes",
          "name": "ctx",
          "type": "bytes"
        }
      ],
      "name": "createFlowByOperator",
      "outputs": [
        {
          "internalType": "bytes",
          "name": "newCtx",
          "type": "bytes"
        }
      ],
      "stateMutability": "nonpayable",
      "type": "function"
    },
    {
      "inputs": [
        {
          "internalType": "contract ISuperfluidToken",
          "name": "token",
          "type": "address"
        },
        {
          "internalType": "address",
          "name": "flowOperator",
          "type": "address"
        },
        {
          "internalType": "int96",
          "name": "subtractedFlowRateAllowance",
          "type": "int96"
        },
        {
          "internalType": "bytes",
          "name": "ctx",
          "type": "bytes"
        }
      ],
      "name": "decreaseFlowRateAllowance",
      "outputs": [
        {
          "internalType": "bytes",
          "name": "newCtx",
          "type": "bytes"
        }
      ],
      "stateMutability": "nonpayable",
      "type": "function"
    },
    {
      "inputs": [
        {
          "internalType": "contract ISuperfluidToken",
          "name": "token",
          "type": "address"
        },
        {
          "internalType": "address",
          "name": "sender",
          "type": "address"
        },
        {
          "internalType": "address",
          "name": "receiver",
          "type": "address"
        },
        {
          "internalType": "bytes",
          "name": "ctx",
          "type": "bytes"
        }
      ],
      "name": "deleteFlow",
      "outputs": [
        {
          "internalType": "bytes",
          "name": "newCtx",
          "type": "bytes"
        }
      ],
      "stateMutability": "nonpayable",
      "type": "function"
    },
    {
      "inputs": [
        {
          "internalType": "contract ISuperfluidToken",
          "name": "token",
          "type": "address"
        },
        {
          "internalType": "address",
          "name": "sender",
          "type": "address"
        },
        {
          "internalType": "address",
          "name": "receiver",
          "type": "address"
        },
        {
          "internalType": "bytes",
          "name": "ctx",
          "type": "bytes"
        }
      ],
      "name": "deleteFlowByOperator",
      "outputs": [
        {
          "internalType": "bytes",
          "name": "newCtx",
          "type": "bytes"
        }
      ],
      "stateMutability": "nonpayable",
      "type": "function"
    },
    {
      "inputs": [
        {
          "internalType": "contract ISuperfluidToken",
          "name": "token",
          "type": "address"
        },
        {
          "internalType": "address",
          "name": "account",
          "type": "address"
        }
      ],
      "name": "getAccountFlowInfo",
      "outputs": [
        {
          "internalType": "uint256",
          "name": "timestamp",
          "type": "uint256"
        },
        {
          "internalType": "int96",
          "name": "flowRate",
          "type": "int96"
        },
        {
          "internalType": "uint256",
          "name": "deposit",
          "type": "uint256"
        },
        {
          "internalType": "uint256",
          "name": "owedDeposit",
          "type": "uint256"
        }
      ],
      "stateMutability": "view",
      "type": "function"
    },
    {
      "inputs": [],
      "name": "getCodeAddress",
      "outputs": [
        {
          "internalType": "address",
          "name": "codeAddress",
          "type": "address"
        }
      ],
      "stateMutability": "view",
      "type": "function"
    },
    {
      "inputs": [
        {
          "internalType": "contract ISuperfluidToken",
          "name": "token",
          "type": "address"
        },
        {
          "internalType": "int96",
          "name": "flowRate",
          "type": "int96"
        }
      ],
      "name": "getDepositRequiredForFlowRate",
      "outputs": [
        {
          "internalType": "uint256",
          "name": "deposit",
          "type": "uint256"
        }
      ],
      "stateMutability": "view",
      "type": "function"
    },
    {
      "inputs": [
        {
          "internalType": "contract ISuperfluidToken",
          "name": "token",
          "type": "address"
        },
        {
          "internalType": "address",
          "name": "sender",
          "type": "address"
        },
        {
          "internalType": "address",
          "name": "receiver",
          "type": "address"
        }
      ],
      "name": "getFlow",
      "outputs": [
        {
          "internalType": "uint256",
          "name": "timestamp",
          "type": "uint256"
        },
        {
          "internalType": "int96",
          "name": "flowRate",
          "type": "int96"
        },
        {
          "internalType": "uint256",
          "name": "deposit",
          "type": "uint256"
        },
        {
          "internalType": "uint256",
          "name": "owedDeposit",
          "type": "uint256"
        }
      ],
      "stateMutability": "view",
      "type": "function"
    },
    {
      "inputs": [
        {
          "internalType": "contract ISuperfluidToken",
          "name": "token",
          "type": "address"
        },
        {
          "internalType": "bytes32",
          "name": "flowId",
          "type": "bytes32"
        }
      ],
      "name": "getFlowByID",
      "outputs": [
        {
          "internalType": "uint256",
          "name": "timestamp",
          "type": "uint256"
        },
        {
          "internalType": "int96",
          "name": "flowRate",
          "type": "int96"
        },
        {
          "internalType": "uint256",
          "name": "deposit",
          "type": "uint256"
        },
        {
          "internalType": "uint256",
          "name": "owedDeposit",
          "type": "uint256"
        }
      ],
      "stateMutability": "view",
      "type": "function"
    },
    {
      "inputs": [
        {
          "internalType": "contract ISuperfluidToken",
          "name": "token",
          "type": "address"
        },
        {
          "internalType": "address",
          "name": "sender",
          "type": "address"
        },
        {
          "internalType": "address",
          "name": "flowOperator",
          "type": "address"
        }
      ],
      "name": "getFlowOperatorData",
      "outputs": [
        {
          "internalType": "bytes32",
          "name": "flowOperatorId",
          "type": "bytes32"
        },
        {
          "internalType": "uint8",
          "name": "permissions",
          "type": "uint8"
        },
        {
          "internalType": "int96",
          "name": "flowRateAllowance",
          "type": "int96"
        }
      ],
      "stateMutability": "view",
      "type": "function"
    },
    {
      "inputs": [
        {
          "internalType": "contract ISuperfluidToken",
          "name": "token",
          "type": "address"
        },
        {
          "internalType": "bytes32",
          "name": "flowOperatorId",
          "type": "bytes32"
        }
      ],
      "name": "getFlowOperatorDataByID",
      "outputs": [
        {
          "internalType": "uint8",
          "name": "permissions",
          "type": "uint8"
        },
        {
          "internalType": "int96",
          "name": "flowRateAllowance",
          "type": "int96"
        }
      ],
      "stateMutability": "view",
      "type": "function"
    },
    {
      "inputs": [
        {
          "internalType": "contract ISuperfluidToken",
          "name": "token",
          "type": "address"
        },
        {
          "internalType": "uint256",
          "name": "deposit",
          "type": "uint256"
        }
      ],
      "name": "getMaximumFlowRateFromDeposit",
      "outputs": [
        {
          "internalType": "int96",
          "name": "flowRate",
          "type": "int96"
        }
      ],
      "stateMutability": "view",
      "type": "function"
    },
    {
      "inputs": [
        {
          "internalType": "contract ISuperfluidToken",
          "name": "token",
          "type": "address"
        },
        {
          "internalType": "address",
          "name": "account",
          "type": "address"
        }
      ],
      "name": "getNetFlow",
      "outputs": [
        {
          "internalType": "int96",
          "name": "flowRate",
          "type": "int96"
        }
      ],
      "stateMutability": "view",
      "type": "function"
    },
    {
      "inputs": [
        {
          "internalType": "contract ISuperfluidToken",
          "name": "token",
          "type": "address"
        },
        {
          "internalType": "address",
          "name": "flowOperator",
          "type": "address"
        },
        {
          "internalType": "int96",
          "name": "addedFlowRateAllowance",
          "type": "int96"
        },
        {
          "internalType": "bytes",
          "name": "ctx",
          "type": "bytes"
        }
      ],
      "name": "increaseFlowRateAllowance",
      "outputs": [
        {
          "internalType": "bytes",
          "name": "newCtx",
          "type": "bytes"
        }
      ],
      "stateMutability": "nonpayable",
      "type": "function"
    },
    {
      "inputs": [
        {
          "internalType": "contract ISuperfluidToken",
          "name": "token",
          "type": "address"
        },
        {
          "internalType": "address",
          "name": "account",
          "type": "address"
        },
        {
          "internalType": "uint256",
          "name": "timestamp",
          "type": "uint256"
        }
      ],
      "name": "isPatricianPeriod",
      "outputs": [
        {
          "internalType": "bool",
          "name": "",
          "type": "bool"
        }
      ],
      "stateMutability": "view",
      "type": "function"
    },
    {
      "inputs": [
        {
          "internalType": "contract ISuperfluidToken",
          "name": "token",
          "type": "address"
        },
        {
          "internalType": "address",
          "name": "account",
          "type": "address"
        }
      ],
      "name": "isPatricianPeriodNow",
      "outputs": [
        {
          "internalType": "bool",
          "name": "isCurrentlyPatricianPeriod",
          "type": "bool"
        },
        {
          "internalType": "uint256",
          "name": "timestamp",
          "type": "uint256"
        }
      ],
      "stateMutability": "view",
      "type": "function"
    },
    {
      "inputs": [],
      "name": "proxiableUUID",
      "outputs": [
        {
          "internalType": "bytes32",
          "name": "",
          "type": "bytes32"
        }
      ],
      "stateMutability": "view",
      "type": "function"
    },
    {
      "inputs": [
        {
          "internalType": "contract ISuperfluidToken",
          "name": "token",
          "type": "address"
        },
        {
          "internalType": "address",
          "name": "account",
          "type": "address"
        },
        {
          "internalType": "uint256",
          "name": "time",
          "type": "uint256"
        }
      ],
      "name": "realtimeBalanceOf",
      "outputs": [
        {
          "internalType": "int256",
          "name": "dynamicBalance",
          "type": "int256"
        },
        {
          "internalType": "uint256",
          "name": "deposit",
          "type": "uint256"
        },
        {
          "internalType": "uint256",
          "name": "owedDeposit",
          "type": "uint256"
        }
      ],
      "stateMutability": "view",
      "type": "function"
    },
    {
      "inputs": [
        {
          "internalType": "contract ISuperfluidToken",
          "name": "token",
          "type": "address"
        },
        {
          "internalType": "address",
          "name": "flowOperator",
          "type": "address"
        },
        {
          "internalType": "bytes",
          "name": "ctx",
          "type": "bytes"
        }
      ],
      "name": "revokeFlowOperatorWithFullControl",
      "outputs": [
        {
          "internalType": "bytes",
          "name": "newCtx",
          "type": "bytes"
        }
      ],
      "stateMutability": "nonpayable",
      "type": "function"
    },
    {
      "inputs": [
        {
          "internalType": "address",
          "name": "newAddress",
          "type": "address"
        }
      ],
      "name": "updateCode",
      "outputs": [],
      "stateMutability": "nonpayable",
      "type": "function"
    },
    {
      "inputs": [
        {
          "internalType": "contract ISuperfluidToken",
          "name": "token",
          "type": "address"
        },
        {
          "internalType": "address",
          "name": "receiver",
          "type": "address"
        },
        {
          "internalType": "int96",
          "name": "flowRate",
          "type": "int96"
        },
        {
          "internalType": "bytes",
          "name": "ctx",
          "type": "bytes"
        }
      ],
      "name": "updateFlow",
      "outputs": [
        {
          "internalType": "bytes",
          "name": "newCtx",
          "type": "bytes"
        }
      ],
      "stateMutability": "nonpayable",
      "type": "function"
    },
    {
      "inputs": [
        {
          "internalType": "contract ISuperfluidToken",
          "name": "token",
          "type": "address"
        },
        {
          "internalType": "address",
          "name": "sender",
          "type": "address"
        },
        {
          "internalType": "address",
          "name": "receiver",
          "type": "address"
        },
        {
          "internalType": "int96",
          "name": "flowRate",
          "type": "int96"
        },
        {
          "internalType": "bytes",
          "name": "ctx",
          "type": "bytes"
        }
      ],
      "name": "updateFlowByOperator",
      "outputs": [
        {
          "internalType": "bytes",
          "name": "newCtx",
          "type": "bytes"
        }
      ],
      "stateMutability": "nonpayable",
      "type": "function"
    },
    {
      "inputs": [
        {
          "internalType": "contract ISuperfluidToken",
          "name": "token",
          "type": "address"
        },
        {
          "internalType": "address",
          "name": "flowOperator",
          "type": "address"
        },
        {
          "internalType": "uint8",
          "name": "permissions",
          "type": "uint8"
        },
        {
          "internalType": "int96",
          "name": "flowRateAllowance",
          "type": "int96"
        },
        {
          "internalType": "bytes",
          "name": "ctx",
          "type": "bytes"
        }
      ],
      "name": "updateFlowOperatorPermissions",
      "outputs": [
        {
          "internalType": "bytes",
          "name": "newCtx",
          "type": "bytes"
        }
      ],
      "stateMutability": "nonpayable",
      "type": "function"
    }
  ],
  "bytecode": {
    "object": "0x60c06040523480156200001157600080fd5b506040516200557038038062005570833981016040819052620000349162000065565b6001600160a01b039182166080521660a052620000a4565b6001600160a01b03811681146200006257600080fd5b50565b600080604083850312156200007957600080fd5b825162000086816200004c565b602084015190925062000099816200004c565b809150509250929050565b60805160a05161547c620000f460003960006102f60152600081816107d4015281816109e50152818161105a015281816110ef015281816111a4015281816118940152611929015261547c6000f3fe608060405234801561001057600080fd5b50600436106101ef5760003560e01c806354b770e31161010f5780639b2e48bc116100a2578063b4b333c611610071578063b4b333c6146104dd578063bf3fbc28146104f0578063e6a1e88814610513578063e8e7e2d11461052657600080fd5b80639b2e48bc146104895780639cb28b7214610330578063aabd2668146104b7578063ac5f5d00146104ca57600080fd5b8063811b3d40116100de578063811b3d40146104485780638d997f6e1461045b57806394229ecb1461046e5780639903ad381461048157600080fd5b806354b770e3146103e95780635f51fb23146103fc57806362fc305e1461040f5780637730599e1461042257600080fd5b8063354b9590116101875780634fe9c291116101565780634fe9c2911461039c57806350209a62146103c657806350d75d25146103d957806352d1902d146103e157600080fd5b8063354b95901461033e57806346951954146103515780634b839e0b146103665780634c8b181f1461038957600080fd5b806309d256ef116101c357806309d256ef1461028c5780630f1ac495146102bb5780630f2f8f3c146102f157806326b0f5361461033057600080fd5b8062422bbe146101f457806304aafa491461022c5780630602f7db14610246578063062e56ec1461026c575b600080fd5b6102076102023660046147df565b610539565b6040805193845260ff9092166020840152600b0b908201526060015b60405180910390f35b61023864010000000081565b604051908152602001610223565b61025961025436600461482a565b61056f565b604051600b9190910b8152602001610223565b61027f61027a366004614898565b610590565b604051610223919061494d565b61029f61029a36600461482a565b6105aa565b6040805160ff9093168352600b9190910b602083015201610223565b6102ce6102c9366004614960565b6105ce565b60408051948552600b9390930b6020850152918301526060820152608001610223565b6103187f000000000000000000000000000000000000000000000000000000000000000081565b6040516001600160a01b039091168152602001610223565b61023860016001605f1b0381565b61027f61034c3660046149ab565b610604565b61036461035f366004614a37565b6107c9565b005b610379610374366004614a54565b61081e565b6040519015158152602001610223565b61027f610397366004614a95565b6108f5565b6103af6103aa366004614960565b6109e0565b604080519215158352602083019190915201610223565b61027f6103d4366004614b11565b610a7b565b610318610b4e565b610238610b7d565b61027f6103f7366004614898565b610be1565b61027f61040a366004614b11565b610bf9565b61027f61041d366004614b11565b610d91565b7fa9214cc96615e0085d3bb077758db69497dc2dce3b2b1e97bc93c3d18d83efd3610238565b61027f610456366004614b61565b610e44565b610238610469366004614ba5565b611041565b61027f61047c3660046149ab565b611269565b6103646113ec565b61049c610497366004614a54565b6114fa565b60408051938452602084019290925290820152606001610223565b6102ce6104c536600461482a565b611554565b61027f6104d8366004614b11565b611566565b61027f6104eb366004614a95565b611674565b6104fa6203d09081565b60405167ffffffffffffffff9091168152602001610223565b6102ce6105213660046147df565b611708565b610259610534366004614960565b611743565b6000806000610548858561175d565b9250600061055687856117c8565b8051602090910151959990985094965093945050505050565b60008061057b8461188d565b50905061058881846119e1565b949350505050565b60606105a185856000808787610e44565b95945050505050565b60008060006105b985856117c8565b80516020909101519097909650945050505050565b60008060008060006105e08787611a21565b805160208201516040830151606090930151919b909a509198509650945050505050565b606060006106488885858080601f016020809104026020016040519081016040528093929190818152602001838380828437600092019190915250611ada92505050565b9050866001600160a01b031681606001516001600160a01b0316036106805760405163edfa0d3b60e01b815260040160405180910390fd5b6000806106968a6106918b8b611c9e565b611cc6565b9150915060008060006106ae8d8d8860600151610539565b9250925092506106bf826001611d0d565b6106dc5760405163ac434b5f60e01b815260040160405180910390fd5b6000600b82900b60016001605f1b03148061070157508a600b0b8560200151600b0b12155b610723576020850151610714908c614bf0565b61071e9083614bf0565b610725565b815b9050600081600b0b121561074c5760405163a0645c1f60e01b815260040160405180910390fd5b6107588e858584611d68565b5050505061078660408051608081018252600080825260208201819052918101829052606081019190915290565b6001600160a01b03808c1682528a8116602083015289166040820152600b88900b60608201526107ba8183858a8a89611df1565b9b9a5050505050505050505050565b336001600160a01b037f0000000000000000000000000000000000000000000000000000000000000000161461081257604051630b00ec8f60e11b815260040160405180910390fd5b61081b81611f5c565b50565b604051633acd4df360e21b81526001600160a01b03838116600483015260248201839052600091829186169063eb3537cc90604401606060405180830381865afa158015610870573d6000803e3d6000fd5b505050506040513d601f19601f820116820180604052508101906108949190614c22565b50509050600081126108aa5760019150506108ee565b6000806108b68761188d565b9150915060006108c68888611a21565b91505060006108d88260400151612164565b90506108e6858286866121d2565b955050505050505b9392505050565b606060006109398785858080601f016020809104026020016040519081016040528093929190818152602001838380828437600092019190915250611ada92505050565b9050600061094c88888460600151610539565b50915050600061095d826002611d0d565b90508061097d5760405163e30f1bff60e01b815260040160405180910390fd5b6040805160808101825260008082526020820181905291810182905260608101919091525b6001600160a01b03808b168252898116602083015288166040820152600060608201526109d28183898988612220565b9a9950505050505050505050565b6000807f00000000000000000000000000000000000000000000000000000000000000006001600160a01b031663bbe4fd506040518163ffffffff1660e01b8152600401602060405180830381865afa158015610a41573d6000803e3d6000fd5b505050506040513d601f19601f82011682018060405250810190610a659190614c50565b9050610a7284848361081e565b91509250929050565b60606000610abf8785858080601f016020809104026020016040519081016040528093929190818152602001838380828437600092019190915250611ada92505050565b9050610aeb60408051608081018252600080825260208201819052918101829052606081019190915290565b6001600160a01b03808916825260608084015182166020840181905291891660408401819052600b89900b91840191909152600091610b2991611c9e565b9050600080610b3c846000015184611cc6565b915091506107ba8482848b8b8a611df1565b6000610b787f360894a13ba1a3210667c828492db98dca3e2076cc3735a920a3ca505d382bbc5490565b905090565b6000306001600160a01b0316637730599e6040518163ffffffff1660e01b8152600401602060405180830381865afa158015610bbd573d6000803e3d6000fd5b505050506040513d601f19601f82011682018060405250810190610b789190614c50565b60606105a18585600760016001605f1b038787610e44565b606082828080601f0160208091040260200160405190810160405280939291908181526020018383808284376000920182905250604080516020601f8a018190048102820181019092528881529596509094610c7594508b935091508790879081908401838280828437600092019190915250611ada92505050565b9050856001600160a01b031681606001516001600160a01b031603610cad5760405163b0ed394d60e01b815260040160405180910390fd5b600085600b0b1215610cd2576040516386e0377d60e01b815260040160405180910390fd5b6000806000610ce68a85606001518b610539565b919450925090506000610cf98983614bf0565b9050600081600b0b1215610d20576040516386e0377d60e01b815260040160405180910390fd5b610d2c8b858584611d68565b60608501516040805160ff86168152600b84900b60208201526001600160a01b03808e1693811692908f16917fc0d5d3a6ac18cc1769788c925e6e7fc89cd47e4270a42884736fa9b3ec09f3a8910160405180910390a4505050505095945050505050565b60606000610dd58785858080601f016020809104026020016040519081016040528093929190818152602001838380828437600092019190915250611ada92505050565b9050610e0160408051608081018252600080825260208201819052918101829052606081019190915290565b6001600160a01b038089168252606080840151821660208401529088166040830152600b87900b90820152610e3881868685612912565b98975050505050505050565b606082828080601f016020809104026020016040519081016040528093929190818152602001838380828437600092019190915250929350610e8b9250879150612a939050565b610ea857604051631e4e759b60e21b815260040160405180910390fd5b6000610eea8885858080601f016020809104026020016040519081016040528093929190818152602001838380828437600092019190915250611ada92505050565b9050866001600160a01b031681606001516001600160a01b031603610f225760405163b0ed394d60e01b815260040160405180910390fd5b600085600b0b1215610f47576040516386e0377d60e01b815260040160405180910390fd5b6040805180820190915260ff87168152600b86900b60208201526060820151600090610f73908a61175d565b9050896001600160a01b031663a1b2bf8b82610f8e85612a9a565b6040518363ffffffff1660e01b8152600401610fab929190614ca4565b600060405180830381600087803b158015610fc557600080fd5b505af1158015610fd9573d6000803e3d6000fd5b50505060608401516040805160ff8c168152600b8b900b60208201526001600160a01b03808e169450928316928e16917fc0d5d3a6ac18cc1769788c925e6e7fc89cd47e4270a42884736fa9b3ec09f3a8910160405180910390a45050509695505050505050565b600081600b0b60000361105657506000611263565b60007f00000000000000000000000000000000000000000000000000000000000000006001600160a01b031663289b3c0d6040518163ffffffff1660e01b8152600401602060405180830381865afa1580156110b6573d6000803e3d6000fd5b505050506040513d601f19601f820116820180604052508101906110da9190614cbd565b90506000816001600160a01b03166380f70cba7f0000000000000000000000000000000000000000000000000000000000000000877feae305fa863b373417e615b1044222e2806cefc7788d169ce6748a443c3f6cc46040518463ffffffff1660e01b815260040161114e93929190614cda565b602060405180830381865afa15801561116b573d6000803e3d6000fd5b505050506040513d601f19601f8201168201806040525081019061118f9190614c50565b90506000826001600160a01b03166380f70cba7f0000000000000000000000000000000000000000000000000000000000000000887fe420d96e81cb4a6b2abb2366c4f93312d4e2ae878a7d4b22e73472fdad891f786040518463ffffffff1660e01b815260040161120393929190614cda565b602060405180830381865afa158015611220573d6000803e3d6000fd5b505050506040513d601f19601f820116820180604052508101906112449190614c50565b9050602081901c63ffffffff1661125c838288612b10565b9450505050505b92915050565b606060006112ad8885858080601f016020809104026020016040519081016040528093929190818152602001838380828437600092019190915250611ada92505050565b9050866001600160a01b031681606001516001600160a01b0316036112e5576040516325cc989b60e11b815260040160405180910390fd5b60008060006112f98b8b8660600151610539565b92509250925061130a826000611d0d565b611327576040516328faadab60e21b815260040160405180910390fd5b6000600b82900b60016001605f1b031461134a576113458983614bf0565b61134c565b815b9050600081600b0b12156113735760405163a0645c1f60e01b815260040160405180910390fd5b61137f8c858584611d68565b505050506113ad60408051608081018252600080825260208201819052918101829052606081019190915290565b6001600160a01b03808a168252888116602083015287166040820152600b86900b60608201526113df81868685612912565b9998505050505050505050565b600054610100900460ff161580801561140c5750600054600160ff909116105b806114265750303b158015611426575060005460ff166001145b61148e5760405162461bcd60e51b815260206004820152602e60248201527f496e697469616c697a61626c653a20636f6e747261637420697320616c72656160448201526d191e481a5b9a5d1a585b1a5e995960921b60648201526084015b60405180910390fd5b6000805460ff1916600117905580156114b1576000805461ff0019166101001790555b801561081b576000805461ff0019169055604051600181527f7f26b83ff96e1f2b6a682f133852f6798a09c465da95921460cefb3847402498906020015b60405180910390a150565b600080600080600061150c8888611a21565b915091508115611549578060200151600b0b81600001518761152e9190614cfe565b6115389190614d25565b945080604001519350806060015192505b505093509350939050565b60008060008060006105e08787611cc6565b606082828080601f0160208091040260200160405190810160405280939291908181526020018383808284376000920182905250604080516020601f8a0181900481028201810190925288815295965090946115e294508b935091508790879081908401838280828437600092019190915250611ada92505050565b9050856001600160a01b031681606001516001600160a01b03160361161a5760405163b0ed394d60e01b815260040160405180910390fd5b600085600b0b121561163f576040516386e0377d60e01b815260040160405180910390fd5b60008060006116538a85606001518b610539565b9194509250905060006116668983614d55565b9050610d2c8b858584611d68565b606060006116b88785858080601f016020809104026020016040519081016040528093929190818152602001838380828437600092019190915250611ada92505050565b905060006116cb88888460600151610539565b5091505060006116dc826002611d0d565b90506109a260408051608081018252600080825260208201819052918101829052606081019190915290565b600080600080600061171e886106918989611c9e565b805160208201516040830151606090930151919c909b50919950975095505050505050565b6000806117508484611a21565b6020015195945050505050565b600082826040516020016117aa9291906060808252600c908201526b333637bba7b832b930ba37b960a11b60808201526001600160a01b0392831660208201529116604082015260a00190565b60405160208183030381529060405280519060200120905092915050565b6040805180820182526000808252602082018190529151636c2d9f2f60e01b8152306004820152602481018490526001604482015282906001600160a01b03861690636c2d9f2f90606401600060405180830381865afa158015611830573d6000803e3d6000fd5b505050506040513d6000823e601f3d908101601f191682016040526118589190810190614df8565b90506118808160008151811061187057611870614e92565b602002602001015160001c612b83565b92509250505b9250929050565b60008060007f00000000000000000000000000000000000000000000000000000000000000006001600160a01b031663289b3c0d6040518163ffffffff1660e01b8152600401602060405180830381865afa1580156118f0573d6000803e3d6000fd5b505050506040513d601f19601f820116820180604052508101906119149190614cbd565b90506000816001600160a01b03166380f70cba7f0000000000000000000000000000000000000000000000000000000000000000877fe420d96e81cb4a6b2abb2366c4f93312d4e2ae878a7d4b22e73472fdad891f786040518463ffffffff1660e01b815260040161198893929190614cda565b602060405180830381865afa1580156119a5573d6000803e3d6000fd5b505050506040513d601f19601f820116820180604052508101906119c99190614c50565b63ffffffff602082901c811697911695509350505050565b600060016001605f1b03821115611a0b57604051631d4b0ae760e21b815260040160405180910390fd5b63ffffffff198216915060006105888484614ebe565b6000611a2b614718565b604051634b61cc3360e01b81523060048201526001600160a01b038481166024830152600060448301819052600160648401529190861690634b61cc33906084015b600060405180830381865afa158015611a8a573d6000803e3d6000fd5b505050506040513d6000823e601f3d908101601f19168201604052611ab29190810190614df8565b905061188081600081518110611aca57611aca614e92565b602002602001015160001c612bc3565b611ae2614743565b336001600160a01b0316836001600160a01b03166320bc44256040518163ffffffff1660e01b8152600401602060405180830381865afa158015611b2a573d6000803e3d6000fd5b505050506040513d601f19601f82011682018060405250810190611b4e9190614cbd565b6001600160a01b031614611b985760405162461bcd60e51b81526020600482015260116024820152701d5b985d5d1a1bdc9a5e9959081a1bdcdd607a1b6044820152606401611485565b604051632fd0a1cd60e21b8152339063bf42873490611bbb90859060040161494d565b602060405180830381865afa158015611bd8573d6000803e3d6000fd5b505050506040513d601f19601f82011682018060405250810190611bfc9190614eed565b611c365760405162461bcd60e51b815260206004820152600b60248201526a0d2dcecc2d8d2c840c6e8f60ab1b6044820152606401611485565b604051631fb6491d60e11b81523390633f6c923a90611c5990859060040161494d565b600060405180830381865afa158015611c76573d6000803e3d6000fd5b505050506040513d6000823e601f3d908101601f191682016040526108ee9190810190614f8f565b604080516001600160a01b0380851660208301528316918101919091526000906060016117aa565b6000611cd0614718565b604051636c2d9f2f60e01b815230600482015260248101849052600160448201526000906001600160a01b03861690636c2d9f2f90606401611a6d565b600080826002811115611d2257611d22615096565b03611d335750600182811614611263565b6001826002811115611d4757611d47615096565b03611d5a5750600182811c811614611263565b505060021c60019081161490565b6040805180820190915260ff83168152600b82900b60208201526001600160a01b03851663a1b2bf8b85611d9b84612a9a565b6040518363ffffffff1660e01b8152600401611db8929190614ca4565b600060405180830381600087803b158015611dd257600080fd5b505af1158015611de6573d6000803e3d6000fd5b505050505050505050565b60606000611dff8884612c23565b91505085611e205760405163168cafc960e21b815260040160405180910390fd5b6040888101519051631e51d6a760e11b81526001600160a01b0390911660048201523390633ca3ad4e90602401602060405180830381865afa158015611e6a573d6000803e3d6000fd5b505050506040513d601f19601f82011682018060405250810190611e8e9190614eed565b15611eea57611ee388604001518960000151838a89898080601f0160208091040260200160405190810160405280939291908181526020018383808284376000920191909152508b925060019150612d249050565b9150611f35565b611f328860000151828988888080601f0160208091040260200160405190810160405280939291908181526020018383808284376000920191909152508a92506134ca915050565b91505b611f48886000015189602001518561359d565b611f5188613677565b509695505050505050565b6000611f867f360894a13ba1a3210667c828492db98dca3e2076cc3735a920a3ca505d382bbc5490565b6001600160a01b031603611fdc5760405162461bcd60e51b815260206004820152601d60248201527f5555505350726f786961626c653a206e6f742075706772616461626c650000006044820152606401611485565b806001600160a01b03166352d1902d6040518163ffffffff1660e01b8152600401602060405180830381865afa15801561201a573d6000803e3d6000fd5b505050506040513d601f19601f8201168201806040525081019061203e9190614c50565b612046610b7d565b1461209f5760405162461bcd60e51b815260206004820152602360248201527f5555505350726f786961626c653a206e6f7420636f6d70617469626c65206c6f60448201526267696360e81b6064820152608401611485565b6001600160a01b03811630036120f75760405162461bcd60e51b815260206004820152601960248201527f5555505350726f786961626c653a2070726f7879206c6f6f70000000000000006044820152606401611485565b61211f817f360894a13ba1a3210667c828492db98dca3e2076cc3735a920a3ca505d382bbc55565b7fe011bc04c286c344a8fcbb8de77f953da762c3e25d8cdea984147fc4168a5dcc612148610b7d565b604080519182526001600160a01b0384166020830152016114ef565b60006001600160ff1b038211156121ce5760405162461bcd60e51b815260206004820152602860248201527f53616665436173743a2076616c756520646f65736e27742066697420696e2061604482015267371034b73a191a9b60c11b6064820152608401611485565b5090565b6000836000036121e457506000610588565b60006121f085876150ac565b905060006121fe85876150d4565b905061220a8486615102565b61221482846150d4565b13979650505050505050565b6040805160c0810182526000808252602082018190529181018290526060818101839052608082019290925260a0810182905260208701516001600160a01b031661227e57604051631ce9b06760e01b815260040160405180910390fd5b60408701516001600160a01b03166122a957604051633c70159560e11b815260040160405180910390fd5b6122bb87602001518860400151611c9e565b8082526020808901516001600160a01b03908116918401919091526040808a01518216908401526060808601519091169083015260006080830181905260a0808601519084015288519091829161231191611cc6565b91509150816123335760405163168cafc960e21b815260040160405180910390fd5b885160208a01516040808801519051633acd4df360e21b81526000936001600160a01b03169263eb3537cc9261237f926004016001600160a01b03929092168252602082015260400190565b606060405180830381865afa15801561239c573d6000803e3d6000fd5b505050506040513d601f19601f820116820180604052508101906123c09190614c22565b5050905089602001516001600160a01b031686606001516001600160a01b031614158015612408575089604001516001600160a01b031686606001516001600160a01b031614155b8015612412575088155b156125235760208a0151604051636b4f333560e01b81526001600160a01b0390911660048201523390636b4f333590602401602060405180830381865afa158015612461573d6000803e3d6000fd5b505050506040513d601f19601f820116820180604052508101906124859190614eed565b1580156124fd575060408a8101519051636b4f333560e01b81526001600160a01b0390911660048201523390636b4f333590602401602060405180830381865afa1580156124d7573d6000803e3d6000fd5b505050506040513d601f19601f820116820180604052508101906124fb9190614eed565b155b1561252357600081126125235760405163ce11b5d160e01b815260040160405180910390fd5b6000811215612541576125418a600001518286858a6060015161371a565b87878080601f01602080910402602001604051908101604052809392919081815260200183838082843760009201919091525050505060208b015160608801519196506001600160a01b039081169116036126375760408a8101519051631e51d6a760e11b81526001600160a01b0390911660048201523390633ca3ad4e90602401602060405180830381865afa1580156125e0573d6000803e3d6000fd5b505050506040513d601f19601f820116820180604052508101906126049190614eed565b15612628576126218a604001518b600001518685898b6002612d24565b94506128fc565b8951612621908584888a6134ca565b89604001516001600160a01b031686606001516001600160a01b03160361276b5760208a0151604051631e51d6a760e11b81526001600160a01b0390911660048201523390633ca3ad4e90602401602060405180830381865afa1580156126a2573d6000803e3d6000fd5b505050506040513d601f19601f820116820180604052508101906126c69190614eed565b156126e3576126218a602001518b600001518685898b6002612d24565b60408a8101519051631e51d6a760e11b81526001600160a01b0390911660048201523390633ca3ad4e90602401602060405180830381865afa15801561272d573d6000803e3d6000fd5b505050506040513d601f19601f820116820180604052508101906127519190614eed565b156126285761262160008b600001518685898b6002612d24565b60208a0151604051631e51d6a760e11b81526001600160a01b0390911660048201523390633ca3ad4e90602401602060405180830381865afa1580156127b5573d6000803e3d6000fd5b505050506040513d601f19601f820116820180604052508101906127d99190614eed565b80156127e55750600081125b1561285f5760208a0151604051635b92108f60e11b8152339163b724211e91612815918991600b90600401615115565b6000604051808303816000875af1158015612834573d6000803e3d6000fd5b505050506040513d6000823e601f3d908101601f1916820160405261285c9190810190615143565b94505b60408a8101519051631e51d6a760e11b81526001600160a01b0390911660048201523390633ca3ad4e90602401602060405180830381865afa1580156128a9573d6000803e3d6000fd5b505050506040513d601f19601f820116820180604052508101906128cd9190614eed565b156128ea576126218a604001518b600001518685898b6002612d24565b89516128f9908584888a6134ca565b94505b6129058a613926565b5050505095945050505050565b60606000806129218785612c23565b91509150600080612936896000015185611cc6565b9150915081156129595760405163801b686360e01b815260040160405180910390fd5b6040898101519051631e51d6a760e11b81526001600160a01b0390911660048201523390633ca3ad4e90602401602060405180830381865afa1580156129a3573d6000803e3d6000fd5b505050506040513d601f19601f820116820180604052508101906129c79190614eed565b15612a2057612a1989604001518a6000015185848c8c8080601f01602080910402602001604051908101604052809392919081815260200183838082843760009201829052508f93509150612d249050565b9450612a6b565b612a68896000015184838b8b8080601f0160208091040260200160405190810160405280939291908181526020018383808284376000920191909152508d92506134ca915050565b94505b612a7e89600001518a602001518861359d565b612a8789613995565b50505050949350505050565b60f8161590565b606060008260200151600b0b1215612ab457612ab4615178565b60408051600180825281830190925290602080830190803683370190505090508160200151600b0b6080836000015160ff16901b1760001b81600081518110612aff57612aff614e92565b602002602001018181525050919050565b60008082600b0b1215612b36576040516348d6568b60e11b815260040160405180910390fd5b60016001605f1b03612b4c84600b85900b61518e565b1115612b6b57604051630c9c55c160e01b815260040160405180910390fd5b6000612b778385613a04565b90506105a18582613a48565b6040805180820190915260008082526020820152811580159190612bbe5760016001605f1b038316600b0b6020820152608083901c60ff1681525b915091565b6000612bcd614718565b821580159250612bbe5760e083901c8152608083901c6bffffffffffffffffffffffff16600b0b6020808301919091526bffffffffffffffff0000000084821c811660408401529084901b166060820152915091565b6040805160c08101825260008082526020820181905291810182905260608082018390526080820183905260a082015260408401516001600160a01b0316612c7e57604051633c70159560e11b815260040160405180910390fd5b612c9084602001518560400151611c9e565b8082526020808601516001600160a01b0390811691840182905260408088015182169085018190526060808801519092168286015290870151600b0b608085015260a0808701519085015291935003612cfc5760405163a47338ef60e01b815260040160405180910390fd5b60008160800151600b0b13611886576040516348d6568b60e11b815260040160405180910390fd5b82612d2d61479e565b6001600160a01b03891615613031576000612dc2898b8a600001518b602001518c60400151604051602001612d789291906001600160a01b0392831681529116602082015260400190565b60408051601f1981840301815260e08301825260006080840181905260a0840181905260c08401526001600160a01b03958616835293909416602082015292830152606082015290565b90506000846002811115612dd857612dd8615096565b03612ded5764010000000060c0820152612e22565b6001846002811115612e0157612e01615096565b03612e165764040000000060c0820152612e22565b64100000000060c08201525b612e2c8187613a5e565b82600001819052506000336001600160a01b031663289b3c0d6040518163ffffffff1660e01b8152600401602060405180830381865afa158015612e74573d6000803e3d6000fd5b505050506040513d601f19601f82011682018060405250810190612e989190614cbd565b9050612eb086604001518761014001518c8c8c613c15565b5060808401525060405163407b865d60e11b81526000906001600160a01b038316906380f70cba90612f0a9033908f907feae305fa863b373417e615b1044222e2806cefc7788d169ce6748a443c3f6cc490600401614cda565b602060405180830381865afa158015612f27573d6000803e3d6000fd5b505050506040513d601f19601f82011682018060405250810190612f4b9190614c50565b905060008360800151600014612f6f57612f6a64010000000083613a48565b612f72565b60005b9050808460800151612f8491906151a5565b608085015260608a0151612f9790612164565b60a08501526000876002811115612fb057612fb0615096565b03612fc55764020000000060c0850152612ffa565b6001876002811115612fd957612fd9615096565b03612fee5764080000000060c0850152612ffa565b64200000000060c08501525b61300984866000015188613ff9565b60408701919091528b51909650613021908d90611cc6565b60208701525061304f9350505050565b61304784604001518561014001518a8a8a613c15565b602084015250505b600061305e8760600151612164565b826040015161010001516130729190614cfe565b905061309881613089846020015160400151612164565b61309391906150ac565b614245565b826020015160400181815250506130ba81613089846020015160600151612164565b60208301805160600191909152885190516001600160a01b038b169163a1b2bf8b916130e590614297565b6040518363ffffffff1660e01b8152600401613102929190614ca4565b600060405180830381600087803b15801561311c57600080fd5b505af1158015613130573d6000803e3d6000fd5b5050505061314c89896020015160008460008a60400151614308565b50613164898960400151600080858a60400151614308565b506101408501516001600160a01b031615806131965750886001600160a01b03168561014001516001600160a01b0316145b1561320a576040516359a2914160e01b815233906359a29141906131c090869085906004016151b8565b6000604051808303816000875af11580156131df573d6000803e3d6000fd5b505050506040513d6000823e601f3d908101601f191682016040526132079190810190615143565b92505b6040888101519051631e51d6a760e11b81526001600160a01b0390911660048201523390633ca3ad4e90602401602060405180830381865afa158015613254573d6000803e3d6000fd5b505050506040513d601f19601f820116820180604052508101906132789190614eed565b156134bd57604088810151868201519151633acd4df360e21b81526001600160a01b0391821660048201526024810192909252600091908b169063eb3537cc90604401606060405180830381865afa1580156132d8573d6000803e3d6000fd5b505050506040513d601f19601f820116820180604052508101906132fc9190614c22565b509091505060008112156134bb57600285600281111561331e5761331e615096565b0361349f576040808a01519051635b92108f60e11b8152339163b724211e9161334e918891600c90600401615115565b6000604051808303816000875af115801561336d573d6000803e3d6000fd5b505050506040513d6000823e601f3d908101601f191682016040526133959190810190615143565b935060006133b36133a5836151da565b6133ae856151da565b614479565b90508a6001600160a01b031663cf97256d8b60200151836133d3906151da565b6040516001600160e01b031960e085901b1681526001600160a01b0390921660048301526024820152604401600060405180830381600087803b15801561341957600080fd5b505af115801561342d573d6000803e3d6000fd5b5050505060408a810151905163cf97256d60e01b81526001600160a01b03918216600482015260248101839052908c169063cf97256d90604401600060405180830381600087803b15801561348157600080fd5b505af1158015613495573d6000803e3d6000fd5b50505050506134bb565b60405163a85ba64f60e01b8152600c6004820152602401611485565b505b5050979650505050505050565b606083810151156134dd576134dd615178565b60006134e7614718565b6134fd84604001518561014001518a8a8a613c15565b6101408701519294509250506001600160a01b03808a1691160361358e576040516359a2914160e01b815233906359a291419061354090889086906004016151b8565b6000604051808303816000875af115801561355f573d6000803e3d6000fd5b505050506040513d6000823e601f3d908101601f191682016040526135879190810190615143565b9250613592565b8492505b505095945050505050565b602081015160ff1660031415806135cb5750826001600160a01b03168161014001516001600160a01b031614155b15613672576040808201519051633acd4df360e21b81526001600160a01b038481166004830152602482019290925260009185169063eb3537cc90604401606060405180830381865afa158015613626573d6000803e3d6000fd5b505050506040513d601f19601f8201168201806040525081019061364a9190614c22565b5050905060008112156136705760405163ea76c9b360e01b815260040160405180910390fd5b505b505050565b60005a9050600061368b836000015161448e565b90506001600160a01b03811615613672578251602084015160408086015190516375aa53e560e11b81526001600160a01b0393841660048201529183166024830152821660448201529082169063eb54a7ca906064015b600060405180830381600087803b1580156136fc57600080fd5b505af192505050801561370d575060015b613672576136728261453d565b600061372a868560200151611a21565b915050600061373c8460400151612164565b9050600061374d8360400151612164565b9050606060008061375e848b6150ac565b905060008061376c8d61188d565b9150915061377c8c8784846121d2565b9350505060008112613867576000846137958388614d25565b61379f91906150d4565b90506001836137af5760016137b2565b60005b6040805160ff9384166020820152929091169082015260600160405160208183030381529060405293508b6001600160a01b0316631863e8098b60000151868b878f6020015161380188614245565b61380d89600019614d25565b6040518863ffffffff1660e01b815260040161382f97969594939291906151f6565b600060405180830381600087803b15801561384957600080fd5b505af115801561385d573d6000803e3d6000fd5b5050505050613919565b6040805160016020820152600291810191909152859060600160405160208183030381529060405293508b6001600160a01b0316631863e8098b60000151868b60008f602001516138b788614245565b6138c38a600019614d25565b6040518863ffffffff1660e01b81526004016138e597969594939291906151f6565b600060405180830381600087803b1580156138ff57600080fd5b505af1158015613913573d6000803e3d6000fd5b50505050505b5050505050505050505050565b60005a9050600061393a836000015161448e565b90506001600160a01b038116156136725782516020840151604080860151905163ef1f023760e01b81526001600160a01b0393841660048201529183166024830152821660448201529082169063ef1f0237906064016136e2565b60005a905060006139a9836000015161448e565b90506001600160a01b038116156136725782516020840151604080860151905163f7e3d98360e01b81526001600160a01b0393841660048201529183166024830152821660448201529082169063f7e3d983906064016136e2565b600082600b0b600003613a1957506000611263565b60016001605f1b03821115613a3057613a30615178565b613a3a8284615243565b600b0b90506108ee81614564565b6000818311613a5757816108ee565b5090919050565b6020820151604051633e7d48bd60e21b81526001600160a01b03909116600482015260609060009081908190339063f9f522f490602401606060405180830381865afa158015613ab2573d6000803e3d6000fd5b505050506040513d601f19601f82011682018060405250810190613ad69190615263565b91945092509050828015613ae8575081155b15613c0c576000613af98688614598565b90508660c001518216600003613bfe576000613b188860c00151614616565b88516040808b015160608c015182516000815260208101909352613b449392309291906044810161529f565b60408051601f19818403018152918152602080830180516001600160e01b03166001600160e01b031990951694909417909352918a015160c08b01519251633a020f0160e11b815291935033926374041e0292613bb392918691641000000000919091149088906004016152e4565b6000604051808303816000875af1158015613bd2573d6000803e3d6000fd5b505050506040513d6000823e601f3d908101601f19168201604052613bfa9190810190615143565b9550505b613c098660006146ad565b50505b50505092915050565b600080613c20614718565b6000806000613c2e8961188d565b5090506000336001600160a01b031663289b3c0d6040518163ffffffff1660e01b8152600401602060405180830381865afa158015613c71573d6000803e3d6000fd5b505050506040513d601f19601f82011682018060405250810190613c959190614cbd565b60405163407b865d60e11b81529091506001600160a01b038216906380f70cba90613ce89033908e907feae305fa863b373417e615b1044222e2806cefc7788d169ce6748a443c3f6cc490600401614cda565b602060405180830381865afa158015613d05573d6000803e3d6000fd5b505050506040513d601f19601f82011682018060405250810190613d299190614c50565b9250613d39896080015183613a04565b95505050613d4a8660600151612164565b613d578760400151612164565b613d6086612164565b613d6a9190614cfe565b613d7491906150ac565b9450613d87856130898860400151612164565b91508082108015613d9f575060008760800151600b0b135b15613de157613db18660600151612164565b613dbe8760400151612164565b613dc783612164565b613dd19190614cfe565b613ddb91906150ac565b94508091505b6001600160a01b03891615801590613e0b5750876001600160a01b0316896001600160a01b031614155b15613e1557600093505b604051806080016040528060008960800151600b0b13613e36576000613e38565b8b5b81526020018860800151600b0b815260200183815260200187606001518152509250876001600160a01b031663a1b2bf8b8860000151613e7786614297565b6040518363ffffffff1660e01b8152600401613e94929190614ca4565b600060405180830381600087803b158015613eae57600080fd5b505af1158015613ec2573d6000803e3d6000fd5b505060408051808201909152600080825260208201529250613ee2915050565b613f0888886020015189608001518960200151613eff9190614bf0565b8860008f614308565b600b0b8152604087015160208701516080890151613f37928b929091613f2e9190614bf0565b6000808f614308565b600b0b60208083018290526040808a0151918a015160808b0151855160a08d015193516001600160a01b0395861696938616958f16947f57269d2ebcccecdcc0d9d2c0a0b80ead95f344e28ec20f50f709811f209d4e0e94613f9d94939290919061532d565b60405180910390a486606001516001600160a01b03167f71e0c98e270fc3084227b473f176924d5303ece8c639e679998a2d7dc8e70f7483604051613fe491815260200190565b60405180910390a25050955095509592505050565b614001614743565b6020840151604051633e7d48bd60e21b81526001600160a01b03909116600482015260609060009081908190339063f9f522f490602401606060405180830381865afa158015614055573d6000803e3d6000fd5b505050506040513d601f19601f820116820180604052508101906140799190615263565b8896509194509250905082801561408e575081155b1561423a5761409d8489614598565b93508760c0015181166000036142285760006140bc8960c00151614616565b89516040808c015160608d0151825160008152602081019093526140ea9392309291908e9060448101615365565b60408051601f19818403018152918152602080830180516001600160e01b03166001600160e01b031990951694909417909352918b015160c08c0151925163079b42a160e21b81529193503392631e6d0a84926141599291869164200000000091909114908b906004016152e4565b6000604051808303816000875af1158015614178573d6000803e3d6000fd5b505050506040513d6000823e601f3d908101601f191682016040526141a09190810190615143565b604051631fb6491d60e11b81529095503390633f6c923a906141c690889060040161494d565b600060405180830381865afa1580156141e3573d6000803e3d6000fd5b505050506040513d6000823e601f3d908101601f1916820160405261420b9190810190614f8f565b955061422089608001518761010001516146d5565b610100870152505b614237868661010001516146ad565b93505b505050935093915050565b6000808212156121ce5760405162461bcd60e51b815260206004820181905260248201527f53616665436173743a2076616c7565206d75737420626520706f7369746976656044820152606401611485565b6040805160018082528183019092526060916020808301908036833701905050905060208260600151901c604060208460400151901c901b608084602001516bffffffffffffffffffffffff16901b60e08560000151901b17171760001b81600081518110612aff57612aff614e92565b6000806143158888611a21565b91505060008160200151600b0b61433a8360000151866143359190615102565b612164565b6143449190614d25565b905080156143af5760405163cf97256d60e01b81526001600160a01b038981166004830152602482018390528a169063cf97256d90604401600060405180830381600087803b15801561439657600080fd5b505af11580156143aa573d6000803e3d6000fd5b505050505b8682602001516143bf9190614d55565b600b0b602083015283825260408201516143de90879061308990612164565b604083015260608201516143f790869061308990612164565b60608301526001600160a01b03891663090c415e89600061441786614297565b6040518463ffffffff1660e01b8152600401614435939291906153be565b600060405180830381600087803b15801561444f57600080fd5b505af1158015614463573d6000803e3d6000fd5b5050506020909201519998505050505050505050565b600081831361448857826108ee565b50919050565b60408051600481526024810182526020810180516001600160e01b03166377a1e96360e11b1790529051600091829182916001600160a01b038616916144d491906153e5565b600060405180830381855afa9150503d806000811461450f576040519150601f19603f3d011682016040523d82523d6000602084013e614514565b606091505b5091509150811561453657808060200190518101906145339190614cbd565b92505b5050919050565b614546816146f3565b1561081b576040516320afada560e01b815260040160405180910390fd5b60008063ffffffff831661457957600061457c565b60015b60ff169050602061458f8285831c6151a5565b901b9392505050565b6020810151608082015160a08301518351604051630768fabb60e41b8152606094339463768fabb0946145cf948a94600401615401565b6000604051808303816000875af11580156145ee573d6000803e3d6000fd5b505050506040513d6000823e601f3d908101601f191682016040526108ee9190810190615143565b6000640100000000820361463257506330d9c91560e01b919050565b640400000000820361464c5750630221347d60e61b919050565b64100000000082036146665750635f9e7d7760e01b919050565b6402000000008203614680575063d86ed3e560e01b919050565b640800000000820361469a575063230dbd2960e01b919050565b506353c11f9960e01b919050565b919050565b604051634c4d861f60e11b8152606090339063989b0c3e906145cf90869086906004016151b8565b60006108ee60006146ee6146e886612164565b85614479565b614709565b6000614700603f83614ebe565b5a111592915050565b6000818313613a5757816108ee565b6040518060800160405280600081526020016000600b0b815260200160008152602001600081525090565b604080516101608101825260008082526020820181905291810182905260608082018390526080820183905260a082015260c0810182905260e081018290526101008101829052610120810182905261014081019190915290565b6040518060600160405280606081526020016147b8614718565b81526020016147c5614743565b905290565b6001600160a01b038116811461081b57600080fd5b6000806000606084860312156147f457600080fd5b83356147ff816147ca565b9250602084013561480f816147ca565b9150604084013561481f816147ca565b809150509250925092565b6000806040838503121561483d57600080fd5b8235614848816147ca565b946020939093013593505050565b60008083601f84011261486857600080fd5b50813567ffffffffffffffff81111561488057600080fd5b60208301915083602082850101111561188657600080fd5b600080600080606085870312156148ae57600080fd5b84356148b9816147ca565b935060208501356148c9816147ca565b9250604085013567ffffffffffffffff8111156148e557600080fd5b6148f187828801614856565b95989497509550505050565b60005b83811015614918578181015183820152602001614900565b50506000910152565b600081518084526149398160208601602086016148fd565b601f01601f19169290920160200192915050565b6020815260006108ee6020830184614921565b6000806040838503121561497357600080fd5b823561497e816147ca565b9150602083013561498e816147ca565b809150509250929050565b8035600b81900b81146146a857600080fd5b60008060008060008060a087890312156149c457600080fd5b86356149cf816147ca565b955060208701356149df816147ca565b945060408701356149ef816147ca565b93506149fd60608801614999565b9250608087013567ffffffffffffffff811115614a1957600080fd5b614a2589828a01614856565b979a9699509497509295939492505050565b600060208284031215614a4957600080fd5b81356108ee816147ca565b600080600060608486031215614a6957600080fd5b8335614a74816147ca565b92506020840135614a84816147ca565b929592945050506040919091013590565b600080600080600060808688031215614aad57600080fd5b8535614ab8816147ca565b94506020860135614ac8816147ca565b93506040860135614ad8816147ca565b9250606086013567ffffffffffffffff811115614af457600080fd5b614b0088828901614856565b969995985093965092949392505050565b600080600080600060808688031215614b2957600080fd5b8535614b34816147ca565b94506020860135614b44816147ca565b9350614ad860408701614999565b60ff8116811461081b57600080fd5b60008060008060008060a08789031215614b7a57600080fd5b8635614b85816147ca565b95506020870135614b95816147ca565b945060408701356149ef81614b52565b60008060408385031215614bb857600080fd5b8235614bc3816147ca565b9150614bd160208401614999565b90509250929050565b634e487b7160e01b600052601160045260246000fd5b600b82810b9082900b036b7fffffffffffffffffffffff19811260016001605f1b038213171561126357611263614bda565b600080600060608486031215614c3757600080fd5b8351925060208401519150604084015190509250925092565b600060208284031215614c6257600080fd5b5051919050565b600081518084526020808501945080840160005b83811015614c9957815187529582019590820190600101614c7d565b509495945050505050565b8281526040602082015260006105886040830184614c69565b600060208284031215614ccf57600080fd5b81516108ee816147ca565b6001600160a01b039384168152919092166020820152604081019190915260600190565b8181036000831280158383131683831282161715614d1e57614d1e614bda565b5092915050565b80820260008212600160ff1b84141615614d4157614d41614bda565b818105831482151761126357611263614bda565b600b81810b9083900b0160016001605f1b0381136b7fffffffffffffffffffffff198212171561126357611263614bda565b634e487b7160e01b600052604160045260246000fd5b604051610160810167ffffffffffffffff81118282101715614dc157614dc1614d87565b60405290565b604051601f8201601f1916810167ffffffffffffffff81118282101715614df057614df0614d87565b604052919050565b60006020808385031215614e0b57600080fd5b825167ffffffffffffffff80821115614e2357600080fd5b818501915085601f830112614e3757600080fd5b815181811115614e4957614e49614d87565b8060051b9150614e5a848301614dc7565b8181529183018401918481019088841115614e7457600080fd5b938501935b83851015610e3857845182529385019390850190614e79565b634e487b7160e01b600052603260045260246000fd5b634e487b7160e01b600052601260045260246000fd5b600082614ecd57614ecd614ea8565b500490565b80516146a8816147ca565b805180151581146146a857600080fd5b600060208284031215614eff57600080fd5b6108ee82614edd565b80516146a881614b52565b80516001600160e01b0319811681146146a857600080fd5b600082601f830112614f3c57600080fd5b815167ffffffffffffffff811115614f5657614f56614d87565b614f69601f8201601f1916602001614dc7565b818152846020838601011115614f7e57600080fd5b6105888260208301602087016148fd565b600060208284031215614fa157600080fd5b815167ffffffffffffffff80821115614fb957600080fd5b908301906101608286031215614fce57600080fd5b614fd6614d9d565b614fdf83614f08565b8152614fed60208401614f08565b60208201526040830151604082015261500860608401614ed2565b606082015261501960808401614f13565b608082015260a08301518281111561503057600080fd5b61503c87828601614f2b565b60a08301525060c083015160c082015260e083015160e0820152610100915081830151828201526101209150615073828401614ed2565b828201526101409150615087828401614ed2565b91810191909152949350505050565b634e487b7160e01b600052602160045260246000fd5b80820182811260008312801582168215821617156150cc576150cc614bda565b505092915050565b6000826150e3576150e3614ea8565b600160ff1b8214600019841416156150fd576150fd614bda565b500590565b8181038181111561126357611263614bda565b6060815260006151286060830186614921565b6001600160a01b039490941660208301525060400152919050565b60006020828403121561515557600080fd5b815167ffffffffffffffff81111561516c57600080fd5b61058884828501614f2b565b634e487b7160e01b600052600160045260246000fd5b808202811582820484141761126357611263614bda565b8082018082111561126357611263614bda565b6040815260006151cb6040830185614921565b90508260208301529392505050565b6000600160ff1b82016151ef576151ef614bda565b5060000390565b87815260e06020820152600061520f60e0830189614921565b6001600160a01b03978816604084015295151560608301525092909416608083015260a082015260c0019190915292915050565b600082600b0b82600b0b0280600b0b9150808214614d1e57614d1e614bda565b60008060006060848603121561527857600080fd5b61528184614edd565b925061528f60208501614edd565b9150604084015190509250925092565b6001600160a01b038681168252851660208201526040810184905260a0606082018190526000906152d290830185614921565b8281036080840152610e388185614921565b6001600160a01b038516815260806020820181905260009061530890830186614921565b841515604084015282810360608401526153228185614921565b979650505050505050565b84600b0b815283600b0b602082015282600b0b604082015260806060820152600061535b6080830184614921565b9695505050505050565b6001600160a01b038781168252861660208201526040810185905260c06060820181905260009061539890830186614921565b82810360808401526153aa8186614921565b905082810360a08401526113df8185614921565b60018060a01b03841681528260208201526060604082015260006105a16060830184614c69565b600082516153f78184602087016148fd565b9190910192915050565b60a08152600061541460a0830188614921565b6001600160a01b039687166020840152604083019590955250606081019290925290921660809092019190915291905056fea264697066735822122062de1a0527b8849a3c42716c451a26c7d041c475546dc5442ea379cfd652217a64736f6c63430008130033",
    "linkReferences": {}
  },
  "methodIdentifiers": {
    "CFA_HOOK_GAS_LIMIT()": "bf3fbc28",
    "DEFAULT_MINIMUM_DEPOSIT()": "04aafa49",
    "MAXIMUM_DEPOSIT()": "9cb28b72",
    "MAXIMUM_FLOW_RATE()": "26b0f536",
    "agreementType()": "7730599e",
    "authorizeFlowOperatorWithFullControl(address,address,bytes)": "54b770e3",
    "castrate()": "9903ad38",
    "constantFlowAgreementHook()": "0f2f8f3c",
    "createFlow(address,address,int96,bytes)": "62fc305e",
    "createFlowByOperator(address,address,address,int96,bytes)": "94229ecb",
    "decreaseFlowRateAllowance(address,address,int96,bytes)": "5f51fb23",
    "deleteFlow(address,address,address,bytes)": "b4b333c6",
    "deleteFlowByOperator(address,address,address,bytes)": "4c8b181f",
    "getAccountFlowInfo(address,address)": "0f1ac495",
    "getCodeAddress()": "50d75d25",
    "getDepositRequiredForFlowRate(address,int96)": "8d997f6e",
    "getFlow(address,address,address)": "e6a1e888",
    "getFlowByID(address,bytes32)": "aabd2668",
    "getFlowOperatorData(address,address,address)": "00422bbe",
    "getFlowOperatorDataByID(address,bytes32)": "09d256ef",
    "getMaximumFlowRateFromDeposit(address,uint256)": "0602f7db",
    "getNetFlow(address,address)": "e8e7e2d1",
    "increaseFlowRateAllowance(address,address,int96,bytes)": "ac5f5d00",
    "isPatricianPeriod(address,address,uint256)": "4b839e0b",
    "isPatricianPeriodNow(address,address)": "4fe9c291",
    "proxiableUUID()": "52d1902d",
    "realtimeBalanceOf(address,address,uint256)": "9b2e48bc",
    "revokeFlowOperatorWithFullControl(address,address,bytes)": "062e56ec",
    "updateCode(address)": "46951954",
    "updateFlow(address,address,int96,bytes)": "50209a62",
    "updateFlowByOperator(address,address,address,int96,bytes)": "354b9590",
    "updateFlowOperatorPermissions(address,address,uint8,int96,bytes)": "811b3d40"
  },
  "id": 47
}