{
  "abi": [
    {
      "inputs": [],
      "stateMutability": "nonpayable",
      "type": "constructor"
    },
    {
      "inputs": [],
      "name": "DEFAULT_REWARD_ADDRESS",
      "outputs": [
        {
          "internalType": "address",
          "name": "",
          "type": "address"
        }
      ],
      "stateMutability": "view",
      "type": "function"
    },
    {
      "inputs": [],
      "name": "getFramework",
      "outputs": [
        {
          "components": [
            {
              "internalType": "contract TestGovernance",
              "name": "governance",
              "type": "address"
            },
            {
              "internalType": "contract Superfluid",
              "name": "host",
              "type": "address"
            },
            {
              "internalType": "contract ConstantFlowAgreementV1",
              "name": "cfa",
              "type": "address"
            },
            {
              "components": [
                {
                  "internalType": "contract ISuperfluid",
                  "name": "host",
                  "type": "address"
                },
                {
                  "internalType": "contract IConstantFlowAgreementV1",
                  "name": "cfa",
                  "type": "address"
                }
              ],
              "internalType": "struct CFAv1Library.InitData",
              "name": "cfaLib",
              "type": "tuple"
            },
            {
              "internalType": "contract InstantDistributionAgreementV1",
              "name": "ida",
              "type": "address"
            },
            {
              "components": [
                {
                  "internalType": "contract ISuperfluid",
                  "name": "host",
                  "type": "address"
                },
                {
                  "internalType": "contract IInstantDistributionAgreementV1",
                  "name": "ida",
                  "type": "address"
                }
              ],
              "internalType": "struct IDAv1Library.InitData",
              "name": "idaLib",
              "type": "tuple"
            },
            {
              "internalType": "contract SuperTokenFactory",
              "name": "superTokenFactory",
              "type": "address"
            },
            {
              "internalType": "contract TestResolver",
              "name": "resolver",
              "type": "address"
            },
            {
              "internalType": "contract SuperfluidLoader",
              "name": "superfluidLoader",
              "type": "address"
            },
            {
              "internalType": "contract CFAv1Forwarder",
              "name": "cfaV1Forwarder",
              "type": "address"
            }
          ],
          "internalType": "struct SuperfluidFrameworkDeployer.Framework",
          "name": "sf",
          "type": "tuple"
        }
      ],
      "stateMutability": "view",
      "type": "function"
    },
    {
      "inputs": [
        {
          "internalType": "address",
          "name": "newOwner",
          "type": "address"
        }
      ],
      "name": "transferOwnership",
      "outputs": [],
      "stateMutability": "nonpayable",
      "type": "function"
    }
  ],
  "bytecode": {
    "object": "0x60806040523480156200001157600080fd5b5073__$660aaf2f8ea65054399036be95f254154c$__63c3acf1b36040518163ffffffff1660e01b8152600401602060405180830381865af41580156200005c573d6000803e3d6000fd5b505050506040513d601f19601f8201168201806040525081019062000082919062000f67565b600080546001600160a01b0319166001600160a01b03929092169182179055604051633f5b172b60e11b8152600481019190915230602482015273__$660aaf2f8ea65054399036be95f254154c$__90637eb62e569060440160006040518083038186803b158015620000f457600080fd5b505af415801562000109573d6000803e3d6000fd5b5050604051638a25422160e01b8152600160048201526000602482015273__$cbf423ce196350a4a2325d1d8bd3910a47$__9250638a2542219150604401602060405180830381865af415801562000165573d6000803e3d6000fd5b505050506040513d601f19601f820116820180604052508101906200018b919062000f67565b600180546001600160a01b0319166001600160a01b0392831690811790915560005460405163189acdbd60e31b8152921660048301529063c4d66de890602401600060405180830381600087803b158015620001e657600080fd5b505af1158015620001fb573d6000803e3d6000fd5b50600092508291506200020b9050565b60405190808252806020026020018201604052801562000235578160200160208202803683370190505b50600054600154604051630b520f0360e31b81529293506001600160a01b0391821692635a907818926200027b9216906045906138409061070890889060040162000fd4565b600060405180830381600087803b1580156200029657600080fd5b505af1158015620002ab573d6000803e3d6000fd5b5050600154604051637b38e54160e01b81526001600160a01b0390911660048201526000602482015273__$598b2a9e15c725938b271ee3af6cef2ec2$__9250637b38e5419150604401602060405180830381865af415801562000313573d6000803e3d6000fd5b505050506040513d601f19601f8201168201806040525081019062000339919062000f67565b600280546001600160a01b0319166001600160a01b0392831690811790915560005460015460405163cadf8f8560e01b8152908416600482015260248101929092529091169063cadf8f8590604401600060405180830381600087803b158015620003a357600080fd5b505af1158015620003b8573d6000803e3d6000fd5b50506001546040516001600160a01b039091169250620003d9915062000f08565b6001600160a01b039091168152602001604051809103906000f08015801562000406573d6000803e3d6000fd5b50600780546001600160a01b0319166001600160a01b03928316908117909155600080546001546040516355c2378d60e11b815290851660048201526024810192909252604482019290925291169063ab846f1a90606401600060405180830381600087803b1580156200047957600080fd5b505af11580156200048e573d6000803e3d6000fd5b5050600154604051630cce0ce360e31b81526001600160a01b03909116600482015273__$aca72bf8a5e84d49da2a1f1b430daa1df3$__925063667067189150602401602060405180830381865af4158015620004ef573d6000803e3d6000fd5b505050506040513d601f19601f8201168201806040525081019062000515919062000f67565b600380546001600160a01b0319166001600160a01b0392831690811790915560005460015460405163cadf8f8560e01b8152908416600482015260248101929092529091169063cadf8f8590604401600060405180830381600087803b1580156200057f57600080fd5b505af115801562000594573d6000803e3d6000fd5b505050506000604051620005a89062000f16565b604051809103906000f080158015620005c5573d6000803e3d6000fd5b5090506000604051620005d89062000f16565b604051809103906000f080158015620005f5573d6000803e3d6000fd5b506001546040519192506000916001600160a01b039091169083906200061b9062000f24565b6001600160a01b03928316815291166020820152606060408201819052600090820152608001604051809103906000f0801580156200065e573d6000803e3d6000fd5b509050806001600160a01b0316639903ad386040518163ffffffff1660e01b8152600401600060405180830381600087803b1580156200069d57600080fd5b505af1158015620006b2573d6000803e3d6000fd5b5050600154604051600093506001600160a01b0390911691508590620006d89062000f32565b6001600160a01b03928316815291166020820152606060408201819052600090820152608001604051809103906000f0801580156200071b573d6000803e3d6000fd5b509050806001600160a01b0316639903ad386040518163ffffffff1660e01b8152600401600060405180830381600087803b1580156200075a57600080fd5b505af11580156200076f573d6000803e3d6000fd5b5050604051634a0687ef60e01b81526001600160a01b03858116600483015287169250634a0687ef9150602401600060405180830381600087803b158015620007b757600080fd5b505af1158015620007cc573d6000803e3d6000fd5b5050604051634a0687ef60e01b81526001600160a01b03848116600483015286169250634a0687ef9150602401600060405180830381600087803b1580156200081457600080fd5b505af115801562000829573d6000803e3d6000fd5b50506040805163266c45bb60e11b81526004810191909152601460448201527f436f6e7374616e74204f7574666c6f77204e4654000000000000000000000000606482015260806024820152600360848201526221a7a360e91b60a48201526001600160a01b0387169250634cd88b76915060c401600060405180830381600087803b158015620008b957600080fd5b505af1158015620008ce573d6000803e3d6000fd5b50506040805163266c45bb60e11b81526004810191909152601360448201527f436f6e7374616e7420496e666c6f77204e465400000000000000000000000000606482015260806024820152600360848201526221a4a360e91b60a48201526001600160a01b0386169250634cd88b76915060c401600060405180830381600087803b1580156200095e57600080fd5b505af115801562000973573d6000803e3d6000fd5b5050600154604051630e07777960e31b81526001600160a01b039182166004820152878216602482015290861660448201526000925073__$57496c8a616b40be72793aece1f7116f6d$__915063703bbbc890606401602060405180830381865af4158015620009e7573d6000803e3d6000fd5b505050506040513d601f19601f8201168201806040525081019062000a0d919062000f67565b600154604051630243059d60e01b81526001600160a01b03918216600482015281831660248201528582166044820152908416606482015290915060009073__$5666eb9154dcc791d8d799a35829e46ed7$__90630243059d90608401602060405180830381865af415801562000a88573d6000803e3d6000fd5b505050506040513d601f19601f8201168201806040525081019062000aae919062000f67565b9050600060405162000ac09062000f16565b604051809103906000f08015801562000add573d6000803e3d6000fd5b50604051634a0687ef60e01b81526001600160a01b03848116600483015291925090821690634a0687ef90602401600060405180830381600087803b15801562000b2657600080fd5b505af115801562000b3b573d6000803e3d6000fd5b5050600480546001600160a01b0319166001600160a01b038581169182179092556000805460015460408051848152602081019182905263109e50a960e21b909152918516965063427942a4955062000b9a941692602482016200101b565b600060405180830381600087803b15801562000bb557600080fd5b505af115801562000bca573d6000803e3d6000fd5b5050604051632f0f279d60e01b815233600482015273__$5666eb9154dcc791d8d799a35829e46ed7$__9250632f0f279d9150602401602060405180830381865af415801562000c1e573d6000803e3d6000fd5b505050506040513d601f19601f8201168201806040525081019062000c44919062000f67565b600580546001600160a01b0319166001600160a01b0392909216918217905560405162000c719062000f40565b6001600160a01b039091168152602001604051809103906000f08015801562000c9e573d6000803e3d6000fd5b50600680546001600160a01b0319166001600160a01b039283161790556005546000546040805163a815ff1560e01b81526004810191909152601360448201527f54657374476f7665726e616e63652e74657374000000000000000000000000006064820152908316602482015291169063a815ff1590608401600060405180830381600087803b15801562000d3357600080fd5b505af115801562000d48573d6000803e3d6000fd5b50506005546001546040805163a815ff1560e01b81526004810191909152600f60448201526e14dd5c195c999b1d5a590b9d195cdd608a1b60648201526001600160a01b0391821660248201529116925063a815ff159150608401600060405180830381600087803b15801562000dbe57600080fd5b505af115801562000dd3573d6000803e3d6000fd5b50506005546006546040805163a815ff1560e01b81526004810191909152601360448201527f5375706572666c7569644c6f616465722d76310000000000000000000000000060648201526001600160a01b0391821660248201529116925063a815ff159150608401600060405180830381600087803b15801562000e5757600080fd5b505af115801562000e6c573d6000803e3d6000fd5b50506005546007546040805163a815ff1560e01b81526004810191909152600e60448201526d21a320bb18a337b93bb0b93232b960911b60648201526001600160a01b0391821660248201529116925063a815ff159150608401600060405180830381600087803b15801562000ee157600080fd5b505af115801562000ef6573d6000803e3d6000fd5b5050505050505050505050506200105b565b6117db80620013db83390190565b61024a8062002bb683390190565b6126788062002e0083390190565b61237d806200547883390190565b6104ea80620077f583390190565b6001600160a01b038116811462000f6457600080fd5b50565b60006020828403121562000f7a57600080fd5b815162000f878162000f4e565b9392505050565b600081518084526020808501945080840160005b8381101562000fc95781516001600160a01b03168752958201959082019060010162000fa2565b509495945050505050565b6001600160a01b03868116825285166020820152604081018490526060810183905260a060808201819052600090620010109083018462000f8e565b979650505050505050565b600060018060a01b03808716835280861660208401526080604084015262001047608084018662000f8e565b915080841660608401525095945050505050565b610370806200106b6000396000f3fe608060405234801561001057600080fd5b50600436106100415760003560e01c806393786bf014610046578063dfa98ad51461006b578063f2fde38b14610186575b600080fd5b61004e604581565b6040516001600160a01b0390911681526020015b60405180910390f35b610179604080516101408101825260008082526020808301829052828401829052835180850185528281528082018390526060840152608083018290528351808501909452818452830181905260a082019290925260c0810182905260e0810182905261010081018290526101208101919091525060408051610140810182526000546001600160a01b03908116825260015481166020808401829052600254831684860181905285518087018752838152808301919091526060850152600354831660808501819052855180870190965291855284015260a0820192909252600454821660c0820152600554821660e0820152600654821661010082015260075490911661012082015290565b60405161006291906101fd565b61019961019436600461030a565b61019b565b005b60005460405163f2fde38b60e01b81526001600160a01b0383811660048301529091169063f2fde38b90602401600060405180830381600087803b1580156101e257600080fd5b505af11580156101f6573d6000803e3d6000fd5b5050505050565b81516001600160a01b031681526101808101602083015161022960208401826001600160a01b03169052565b50604083015161024460408401826001600160a01b03169052565b50606083015161026d606084018280516001600160a01b03908116835260209182015116910152565b5060808301516001600160a01b03811660a08401525060a083015180516001600160a01b0390811660c085015260208201511660e08401525060c08301516101006102c2818501836001600160a01b03169052565b60e085015191506101206102e0818601846001600160a01b03169052565b908501516001600160a01b0390811661014086015294015190931661016090920191909152919050565b60006020828403121561031c57600080fd5b81356001600160a01b038116811461033357600080fd5b939250505056fea26469706673582212207173ee19d5ab5cbc948077982d7a38fe9a993440eddb4515c7cf74a71aa1543f64736f6c6343000813003360c06040523480156200001157600080fd5b50604051620017db380380620017db8339810160408190526200003491620000ef565b6001600160a01b0381166080819052604051635b69006f60e11b81527fa9214cc96615e0085d3bb077758db69497dc2dce3b2b1e97bc93c3d18d83efd3600482015263b6d200de90602401602060405180830381865afa1580156200009d573d6000803e3d6000fd5b505050506040513d601f19601f82011682018060405250810190620000c39190620000ef565b6001600160a01b031660a0525062000116565b6001600160a01b0381168114620000ec57600080fd5b50565b6000602082840312156200010257600080fd5b81516200010f81620000d6565b9392505050565b60805160a051611628620001b36000396000818161029a01528181610366015281816103fb015281816104ab01528181610520015281816105de015281816106e901528181610766015281816107aa01528181610851015281816108ef0152818161092501528181610abc01528181610b4101528181610bb001528181610bf30152610c2d015260008181610d150152610d8701526116286000f3fe608060405234801561001057600080fd5b50600436106100ea5760003560e01c8063308855911161008c5780637243fb93116100665780637243fb9314610222578063b4b333c614610235578063c5ad5c1a14610248578063e15536b61461025b57600080fd5b806330885591146101cd5780634d3f60f9146101e057806357e6aa361461020f57600080fd5b80630f1ac495116100c85780630f1ac4951461014b5780631d8b65261461018157806322c904d9146101a75780632860fd93146101ba57600080fd5b806309f0b495146100ef5780630bd0728d146101155780630c03399114610138575b600080fd5b6101026100fd366004610f76565b61026e565b6040519081526020015b60405180910390f35b610128610123366004610faf565b61030e565b604051901515815260200161010c565b610128610146366004611080565b61031d565b61015e610159366004610faf565b610336565b60408051948552600b9390930b602085015291830152606082015260800161010c565b61019461018f366004611108565b6103e1565b604051600b9190910b815260200161010c565b6101946101b5366004610faf565b610481565b61015e6101c8366004611108565b610518565b6101286101db366004611162565b6105c0565b6101f36101ee366004611108565b6105d9565b6040805160ff9093168352600b9190910b60208301520161010c565b61012861021d3660046111be565b610679565b610128610230366004610faf565b610687565b6101286102433660046111fe565b6106a2565b610128610256366004611273565b6106b0565b610128610269366004611080565b6106be565b6040516346ccbfb760e11b81526001600160a01b038381166004830152600b83900b60248301526000917f000000000000000000000000000000000000000000000000000000000000000090911690638d997f6e90604401602060405180830381865afa1580156102e3573d6000803e3d6000fd5b505050506040513d601f19601f8201168201806040525081019061030791906112b4565b9392505050565b600061030783836000806106cd565b600061032c868686868661078d565b9695505050505050565b604051630f1ac49560e01b81526001600160a01b03838116600483015282811660248301526000918291829182917f00000000000000000000000000000000000000000000000000000000000000001690630f1ac49590604401608060405180830381865afa1580156103ad573d6000803e3d6000fd5b505050506040513d601f19601f820116820180604052508101906103d191906112cd565b9299919850965090945092505050565b604051631cd43d1160e31b81526000906001600160a01b037f0000000000000000000000000000000000000000000000000000000000000000169063e6a1e888906104349087908790879060040161130b565b608060405180830381865afa158015610451573d6000803e3d6000fd5b505050506040513d601f19601f8201168201806040525081019061047591906112cd565b50909695505050505050565b60405163e8e7e2d160e01b81526001600160a01b03838116600483015282811660248301526000917f00000000000000000000000000000000000000000000000000000000000000009091169063e8e7e2d190604401602060405180830381865afa1580156104f4573d6000803e3d6000fd5b505050506040513d601f19601f82011682018060405250810190610307919061132e565b6000806000807f00000000000000000000000000000000000000000000000000000000000000006001600160a01b031663e6a1e8888888886040518463ffffffff1660e01b815260040161056e9392919061130b565b608060405180830381865afa15801561058b573d6000803e3d6000fd5b505050506040513d601f19601f820116820180604052508101906105af91906112cd565b929a91995097509095509350505050565b60006105ce858585856106cd565b90505b949350505050565b6000807f00000000000000000000000000000000000000000000000000000000000000006001600160a01b031662422bbe8686866040518463ffffffff1660e01b815260040161062b9392919061130b565b606060405180830381865afa158015610648573d6000803e3d6000fd5b505050506040513d601f19601f8201168201806040525081019061066c919061134b565b9097909650945050505050565b60006105d184338585610920565b6000610307838360076b7fffffffffffffffffffffff6106cd565b60006105ce85858585610a7d565b60006105ce85858585610920565b600061032c8686868686610bd6565b6040805160008082526020820190925281906001600160a01b037f0000000000000000000000000000000000000000000000000000000000000000169063811b3d4090610725908990899089908990604481016113d3565b60408051601f19818403018152918152602080830180516001600160e01b031660e09590951b949094179093528051600081529283019052925061032c91507f0000000000000000000000000000000000000000000000000000000000000000908390610c5c565b6000806001600160a01b0386163314610847576001600160a01b037f00000000000000000000000000000000000000000000000000000000000000001663354b95908888888860005b6040519080825280601f01601f191660200182016040528015610800576020820181803683370190505b50604051602401610815959493929190611412565b604051602081830303815290604052915060e01b6020820180516001600160e01b0383818316178352505050506108e8565b6001600160a01b037f0000000000000000000000000000000000000000000000000000000000000000166350209a6288878760005b6040519080825280601f01601f1916602001820160405280156108a6576020820181803683370190505b506040516024016108ba9493929190611450565b604051602081830303815290604052915060e01b6020820180516001600160e01b0383818316178352505050505b90506109157f00000000000000000000000000000000000000000000000000000000000000008285610c5c565b979650505050505050565b6000807f00000000000000000000000000000000000000000000000000000000000000006001600160a01b031663e6a1e8888787876040518463ffffffff1660e01b81526004016109739392919061130b565b608060405180830381865afa158015610990573d6000803e3d6000fd5b505050506040513d601f19601f820116820180604052508101906109b491906112cd565b5050915050600083600b0b1315610a2f5780600b0b6000036109f8576040805160008152602081019091526109f0908790879087908790610bd6565b9150506105d1565b82600b0b81600b0b14610a25576040805160008152602081019091526109f090879087908790879061078d565b60019150506105d1565b82600b0b600003610a6457600081600b0b1315610a25576040805160008152602081019091526109f090879087908790610a7d565b60405163cea9aa5f60e01b815260040160405180910390fd5b6000806001600160a01b038516331480610a9f57506001600160a01b03841633145b610b28576040805160008152602081019091526001600160a01b037f00000000000000000000000000000000000000000000000000000000000000001690634c8b181f90610af69089908990899060448101611486565b604051602081830303815290604052915060e01b6020820180516001600160e01b038381831617835250505050610ba9565b6040805160008152602081019091526001600160a01b037f0000000000000000000000000000000000000000000000000000000000000000169063b4b333c690610b7b9089908990899060448101611486565b604051602081830303815290604052915060e01b6020820180516001600160e01b0383818316178352505050505b905061032c7f00000000000000000000000000000000000000000000000000000000000000008285610c5c565b6000806001600160a01b0386163314610c23576001600160a01b037f0000000000000000000000000000000000000000000000000000000000000000166394229ecb8888888860006107d6565b6001600160a01b037f0000000000000000000000000000000000000000000000000000000000000000166362fc305e888787600061087c565b604080516001808252818301909252600091829190816020015b60408051606080820183526000808352602083015291810191909152815260200190600190039081610c76579050509050604051806060016040528060c963ffffffff168152602001866001600160a01b031681526020018585604051602001610ce19291906114ba565b60405160208183030381529060405281525081600081518110610d0657610d066114e8565b602002602001018190525060007f00000000000000000000000000000000000000000000000000000000000000006001600160a01b031663670e77e383604051602401610d5391906114fe565b604051602081830303815290604052915060e01b6020820180516001600160e01b03838183161783525050505090506000807f00000000000000000000000000000000000000000000000000000000000000006001600160a01b03168333604051602001610dc292919061158c565b60408051601f1981840301815290829052610ddc916115c3565b6000604051808303816000865af19150503d8060008114610e19576040519150601f19603f3d011682016040523d82523d6000602084013e610e1e565b606091505b509150915081610e3157610e3181610e3f565b506001979650505050505050565b600481511015610e965760405162461bcd60e51b815260206004820152601a60248201527f43616c6c5574696c733a2074617267657420726576657274282900000000000060448201526064015b60405180910390fd5b602081015163b1b7848f60e01b6001600160e01b0319821601610f465760408051808201825260208082527f43616c6c5574696c733a207461726765742070616e69636b65643a2030785f5f90820190815260248501517f43616c6c5574696c733a207461726765742070616e69636b65643a2030780000600482811c600f908116603090810160081b918516011791909117909252925162461bcd60e51b8152919291610e8d918491016115df565b81518060208401fd5b50565b6001600160a01b0381168114610f4f57600080fd5b80600b0b8114610f4f57600080fd5b60008060408385031215610f8957600080fd5b8235610f9481610f52565b91506020830135610fa481610f67565b809150509250929050565b60008060408385031215610fc257600080fd5b8235610fcd81610f52565b91506020830135610fa481610f52565b634e487b7160e01b600052604160045260246000fd5b600082601f83011261100457600080fd5b813567ffffffffffffffff8082111561101f5761101f610fdd565b604051601f8301601f19908116603f0116810190828211818310171561104757611047610fdd565b8160405283815286602085880101111561106057600080fd5b836020870160208301376000602085830101528094505050505092915050565b600080600080600060a0868803121561109857600080fd5b85356110a381610f52565b945060208601356110b381610f52565b935060408601356110c381610f52565b925060608601356110d381610f67565b9150608086013567ffffffffffffffff8111156110ef57600080fd5b6110fb88828901610ff3565b9150509295509295909350565b60008060006060848603121561111d57600080fd5b833561112881610f52565b9250602084013561113881610f52565b9150604084013561114881610f52565b809150509250925092565b60ff81168114610f4f57600080fd5b6000806000806080858703121561117857600080fd5b843561118381610f52565b9350602085013561119381610f52565b925060408501356111a381611153565b915060608501356111b381610f67565b939692955090935050565b6000806000606084860312156111d357600080fd5b83356111de81610f52565b925060208401356111ee81610f52565b9150604084013561114881610f67565b6000806000806080858703121561121457600080fd5b843561121f81610f52565b9350602085013561122f81610f52565b9250604085013561123f81610f52565b9150606085013567ffffffffffffffff81111561125b57600080fd5b61126787828801610ff3565b91505092959194509250565b6000806000806080858703121561128957600080fd5b843561129481610f52565b935060208501356112a481610f52565b925060408501356111a381610f52565b6000602082840312156112c657600080fd5b5051919050565b600080600080608085870312156112e357600080fd5b8451935060208501516112f581610f67565b6040860151606090960151949790965092505050565b6001600160a01b0393841681529183166020830152909116604082015260600190565b60006020828403121561134057600080fd5b815161030781610f67565b60008060006060848603121561136057600080fd5b83519250602084015161137281611153565b604085015190925061114881610f67565b60005b8381101561139e578181015183820152602001611386565b50506000910152565b600081518084526113bf816020860160208601611383565b601f01601f19169290920160200192915050565b6001600160a01b0386811682528516602082015260ff84166040820152600b83900b606082015260a060808201819052600090610915908301846113a7565b6001600160a01b038681168252858116602083015284166040820152600b83900b606082015260a060808201819052600090610915908301846113a7565b6001600160a01b03858116825284166020820152600b83900b604082015260806060820181905260009061032c908301846113a7565b6001600160a01b03858116825284811660208301528316604082015260806060820181905260009061032c908301846113a7565b6040815260006114cd60408301856113a7565b82810360208401526114df81856113a7565b95945050505050565b634e487b7160e01b600052603260045260246000fd5b60006020808301818452808551808352604092508286019150828160051b87010184880160005b8381101561157e57888303603f190185528151805163ffffffff168452878101516001600160a01b031688850152860151606087850181905261156a818601836113a7565b968901969450505090860190600101611525565b509098975050505050505050565b6000835161159e818460208801611383565b60609390931b6bffffffffffffffffffffffff19169190920190815260140192915050565b600082516115d5818460208701611383565b9190910192915050565b60208152600061030760208301846113a756fea2646970667358221220c637085118da23229e707e7030276b53e8a94cea55ea48cd8f447680dbfae3b064736f6c63430008130033608060405234801561001057600080fd5b5061022a806100206000396000f3fe6080604052600436106100225760003560e01c80634a0687ef1461003957610031565b366100315761002f610059565b005b61002f610059565b34801561004557600080fd5b5061002f6100543660046101c4565b61006b565b610069610064610171565b6101a0565b565b6001600160a01b0381166100c65760405162461bcd60e51b815260206004820152601760248201527f5555505350726f78793a207a65726f206164647265737300000000000000000060448201526064015b60405180910390fd5b60006100f07f360894a13ba1a3210667c828492db98dca3e2076cc3735a920a3ca505d382bbc5490565b6001600160a01b0316146101465760405162461bcd60e51b815260206004820152601e60248201527f5555505350726f78793a20616c726561647920696e697469616c697a6564000060448201526064016100bd565b61016e817f360894a13ba1a3210667c828492db98dca3e2076cc3735a920a3ca505d382bbc55565b50565b600061019b7f360894a13ba1a3210667c828492db98dca3e2076cc3735a920a3ca505d382bbc5490565b905090565b3660008037600080366000845af43d6000803e8080156101bf573d6000f35b3d6000fd5b6000602082840312156101d657600080fd5b81356001600160a01b03811681146101ed57600080fd5b939250505056fea26469706673582212201524a97357cb5a243d80577e1154450ede73c1b6b5b45decba319c216755e56e64736f6c6343000813003360e06040523480156200001157600080fd5b506040516200267838038062002678833981016040819052620000349162000127565b6001600160a01b03831660a0819052604051635b69006f60e11b81527fa9214cc96615e0085d3bb077758db69497dc2dce3b2b1e97bc93c3d18d83efd360048201528491839163b6d200de90602401602060405180830381865afa158015620000a1573d6000803e3d6000fd5b505050506040513d601f19601f82011682018060405250810190620000c7919062000227565b6001600160a01b03166080526003620000e18282620002dd565b505050506001600160a01b031660c05250620003a9565b6001600160a01b03811681146200010e57600080fd5b50565b634e487b7160e01b600052604160045260246000fd5b6000806000606084860312156200013d57600080fd5b83516200014a81620000f8565b809350506020808501516200015f81620000f8565b60408601519093506001600160401b03808211156200017d57600080fd5b818701915087601f8301126200019257600080fd5b815181811115620001a757620001a762000111565b604051601f8201601f19908116603f01168101908382118183101715620001d257620001d262000111565b816040528281528a86848701011115620001eb57600080fd5b600093505b828410156200020f5784840186015181850187015292850192620001f0565b60008684830101528096505050505050509250925092565b6000602082840312156200023a57600080fd5b81516200024781620000f8565b9392505050565b600181811c908216806200026357607f821691505b6020821081036200028457634e487b7160e01b600052602260045260246000fd5b50919050565b601f821115620002d857600081815260208120601f850160051c81016020861015620002b35750805b601f850160051c820191505b81811015620002d457828155600101620002bf565b5050505b505050565b81516001600160401b03811115620002f957620002f962000111565b62000311816200030a84546200024e565b846200028a565b602080601f831160018114620003495760008415620003305750858301515b600019600386901b1c1916600185901b178555620002d4565b600085815260208120601f198616915b828110156200037a5788860151825594840194600190910190840162000359565b5085821015620003995787850151600019600388901b60f8161c191681555b5050505050600190811b01905550565b60805160a05160c05161226762000411600039600081816102ca01528181610ad701528181610bd10152610ce80152600081816102a3015261065301526000818161023001528181610a4a01528181610b4d01528181610c4901526111e001526122676000f3fe608060405234801561001057600080fd5b50600436106101a95760003560e01c806352d1902d116100f9578063a22cb46511610097578063e985e9c511610071578063e985e9c514610413578063eb54a7ca14610426578063ef1f023714610439578063f7e3d9831461044c57600080fd5b8063a22cb465146103da578063b88d4fde146103ed578063c87b56dd1461040057600080fd5b806389f71d2d116100d357806389f71d2d1461035e5780638d47859e1461037157806395d89b41146103ca5780639903ad38146103d257600080fd5b806352d1902d146103075780636352211e1461033757806370a082311461034a57600080fd5b80632f3885601161016657806349f289dc1161014057806349f289dc1461029e5780634c5c0c85146102c55780634cd88b76146102ec57806350d75d25146102ff57600080fd5b80632f3885601461026557806342842e0e14610278578063469519541461028b57600080fd5b806301ffc9a7146101ae57806306fdde03146101d6578063081812fc146101eb578063095ea7b314610216578063181561011461022b57806323b872dd14610252575b600080fd5b6101c16101bc36600461196c565b61045f565b60405190151581526020015b60405180910390f35b6101de6104b1565b6040516101cd91906119ba565b6101fe6101f93660046119ed565b610543565b6040516001600160a01b0390911681526020016101cd565b610229610224366004611a1b565b61056a565b005b6101fe7f000000000000000000000000000000000000000000000000000000000000000081565b610229610260366004611a47565b6105f6565b6102296102733660046119ed565b610628565b610229610286366004611a47565b610634565b610229610299366004611a88565b61064f565b6101fe7f000000000000000000000000000000000000000000000000000000000000000081565b6101fe7f000000000000000000000000000000000000000000000000000000000000000081565b6102296102fa366004611b72565b61070b565b6101fe6107f1565b7f87e44dce6a0d65a5ccf441783661f5727c2624b1f0088bbe957ce2c95406b7845b6040519081526020016101cd565b6101fe6103453660046119ed565b610820565b610329610358366004611a88565b50600190565b61032961036c366004611bd6565b610859565b61038461037f3660046119ed565b61086e565b6040805182516001600160a01b03908116825260208085015182169083015283830151169181019190915260609182015163ffffffff16918101919091526080016101cd565b6101de6108ef565b6102296108fe565b6102296103e8366004611c21565b6109c0565b6102296103fb366004611c5f565b6109cb565b6101de61040e3660046119ed565b610a04565b6101c1610421366004611cdf565b610a11565b610229610434366004611bd6565b610a3f565b610229610447366004611bd6565b610b42565b61022961045a366004611bd6565b610c3e565b60006301ffc9a760e01b6001600160e01b03198316148061049057506380ac58cd60e01b6001600160e01b03198316145b806104ab5750635b5e139f60e01b6001600160e01b03198316145b92915050565b6060600180546104c090611d0d565b80601f01602080910402602001604051908101604052809291908181526020018280546104ec90611d0d565b80156105395780601f1061050e57610100808354040283529160200191610539565b820191906000526020600020905b81548152906001019060200180831161051c57829003601f168201915b5050505050905090565b600061054e82610d17565b506000908152600460205260409020546001600160a01b031690565b600061057582610820565b9050806001600160a01b0316836001600160a01b0316036105a95760405163e4790b2560e01b815260040160405180910390fd5b336001600160a01b038216148015906105c957506105c78133610a11565b155b156105e75760405163519a92c160e11b815260040160405180910390fd5b6105f18383610d4f565b505050565b6106003382610db9565b61061d576040516312a8eb0360e11b815260040160405180910390fd5b6105f1838383610e17565b61063181610e30565b50565b6105f1838383604051806020016040528060008152506109cb565b60007f00000000000000000000000000000000000000000000000000000000000000006001600160a01b031663731aed6e6040518163ffffffff1660e01b8152600401602060405180830381865afa1580156106af573d6000803e3d6000fd5b505050506040513d601f19601f820116820180604052508101906106d39190611d47565b9050336001600160a01b038216146106fe5760405163ebb7505b60e01b815260040160405180910390fd5b61070782610e60565b5050565b600054610100900460ff161580801561072b5750600054600160ff909116105b806107455750303b158015610745575060005460ff166001145b61076a5760405162461bcd60e51b815260040161076190611d64565b60405180910390fd5b6000805460ff19166001179055801561078d576000805461ff0019166101001790555b60016107998482611e00565b5060026107a68382611e00565b5080156105f1576000805461ff0019169055604051600181527f7f26b83ff96e1f2b6a682f133852f6798a09c465da95921460cefb38474024989060200160405180910390a1505050565b600061081b7f360894a13ba1a3210667c828492db98dca3e2076cc3735a920a3ca505d382bbc5490565b905090565b6000818152601660205260408120600101546001600160a01b0316806104ab5760405163eab95e3b60e01b815260040160405180910390fd5b600061086684848461109a565b949350505050565b60408051608081018252600080825260208201819052918101829052606081019190915250600090815260166020908152604091829020825160808101845281546001600160a01b039081168252600183015481169382019390935260029091015491821692810192909252600160a01b900463ffffffff16606082015290565b6060600280546104c090611d0d565b600054610100900460ff161580801561091e5750600054600160ff909116105b806109385750303b158015610938575060005460ff166001145b6109545760405162461bcd60e51b815260040161076190611d64565b6000805460ff191660011790558015610977576000805461ff0019166101001790555b8015610631576000805461ff0019169055604051600181527f7f26b83ff96e1f2b6a682f133852f6798a09c465da95921460cefb3847402498906020015b60405180910390a150565b6107073383836110e6565b6109d53383610db9565b6109f2576040516312a8eb0360e11b815260040160405180910390fd5b6109fe84848484611185565b50505050565b60606104ab826000611190565b6001600160a01b03918216600090815260056020908152604080832093909416825291909152205460ff1690565b336001600160a01b037f00000000000000000000000000000000000000000000000000000000000000001614610a885760405163d367b64f60e01b815260040160405180910390fd5b6000610a9584848461109a565b6000818152601660205260409020600101549091506001600160a01b0316156109fe57610ac181610e30565b604051630179c42b60e51b8152600481018290527f00000000000000000000000000000000000000000000000000000000000000006001600160a01b031690632f388560906024015b600060405180830381600087803b158015610b2457600080fd5b505af1158015610b38573d6000803e3d6000fd5b5050505050505050565b336001600160a01b037f00000000000000000000000000000000000000000000000000000000000000001614610b8b5760405163d367b64f60e01b815260040160405180910390fd5b6000610b9884848461109a565b6000818152601660205260409020600101549091506001600160a01b0316156109fe57604051630852cd8d60e31b8152600481018290527f00000000000000000000000000000000000000000000000000000000000000006001600160a01b0316906342966c6890602401600060405180830381600087803b158015610c1d57600080fd5b505af1158015610c31573d6000803e3d6000fd5b505050506109fe816112e5565b336001600160a01b037f00000000000000000000000000000000000000000000000000000000000000001614610c875760405163d367b64f60e01b815260040160405180910390fd5b6000610c9484848461109a565b6000818152601660205260409020600101549091506001600160a01b03166109fe57610cc284848484611381565b6040516340c10f1960e01b81526001600160a01b038381166004830152602482018390527f000000000000000000000000000000000000000000000000000000000000000016906340c10f1990604401610b0a565b6000818152601660205260409020600101546001600160a01b03166106315760405163eab95e3b60e01b815260040160405180910390fd5b600081815260046020908152604080832080546001600160a01b0319166001600160a01b038781169182179092556016909352818420600101549151859492909116917f8c5be1e5ebec7d5bd14f71427d1e84f3dd0314c0f7b2291e5b200ac8c7c3b92591a45050565b600080610dc583610820565b9050806001600160a01b0316846001600160a01b03161480610dec5750610dec8185610a11565b806108665750836001600160a01b0316610e0584610543565b6001600160a01b031614949350505050565b60405163553a3f6560e11b815260040160405180910390fd5b6040518181527ff8e1a15aba9398e019f0b49df1a4fde98ee17ae345cb5f6b5e2c27f5033e8ce7906020016109b5565b6000610e8a7f360894a13ba1a3210667c828492db98dca3e2076cc3735a920a3ca505d382bbc5490565b6001600160a01b031603610ee05760405162461bcd60e51b815260206004820152601d60248201527f5555505350726f786961626c653a206e6f742075706772616461626c650000006044820152606401610761565b806001600160a01b03166352d1902d6040518163ffffffff1660e01b8152600401602060405180830381865afa158015610f1e573d6000803e3d6000fd5b505050506040513d601f19601f82011682018060405250810190610f429190611ec0565b7f87e44dce6a0d65a5ccf441783661f5727c2624b1f0088bbe957ce2c95406b78414610fbc5760405162461bcd60e51b815260206004820152602360248201527f5555505350726f786961626c653a206e6f7420636f6d70617469626c65206c6f60448201526267696360e81b6064820152608401610761565b6001600160a01b03811630036110145760405162461bcd60e51b815260206004820152601960248201527f5555505350726f786961626c653a2070726f7879206c6f6f70000000000000006044820152606401610761565b61103c817f360894a13ba1a3210667c828492db98dca3e2076cc3735a920a3ca505d382bbc55565b7fe011bc04c286c344a8fcbb8de77f953da762c3e25d8cdea984147fc4168a5dcc7f87e44dce6a0d65a5ccf441783661f5727c2624b1f0088bbe957ce2c95406b784604080519182526001600160a01b0384166020830152016109b5565b60408051466020808301919091526001600160a01b03958616828401529385166060820152919093166080808301919091528351808303909101815260a0909101909252815191012090565b816001600160a01b0316836001600160a01b0316036111185760405163d3c7732960e01b815260040160405180910390fd5b6001600160a01b03838116600081815260056020908152604080832094871680845294825291829020805460ff191686151590811790915591519182527f17307eab39ab6107e8899845ad3d59bd9653f200f220920489ca2b5937696c31910160405180910390a3505050565b6109fe848484610e17565b6060600061119d8461086e565b805160208201516040808401519051631cd43d1160e31b81526001600160a01b0380851660048301529283166024820152908216604482015292935090916000917f0000000000000000000000000000000000000000000000000000000000000000169063e6a1e88890606401608060405180830381865afa158015611227573d6000803e3d6000fd5b505050506040513d601f19601f8201168201806040525081019061124b9190611ed9565b5050915050600361125b876114e3565b611272836bffffffffffffffffffffffff1661165e565b8761129a576040518060400160405280600581526020016466616c736560d81b8152506112b8565b604051806040016040528060048152602001637472756560e01b8152505b6040516020016112cb9493929190611f39565b604051602081830303815290604052935050505092915050565b60006112f082610820565b600083815260046020526040902080546001600160a01b0319169055905060008281526016602052604080822080546001600160a01b03199081168255600182018054909116905560020180546001600160c01b0319169055518391906001600160a01b038416907fddf252ad1be2c89b69c2b068fc378daa952ba7f163c4a11628f55a4df523b3ef908390a45050565b6001600160a01b0383166113a8576040516343d05e5160e01b815260040160405180910390fd5b816001600160a01b0316836001600160a01b0316036113da5760405163a07fa90960e01b815260040160405180910390fd5b6000818152601660205260409020600101546001600160a01b0316156114135760405163e248018360e01b815260040160405180910390fd5b604080516080810182526001600160a01b038087168252858116602080840182815287841685870190815263ffffffff4281166060880190815260008a81526016909552888520975188549088166001600160a01b0319918216178955935160018901805491891691909516179093559051600290960180549251909116600160a01b026001600160c01b03199092169590941694909417939093179091559151839291907fddf252ad1be2c89b69c2b068fc378daa952ba7f163c4a11628f55a4df523b3ef908290a450505050565b606060006114f08361086e565b905061150a81600001516001600160a01b031660146116f1565b6115134661165e565b82600001516001600160a01b03166395d89b416040518163ffffffff1660e01b8152600401600060405180830381865afa158015611555573d6000803e3d6000fd5b505050506040513d6000823e601f3d908101601f1916820160405261157d9190810190612005565b61159584602001516001600160a01b031660146116f1565b6115ad85604001516001600160a01b031660146116f1565b61161e86600001516001600160a01b031663313ce5676040518163ffffffff1660e01b8152600401602060405180830381865afa1580156115f2573d6000803e3d6000fd5b505050506040513d601f19601f82011682018060405250810190611616919061207c565b60ff1661165e565b611631876060015163ffffffff1661165e565b604051602001611647979695949392919061209f565b604051602081830303815290604052915050919050565b6060600061166b83611894565b600101905060008167ffffffffffffffff81111561168b5761168b611aa5565b6040519080825280601f01601f1916602001820160405280156116b5576020820181803683370190505b5090508181016020015b600019016f181899199a1a9b1b9c1cb0b131b232b360811b600a86061a8153600a85049450846116bf57509392505050565b606060006117008360026121da565b61170b9060026121f1565b67ffffffffffffffff81111561172357611723611aa5565b6040519080825280601f01601f19166020018201604052801561174d576020820181803683370190505b509050600360fc1b8160008151811061176857611768612204565b60200101906001600160f81b031916908160001a905350600f60fb1b8160018151811061179757611797612204565b60200101906001600160f81b031916908160001a90535060006117bb8460026121da565b6117c69060016121f1565b90505b600181111561183e576f181899199a1a9b1b9c1cb0b131b232b360811b85600f16601081106117fa576117fa612204565b1a60f81b82828151811061181057611810612204565b60200101906001600160f81b031916908160001a90535060049490941c936118378161221a565b90506117c9565b50831561188d5760405162461bcd60e51b815260206004820181905260248201527f537472696e67733a20686578206c656e67746820696e73756666696369656e746044820152606401610761565b9392505050565b60008072184f03e93ff9f4daa797ed6e38ed64bf6a1f0160401b83106118d35772184f03e93ff9f4daa797ed6e38ed64bf6a1f0160401b830492506040015b6d04ee2d6d415b85acef810000000083106118ff576d04ee2d6d415b85acef8100000000830492506020015b662386f26fc10000831061191d57662386f26fc10000830492506010015b6305f5e1008310611935576305f5e100830492506008015b612710831061194957612710830492506004015b6064831061195b576064830492506002015b600a83106104ab5760010192915050565b60006020828403121561197e57600080fd5b81356001600160e01b03198116811461188d57600080fd5b60005b838110156119b1578181015183820152602001611999565b50506000910152565b60208152600082518060208401526119d9816040850160208701611996565b601f01601f19169190910160400192915050565b6000602082840312156119ff57600080fd5b5035919050565b6001600160a01b038116811461063157600080fd5b60008060408385031215611a2e57600080fd5b8235611a3981611a06565b946020939093013593505050565b600080600060608486031215611a5c57600080fd5b8335611a6781611a06565b92506020840135611a7781611a06565b929592945050506040919091013590565b600060208284031215611a9a57600080fd5b813561188d81611a06565b634e487b7160e01b600052604160045260246000fd5b604051601f8201601f1916810167ffffffffffffffff81118282101715611ae457611ae4611aa5565b604052919050565b600067ffffffffffffffff821115611b0657611b06611aa5565b50601f01601f191660200190565b6000611b27611b2284611aec565b611abb565b9050828152838383011115611b3b57600080fd5b828260208301376000602084830101529392505050565b600082601f830112611b6357600080fd5b61188d83833560208501611b14565b60008060408385031215611b8557600080fd5b823567ffffffffffffffff80821115611b9d57600080fd5b611ba986838701611b52565b93506020850135915080821115611bbf57600080fd5b50611bcc85828601611b52565b9150509250929050565b600080600060608486031215611beb57600080fd5b8335611bf681611a06565b92506020840135611c0681611a06565b91506040840135611c1681611a06565b809150509250925092565b60008060408385031215611c3457600080fd5b8235611c3f81611a06565b915060208301358015158114611c5457600080fd5b809150509250929050565b60008060008060808587031215611c7557600080fd5b8435611c8081611a06565b93506020850135611c9081611a06565b925060408501359150606085013567ffffffffffffffff811115611cb357600080fd5b8501601f81018713611cc457600080fd5b611cd387823560208401611b14565b91505092959194509250565b60008060408385031215611cf257600080fd5b8235611cfd81611a06565b91506020830135611c5481611a06565b600181811c90821680611d2157607f821691505b602082108103611d4157634e487b7160e01b600052602260045260246000fd5b50919050565b600060208284031215611d5957600080fd5b815161188d81611a06565b6020808252602e908201527f496e697469616c697a61626c653a20636f6e747261637420697320616c72656160408201526d191e481a5b9a5d1a585b1a5e995960921b606082015260800190565b601f8211156105f157600081815260208120601f850160051c81016020861015611dd95750805b601f850160051c820191505b81811015611df857828155600101611de5565b505050505050565b815167ffffffffffffffff811115611e1a57611e1a611aa5565b611e2e81611e288454611d0d565b84611db2565b602080601f831160018114611e635760008415611e4b5750858301515b600019600386901b1c1916600185901b178555611df8565b600085815260208120601f198616915b82811015611e9257888601518255948401946001909101908401611e73565b5085821015611eb05787850151600019600388901b60f8161c191681555b5050505050600190811b01905550565b600060208284031215611ed257600080fd5b5051919050565b60008060008060808587031215611eef57600080fd5b84519350602085015180600b0b8114611f0757600080fd5b6040860151606090960151949790965092505050565b60008151611f2f818560208601611996565b9290920192915050565b6000808654611f4781611d0d565b60018281168015611f5f5760018114611f7457611fa3565b60ff1984168752821515830287019450611fa3565b8a60005260208060002060005b85811015611f9a5781548a820152908401908201611f81565b50505082870194505b505050508551611fb7818360208a01611996565b6926666c6f77526174653d60b01b9101908152611ffa611ff4611fdd600a840188611f1d565b6a2669735f696e666c6f773d60a81b8152600b0190565b85611f1d565b979650505050505050565b60006020828403121561201757600080fd5b815167ffffffffffffffff81111561202e57600080fd5b8201601f8101841361203f57600080fd5b805161204d611b2282611aec565b81815285602083850101111561206257600080fd5b612073826020830160208601611996565b95945050505050565b60006020828403121561208e57600080fd5b815160ff8116811461188d57600080fd5b6e26746f6b656e5f616464726573733d60881b8152600088516120c981600f850160208d01611996565b693f636861696e5f69643d60b01b600f9184019182015288516120f3816019840160208d01611996565b6d26746f6b656e5f73796d626f6c3d60901b601992909101918201528751612122816027840160208c01611996565b672673656e6465723d60c01b60279290910191820152865161214b81602f840160208b01611996565b692672656365697665723d60b01b602f92909101918201526121b6611ff461219e61219861217c603986018b611f1d565b6f26746f6b656e5f646563696d616c733d60801b815260100190565b88611f1d565b6b2673746172745f646174653d60a01b8152600c0190565b9a9950505050505050505050565b634e487b7160e01b600052601160045260246000fd5b80820281158282048414176104ab576104ab6121c4565b808201808211156104ab576104ab6121c4565b634e487b7160e01b600052603260045260246000fd5b600081612229576122296121c4565b50600019019056fea2646970667358221220dc538143e33fab1f50d1b3755f5ec8a166ff00198f2fb0e6a23af8b165d9eeb564736f6c6343000813003360e06040523480156200001157600080fd5b506040516200237d3803806200237d833981016040819052620000349162000127565b6001600160a01b03831660a0819052604051635b69006f60e11b81527fa9214cc96615e0085d3bb077758db69497dc2dce3b2b1e97bc93c3d18d83efd360048201528491839163b6d200de90602401602060405180830381865afa158015620000a1573d6000803e3d6000fd5b505050506040513d601f19601f82011682018060405250810190620000c7919062000227565b6001600160a01b03166080526003620000e18282620002dd565b505050506001600160a01b031660c05250620003a9565b6001600160a01b03811681146200010e57600080fd5b50565b634e487b7160e01b600052604160045260246000fd5b6000806000606084860312156200013d57600080fd5b83516200014a81620000f8565b809350506020808501516200015f81620000f8565b60408601519093506001600160401b03808211156200017d57600080fd5b818701915087601f8301126200019257600080fd5b815181811115620001a757620001a762000111565b604051601f8201601f19908116603f01168101908382118183101715620001d257620001d262000111565b816040528281528a86848701011115620001eb57600080fd5b600093505b828410156200020f5784840186015181850187015292850192620001f0565b60008684830101528096505050505050509250925092565b6000602082840312156200023a57600080fd5b81516200024781620000f8565b9392505050565b600181811c908216806200026357607f821691505b6020821081036200028457634e487b7160e01b600052602260045260246000fd5b50919050565b601f821115620002d857600081815260208120601f850160051c81016020861015620002b35750805b601f850160051c820191505b81811015620002d457828155600101620002bf565b5050505b505050565b81516001600160401b03811115620002f957620002f962000111565b62000311816200030a84546200024e565b846200028a565b602080601f831160018114620003495760008415620003305750858301515b600019600386901b1c1916600185901b178555620002d4565b600085815260208120601f198616915b828110156200037a5788860151825594840194600190910190840162000359565b5085821015620003995787850151600019600388901b60f8161c191681555b5050505050600190811b01905550565b60805160a05160c051611f81620003fc6000396000818161040f0152818161061101528181610683015261095d0152600081816102ae01526106ce015260008181610215015261104d0152611f816000f3fe608060405234801561001057600080fd5b506004361061018e5760003560e01c806350d75d25116100de57806395d89b4111610097578063b88d4fde11610071578063b88d4fde146103d1578063c87b56dd146103e4578063e985e9c5146103f7578063ef43d2c61461040a57600080fd5b806395d89b41146103ae5780639903ad38146103b6578063a22cb465146103be57600080fd5b806350d75d25146102e357806352d1902d146102eb5780636352211e1461031b57806370a082311461032e57806389f71d2d146103425780638d47859e1461035557600080fd5b80632f3885601161014b57806342966c681161012557806342966c6814610283578063469519541461029657806349f289dc146102a95780634cd88b76146102d057600080fd5b80632f3885601461024a57806340c10f191461025d57806342842e0e1461027057600080fd5b806301ffc9a71461019357806306fdde03146101bb578063081812fc146101d0578063095ea7b3146101fb578063181561011461021057806323b872dd14610237575b600080fd5b6101a66101a13660046115f8565b610431565b60405190151581526020015b60405180910390f35b6101c3610483565b6040516101b29190611646565b6101e36101de366004611679565b610515565b6040516001600160a01b0390911681526020016101b2565b61020e6102093660046116a7565b61053c565b005b6101e37f000000000000000000000000000000000000000000000000000000000000000081565b61020e6102453660046116d3565b6105c8565b61020e610258366004611679565b6105fa565b61020e61026b3660046116a7565b610606565b61020e61027e3660046116d3565b61065d565b61020e610291366004611679565b610678565b61020e6102a4366004611714565b6106ca565b6101e37f000000000000000000000000000000000000000000000000000000000000000081565b61020e6102de3660046117fe565b610782565b6101e3610868565b7f9a61ea3469d742a522f41a67608e442d2c27902bed81123f00ba6d3e12e9871e5b6040519081526020016101b2565b6101e3610329366004611679565b610897565b61030d61033c366004611714565b50600190565b61030d610350366004611862565b6108cc565b610368610363366004611679565b61091f565b6040805182516001600160a01b03908116825260208085015182169083015283830151169181019190915260609182015163ffffffff16918101919091526080016101b2565b6101c36109c8565b61020e6109d7565b61020e6103cc3660046118ad565b610a99565b61020e6103df3660046118eb565b610aa4565b6101c36103f2366004611679565b610add565b6101a661040536600461196b565b610aea565b6101e37f000000000000000000000000000000000000000000000000000000000000000081565b60006301ffc9a760e01b6001600160e01b03198316148061046257506380ac58cd60e01b6001600160e01b03198316145b8061047d5750635b5e139f60e01b6001600160e01b03198316145b92915050565b60606001805461049290611999565b80601f01602080910402602001604051908101604052809291908181526020018280546104be90611999565b801561050b5780601f106104e05761010080835404028352916020019161050b565b820191906000526020600020905b8154815290600101906020018083116104ee57829003601f168201915b5050505050905090565b600061052082610b18565b506000908152600460205260409020546001600160a01b031690565b600061054782610897565b9050806001600160a01b0316836001600160a01b03160361057b5760405163e4790b2560e01b815260040160405180910390fd5b336001600160a01b0382161480159061059b57506105998133610aea565b155b156105b95760405163519a92c160e11b815260040160405180910390fd5b6105c38383610b3e565b505050565b6105d23382610bac565b6105ef576040516312a8eb0360e11b815260040160405180910390fd5b6105c3838383610c0a565b61060381610c23565b50565b336001600160a01b037f0000000000000000000000000000000000000000000000000000000000000000161461064f5760405163740f7abd60e11b815260040160405180910390fd5b6106598282610c53565b5050565b6105c383838360405180602001604052806000815250610aa4565b336001600160a01b037f000000000000000000000000000000000000000000000000000000000000000016146106c15760405163740f7abd60e11b815260040160405180910390fd5b61060381610c8f565b60007f00000000000000000000000000000000000000000000000000000000000000006001600160a01b031663731aed6e6040518163ffffffff1660e01b8152600401602060405180830381865afa15801561072a573d6000803e3d6000fd5b505050506040513d601f19601f8201168201806040525081019061074e91906119d3565b9050336001600160a01b038216146107795760405163ebb7505b60e01b815260040160405180910390fd5b61065982610d02565b600054610100900460ff16158080156107a25750600054600160ff909116105b806107bc5750303b1580156107bc575060005460ff166001145b6107e15760405162461bcd60e51b81526004016107d8906119f0565b60405180910390fd5b6000805460ff191660011790558015610804576000805461ff0019166101001790555b60016108108482611a8c565b50600261081d8382611a8c565b5080156105c3576000805461ff0019169055604051600181527f7f26b83ff96e1f2b6a682f133852f6798a09c465da95921460cefb38474024989060200160405180910390a1505050565b60006108927f360894a13ba1a3210667c828492db98dca3e2076cc3735a920a3ca505d382bbc5490565b905090565b6000806108a383610f3c565b90506001600160a01b03811661047d5760405163eab95e3b60e01b815260040160405180910390fd5b60408051466020808301919091526001600160a01b0380871683850152808616606084015284166080808401919091528351808403909101815260a090920190925280519101206000905b949350505050565b60408051608081018252600080825260208201819052818301819052606082015290516346a3c2cf60e11b8152600481018390526001600160a01b037f00000000000000000000000000000000000000000000000000000000000000001690638d47859e90602401608060405180830381865afa1580156109a4573d6000803e3d6000fd5b505050506040513d601f19601f8201168201806040525081019061047d9190611b4c565b60606002805461049290611999565b600054610100900460ff16158080156109f75750600054600160ff909116105b80610a115750303b158015610a11575060005460ff166001145b610a2d5760405162461bcd60e51b81526004016107d8906119f0565b6000805460ff191660011790558015610a50576000805461ff0019166101001790555b8015610603576000805461ff0019169055604051600181527f7f26b83ff96e1f2b6a682f133852f6798a09c465da95921460cefb3847402498906020015b60405180910390a150565b610659338383610f53565b610aae3383610bac565b610acb576040516312a8eb0360e11b815260040160405180910390fd5b610ad784848484610ff2565b50505050565b606061047d826001610ffd565b6001600160a01b03918216600090815260056020908152604080832093909416825291909152205460ff1690565b610b2181611152565b6106035760405163eab95e3b60e01b815260040160405180910390fd5b600081815260046020526040902080546001600160a01b0319166001600160a01b0384169081179091558190610b7382610f3c565b6001600160a01b03167f8c5be1e5ebec7d5bd14f71427d1e84f3dd0314c0f7b2291e5b200ac8c7c3b92560405160405180910390a45050565b600080610bb883610897565b9050806001600160a01b0316846001600160a01b03161480610bdf5750610bdf8185610aea565b806109175750836001600160a01b0316610bf884610515565b6001600160a01b031614949350505050565b60405163553a3f6560e11b815260040160405180910390fd5b6040518181527ff8e1a15aba9398e019f0b49df1a4fde98ee17ae345cb5f6b5e2c27f5033e8ce790602001610a8e565b60405181906001600160a01b038416906000907fddf252ad1be2c89b69c2b068fc378daa952ba7f163c4a11628f55a4df523b3ef908290a45050565b6000610c9a8261091f565b600083815260046020526040902080546001600160a01b031916905590508160006001600160a01b031682604001516001600160a01b03167fddf252ad1be2c89b69c2b068fc378daa952ba7f163c4a11628f55a4df523b3ef60405160405180910390a45050565b6000610d2c7f360894a13ba1a3210667c828492db98dca3e2076cc3735a920a3ca505d382bbc5490565b6001600160a01b031603610d825760405162461bcd60e51b815260206004820152601d60248201527f5555505350726f786961626c653a206e6f742075706772616461626c6500000060448201526064016107d8565b806001600160a01b03166352d1902d6040518163ffffffff1660e01b8152600401602060405180830381865afa158015610dc0573d6000803e3d6000fd5b505050506040513d601f19601f82011682018060405250810190610de49190611bda565b7f9a61ea3469d742a522f41a67608e442d2c27902bed81123f00ba6d3e12e9871e14610e5e5760405162461bcd60e51b815260206004820152602360248201527f5555505350726f786961626c653a206e6f7420636f6d70617469626c65206c6f60448201526267696360e81b60648201526084016107d8565b6001600160a01b0381163003610eb65760405162461bcd60e51b815260206004820152601960248201527f5555505350726f786961626c653a2070726f7879206c6f6f700000000000000060448201526064016107d8565b610ede817f360894a13ba1a3210667c828492db98dca3e2076cc3735a920a3ca505d382bbc55565b7fe011bc04c286c344a8fcbb8de77f953da762c3e25d8cdea984147fc4168a5dcc7f9a61ea3469d742a522f41a67608e442d2c27902bed81123f00ba6d3e12e9871e604080519182526001600160a01b038416602083015201610a8e565b600080610f488361091f565b604001519392505050565b816001600160a01b0316836001600160a01b031603610f855760405163d3c7732960e01b815260040160405180910390fd5b6001600160a01b03838116600081815260056020908152604080832094871680845294825291829020805460ff191686151590811790915591519182527f17307eab39ab6107e8899845ad3d59bd9653f200f220920489ca2b5937696c31910160405180910390a3505050565b610ad7848484610c0a565b6060600061100a8461091f565b805160208201516040808401519051631cd43d1160e31b81526001600160a01b0380851660048301529283166024820152908216604482015292935090916000917f0000000000000000000000000000000000000000000000000000000000000000169063e6a1e88890606401608060405180830381865afa158015611094573d6000803e3d6000fd5b505050506040513d601f19601f820116820180604052508101906110b89190611bf3565b505091505060036110c88761116f565b6110df836bffffffffffffffffffffffff166112ea565b87611107576040518060400160405280600581526020016466616c736560d81b815250611125565b604051806040016040528060048152602001637472756560e01b8152505b6040516020016111389493929190611c53565b604051602081830303815290604052935050505092915050565b60008061115e83610f3c565b6001600160a01b0316141592915050565b6060600061117c8361091f565b905061119681600001516001600160a01b0316601461137d565b61119f466112ea565b82600001516001600160a01b03166395d89b416040518163ffffffff1660e01b8152600401600060405180830381865afa1580156111e1573d6000803e3d6000fd5b505050506040513d6000823e601f3d908101601f191682016040526112099190810190611d1f565b61122184602001516001600160a01b0316601461137d565b61123985604001516001600160a01b0316601461137d565b6112aa86600001516001600160a01b031663313ce5676040518163ffffffff1660e01b8152600401602060405180830381865afa15801561127e573d6000803e3d6000fd5b505050506040513d601f19601f820116820180604052508101906112a29190611d96565b60ff166112ea565b6112bd876060015163ffffffff166112ea565b6040516020016112d39796959493929190611db9565b604051602081830303815290604052915050919050565b606060006112f783611520565b600101905060008167ffffffffffffffff81111561131757611317611731565b6040519080825280601f01601f191660200182016040528015611341576020820181803683370190505b5090508181016020015b600019016f181899199a1a9b1b9c1cb0b131b232b360811b600a86061a8153600a850494508461134b57509392505050565b6060600061138c836002611ef4565b611397906002611f0b565b67ffffffffffffffff8111156113af576113af611731565b6040519080825280601f01601f1916602001820160405280156113d9576020820181803683370190505b509050600360fc1b816000815181106113f4576113f4611f1e565b60200101906001600160f81b031916908160001a905350600f60fb1b8160018151811061142357611423611f1e565b60200101906001600160f81b031916908160001a9053506000611447846002611ef4565b611452906001611f0b565b90505b60018111156114ca576f181899199a1a9b1b9c1cb0b131b232b360811b85600f166010811061148657611486611f1e565b1a60f81b82828151811061149c5761149c611f1e565b60200101906001600160f81b031916908160001a90535060049490941c936114c381611f34565b9050611455565b5083156115195760405162461bcd60e51b815260206004820181905260248201527f537472696e67733a20686578206c656e67746820696e73756666696369656e7460448201526064016107d8565b9392505050565b60008072184f03e93ff9f4daa797ed6e38ed64bf6a1f0160401b831061155f5772184f03e93ff9f4daa797ed6e38ed64bf6a1f0160401b830492506040015b6d04ee2d6d415b85acef8100000000831061158b576d04ee2d6d415b85acef8100000000830492506020015b662386f26fc1000083106115a957662386f26fc10000830492506010015b6305f5e10083106115c1576305f5e100830492506008015b61271083106115d557612710830492506004015b606483106115e7576064830492506002015b600a831061047d5760010192915050565b60006020828403121561160a57600080fd5b81356001600160e01b03198116811461151957600080fd5b60005b8381101561163d578181015183820152602001611625565b50506000910152565b6020815260008251806020840152611665816040850160208701611622565b601f01601f19169190910160400192915050565b60006020828403121561168b57600080fd5b5035919050565b6001600160a01b038116811461060357600080fd5b600080604083850312156116ba57600080fd5b82356116c581611692565b946020939093013593505050565b6000806000606084860312156116e857600080fd5b83356116f381611692565b9250602084013561170381611692565b929592945050506040919091013590565b60006020828403121561172657600080fd5b813561151981611692565b634e487b7160e01b600052604160045260246000fd5b604051601f8201601f1916810167ffffffffffffffff8111828210171561177057611770611731565b604052919050565b600067ffffffffffffffff82111561179257611792611731565b50601f01601f191660200190565b60006117b36117ae84611778565b611747565b90508281528383830111156117c757600080fd5b828260208301376000602084830101529392505050565b600082601f8301126117ef57600080fd5b611519838335602085016117a0565b6000806040838503121561181157600080fd5b823567ffffffffffffffff8082111561182957600080fd5b611835868387016117de565b9350602085013591508082111561184b57600080fd5b50611858858286016117de565b9150509250929050565b60008060006060848603121561187757600080fd5b833561188281611692565b9250602084013561189281611692565b915060408401356118a281611692565b809150509250925092565b600080604083850312156118c057600080fd5b82356118cb81611692565b9150602083013580151581146118e057600080fd5b809150509250929050565b6000806000806080858703121561190157600080fd5b843561190c81611692565b9350602085013561191c81611692565b925060408501359150606085013567ffffffffffffffff81111561193f57600080fd5b8501601f8101871361195057600080fd5b61195f878235602084016117a0565b91505092959194509250565b6000806040838503121561197e57600080fd5b823561198981611692565b915060208301356118e081611692565b600181811c908216806119ad57607f821691505b6020821081036119cd57634e487b7160e01b600052602260045260246000fd5b50919050565b6000602082840312156119e557600080fd5b815161151981611692565b6020808252602e908201527f496e697469616c697a61626c653a20636f6e747261637420697320616c72656160408201526d191e481a5b9a5d1a585b1a5e995960921b606082015260800190565b601f8211156105c357600081815260208120601f850160051c81016020861015611a655750805b601f850160051c820191505b81811015611a8457828155600101611a71565b505050505050565b815167ffffffffffffffff811115611aa657611aa6611731565b611aba81611ab48454611999565b84611a3e565b602080601f831160018114611aef5760008415611ad75750858301515b600019600386901b1c1916600185901b178555611a84565b600085815260208120601f198616915b82811015611b1e57888601518255948401946001909101908401611aff565b5085821015611b3c5787850151600019600388901b60f8161c191681555b5050505050600190811b01905550565b600060808284031215611b5e57600080fd5b6040516080810181811067ffffffffffffffff82111715611b8157611b81611731565b6040528251611b8f81611692565b81526020830151611b9f81611692565b60208201526040830151611bb281611692565b6040820152606083015163ffffffff81168114611bce57600080fd5b60608201529392505050565b600060208284031215611bec57600080fd5b5051919050565b60008060008060808587031215611c0957600080fd5b84519350602085015180600b0b8114611c2157600080fd5b6040860151606090960151949790965092505050565b60008151611c49818560208601611622565b9290920192915050565b6000808654611c6181611999565b60018281168015611c795760018114611c8e57611cbd565b60ff1984168752821515830287019450611cbd565b8a60005260208060002060005b85811015611cb45781548a820152908401908201611c9b565b50505082870194505b505050508551611cd1818360208a01611622565b6926666c6f77526174653d60b01b9101908152611d14611d0e611cf7600a840188611c37565b6a2669735f696e666c6f773d60a81b8152600b0190565b85611c37565b979650505050505050565b600060208284031215611d3157600080fd5b815167ffffffffffffffff811115611d4857600080fd5b8201601f81018413611d5957600080fd5b8051611d676117ae82611778565b818152856020838501011115611d7c57600080fd5b611d8d826020830160208601611622565b95945050505050565b600060208284031215611da857600080fd5b815160ff8116811461151957600080fd5b6e26746f6b656e5f616464726573733d60881b815260008851611de381600f850160208d01611622565b693f636861696e5f69643d60b01b600f918401918201528851611e0d816019840160208d01611622565b6d26746f6b656e5f73796d626f6c3d60901b601992909101918201528751611e3c816027840160208c01611622565b672673656e6465723d60c01b602792909101918201528651611e6581602f840160208b01611622565b692672656365697665723d60b01b602f9290910191820152611ed0611d0e611eb8611eb2611e96603986018b611c37565b6f26746f6b656e5f646563696d616c733d60801b815260100190565b88611c37565b6b2673746172745f646174653d60a01b8152600c0190565b9a9950505050505050505050565b634e487b7160e01b600052601160045260246000fd5b808202811582820484141761047d5761047d611ede565b8082018082111561047d5761047d611ede565b634e487b7160e01b600052603260045260246000fd5b600081611f4357611f43611ede565b50600019019056fea2646970667358221220f2434a3a977141033955ac999f59d833944de31db076e0e4bb41a94b6f86dd8264736f6c6343000813003360a060405234801561001057600080fd5b506040516104ea3803806104ea83398101604081905261002f91610040565b6001600160a01b0316608052610070565b60006020828403121561005257600080fd5b81516001600160a01b038116811461006957600080fd5b9392505050565b60805161046061008a600039600060b501526104606000f3fe608060405234801561001057600080fd5b506004361061002b5760003560e01c8063f490e2f014610030575b600080fd5b61004361003e366004610307565b61008f565b604051610086919081516001600160a01b039081168252602080840151821690830152604080840151821690830152606092830151169181019190915260800190565b60405180910390f35b6040805160808101825260008082526020820181905291810182905260608101919091527f00000000000000000000000000000000000000000000000000000000000000006001600160a01b031663693ec85e84846040516020016100f5929190610379565b6040516020818303038152906040526040518263ffffffff1660e01b815260040161012091906103a0565b602060405180830381865afa15801561013d573d6000803e3d6000fd5b505050506040513d601f19601f820116820180604052508101906101619190610406565b6001600160a01b03168082526040805163398d76b760e11b8152905163731aed6e916004808201926020929091908290030181865afa1580156101a8573d6000803e3d6000fd5b505050506040513d601f19601f820116820180604052508101906101cc9190610406565b6001600160a01b0390811660208301528151604051635b69006f60e11b81527fa9214cc96615e0085d3bb077758db69497dc2dce3b2b1e97bc93c3d18d83efd3600482015291169063b6d200de90602401602060405180830381865afa15801561023a573d6000803e3d6000fd5b505050506040513d601f19601f8201168201806040525081019061025e9190610406565b6001600160a01b0390811660408381019190915282519051635b69006f60e11b81527f8aedc3b5d4bf031e11a7e2940f7251c005698405d58e02e1c247fed3b1b3a674600482015291169063b6d200de90602401602060405180830381865afa1580156102cf573d6000803e3d6000fd5b505050506040513d601f19601f820116820180604052508101906102f39190610406565b6001600160a01b0316606082015292915050565b6000806020838503121561031a57600080fd5b823567ffffffffffffffff8082111561033257600080fd5b818501915085601f83011261034657600080fd5b81358181111561035557600080fd5b86602082850101111561036757600080fd5b60209290920196919550909350505050565b6a29bab832b933363ab4b21760a91b81528183600b83013760009101600b01908152919050565b600060208083528351808285015260005b818110156103cd578581018301518582016040015282016103b1565b506000604082860101526040601f19601f8301168501019250505092915050565b6001600160a01b038116811461040357600080fd5b50565b60006020828403121561041857600080fd5b8151610423816103ee565b939250505056fea26469706673582212206718ec9ab095d96146ff54101d45ebf186bc72f8e6033b412b2a23aa240c1c3964736f6c63430008130033",
    "linkReferences": {
      "node_modules/@superfluid-finance/ethereum-contracts/contracts/utils/SuperfluidFrameworkDeployer.sol": {
        "SuperTokenDeployerLibrary": [
          {
            "start": 2475,
            "length": 20
          }
        ],
        "SuperfluidCFAv1DeployerLibrary": [
          {
            "start": 726,
            "length": 20
          }
        ],
        "SuperfluidGovDeployerLibrary": [
          {
            "start": 20,
            "length": 20
          },
          {
            "start": 190,
            "length": 20
          }
        ],
        "SuperfluidHostDeployerLibrary": [
          {
            "start": 296,
            "length": 20
          }
        ],
        "SuperfluidIDAv1DeployerLibrary": [
          {
            "start": 1202,
            "length": 20
          }
        ],
        "SuperfluidPeripheryDeployerLibrary": [
          {
            "start": 2637,
            "length": 20
          },
          {
            "start": 3041,
            "length": 20
          }
        ]
      }
    }
  },
  "methodIdentifiers": {
    "DEFAULT_REWARD_ADDRESS()": "93786bf0",
    "getFramework()": "dfa98ad5",
    "transferOwnership(address)": "f2fde38b"
  },
  "id": 100
}