{
  "abi": [
    {
      "inputs": [
        {
          "internalType": "contract ISuperfluid",
          "name": "host",
          "type": "address"
        },
        {
          "internalType": "contract ISuperToken",
          "name": "superTokenLogic",
          "type": "address"
        },
        {
          "internalType": "contract IConstantOutflowNFT",
          "name": "constantOutflowNFT",
          "type": "address"
        },
        {
          "internalType": "contract IConstantInflowNFT",
          "name": "constantInflowNFT",
          "type": "address"
        }
      ],
      "stateMutability": "nonpayable",
      "type": "constructor"
    },
    {
      "inputs": [],
      "name": "SUPER_TOKEN_FACTORY_ALREADY_EXISTS",
      "type": "error"
    },
    {
      "inputs": [],
      "name": "SUPER_TOKEN_FACTORY_DOES_NOT_EXIST",
      "type": "error"
    },
    {
      "inputs": [],
      "name": "SUPER_TOKEN_FACTORY_NON_UPGRADEABLE_IS_DEPRECATED",
      "type": "error"
    },
    {
      "inputs": [],
      "name": "SUPER_TOKEN_FACTORY_ONLY_GOVERNANCE_OWNER",
      "type": "error"
    },
    {
      "inputs": [],
      "name": "SUPER_TOKEN_FACTORY_ONLY_HOST",
      "type": "error"
    },
    {
      "inputs": [],
      "name": "SUPER_TOKEN_FACTORY_UNINITIALIZED",
      "type": "error"
    },
    {
      "inputs": [],
      "name": "SUPER_TOKEN_FACTORY_ZERO_ADDRESS",
      "type": "error"
    },
    {
      "anonymous": false,
      "inputs": [
        {
          "indexed": false,
          "internalType": "bytes32",
          "name": "uuid",
          "type": "bytes32"
        },
        {
          "indexed": false,
          "internalType": "address",
          "name": "codeAddress",
          "type": "address"
        }
      ],
      "name": "CodeUpdated",
      "type": "event"
    },
    {
      "anonymous": false,
      "inputs": [
        {
          "indexed": true,
          "internalType": "contract ISuperToken",
          "name": "token",
          "type": "address"
        }
      ],
      "name": "CustomSuperTokenCreated",
      "type": "event"
    },
    {
      "anonymous": false,
      "inputs": [
        {
          "indexed": false,
          "internalType": "uint8",
          "name": "version",
          "type": "uint8"
        }
      ],
      "name": "Initialized",
      "type": "event"
    },
    {
      "anonymous": false,
      "inputs": [
        {
          "indexed": true,
          "internalType": "contract ISuperToken",
          "name": "token",
          "type": "address"
        }
      ],
      "name": "SuperTokenCreated",
      "type": "event"
    },
    {
      "anonymous": false,
      "inputs": [
        {
          "indexed": true,
          "internalType": "contract ISuperToken",
          "name": "tokenLogic",
          "type": "address"
        }
      ],
      "name": "SuperTokenLogicCreated",
      "type": "event"
    },
    {
      "inputs": [],
      "name": "CONSTANT_INFLOW_NFT_LOGIC",
      "outputs": [
        {
          "internalType": "contract IConstantInflowNFT",
          "name": "",
          "type": "address"
        }
      ],
      "stateMutability": "view",
      "type": "function"
    },
    {
      "inputs": [],
      "name": "CONSTANT_OUTFLOW_NFT_LOGIC",
      "outputs": [
        {
          "internalType": "contract IConstantOutflowNFT",
          "name": "",
          "type": "address"
        }
      ],
      "stateMutability": "view",
      "type": "function"
    },
    {
      "inputs": [],
      "name": "_SUPER_TOKEN_LOGIC",
      "outputs": [
        {
          "internalType": "contract ISuperToken",
          "name": "",
          "type": "address"
        }
      ],
      "stateMutability": "view",
      "type": "function"
    },
    {
      "inputs": [],
      "name": "castrate",
      "outputs": [],
      "stateMutability": "nonpayable",
      "type": "function"
    },
    {
      "inputs": [
        {
          "internalType": "address",
          "name": "_underlyingToken",
          "type": "address"
        }
      ],
      "name": "computeCanonicalERC20WrapperAddress",
      "outputs": [
        {
          "internalType": "address",
          "name": "superTokenAddress",
          "type": "address"
        },
        {
          "internalType": "bool",
          "name": "isDeployed",
          "type": "bool"
        }
      ],
      "stateMutability": "view",
      "type": "function"
    },
    {
      "inputs": [
        {
          "internalType": "contract ERC20WithTokenInfo",
          "name": "_underlyingToken",
          "type": "address"
        }
      ],
      "name": "createCanonicalERC20Wrapper",
      "outputs": [
        {
          "internalType": "contract ISuperToken",
          "name": "",
          "type": "address"
        }
      ],
      "stateMutability": "nonpayable",
      "type": "function"
    },
    {
      "inputs": [
        {
          "internalType": "contract ERC20WithTokenInfo",
          "name": "underlyingToken",
          "type": "address"
        },
        {
          "internalType": "enum ISuperTokenFactory.Upgradability",
          "name": "upgradability",
          "type": "uint8"
        },
        {
          "internalType": "string",
          "name": "name",
          "type": "string"
        },
        {
          "internalType": "string",
          "name": "symbol",
          "type": "string"
        }
      ],
      "name": "createERC20Wrapper",
      "outputs": [
        {
          "internalType": "contract ISuperToken",
          "name": "superToken",
          "type": "address"
        }
      ],
      "stateMutability": "nonpayable",
      "type": "function"
    },
    {
      "inputs": [
        {
          "internalType": "contract IERC20",
          "name": "underlyingToken",
          "type": "address"
        },
        {
          "internalType": "uint8",
          "name": "underlyingDecimals",
          "type": "uint8"
        },
        {
          "internalType": "enum ISuperTokenFactory.Upgradability",
          "name": "upgradability",
          "type": "uint8"
        },
        {
          "internalType": "string",
          "name": "name",
          "type": "string"
        },
        {
          "internalType": "string",
          "name": "symbol",
          "type": "string"
        }
      ],
      "name": "createERC20Wrapper",
      "outputs": [
        {
          "internalType": "contract ISuperToken",
          "name": "superToken",
          "type": "address"
        }
      ],
      "stateMutability": "nonpayable",
      "type": "function"
    },
    {
      "inputs": [
        {
          "internalType": "address",
          "name": "_underlyingTokenAddress",
          "type": "address"
        }
      ],
      "name": "getCanonicalERC20Wrapper",
      "outputs": [
        {
          "internalType": "address",
          "name": "superTokenAddress",
          "type": "address"
        }
      ],
      "stateMutability": "view",
      "type": "function"
    },
    {
      "inputs": [],
      "name": "getCodeAddress",
      "outputs": [
        {
          "internalType": "address",
          "name": "codeAddress",
          "type": "address"
        }
      ],
      "stateMutability": "view",
      "type": "function"
    },
    {
      "inputs": [],
      "name": "getHost",
      "outputs": [
        {
          "internalType": "address",
          "name": "host",
          "type": "address"
        }
      ],
      "stateMutability": "view",
      "type": "function"
    },
    {
      "inputs": [],
      "name": "getSuperTokenLogic",
      "outputs": [
        {
          "internalType": "contract ISuperToken",
          "name": "",
          "type": "address"
        }
      ],
      "stateMutability": "view",
      "type": "function"
    },
    {
      "inputs": [],
      "name": "initialize",
      "outputs": [],
      "stateMutability": "nonpayable",
      "type": "function"
    },
    {
      "inputs": [
        {
          "components": [
            {
              "internalType": "address",
              "name": "underlyingToken",
              "type": "address"
            },
            {
              "internalType": "address",
              "name": "superToken",
              "type": "address"
            }
          ],
          "internalType": "struct SuperTokenFactoryBase.InitializeData[]",
          "name": "_data",
          "type": "tuple[]"
        }
      ],
      "name": "initializeCanonicalWrapperSuperTokens",
      "outputs": [],
      "stateMutability": "nonpayable",
      "type": "function"
    },
    {
      "inputs": [
        {
          "internalType": "address",
          "name": "customSuperTokenProxy",
          "type": "address"
        }
      ],
      "name": "initializeCustomSuperToken",
      "outputs": [],
      "stateMutability": "nonpayable",
      "type": "function"
    },
    {
      "inputs": [],
      "name": "proxiableUUID",
      "outputs": [
        {
          "internalType": "bytes32",
          "name": "",
          "type": "bytes32"
        }
      ],
      "stateMutability": "pure",
      "type": "function"
    },
    {
      "inputs": [
        {
          "internalType": "address",
          "name": "newAddress",
          "type": "address"
        }
      ],
      "name": "updateCode",
      "outputs": [],
      "stateMutability": "nonpayable",
      "type": "function"
    }
  ],
  "bytecode": {
    "object": "0x6101006040523480156200001257600080fd5b506040516200213c3803806200213c83398101604081905262000035916200010d565b6001600160a01b0380851660a052831660808190526040805163132075a760e31b81529051869286928692869291639903ad3891600480830192600092919082900301818387803b1580156200008a57600080fd5b505af11580156200009f573d6000803e3d6000fd5b5050506001600160a01b0380841660c05282811660e052608051604051911691507fc13fb19d60857980e565bf5dae406b8802d3c1cec50c6156b30b12b87402978390600090a2505050505050505062000175565b6001600160a01b03811681146200010a57600080fd5b50565b600080600080608085870312156200012457600080fd5b84516200013181620000f4565b60208601519094506200014481620000f4565b60408601519093506200015781620000f4565b60608601519092506200016a81620000f4565b939692955090935050565b60805160a05160c05160e051611f2b62000211600039600081816101f00152818161098c0152610b540152600081816101c90152818161086e0152610a55015260008181610142015281816107390152610cff01526000818161021c0152818161029d0152818161042901528181610782015281816108a0015281816109be01528181610abd01528181610fc6015261127b0152611f2b6000f3fe608060405234801561001057600080fd5b506004361061010b5760003560e01c80638129fc1c116100a2578063a6d0c53411610071578063a6d0c53414610253578063bab74c8914610266578063cbf927b314610298578063d412d344146102bf578063eff0a89d146102d257600080fd5b80638129fc1c146102125780639470a5b21461021a57806397e011ed146102405780639903ad381461021257600080fd5b806350d75d25116100de57806350d75d251461018e57806352d1902d146101965780635365d19f146101c45780635a7792df146101eb57600080fd5b8063151188dc1461011057806320bc442514610140578063431f1481146101665780634695195414610179575b600080fd5b61012361011e366004611583565b6102fe565b6040516001600160a01b0390911681526020015b60405180910390f35b7f0000000000000000000000000000000000000000000000000000000000000000610123565b610123610174366004611604565b6106b1565b61018c610187366004611583565b61072e565b005b610123610bbe565b6040517fb146a22bc9644a3313a7e28592f37d32718a2b618d3d136aa524b0d86b87b6208152602001610137565b6101237f000000000000000000000000000000000000000000000000000000000000000081565b6101237f000000000000000000000000000000000000000000000000000000000000000081565b61018c610bed565b7f0000000000000000000000000000000000000000000000000000000000000000610123565b61018c61024e366004611697565b610cfb565b61012361026136600461171b565b610f10565b610279610274366004611583565b611161565b604080516001600160a01b039093168352901515602083015201610137565b6101237f000000000000000000000000000000000000000000000000000000000000000081565b61018c6102cd366004611583565b611264565b6101236102e0366004611583565b6001600160a01b039081166000908152600160205260409020541690565b600080805260016020527fa6eef7e35abe7026729641147f7915573c7e97b47efa546f5f6e3230263bcb49546001600160a01b0316610350576040516306ce6e6d60e21b815260040160405180910390fd5b6001600160a01b03808316600090815260016020526040902054839116801561038c576040516348eb3cb960e11b815260040160405180910390fd5b604080516001600160a01b0384166020820152600091016040516020818303038152906040528051906020012090506000816040516103ca90611554565b8190604051809103906000f59050801580156103ea573d6000803e3d6000fd5b506001600160a01b038581166000908152600160205260409081902080546001600160a01b0319168484169081179091559051634a0687ef60e01b81527f00000000000000000000000000000000000000000000000000000000000000009092166004830152919250634a0687ef90602401600060405180830381600087803b15801561047657600080fd5b505af115801561048a573d6000803e3d6000fd5b5050505060008190506000876001600160a01b031663313ce5676040518163ffffffff1660e01b8152600401602060405180830381865afa1580156104d3573d6000803e3d6000fd5b505050506040513d601f19601f820116820180604052508101906104f791906117c1565b90506000886001600160a01b03166306fdde036040518163ffffffff1660e01b8152600401600060405180830381865afa158015610539573d6000803e3d6000fd5b505050506040513d6000823e601f3d908101601f191682016040526105619190810190611818565b90506000896001600160a01b03166395d89b416040518163ffffffff1660e01b8152600401600060405180830381865afa1580156105a3573d6000803e3d6000fd5b505050506040513d6000823e601f3d908101601f191682016040526105cb9190810190611818565b9050836001600160a01b03166342fe09808b85856040516020016105ef91906118ba565b6040516020818303038152906040528560405160200161060f91906118e8565b6040516020818303038152906040526040518563ffffffff1660e01b815260040161063d9493929190611939565b600060405180830381600087803b15801561065757600080fd5b505af115801561066b573d6000803e3d6000fd5b50506040516001600160a01b03871692507fb52c6d9d122e8c07769b96d7bb14e66db58ee03fdebaaa2f92547e9c7ef0e65f9150600090a2509198975050505050505050565b600061072387886001600160a01b031663313ce5676040518163ffffffff1660e01b8152600401602060405180830381865afa1580156106f5573d6000803e3d6000fd5b505050506040513d601f19601f8201168201806040525081019061071991906117c1565b8888888888610f10565b979650505050505050565b336001600160a01b037f000000000000000000000000000000000000000000000000000000000000000016146107775760405163478b8e8360e01b815260040160405180910390fd5b6107808161131a565b7f00000000000000000000000000000000000000000000000000000000000000006001600160a01b031663ef43d2c66040518163ffffffff1660e01b8152600401602060405180830381865afa1580156107de573d6000803e3d6000fd5b505050506040513d601f19601f820116820180604052508101906108029190611978565b6001600160a01b03166350d75d256040518163ffffffff1660e01b8152600401602060405180830381865afa15801561083f573d6000803e3d6000fd5b505050506040513d601f19601f820116820180604052508101906108639190611978565b6001600160a01b03167f00000000000000000000000000000000000000000000000000000000000000006001600160a01b03161415806109b757507f00000000000000000000000000000000000000000000000000000000000000006001600160a01b0316634c5c0c856040518163ffffffff1660e01b8152600401602060405180830381865afa1580156108fc573d6000803e3d6000fd5b505050506040513d601f19601f820116820180604052508101906109209190611978565b6001600160a01b03166350d75d256040518163ffffffff1660e01b8152600401602060405180830381865afa15801561095d573d6000803e3d6000fd5b505050506040513d601f19601f820116820180604052508101906109819190611978565b6001600160a01b03167f00000000000000000000000000000000000000000000000000000000000000006001600160a01b031614155b15610bbb577f00000000000000000000000000000000000000000000000000000000000000006001600160a01b031663ef43d2c66040518163ffffffff1660e01b8152600401602060405180830381865afa158015610a1a573d6000803e3d6000fd5b505050506040513d601f19601f82011682018060405250810190610a3e9190611978565b6040516311a5465560e21b81526001600160a01b037f0000000000000000000000000000000000000000000000000000000000000000811660048301529190911690634695195490602401600060405180830381600087803b158015610aa357600080fd5b505af1158015610ab7573d6000803e3d6000fd5b505050507f00000000000000000000000000000000000000000000000000000000000000006001600160a01b0316634c5c0c856040518163ffffffff1660e01b8152600401602060405180830381865afa158015610b19573d6000803e3d6000fd5b505050506040513d601f19601f82011682018060405250810190610b3d9190611978565b6040516311a5465560e21b81526001600160a01b037f0000000000000000000000000000000000000000000000000000000000000000811660048301529190911690634695195490602401600060405180830381600087803b158015610ba257600080fd5b505af1158015610bb6573d6000803e3d6000fd5b505050505b50565b6000610be87f360894a13ba1a3210667c828492db98dca3e2076cc3735a920a3ca505d382bbc5490565b905090565b600054610100900460ff1615808015610c0d5750600054600160ff909116105b80610c275750303b158015610c27575060005460ff166001145b610c8f5760405162461bcd60e51b815260206004820152602e60248201527f496e697469616c697a61626c653a20636f6e747261637420697320616c72656160448201526d191e481a5b9a5d1a585b1a5e995960921b60648201526084015b60405180910390fd5b6000805460ff191660011790558015610cb2576000805461ff0019166101001790555b8015610bbb576000805461ff0019169055604051600181527f7f26b83ff96e1f2b6a682f133852f6798a09c465da95921460cefb3847402498906020015b60405180910390a150565b60007f00000000000000000000000000000000000000000000000000000000000000006001600160a01b031663289b3c0d6040518163ffffffff1660e01b8152600401602060405180830381865afa158015610d5b573d6000803e3d6000fd5b505050506040513d601f19601f82011682018060405250810190610d7f9190611978565b9050806001600160a01b0316638da5cb5b6040518163ffffffff1660e01b8152600401602060405180830381865afa158015610dbf573d6000803e3d6000fd5b505050506040513d601f19601f82011682018060405250810190610de39190611978565b6001600160a01b0316336001600160a01b031614610e1457604051632bf2a63360e21b815260040160405180910390fd5b6000805260016020527fa6eef7e35abe7026729641147f7915573c7e97b47efa546f5f6e3230263bcb49546001600160a01b031615610e66576040516348eb3cb960e11b815260040160405180910390fd5b60005b82811015610f0a57838382818110610e8357610e83611995565b9050604002016020016020810190610e9b9190611583565b60016000868685818110610eb157610eb1611995565b610ec79260206040909202019081019150611583565b6001600160a01b039081168252602082019290925260400160002080546001600160a01b0319169290911691909117905580610f02816119ab565b915050610e69565b50505050565b60006001600160a01b038816610f395760405163182e4f4160e11b815260040160405180910390fd5b6000866002811115610f4d57610f4d6119d2565b03610f6b5760405163c4901a4360e01b815260040160405180910390fd5b6001866002811115610f7f57610f7f6119d2565b03611037576000604051610f9290611554565b604051809103906000f080158015610fae573d6000803e3d6000fd5b50604051634a0687ef60e01b81526001600160a01b037f00000000000000000000000000000000000000000000000000000000000000008116600483015291925090821690634a0687ef90602401600060405180830381600087803b15801561101657600080fd5b505af115801561102a573d6000803e3d6000fd5b50505050809150506110bb565b600060405161104590611561565b604051809103906000f080158015611061573d6000803e3d6000fd5b509050806001600160a01b0316638129fc1c6040518163ffffffff1660e01b8152600401600060405180830381600087803b15801561109f57600080fd5b505af11580156110b3573d6000803e3d6000fd5b509293505050505b6040516285fc1360e71b81526001600160a01b038216906342fe0980906110f0908b908b908a908a908a908a90600401611a11565b600060405180830381600087803b15801561110a57600080fd5b505af115801561111e573d6000803e3d6000fd5b50506040516001600160a01b03841692507fb52c6d9d122e8c07769b96d7bb14e66db58ee03fdebaaa2f92547e9c7ef0e65f9150600090a2979650505050505050565b6001600160a01b0380821660009081526001602052604081205490918291168015611192578092506001915061125e565b6000604051806020016111a490611554565b601f1982820381018352601f9091011660408181526001600160a01b03881660208301529192506001600160f81b03199130910160405160208183030381529060405280519060200120838051906020012060405160200161123d94939291906001600160f81b031994909416845260609290921b6bffffffffffffffffffffffff191660018401526015830152603582015260550190565b6040516020818303038152906040528051906020012060001c935060009250505b50915091565b604051634a0687ef60e01b81526001600160a01b037f000000000000000000000000000000000000000000000000000000000000000081166004830152829190821690634a0687ef90602401600060405180830381600087803b1580156112ca57600080fd5b505af11580156112de573d6000803e3d6000fd5b50506040516001600160a01b03851692507f437790724a6e97b75d23117f28cdd4b1beeafc34f7a0911ef256e9334f4369a59150600090a25050565b60006113447f360894a13ba1a3210667c828492db98dca3e2076cc3735a920a3ca505d382bbc5490565b6001600160a01b03160361139a5760405162461bcd60e51b815260206004820152601d60248201527f5555505350726f786961626c653a206e6f742075706772616461626c650000006044820152606401610c86565b806001600160a01b03166352d1902d6040518163ffffffff1660e01b8152600401602060405180830381865afa1580156113d8573d6000803e3d6000fd5b505050506040513d601f19601f820116820180604052508101906113fc9190611a5f565b7fb146a22bc9644a3313a7e28592f37d32718a2b618d3d136aa524b0d86b87b620146114765760405162461bcd60e51b815260206004820152602360248201527f5555505350726f786961626c653a206e6f7420636f6d70617469626c65206c6f60448201526267696360e81b6064820152608401610c86565b6001600160a01b03811630036114ce5760405162461bcd60e51b815260206004820152601960248201527f5555505350726f786961626c653a2070726f7879206c6f6f70000000000000006044820152606401610c86565b6114f6817f360894a13ba1a3210667c828492db98dca3e2076cc3735a920a3ca505d382bbc55565b7fe011bc04c286c344a8fcbb8de77f953da762c3e25d8cdea984147fc4168a5dcc7fb146a22bc9644a3313a7e28592f37d32718a2b618d3d136aa524b0d86b87b620604080519182526001600160a01b038416602083015201610cf0565b61024a80611a7983390190565b61023380611cc383390190565b6001600160a01b0381168114610bbb57600080fd5b60006020828403121561159557600080fd5b81356115a08161156e565b9392505050565b8035600381106115b657600080fd5b919050565b60008083601f8401126115cd57600080fd5b50813567ffffffffffffffff8111156115e557600080fd5b6020830191508360208285010111156115fd57600080fd5b9250929050565b6000806000806000806080878903121561161d57600080fd5b86356116288161156e565b9550611636602088016115a7565b9450604087013567ffffffffffffffff8082111561165357600080fd5b61165f8a838b016115bb565b9096509450606089013591508082111561167857600080fd5b5061168589828a016115bb565b979a9699509497509295939492505050565b600080602083850312156116aa57600080fd5b823567ffffffffffffffff808211156116c257600080fd5b818501915085601f8301126116d657600080fd5b8135818111156116e557600080fd5b8660208260061b85010111156116fa57600080fd5b60209290920196919550909350505050565b60ff81168114610bbb57600080fd5b600080600080600080600060a0888a03121561173657600080fd5b87356117418161156e565b965060208801356117518161170c565b955061175f604089016115a7565b9450606088013567ffffffffffffffff8082111561177c57600080fd5b6117888b838c016115bb565b909650945060808a01359150808211156117a157600080fd5b506117ae8a828b016115bb565b989b979a50959850939692959293505050565b6000602082840312156117d357600080fd5b81516115a08161170c565b634e487b7160e01b600052604160045260246000fd5b60005b8381101561180f5781810151838201526020016117f7565b50506000910152565b60006020828403121561182a57600080fd5b815167ffffffffffffffff8082111561184257600080fd5b818401915084601f83011261185657600080fd5b815181811115611868576118686117de565b604051601f8201601f19908116603f01168101908382118183101715611890576118906117de565b816040528281528760208487010111156118a957600080fd5b6107238360208301602088016117f4565b65029bab832b9160d51b8152600082516118db8160068501602087016117f4565b9190910160060192915050565b600082516118fa8184602087016117f4565b600f60fb1b920191825250600101919050565b600081518084526119258160208601602086016117f4565b601f01601f19169290920160200192915050565b6001600160a01b038516815260ff841660208201526080604082018190526000906119669083018561190d565b8281036060840152610723818561190d565b60006020828403121561198a57600080fd5b81516115a08161156e565b634e487b7160e01b600052603260045260246000fd5b6000600182016119cb57634e487b7160e01b600052601160045260246000fd5b5060010190565b634e487b7160e01b600052602160045260246000fd5b81835281816020850137506000828201602090810191909152601f909101601f19169091010190565b6001600160a01b038716815260ff86166020820152608060408201819052600090611a3f90830186886119e8565b8281036060840152611a528185876119e8565b9998505050505050505050565b600060208284031215611a7157600080fd5b505191905056fe608060405234801561001057600080fd5b5061022a806100206000396000f3fe6080604052600436106100225760003560e01c80634a0687ef1461003957610031565b366100315761002f610059565b005b61002f610059565b34801561004557600080fd5b5061002f6100543660046101c4565b61006b565b610069610064610171565b6101a0565b565b6001600160a01b0381166100c65760405162461bcd60e51b815260206004820152601760248201527f5555505350726f78793a207a65726f206164647265737300000000000000000060448201526064015b60405180910390fd5b60006100f07f360894a13ba1a3210667c828492db98dca3e2076cc3735a920a3ca505d382bbc5490565b6001600160a01b0316146101465760405162461bcd60e51b815260206004820152601e60248201527f5555505350726f78793a20616c726561647920696e697469616c697a6564000060448201526064016100bd565b61016e817f360894a13ba1a3210667c828492db98dca3e2076cc3735a920a3ca505d382bbc55565b50565b600061019b7f360894a13ba1a3210667c828492db98dca3e2076cc3735a920a3ca505d382bbc5490565b905090565b3660008037600080366000845af43d6000803e8080156101bf573d6000f35b3d6000fd5b6000602082840312156101d657600080fd5b81356001600160a01b03811681146101ed57600080fd5b939250505056fea26469706673582212201524a97357cb5a243d80577e1154450ede73c1b6b5b45decba319c216755e56e64736f6c63430008130033608060405234801561001057600080fd5b50610213806100206000396000f3fe6080604052600436106100225760003560e01c80638129fc1c1461003957610031565b366100315761002f61004e565b005b61002f61004e565b34801561004557600080fd5b5061002f610060565b61005e6100596100d0565b610173565b565b7fb8fcd5719b3ddf8626f3664705a89b7fc476129a58c1aa5eda57c600cc1821a0546001600160a01b038116156100aa576040516305c5d81960e01b815260040160405180910390fd5b50337fb8fcd5719b3ddf8626f3664705a89b7fc476129a58c1aa5eda57c600cc1821a055565b7fb8fcd5719b3ddf8626f3664705a89b7fc476129a58c1aa5eda57c600cc1821a0546000906001600160a01b03811661010b5761010b610197565b806001600160a01b0316639470a5b26040518163ffffffff1660e01b8152600401602060405180830381865afa158015610149573d6000803e3d6000fd5b505050506040513d601f19601f8201168201806040525081019061016d91906101ad565b91505090565b3660008037600080366000845af43d6000803e808015610192573d6000f35b3d6000fd5b634e487b7160e01b600052600160045260246000fd5b6000602082840312156101bf57600080fd5b81516001600160a01b03811681146101d657600080fd5b939250505056fea26469706673582212203505f3442d15e8e391f5ee6ce0f93e9e7965d0983ab0f52b9f44c5815d54231e64736f6c63430008130033a2646970667358221220ff56a56acf3b2cff6cba1b5ff2d1db4bf5e0b9f324ede5bac0575a7b9c04f72264736f6c63430008130033",
    "linkReferences": {}
  },
  "methodIdentifiers": {
    "CONSTANT_INFLOW_NFT_LOGIC()": "5a7792df",
    "CONSTANT_OUTFLOW_NFT_LOGIC()": "5365d19f",
    "_SUPER_TOKEN_LOGIC()": "cbf927b3",
    "castrate()": "9903ad38",
    "computeCanonicalERC20WrapperAddress(address)": "bab74c89",
    "createCanonicalERC20Wrapper(address)": "151188dc",
    "createERC20Wrapper(address,uint8,string,string)": "431f1481",
    "createERC20Wrapper(address,uint8,uint8,string,string)": "a6d0c534",
    "getCanonicalERC20Wrapper(address)": "eff0a89d",
    "getCodeAddress()": "50d75d25",
    "getHost()": "20bc4425",
    "getSuperTokenLogic()": "9470a5b2",
    "initialize()": "8129fc1c",
    "initializeCanonicalWrapperSuperTokens((address,address)[])": "97e011ed",
    "initializeCustomSuperToken(address)": "d412d344",
    "proxiableUUID()": "52d1902d",
    "updateCode(address)": "46951954"
  },
  "id": 89
}