{
  "abi": [
    {
      "inputs": [
        {
          "internalType": "contract ISuperfluid",
          "name": "host",
          "type": "address"
        }
      ],
      "stateMutability": "nonpayable",
      "type": "constructor"
    },
    {
      "inputs": [],
      "name": "AGREEMENT_BASE_ONLY_HOST",
      "type": "error"
    },
    {
      "inputs": [],
      "name": "IDA_INDEX_ALREADY_EXISTS",
      "type": "error"
    },
    {
      "inputs": [],
      "name": "IDA_INDEX_DOES_NOT_EXIST",
      "type": "error"
    },
    {
      "inputs": [],
      "name": "IDA_INDEX_SHOULD_GROW",
      "type": "error"
    },
    {
      "inputs": [],
      "name": "IDA_INSUFFICIENT_BALANCE",
      "type": "error"
    },
    {
      "inputs": [],
      "name": "IDA_OPERATION_NOT_ALLOWED",
      "type": "error"
    },
    {
      "inputs": [],
      "name": "IDA_SUBSCRIPTION_ALREADY_APPROVED",
      "type": "error"
    },
    {
      "inputs": [],
      "name": "IDA_SUBSCRIPTION_DOES_NOT_EXIST",
      "type": "error"
    },
    {
      "inputs": [],
      "name": "IDA_SUBSCRIPTION_IS_NOT_APPROVED",
      "type": "error"
    },
    {
      "inputs": [],
      "name": "IDA_ZERO_ADDRESS_SUBSCRIBER",
      "type": "error"
    },
    {
      "anonymous": false,
      "inputs": [
        {
          "indexed": false,
          "internalType": "bytes32",
          "name": "uuid",
          "type": "bytes32"
        },
        {
          "indexed": false,
          "internalType": "address",
          "name": "codeAddress",
          "type": "address"
        }
      ],
      "name": "CodeUpdated",
      "type": "event"
    },
    {
      "anonymous": false,
      "inputs": [
        {
          "indexed": true,
          "internalType": "contract ISuperfluidToken",
          "name": "token",
          "type": "address"
        },
        {
          "indexed": true,
          "internalType": "address",
          "name": "publisher",
          "type": "address"
        },
        {
          "indexed": true,
          "internalType": "uint32",
          "name": "indexId",
          "type": "uint32"
        },
        {
          "indexed": false,
          "internalType": "bytes",
          "name": "userData",
          "type": "bytes"
        }
      ],
      "name": "IndexCreated",
      "type": "event"
    },
    {
      "anonymous": false,
      "inputs": [
        {
          "indexed": true,
          "internalType": "contract ISuperfluidToken",
          "name": "token",
          "type": "address"
        },
        {
          "indexed": true,
          "internalType": "address",
          "name": "publisher",
          "type": "address"
        },
        {
          "indexed": true,
          "internalType": "uint32",
          "name": "indexId",
          "type": "uint32"
        },
        {
          "indexed": false,
          "internalType": "address",
          "name": "subscriber",
          "type": "address"
        },
        {
          "indexed": false,
          "internalType": "uint256",
          "name": "amount",
          "type": "uint256"
        }
      ],
      "name": "IndexDistributionClaimed",
      "type": "event"
    },
    {
      "anonymous": false,
      "inputs": [
        {
          "indexed": true,
          "internalType": "contract ISuperfluidToken",
          "name": "token",
          "type": "address"
        },
        {
          "indexed": true,
          "internalType": "address",
          "name": "publisher",
          "type": "address"
        },
        {
          "indexed": true,
          "internalType": "uint32",
          "name": "indexId",
          "type": "uint32"
        },
        {
          "indexed": false,
          "internalType": "address",
          "name": "subscriber",
          "type": "address"
        },
        {
          "indexed": false,
          "internalType": "bytes",
          "name": "userData",
          "type": "bytes"
        }
      ],
      "name": "IndexSubscribed",
      "type": "event"
    },
    {
      "anonymous": false,
      "inputs": [
        {
          "indexed": true,
          "internalType": "contract ISuperfluidToken",
          "name": "token",
          "type": "address"
        },
        {
          "indexed": true,
          "internalType": "address",
          "name": "publisher",
          "type": "address"
        },
        {
          "indexed": true,
          "internalType": "uint32",
          "name": "indexId",
          "type": "uint32"
        },
        {
          "indexed": false,
          "internalType": "address",
          "name": "subscriber",
          "type": "address"
        },
        {
          "indexed": false,
          "internalType": "uint128",
          "name": "units",
          "type": "uint128"
        },
        {
          "indexed": false,
          "internalType": "bytes",
          "name": "userData",
          "type": "bytes"
        }
      ],
      "name": "IndexUnitsUpdated",
      "type": "event"
    },
    {
      "anonymous": false,
      "inputs": [
        {
          "indexed": true,
          "internalType": "contract ISuperfluidToken",
          "name": "token",
          "type": "address"
        },
        {
          "indexed": true,
          "internalType": "address",
          "name": "publisher",
          "type": "address"
        },
        {
          "indexed": true,
          "internalType": "uint32",
          "name": "indexId",
          "type": "uint32"
        },
        {
          "indexed": false,
          "internalType": "address",
          "name": "subscriber",
          "type": "address"
        },
        {
          "indexed": false,
          "internalType": "bytes",
          "name": "userData",
          "type": "bytes"
        }
      ],
      "name": "IndexUnsubscribed",
      "type": "event"
    },
    {
      "anonymous": false,
      "inputs": [
        {
          "indexed": true,
          "internalType": "contract ISuperfluidToken",
          "name": "token",
          "type": "address"
        },
        {
          "indexed": true,
          "internalType": "address",
          "name": "publisher",
          "type": "address"
        },
        {
          "indexed": true,
          "internalType": "uint32",
          "name": "indexId",
          "type": "uint32"
        },
        {
          "indexed": false,
          "internalType": "uint128",
          "name": "oldIndexValue",
          "type": "uint128"
        },
        {
          "indexed": false,
          "internalType": "uint128",
          "name": "newIndexValue",
          "type": "uint128"
        },
        {
          "indexed": false,
          "internalType": "uint128",
          "name": "totalUnitsPending",
          "type": "uint128"
        },
        {
          "indexed": false,
          "internalType": "uint128",
          "name": "totalUnitsApproved",
          "type": "uint128"
        },
        {
          "indexed": false,
          "internalType": "bytes",
          "name": "userData",
          "type": "bytes"
        }
      ],
      "name": "IndexUpdated",
      "type": "event"
    },
    {
      "anonymous": false,
      "inputs": [
        {
          "indexed": false,
          "internalType": "uint8",
          "name": "version",
          "type": "uint8"
        }
      ],
      "name": "Initialized",
      "type": "event"
    },
    {
      "anonymous": false,
      "inputs": [
        {
          "indexed": true,
          "internalType": "contract ISuperfluidToken",
          "name": "token",
          "type": "address"
        },
        {
          "indexed": true,
          "internalType": "address",
          "name": "subscriber",
          "type": "address"
        },
        {
          "indexed": false,
          "internalType": "address",
          "name": "publisher",
          "type": "address"
        },
        {
          "indexed": false,
          "internalType": "uint32",
          "name": "indexId",
          "type": "uint32"
        },
        {
          "indexed": false,
          "internalType": "bytes",
          "name": "userData",
          "type": "bytes"
        }
      ],
      "name": "SubscriptionApproved",
      "type": "event"
    },
    {
      "anonymous": false,
      "inputs": [
        {
          "indexed": true,
          "internalType": "contract ISuperfluidToken",
          "name": "token",
          "type": "address"
        },
        {
          "indexed": true,
          "internalType": "address",
          "name": "subscriber",
          "type": "address"
        },
        {
          "indexed": false,
          "internalType": "address",
          "name": "publisher",
          "type": "address"
        },
        {
          "indexed": false,
          "internalType": "uint32",
          "name": "indexId",
          "type": "uint32"
        },
        {
          "indexed": false,
          "internalType": "uint256",
          "name": "amount",
          "type": "uint256"
        }
      ],
      "name": "SubscriptionDistributionClaimed",
      "type": "event"
    },
    {
      "anonymous": false,
      "inputs": [
        {
          "indexed": true,
          "internalType": "contract ISuperfluidToken",
          "name": "token",
          "type": "address"
        },
        {
          "indexed": true,
          "internalType": "address",
          "name": "subscriber",
          "type": "address"
        },
        {
          "indexed": false,
          "internalType": "address",
          "name": "publisher",
          "type": "address"
        },
        {
          "indexed": false,
          "internalType": "uint32",
          "name": "indexId",
          "type": "uint32"
        },
        {
          "indexed": false,
          "internalType": "bytes",
          "name": "userData",
          "type": "bytes"
        }
      ],
      "name": "SubscriptionRevoked",
      "type": "event"
    },
    {
      "anonymous": false,
      "inputs": [
        {
          "indexed": true,
          "internalType": "contract ISuperfluidToken",
          "name": "token",
          "type": "address"
        },
        {
          "indexed": true,
          "internalType": "address",
          "name": "subscriber",
          "type": "address"
        },
        {
          "indexed": false,
          "internalType": "address",
          "name": "publisher",
          "type": "address"
        },
        {
          "indexed": false,
          "internalType": "uint32",
          "name": "indexId",
          "type": "uint32"
        },
        {
          "indexed": false,
          "internalType": "uint128",
          "name": "units",
          "type": "uint128"
        },
        {
          "indexed": false,
          "internalType": "bytes",
          "name": "userData",
          "type": "bytes"
        }
      ],
      "name": "SubscriptionUnitsUpdated",
      "type": "event"
    },
    {
      "inputs": [],
      "name": "SLOTS_BITMAP_LIBRARY_ADDRESS",
      "outputs": [
        {
          "internalType": "address",
          "name": "",
          "type": "address"
        }
      ],
      "stateMutability": "view",
      "type": "function"
    },
    {
      "inputs": [],
      "name": "agreementType",
      "outputs": [
        {
          "internalType": "bytes32",
          "name": "",
          "type": "bytes32"
        }
      ],
      "stateMutability": "pure",
      "type": "function"
    },
    {
      "inputs": [
        {
          "internalType": "contract ISuperfluidToken",
          "name": "token",
          "type": "address"
        },
        {
          "internalType": "address",
          "name": "publisher",
          "type": "address"
        },
        {
          "internalType": "uint32",
          "name": "indexId",
          "type": "uint32"
        },
        {
          "internalType": "bytes",
          "name": "ctx",
          "type": "bytes"
        }
      ],
      "name": "approveSubscription",
      "outputs": [
        {
          "internalType": "bytes",
          "name": "newCtx",
          "type": "bytes"
        }
      ],
      "stateMutability": "nonpayable",
      "type": "function"
    },
    {
      "inputs": [
        {
          "internalType": "contract ISuperfluidToken",
          "name": "token",
          "type": "address"
        },
        {
          "internalType": "address",
          "name": "publisher",
          "type": "address"
        },
        {
          "internalType": "uint32",
          "name": "indexId",
          "type": "uint32"
        },
        {
          "internalType": "uint256",
          "name": "amount",
          "type": "uint256"
        }
      ],
      "name": "calculateDistribution",
      "outputs": [
        {
          "internalType": "uint256",
          "name": "actualAmount",
          "type": "uint256"
        },
        {
          "internalType": "uint128",
          "name": "newIndexValue",
          "type": "uint128"
        }
      ],
      "stateMutability": "view",
      "type": "function"
    },
    {
      "inputs": [],
      "name": "castrate",
      "outputs": [],
      "stateMutability": "nonpayable",
      "type": "function"
    },
    {
      "inputs": [
        {
          "internalType": "contract ISuperfluidToken",
          "name": "token",
          "type": "address"
        },
        {
          "internalType": "address",
          "name": "publisher",
          "type": "address"
        },
        {
          "internalType": "uint32",
          "name": "indexId",
          "type": "uint32"
        },
        {
          "internalType": "address",
          "name": "subscriber",
          "type": "address"
        },
        {
          "internalType": "bytes",
          "name": "ctx",
          "type": "bytes"
        }
      ],
      "name": "claim",
      "outputs": [
        {
          "internalType": "bytes",
          "name": "newCtx",
          "type": "bytes"
        }
      ],
      "stateMutability": "nonpayable",
      "type": "function"
    },
    {
      "inputs": [
        {
          "internalType": "contract ISuperfluidToken",
          "name": "token",
          "type": "address"
        },
        {
          "internalType": "uint32",
          "name": "indexId",
          "type": "uint32"
        },
        {
          "internalType": "bytes",
          "name": "ctx",
          "type": "bytes"
        }
      ],
      "name": "createIndex",
      "outputs": [
        {
          "internalType": "bytes",
          "name": "newCtx",
          "type": "bytes"
        }
      ],
      "stateMutability": "nonpayable",
      "type": "function"
    },
    {
      "inputs": [
        {
          "internalType": "contract ISuperfluidToken",
          "name": "token",
          "type": "address"
        },
        {
          "internalType": "address",
          "name": "publisher",
          "type": "address"
        },
        {
          "internalType": "uint32",
          "name": "indexId",
          "type": "uint32"
        },
        {
          "internalType": "address",
          "name": "subscriber",
          "type": "address"
        },
        {
          "internalType": "bytes",
          "name": "ctx",
          "type": "bytes"
        }
      ],
      "name": "deleteSubscription",
      "outputs": [
        {
          "internalType": "bytes",
          "name": "newCtx",
          "type": "bytes"
        }
      ],
      "stateMutability": "nonpayable",
      "type": "function"
    },
    {
      "inputs": [
        {
          "internalType": "contract ISuperfluidToken",
          "name": "token",
          "type": "address"
        },
        {
          "internalType": "uint32",
          "name": "indexId",
          "type": "uint32"
        },
        {
          "internalType": "uint256",
          "name": "amount",
          "type": "uint256"
        },
        {
          "internalType": "bytes",
          "name": "ctx",
          "type": "bytes"
        }
      ],
      "name": "distribute",
      "outputs": [
        {
          "internalType": "bytes",
          "name": "newCtx",
          "type": "bytes"
        }
      ],
      "stateMutability": "nonpayable",
      "type": "function"
    },
    {
      "inputs": [],
      "name": "getCodeAddress",
      "outputs": [
        {
          "internalType": "address",
          "name": "codeAddress",
          "type": "address"
        }
      ],
      "stateMutability": "view",
      "type": "function"
    },
    {
      "inputs": [
        {
          "internalType": "contract ISuperfluidToken",
          "name": "token",
          "type": "address"
        },
        {
          "internalType": "address",
          "name": "publisher",
          "type": "address"
        },
        {
          "internalType": "uint32",
          "name": "indexId",
          "type": "uint32"
        }
      ],
      "name": "getIndex",
      "outputs": [
        {
          "internalType": "bool",
          "name": "exist",
          "type": "bool"
        },
        {
          "internalType": "uint128",
          "name": "indexValue",
          "type": "uint128"
        },
        {
          "internalType": "uint128",
          "name": "totalUnitsApproved",
          "type": "uint128"
        },
        {
          "internalType": "uint128",
          "name": "totalUnitsPending",
          "type": "uint128"
        }
      ],
      "stateMutability": "view",
      "type": "function"
    },
    {
      "inputs": [
        {
          "internalType": "contract ISuperfluidToken",
          "name": "token",
          "type": "address"
        },
        {
          "internalType": "address",
          "name": "publisher",
          "type": "address"
        },
        {
          "internalType": "uint32",
          "name": "indexId",
          "type": "uint32"
        },
        {
          "internalType": "address",
          "name": "subscriber",
          "type": "address"
        }
      ],
      "name": "getSubscription",
      "outputs": [
        {
          "internalType": "bool",
          "name": "exist",
          "type": "bool"
        },
        {
          "internalType": "bool",
          "name": "approved",
          "type": "bool"
        },
        {
          "internalType": "uint128",
          "name": "units",
          "type": "uint128"
        },
        {
          "internalType": "uint256",
          "name": "pendingDistribution",
          "type": "uint256"
        }
      ],
      "stateMutability": "view",
      "type": "function"
    },
    {
      "inputs": [
        {
          "internalType": "contract ISuperfluidToken",
          "name": "token",
          "type": "address"
        },
        {
          "internalType": "bytes32",
          "name": "agreementId",
          "type": "bytes32"
        }
      ],
      "name": "getSubscriptionByID",
      "outputs": [
        {
          "internalType": "address",
          "name": "publisher",
          "type": "address"
        },
        {
          "internalType": "uint32",
          "name": "indexId",
          "type": "uint32"
        },
        {
          "internalType": "bool",
          "name": "approved",
          "type": "bool"
        },
        {
          "internalType": "uint128",
          "name": "units",
          "type": "uint128"
        },
        {
          "internalType": "uint256",
          "name": "pendingDistribution",
          "type": "uint256"
        }
      ],
      "stateMutability": "view",
      "type": "function"
    },
    {
      "inputs": [
        {
          "internalType": "contract ISuperfluidToken",
          "name": "token",
          "type": "address"
        },
        {
          "internalType": "address",
          "name": "subscriber",
          "type": "address"
        }
      ],
      "name": "listSubscriptions",
      "outputs": [
        {
          "internalType": "address[]",
          "name": "publishers",
          "type": "address[]"
        },
        {
          "internalType": "uint32[]",
          "name": "indexIds",
          "type": "uint32[]"
        },
        {
          "internalType": "uint128[]",
          "name": "unitsList",
          "type": "uint128[]"
        }
      ],
      "stateMutability": "view",
      "type": "function"
    },
    {
      "inputs": [],
      "name": "proxiableUUID",
      "outputs": [
        {
          "internalType": "bytes32",
          "name": "",
          "type": "bytes32"
        }
      ],
      "stateMutability": "view",
      "type": "function"
    },
    {
      "inputs": [
        {
          "internalType": "contract ISuperfluidToken",
          "name": "token",
          "type": "address"
        },
        {
          "internalType": "address",
          "name": "account",
          "type": "address"
        },
        {
          "internalType": "uint256",
          "name": "",
          "type": "uint256"
        }
      ],
      "name": "realtimeBalanceOf",
      "outputs": [
        {
          "internalType": "int256",
          "name": "dynamicBalance",
          "type": "int256"
        },
        {
          "internalType": "uint256",
          "name": "deposit",
          "type": "uint256"
        },
        {
          "internalType": "uint256",
          "name": "owedDeposit",
          "type": "uint256"
        }
      ],
      "stateMutability": "view",
      "type": "function"
    },
    {
      "inputs": [
        {
          "internalType": "contract ISuperfluidToken",
          "name": "token",
          "type": "address"
        },
        {
          "internalType": "address",
          "name": "publisher",
          "type": "address"
        },
        {
          "internalType": "uint32",
          "name": "indexId",
          "type": "uint32"
        },
        {
          "internalType": "bytes",
          "name": "ctx",
          "type": "bytes"
        }
      ],
      "name": "revokeSubscription",
      "outputs": [
        {
          "internalType": "bytes",
          "name": "newCtx",
          "type": "bytes"
        }
      ],
      "stateMutability": "nonpayable",
      "type": "function"
    },
    {
      "inputs": [
        {
          "internalType": "address",
          "name": "newAddress",
          "type": "address"
        }
      ],
      "name": "updateCode",
      "outputs": [],
      "stateMutability": "nonpayable",
      "type": "function"
    },
    {
      "inputs": [
        {
          "internalType": "contract ISuperfluidToken",
          "name": "token",
          "type": "address"
        },
        {
          "internalType": "uint32",
          "name": "indexId",
          "type": "uint32"
        },
        {
          "internalType": "uint128",
          "name": "indexValue",
          "type": "uint128"
        },
        {
          "internalType": "bytes",
          "name": "ctx",
          "type": "bytes"
        }
      ],
      "name": "updateIndex",
      "outputs": [
        {
          "internalType": "bytes",
          "name": "newCtx",
          "type": "bytes"
        }
      ],
      "stateMutability": "nonpayable",
      "type": "function"
    },
    {
      "inputs": [
        {
          "internalType": "contract ISuperfluidToken",
          "name": "token",
          "type": "address"
        },
        {
          "internalType": "uint32",
          "name": "indexId",
          "type": "uint32"
        },
        {
          "internalType": "address",
          "name": "subscriber",
          "type": "address"
        },
        {
          "internalType": "uint128",
          "name": "units",
          "type": "uint128"
        },
        {
          "internalType": "bytes",
          "name": "ctx",
          "type": "bytes"
        }
      ],
      "name": "updateSubscription",
      "outputs": [
        {
          "internalType": "bytes",
          "name": "newCtx",
          "type": "bytes"
        }
      ],
      "stateMutability": "nonpayable",
      "type": "function"
    }
  ],
  "bytecode": {
    "object": "0x60a06040523480156200001157600080fd5b50604051620052ed380380620052ed833981016040819052620000349162000046565b6001600160a01b031660805262000078565b6000602082840312156200005957600080fd5b81516001600160a01b03811681146200007157600080fd5b9392505050565b6080516152596200009460003960006110ca01526152596000f3fe608060405234801561001057600080fd5b506004361061012c5760003560e01c80637fbc7639116100ad578063acf4a6c211610071578063acf4a6c214610320578063b6dacdb814610333578063b96731c214610355578063cd7245c514610368578063d787840a146103c057600080fd5b80637fbc763914610294578063899baaec146102a75780639903ad38146102d75780639b2e48bc146102df578063acafa1b81461030d57600080fd5b806350d75d25116100f457806350d75d25146101f957806352d1902d146102015780635b534051146102175780636041ae961461025b5780637730599e1461026e57600080fd5b8063232d2b581461013157806323fc23f31461015a5780632e5e74c61461019e5780633fd4176a146101b157806346951954146101e4575b600080fd5b61014461013f36600461438f565b6103d3565b604051610151919061446a565b60405180910390f35b61016d61016836600461447d565b610aed565b6040805194151585526001600160801b03938416602086015291831691840191909152166060820152608001610151565b6101446101ac3660046144c8565b610b58565b6101cc73__$3c6eb92c7cccddf84f4a4201d0479214da$__81565b6040516001600160a01b039091168152602001610151565b6101f76101f236600461451c565b6110bf565b005b6101cc611114565b610209611143565b604051908152602001610151565b61022a610225366004614540565b6111a7565b6040516101519493929190931515845291151560208401526001600160801b03166040830152606082015260800190565b61014461026936600461459c565b61127d565b7f8aedc3b5d4bf031e11a7e2940f7251c005698405d58e02e1c247fed3b1b3a674610209565b6101446102a2366004614617565b6116a2565b6102ba6102b5366004614658565b61178f565b604080519283526001600160801b03909116602083015201610151565b6101f7611834565b6102f26102ed3660046146a9565b611942565b60408051938452602084019290925290820152606001610151565b61014461031b3660046144c8565b611b4d565b61014461032e36600461459c565b611f52565b6103466103413660046146ea565b61250c565b60405161015193929190614767565b610144610363366004614804565b612761565b61037b610376366004614859565b612861565b604080516001600160a01b03909616865263ffffffff9094166020860152911515928401929092526001600160801b039091166060830152608082015260a001610151565b6101446103ce366004614885565b612963565b60606001600160a01b0385166103fc57604051633242919d60e21b815260040160405180910390fd5b6104046141e7565b61040c614245565b60606000806104518c89898080601f016020809104026020016040519081016040528093929190818152602001838380828437600092019190915250612b1e92505050565b90508060a00151925080606001519150506104708b828b8d6000612ceb565b60808901521515602080890191909152606088019190915260408088018390529287528251908101909252600082526104ac918d918c91612dde565b925086868080601f0160208091040260200160405190810160405280939291908181526020018383808284376000920191909152505050602086015191965050156105105764040000000060c08401526105068386612e0c565b60a085015261052b565b64010000000060c08401526105258386612e0c565b60a08501525b83602001518015610548575060808401515163ffffffff90811614155b15610623576105978460800151608001516001600160801b0316896001600160801b03168660600151602001516001600160801b031661058891906148ff565b6105929190614912565b612fc3565b6060850180516001600160801b03909216602090920191909152845190516001600160a01b038d169163a1b2bf8b916105cf90613030565b6040518363ffffffff1660e01b81526004016105ec929190614955565b600060405180830381600087803b15801561060657600080fd5b505af115801561061a573d6000803e3d6000fd5b5050505061080a565b8360200151156106a0576106688460800151608001516001600160801b0316896001600160801b03168660600151604001516001600160801b031661058891906148ff565b6060850180516001600160801b03909216604090920191909152845190516001600160a01b038d169163a1b2bf8b916105cf90613030565b6040518060a0016040528063ffffffff80168152602001826001600160a01b031681526020018b63ffffffff1681526020018560600151600001516001600160801b03168152602001896001600160801b031681525084608001819052508a6001600160a01b03166312a6a3f8856040015161071f87608001516130ce565b6040518363ffffffff1660e01b815260040161073c929190614955565b600060405180830381600087803b15801561075657600080fd5b505af115801561076a573d6000803e3d6000fd5b5050505087846060015160400151610782919061496e565b6060850180516001600160801b03909216604090920191909152845190516001600160a01b038d169163a1b2bf8b916107ba90613030565b6040518363ffffffff1660e01b81526004016107d7929190614955565b600060405180830381600087803b1580156107f157600080fd5b505af1158015610805573d6000803e3d6000fd5b505050505b60008460800151608001516001600160801b031685608001516060015186606001516000015161083a9190614995565b6001600160801b031661084d91906149b5565b905063ffffffff801685608001516000015163ffffffff16036108e65761087d8c83610878846149e5565b613175565b6001600160a01b038c1663cf97256d83610896846149e5565b6040518363ffffffff1660e01b81526004016108b3929190614a01565b600060405180830381600087803b1580156108cd57600080fd5b505af11580156108e1573d6000803e3d6000fd5b505050505b60405163cf97256d60e01b81526001600160a01b038d169063cf97256d90610914908d908590600401614a01565b600060405180830381600087803b15801561092e57600080fd5b505af1158015610942573d6000803e3d6000fd5b505050508460200151156109e85760608086015151608080880180516001600160801b039384169401939093528251918c16910152604086015190516001600160a01b038e169163a1b2bf8b91610998906130ce565b6040518363ffffffff1660e01b81526004016109b5929190614955565b600060405180830381600087803b1580156109cf57600080fd5b505af11580156109e3573d6000803e3d6000fd5b505050505b846020015115610a175764080000000060c085015260a0850151610a0e908590886132c3565b9650610a379050565b64020000000060c085015260a0850151610a33908590886132c3565b9650505b8a63ffffffff16826001600160a01b03168d6001600160a01b03167f0115987243fd19d615b5ea62a80372a06a2b37fec378b148ee7a507c5c4c0a398d8d88604051610a8593929190614a1a565b60405180910390a4896001600160a01b03168c6001600160a01b03167fe0707ac7efb8b59c22189af8d004ed17dc9e4379e71b9066119b62c182524977848e8d88604051610ad69493929190614a56565b60405180910390a350505050509695505050505050565b600080600080610b16604080516060810182526000808252602082018190529181019190915290565b6000610b22888861350f565b9050610b2e8982613576565b90965091508515610b4d57815160208301516040840151919650945092505b505093509350935093565b6060610b626141e7565b610b6a614245565b600060606000610bb08c89898080601f016020809104026020016040519081016040528093929190818152602001838380828437600092019190915250612b1e92505050565b606081015160a0909101519093509150506001600160a01b038816610be857604051633242919d60e21b815260040160405180910390fd5b896001600160a01b0316826001600160a01b031614610c1a576040516392da6d1760e01b815260040160405180910390fd5b610c288b8b8a8c6001612ceb565b6080890152506060870152604080870182905291865281516020810190925260008252610c58918d918b91612dde565b925086868080601f0160208091040260200160405190810160405280939291908181526020018383808284376000920191909152505064100000000060c087015250909550610ca990508386612e0c565b60a08501526080808501519081015160609182015191860151516000926001600160801b0390921691610cdb91614995565b6001600160801b0316610cee91906149b5565b60808601515190915063ffffffff90811614610d3b57846080015160800151856060015160200151610d209190614995565b60608601516001600160801b03909116602090910152610d6e565b846080015160800151856060015160400151610d579190614995565b60608601516001600160801b039091166040909101525b8b6001600160a01b031663a1b2bf8b8660000151610d8f8860600151613030565b6040518363ffffffff1660e01b8152600401610dac929190614955565b600060405180830381600087803b158015610dc657600080fd5b505af1158015610dda573d6000803e3d6000fd5b5050505060808501515163ffffffff90811614610e0457610e048c8a87608001516000015161368a565b60808501515163ffffffff1663fffffffe1901610e9257610e298c8c610878846149e5565b6001600160a01b038c1663cf97256d8c610e42846149e5565b6040518363ffffffff1660e01b8152600401610e5f929190614a01565b600060405180830381600087803b158015610e7957600080fd5b505af1158015610e8d573d6000803e3d6000fd5b505050505b6040858101519051632704839760e01b81526004810191909152600260248201526001600160a01b038d1690632704839790604401600060405180830381600087803b158015610ee157600080fd5b505af1158015610ef5573d6000803e3d6000fd5b505060405163cf97256d60e01b81526001600160a01b038f16925063cf97256d9150610f27908c908590600401614a01565b600060405180830381600087803b158015610f4157600080fd5b505af1158015610f55573d6000803e3d6000fd5b505064200000000060c0870152505060a0850151610f75908590886132c3565b9050809650508963ffffffff168b6001600160a01b03168d6001600160a01b03167fe1f8e9cd8061e5b251769965bda6ca9ef1674bc6541fb9131039fa53f024d1428c86604051610fc7929190614a9f565b60405180910390a4886001600160a01b03168c6001600160a01b03167f9e02127550b99adc8cc6ee332a36f31338facdbc396cebefce9a047247cd04558d8d8660405161101693929190614ac3565b60405180910390a38963ffffffff168b6001600160a01b03168d6001600160a01b03167f0115987243fd19d615b5ea62a80372a06a2b37fec378b148ee7a507c5c4c0a398c60008760405161106d93929190614a1a565b60405180910390a4886001600160a01b03168c6001600160a01b03167fe0707ac7efb8b59c22189af8d004ed17dc9e4379e71b9066119b62c1825249778d8d600087604051610ad69493929190614a56565b336001600160a01b037f0000000000000000000000000000000000000000000000000000000000000000161461110857604051630b00ec8f60e11b815260040160405180910390fd5b61111181613715565b50565b600061113e7f360894a13ba1a3210667c828492db98dca3e2076cc3735a920a3ca505d382bbc5490565b905090565b6000306001600160a01b0316637730599e6040518163ffffffff1660e01b8152600401602060405180830381865afa158015611183573d6000803e3d6000fd5b505050506040513d601f19601f8201168201806040525081019061113e9190614af3565b6000806000806000806111d3604080516060810182526000808252602082018190529181019190915290565b6111db614280565b6111e98c8c8b8d6000612ceb565b909b50929650909450925090508761121257600080600080975097509750975050505050611272565b8051608082015163ffffffff9182169091141597509550866112685780608001516001600160801b0316816060015183600001516112509190614995565b6001600160801b03166112639190614b0c565b61126b565b60005b9450505050505b945094509450949050565b60606112876141e7565b61128f614245565b6000606060006112d58b89898080601f016020809104026020016040519081016040528093929190818152602001838380828437600092019190915250612b1e92505050565b9050806060015192508060a001519150506112f48a8a848b6001612ceb565b6080890181905260608901929092525060408701919091529085525163ffffffff1663fffffffe190161133a57604051633741257360e01b815260040160405180910390fd5b6113598a8a866040015160405180602001604052806000815250612dde565b925086868080601f0160208091040260200160405190810160405280939291908181526020018383808284376000920191909152505064100000000060c0870152509095506113aa90508386612e0c565b60a08501526080808501519081015160609182015191860151516000926001600160801b03909216916113dc91614995565b6001600160801b03166113ef91906149b5565b905084608001516080015185606001516020015161140d9190614995565b6060860180516001600160801b03909216602090920191909152608080870151015190516040015161143f919061496e565b6060860180516001600160801b03909216604090920191909152855190516001600160a01b038d169163a1b2bf8b9161147790613030565b6040518363ffffffff1660e01b8152600401611494929190614955565b600060405180830381600087803b1580156114ae57600080fd5b505af11580156114c2573d6000803e3d6000fd5b505050506114d98b8487608001516000015161368a565b606080860151516080870180516001600160801b039092169190920152805163ffffffff9052604086015190516001600160a01b038d169163a1b2bf8b91611520906130ce565b6040518363ffffffff1660e01b815260040161153d929190614955565b600060405180830381600087803b15801561155757600080fd5b505af115801561156b573d6000803e3d6000fd5b505060405163cf97256d60e01b81526001600160a01b038e16925063cf97256d915061159d9086908590600401614a01565b600060405180830381600087803b1580156115b757600080fd5b505af11580156115cb573d6000803e3d6000fd5b505064200000000060c0870152505060a08501516115eb908590886132c3565b9050809650508863ffffffff168a6001600160a01b03168c6001600160a01b03167fe1f8e9cd8061e5b251769965bda6ca9ef1674bc6541fb9131039fa53f024d142868660405161163d929190614a9f565b60405180910390a4826001600160a01b03168b6001600160a01b03167f9e02127550b99adc8cc6ee332a36f31338facdbc396cebefce9a047247cd04558c8c8660405161168c93929190614ac3565b60405180910390a3505050505095945050505050565b606060006116e68785858080601f016020809104026020016040519081016040528093929190818152602001838380828437600092019190915250612b1e92505050565b60608101519091506000806116fc8a848b61391d565b9150915080600001516001600160801b0316886001600160801b031610156117375760405163cfdca72560e01b815260040160405180910390fd5b61174a8a848b85858d8a60a0015161397c565b86868080601f016020809104026020016040519081016040528093929190818152602001838380828437600092019190915250929d9c50505050505050505050505050565b600080600061179e868661350f565b90506000806117ad8984613576565b91509150816117cf5760405163edeaa63b60e01b815260040160405180910390fd5b6000816040015182602001516117e5919061496e565b6001600160801b0316905060006117ff610592838a614b23565b835190915061180f90829061496e565b9550611824826001600160801b038316614b0c565b9650505050505094509492505050565b600054610100900460ff16158080156118545750600054600160ff909116105b8061186e5750303b15801561186e575060005460ff166001145b6118d65760405162461bcd60e51b815260206004820152602e60248201527f496e697469616c697a61626c653a20636f6e747261637420697320616c72656160448201526d191e481a5b9a5d1a585b1a5e995960921b60648201526084015b60405180910390fd5b6000805460ff1916600117905580156118f9576000805461ff0019166101001790555b8015611111576000805461ff0019169055604051600181527f7f26b83ff96e1f2b6a682f133852f6798a09c465da95921460cefb3847402498906020015b60405180910390a150565b60008060006060806119548888613bab565b909250905060005b81518163ffffffff161015611b31576000611975614280565b600080868563ffffffff168151811061199057611990614b45565b602002602001015190506119c38d878763ffffffff16815181106119b6576119b6614b45565b6020026020010151613c9e565b9094509250836119d5576119d5614b5b565b8063ffffffff16836000015163ffffffff16146119f4576119f4614b5b565b6001600160a01b038d16634b61cc33308e611a1963ffffffff8616600160801b6148ff565b60016040518563ffffffff1660e01b8152600401611a3a9493929190614b71565b600060405180830381865afa158015611a57573d6000803e3d6000fd5b505050506040513d6000823e601f3d908101601f19168201604052611a7f9190810190614c97565b600081518110611a9157611a91614b45565b6020026020010151915050611abf604080516060810182526000808252602082018190529181019190915290565b611ac98d83613576565b909450905083611adb57611adb614b5b565b82608001516001600160801b031683606001518260000151611afd9190614995565b6001600160801b0316611b1091906149b5565b611b1a908b614ccb565b99505050505080611b2a90614cf3565b905061195c565b50611b3c8888613dba565b935060009250505093509350939050565b6060611b8f8784848080601f016020809104026020016040519081016040528093929190818152602001838380828437600092019190915250612b1e92505050565b506001600160a01b038416611bb757604051633242919d60e21b815260040160405180910390fd5b611bbf6141e7565b611bc7614245565b611bd58989888a6001612ceb565b6080870181905260608701929092525060408501919091529083525163ffffffff90811614611c1757604051633eb2f84960e01b815260040160405180910390fd5b60008260800151608001516001600160801b0316836080015160600151846060015160000151611c479190614995565b6001600160801b0316611c5a9190614b0c565b9050611c7b8a8a856040015160405180602001604052806000815250612dde565b915085858080601f0160208091040260200160405190810160405280939291908181526020018383808284376000920191909152509296505082159150611f0b90505764040000000060c0830152611cd38285612e0c565b60a0840152611ce68a8a610878846149e5565b6001600160a01b038a1663cf97256d8a611cff846149e5565b6040518363ffffffff1660e01b8152600401611d1c929190614a01565b600060405180830381600087803b158015611d3657600080fd5b505af1158015611d4a573d6000803e3d6000fd5b50505050606083810151516080850180516001600160801b039092169190920152604084015190516001600160a01b038c169163a1b2bf8b91611d8c906130ce565b6040518363ffffffff1660e01b8152600401611da9929190614955565b600060405180830381600087803b158015611dc357600080fd5b505af1158015611dd7573d6000803e3d6000fd5b505060405163cf97256d60e01b81526001600160a01b038d16925063cf97256d9150611e09908a908590600401614a01565b600060405180830381600087803b158015611e2357600080fd5b505af1158015611e37573d6000803e3d6000fd5b505050508763ffffffff16896001600160a01b03168b6001600160a01b03167f467eccd248ef31c8bcef16d94856855799a8783aeef10f3759e43614059a6bb18a85604051611e87929190614a01565b60405180910390a4604080516001600160a01b038b8116825263ffffffff8b166020830152918101839052818916918c16907f48a3d91d4a07e4982b081260e24f922bd33bb965882772d6de19c922c3eabdea9060600160405180910390a364080000000060c083015260a0830151611f02908390866132c3565b9450611f459050565b85858080601f0160208091040260200160405190810160405280939291908181526020018383808284376000920191909152509296505050505b5050509695505050505050565b6060611f5c6141e7565b611f64614245565b600060606000611faa8b89898080601f016020809104026020016040519081016040528093929190818152602001838380828437600092019190915250612b1e92505050565b9050806060015192508060a00151915050611fc98a8a848b6000612ceb565b60808901521580156020890152606088019190915260408701919091529085526120195760808401515163ffffffff9081161461201957604051633eb2f84960e01b815260040160405180910390fd5b86868080601f01602080910402602001604051908101604052809392919081815260200183838082843760009201829052506040808a0151815160208101909252918152949950612072948f94508e9350909150612dde565b9250836020015161219b5764010000000060c08401526120928386612e0c565b60a08086019190915260408051918201815260008083526001600160a01b038c16602084015263ffffffff8b1691830191909152606080870151516001600160801b03169083015260808083019190915285015283516120f5908b908490613e63565b60808501805163ffffffff909216909152604085015190516001600160a01b038c16916312a6a3f891612127906130ce565b6040518363ffffffff1660e01b8152600401612144929190614955565b600060405180830381600087803b15801561215e57600080fd5b505af1158015612172573d6000803e3d6000fd5b505064020000000060c0860152505060a0840151612192908490876132c3565b955061245c9050565b64040000000060c08401526121b08386612e0c565b60a08501526080808501519081015160609182015191860151516000926001600160801b03909216916121e291614995565b6001600160801b03166121f591906149b5565b90508460800151608001518560600151602001818151612215919061496e565b6001600160801b031690525060808086015101516060860151604001805161223e908390614995565b6001600160801b0316905250845160608601516001600160a01b038d169163a1b2bf8b9161226b90613030565b6040518363ffffffff1660e01b8152600401612288929190614955565b600060405180830381600087803b1580156122a257600080fd5b505af11580156122b6573d6000803e3d6000fd5b505050506122c98b8b83610878906149e5565b6001600160a01b038b1663cf97256d8b6122e2846149e5565b6040518363ffffffff1660e01b81526004016122ff929190614a01565b600060405180830381600087803b15801561231957600080fd5b505af115801561232d573d6000803e3d6000fd5b505060405163cf97256d60e01b81526001600160a01b038e16925063cf97256d915061235f9086908590600401614a01565b600060405180830381600087803b15801561237957600080fd5b505af115801561238d573d6000803e3d6000fd5b5050506060808701515160808801516001600160801b039091169101525084516123ba908c908590613e63565b60808601805163ffffffff909216909152604086015190516001600160a01b038d169163a1b2bf8b916123ec906130ce565b6040518363ffffffff1660e01b8152600401612409929190614955565b600060405180830381600087803b15801561242357600080fd5b505af1158015612437573d6000803e3d6000fd5b505064080000000060c0870152505060a0850151612457908590886132c3565b965050505b8763ffffffff16896001600160a01b03168b6001600160a01b03167f492d2641617cfaf24ac7328f85bc5bdf5113537d78dc7671afa4f49a73f053c285856040516124a8929190614a9f565b60405180910390a4816001600160a01b03168a6001600160a01b03167fc0b8396b655615cdb85fe462a9a1792480816f909cd46d9517a940b386dfbf6b8b8b856040516124f793929190614ac3565b60405180910390a35050505095945050505050565b606080606080606061251e8787613bab565b9092509050600061252d614280565b82516001600160401b0381111561254657612546614b9a565b60405190808252806020026020018201604052801561256f578160200160208202803683370190505b50965082516001600160401b0381111561258b5761258b614b9a565b6040519080825280602002602001820160405280156125b4578160200160208202803683370190505b50955082516001600160401b038111156125d0576125d0614b9a565b6040519080825280602002602001820160405280156125f9578160200160208202803683370190505b50945060005b83518163ffffffff161015612755576000858263ffffffff168151811061262857612628614b45565b602002602001015190506000858363ffffffff168151811061264c5761264c614b45565b602002602001015190506126608c82613c9e565b90955093508461267257612672614b5b565b8163ffffffff16846000015163ffffffff161461269157612691614b5b565b83602001518a8463ffffffff16815181106126ae576126ae614b45565b60200260200101906001600160a01b031690816001600160a01b0316815250508360400151898463ffffffff16815181106126eb576126eb614b45565b602002602001019063ffffffff16908163ffffffff16815250508360800151888463ffffffff168151811061272257612722614b45565b60200260200101906001600160801b031690816001600160801b03168152505050508061274e90614cf3565b90506125ff565b50505050509250925092565b606060006127a58785858080601f016020809104026020016040519081016040528093929190818152602001838380828437600092019190915250612b1e92505050565b60608101519091506000806127bb8a848b61391d565b915091506000816040015182602001516127d5919061496e565b6001600160801b03169050801561281b5760006127f5610592838c614b23565b90506128198c868d878786896000015161280f919061496e565b8c60a0015161397c565b505b87878080601f016020809104026020016040519081016040528093929190818152602001838380828437600092019190915250929e9d5050505050505050505050505050565b600080600080600080600061288f604080516060810182526000808252602082018190529181019190915290565b612897614280565b6128a18b8b613c9e565b9094509050836128c45760405163016d919360e71b815260040160405180910390fd5b80602001519850806040015197506128dc898961350f565b92506128e88b84613576565b9094509150836128fa576128fa614b5b565b8051608082015163ffffffff9182169091141597509550866129505780608001516001600160801b0316816060015183600001516129389190614995565b6001600160801b031661294b9190614b0c565b612953565b60005b9450505050509295509295909350565b606060006129a78685858080601f016020809104026020016040519081016040528093929190818152602001838380828437600092019190915250612b1e92505050565b606081015190915060006129bb828861350f565b90506129c78882613f0a565b156129e557604051635c02a51760e01b815260040160405180910390fd5b876001600160a01b03166312a6a3f882612a36604051806060016040528060006001600160801b0316815260200160006001600160801b0316815260200160006001600160801b0316815250613030565b6040518363ffffffff1660e01b8152600401612a53929190614955565b600060405180830381600087803b158015612a6d57600080fd5b505af1158015612a81573d6000803e3d6000fd5b505050508663ffffffff16826001600160a01b0316896001600160a01b03167f01ab8663165edfb7390d9e5f75d960a66dacf4f01fa9787e3a731c870d0da9218660a00151604051612ad3919061446a565b60405180910390a485858080601f016020809104026020016040519081016040528093929190818152602001838380828437600092019190915250929b9a5050505050505050505050565b612b266142ae565b336001600160a01b0316836001600160a01b03166320bc44256040518163ffffffff1660e01b8152600401602060405180830381865afa158015612b6e573d6000803e3d6000fd5b505050506040513d601f19601f82011682018060405250810190612b929190614d21565b6001600160a01b031614612bdc5760405162461bcd60e51b81526020600482015260116024820152701d5b985d5d1a1bdc9a5e9959081a1bdcdd607a1b60448201526064016118cd565b604051632fd0a1cd60e21b8152339063bf42873490612bff90859060040161446a565b602060405180830381865afa158015612c1c573d6000803e3d6000fd5b505050506040513d601f19601f82011682018060405250810190612c409190614d4e565b612c7a5760405162461bcd60e51b815260206004820152600b60248201526a0d2dcecc2d8d2c840c6e8f60ab1b60448201526064016118cd565b604051631fb6491d60e11b81523390633f6c923a90612c9d90859060040161446a565b600060405180830381865afa158015612cba573d6000803e3d6000fd5b505050506040513d6000823e601f3d908101601f19168201604052612ce29190810190614df5565b90505b92915050565b6040805160608101825260008082526020820181905291810182905281906000612d13614280565b6000612d1f8a8961350f565b9550612d2b8987613fb6565b9450612d378b87613576565b9450905080612d595760405163edeaa63b60e01b815260040160405180910390fd5b612d638b86613c9e565b90935091508615612dd05782612d8c5760405163016d919360e71b815260040160405180910390fd5b896001600160a01b031682602001516001600160a01b031614612db157612db1614b5b565b8763ffffffff16826040015163ffffffff1614612dd057612dd0614b5b565b509550955095509550959050565b612de6614245565b6001600160a01b0394851681529290931660208301526040820152606081019190915290565b6020820151604051633e7d48bd60e21b81526001600160a01b03909116600482015260609060009081908190339063f9f522f490602401606060405180830381865afa158015612e60573d6000803e3d6000fd5b505050506040513d601f19601f82011682018060405250810190612e849190614efb565b91945092509050828015612e96575081155b15612fba576000612ea78688613ff7565b90508660c001518216600003612fac576000612ec68860c00151614075565b88516040808b015160608c015182516000815260208101909352612ef293923092919060448101614f37565b60408051601f19818403018152918152602080830180516001600160e01b03166001600160e01b031990951694909417909352918a015160c08b01519251633a020f0160e11b815291935033926374041e0292612f619291869164100000000091909114908890600401614f7c565b6000604051808303816000875af1158015612f80573d6000803e3d6000fd5b505050506040513d6000823e601f3d908101601f19168201604052612fa89190810190614fc5565b9550505b612fb786600061410c565b50505b50505092915050565b60006001600160801b0382111561302c5760405162461bcd60e51b815260206004820152602760248201527f53616665436173743a2076616c756520646f65736e27742066697420696e20316044820152663238206269747360c81b60648201526084016118cd565b5090565b604080516002808252606080830184529260208301908036833701905050905081600001516001600160801b0316600160801b1760001b8160008151811061307a5761307a614b45565b602002602001018181525050608082604001516001600160801b0316901b82602001516001600160801b03161760001b816001815181106130bd576130bd614b45565b602002602001018181525050919050565b6040805160028082526060808301845292602083019080368337019050509050816000015163ffffffff166020836040015163ffffffff16901b606084602001516001600160a01b0316901b171760001b8160008151811061313257613132614b45565b602002602001018181525050608082608001516001600160801b0316901b82606001516001600160801b03161760001b816001815181106130bd576130bd614b45565b8060000361318257505050565b604051634b61cc3360e01b81526000906001600160a01b03851690634b61cc33906131bd903090879064010000000090600190600401614b71565b600060405180830381865afa1580156131da573d6000803e3d6000fd5b505050506040513d6000823e601f3d908101601f191682016040526132029190810190614c97565b90508161322b8260008151811061321b5761321b614b45565b602002602001015160001c614134565b6132359190614ccb565b60001b8160008151811061324b5761324b614b45565b602090810291909101015260405163048620af60e11b81526001600160a01b0385169063090c415e9061328b908690640100000000908690600401614ff9565b600060405180830381600087803b1580156132a557600080fd5b505af11580156132b9573d6000803e3d6000fd5b5050505050505050565b6132cb6142ae565b6020840151604051633e7d48bd60e21b81526001600160a01b03909116600482015260609060009081908190339063f9f522f490602401606060405180830381865afa15801561331f573d6000803e3d6000fd5b505050506040513d601f19601f820116820180604052508101906133439190614efb565b88965091945092509050828015613358575081155b15613504576133678489613ff7565b93508760c0015181166000036134f25760006133868960c00151614075565b89516040808c015160608d0151825160008152602081019093526133b49392309291908e9060448101615020565b60408051601f19818403018152918152602080830180516001600160e01b03166001600160e01b031990951694909417909352918b015160c08c0151925163079b42a160e21b81529193503392631e6d0a84926134239291869164200000000091909114908b90600401614f7c565b6000604051808303816000875af1158015613442573d6000803e3d6000fd5b505050506040513d6000823e601f3d908101601f1916820160405261346a9190810190614fc5565b604051631fb6491d60e11b81529095503390633f6c923a9061349090889060040161446a565b600060405180830381865afa1580156134ad573d6000803e3d6000fd5b505050506040513d6000823e601f3d908101601f191682016040526134d59190810190614df5565b95506134ea896080015187610100015161419e565b610100870152505b6135018686610100015161410c565b93505b505050935093915050565b60405168383ab13634b9b432b960b91b60208201526bffffffffffffffffffffffff19606084901b1660298201526001600160e01b031960e083901b16603d8201526000906041015b60405160208183030381529060405280519060200120905092915050565b60408051606081018252600080825260208201819052918101829052604051636c2d9f2f60e01b815230600482015260248101849052600260448201526000906001600160a01b03861690636c2d9f2f90606401600060405180830381865afa1580156135e7573d6000803e3d6000fd5b505050506040513d6000823e601f3d908101601f1916820160405261360f9190810190614c97565b905060008160008151811061362657613626614b45565b602002602001015160001c905060008260018151811061364857613648614b45565b602002602001015160001c90506000821194508415613680576001600160801b03808316855281166020850152608081901c60408501525b5050509250929050565b604051631528e57f60e31b81526001600160a01b038085166004830152831660248201526000604482015263ffffffff8216606482015273__$3c6eb92c7cccddf84f4a4201d0479214da$__9063a9472bf89060840160006040518083038186803b1580156136f857600080fd5b505af415801561370c573d6000803e3d6000fd5b50505050505050565b600061373f7f360894a13ba1a3210667c828492db98dca3e2076cc3735a920a3ca505d382bbc5490565b6001600160a01b0316036137955760405162461bcd60e51b815260206004820152601d60248201527f5555505350726f786961626c653a206e6f742075706772616461626c6500000060448201526064016118cd565b806001600160a01b03166352d1902d6040518163ffffffff1660e01b8152600401602060405180830381865afa1580156137d3573d6000803e3d6000fd5b505050506040513d601f19601f820116820180604052508101906137f79190614af3565b6137ff611143565b146138585760405162461bcd60e51b815260206004820152602360248201527f5555505350726f786961626c653a206e6f7420636f6d70617469626c65206c6f60448201526267696360e81b60648201526084016118cd565b6001600160a01b03811630036138b05760405162461bcd60e51b815260206004820152601960248201527f5555505350726f786961626c653a2070726f7879206c6f6f700000000000000060448201526064016118cd565b6138d8817f360894a13ba1a3210667c828492db98dca3e2076cc3735a920a3ca505d382bbc55565b7fe011bc04c286c344a8fcbb8de77f953da762c3e25d8cdea984147fc4168a5dcc613901611143565b604080519182526001600160a01b038416602083015201611937565b604080516060810182526000808252602082018190529181018290526000613945858561350f565b92506139518684613576565b92509050806139735760405163edeaa63b60e01b815260040160405180910390fd5b50935093915050565b866001600160a01b031663cf97256d8785602001516001600160801b03168660000151866139aa9190614995565b6001600160801b03166139bc906149e5565b6139c691906149b5565b6040518363ffffffff1660e01b81526004016139e3929190614a01565b600060405180830381600087803b1580156139fd57600080fd5b505af1158015613a11573d6000803e3d6000fd5b50505050613a4b878785604001516001600160801b0316866000015186613a389190614995565b6001600160801b031661087891906149b5565b82516001600160801b03831684526001600160a01b03881663a1b2bf8b86613a7287613030565b6040518363ffffffff1660e01b8152600401613a8f929190614955565b600060405180830381600087803b158015613aa957600080fd5b505af1158015613abd573d6000803e3d6000fd5b505050508563ffffffff16876001600160a01b0316896001600160a01b03167f81e37f3d9f16cbf29a62d6a1c21d79b23ef29b54124ec44af43a50fffb9304f3848789604001518a6020015189604051613b1b959493929190615086565b60405180910390a46040516379359f6f60e01b81526001600160a01b0388811660048301528916906379359f6f90602401602060405180830381865afa158015613b69573d6000803e3d6000fd5b505050506040513d601f19601f82011682018060405250810190613b8d9190614d4e565b156132b9576040516316e759bb60e01b815260040160405180910390fd5b60608073__$3c6eb92c7cccddf84f4a4201d0479214da$__6306967a8c85856000600160801b6040518563ffffffff1660e01b8152600401613bf09493929190614b71565b600060405180830381865af4158015613c0d573d6000803e3d6000fd5b505050506040513d6000823e601f3d908101601f19168201604052613c3591908101906150c2565b909250905060005b8151811015613c9657613c6984838381518110613c5c57613c5c614b45565b6020026020010151613fb6565b828281518110613c7b57613c7b614b45565b6020908102919091010152613c8f81615186565b9050613c3d565b509250929050565b6000613ca8614280565b604051636c2d9f2f60e01b815230600482015260248101849052600260448201526000906001600160a01b03861690636c2d9f2f90606401600060405180830381865afa158015613cfd573d6000803e3d6000fd5b505050506040513d6000823e601f3d908101601f19168201604052613d259190810190614c97565b9050600081600081518110613d3c57613d3c614b45565b602002602001015160001c9050600082600181518110613d5e57613d5e614b45565b602002602001015160001c9050600082119450841561368057606082811c60208087019190915283901c63ffffffff9081166040870152831685526001600160801b03821690850152608081811c908501525050509250929050565b600080836001600160a01b0316634b61cc33308564010000000060016040518563ffffffff1660e01b8152600401613df59493929190614b71565b600060405180830381865afa158015613e12573d6000803e3d6000fd5b505050506040513d6000823e601f3d908101601f19168201604052613e3a9190810190614c97565b905080600081518110613e4f57613e4f614b45565b602002602001015160001c91505092915050565b604051630a32470160e41b81526001600160a01b03808516600483015283166024820152600060448201819052600160801b6064830152608482018390529073__$3c6eb92c7cccddf84f4a4201d0479214da$__9063a32470109060a401602060405180830381865af4158015613ede573d6000803e3d6000fd5b505050506040513d601f19601f82011682018060405250810190613f02919061519f565b949350505050565b604051636c2d9f2f60e01b8152306004820152602481018290526002604482015260009081906001600160a01b03851690636c2d9f2f90606401600060405180830381865afa158015613f61573d6000803e3d6000fd5b505050506040513d6000823e601f3d908101601f19168201604052613f899190810190614c97565b9050600081600081518110613fa057613fa0614b45565b6020908102919091010151151595945050505050565b604080516b39bab139b1b934b83a34b7b760a11b6020820152606084811b6bffffffffffffffffffffffff1916602c83015291810183905260009101613558565b6020810151608082015160a08301518351604051630768fabb60e41b8152606094339463768fabb09461402e948a946004016151bc565b6000604051808303816000875af115801561404d573d6000803e3d6000fd5b505050506040513d6000823e601f3d908101601f19168201604052612ce29190810190614fc5565b6000640100000000820361409157506330d9c91560e01b919050565b64040000000082036140ab5750630221347d60e61b919050565b64100000000082036140c55750635f9e7d7760e01b919050565b64020000000082036140df575063d86ed3e560e01b919050565b64080000000082036140f9575063230dbd2960e01b919050565b506353c11f9960e01b919050565b919050565b604051634c4d861f60e11b8152606090339063989b0c3e9061402e9086908690600401615201565b60006001600160ff1b0382111561302c5760405162461bcd60e51b815260206004820152602860248201527f53616665436173743a2076616c756520646f65736e27742066697420696e2061604482015267371034b73a191a9b60c11b60648201526084016118cd565b6000612ce260006141b76141b186614134565b856141bc565b6141d1565b60008183136141cb5782612ce2565b50919050565b60008183136141e05781612ce2565b5090919050565b6040805160c081018252600080825260208201819052918101919091526060810161422b604080516060810182526000808252602082018190529181019190915290565b8152602001614238614280565b8152602001606081525090565b6040805160e0810182526000808252602082018190529181018290526060808201526080810182905260a0810182905260c081019190915290565b6040805160a08101825260008082526020820181905291810182905260608101829052608081019190915290565b604080516101608101825260008082526020820181905291810182905260608082018390526080820183905260a082015260c0810182905260e081018290526101008101829052610120810182905261014081019190915290565b6001600160a01b038116811461111157600080fd5b63ffffffff8116811461111157600080fd5b80356001600160801b038116811461410757600080fd5b60008083601f84011261435957600080fd5b5081356001600160401b0381111561437057600080fd5b60208301915083602082850101111561438857600080fd5b9250929050565b60008060008060008060a087890312156143a857600080fd5b86356143b381614309565b955060208701356143c38161431e565b945060408701356143d381614309565b93506143e160608801614330565b925060808701356001600160401b038111156143fc57600080fd5b61440889828a01614347565b979a9699509497509295939492505050565b60005b8381101561443557818101518382015260200161441d565b50506000910152565b6000815180845261445681602086016020860161441a565b601f01601f19169290920160200192915050565b602081526000612ce2602083018461443e565b60008060006060848603121561449257600080fd5b833561449d81614309565b925060208401356144ad81614309565b915060408401356144bd8161431e565b809150509250925092565b60008060008060008060a087890312156144e157600080fd5b86356144ec81614309565b955060208701356144fc81614309565b9450604087013561450c8161431e565b935060608701356143e181614309565b60006020828403121561452e57600080fd5b813561453981614309565b9392505050565b6000806000806080858703121561455657600080fd5b843561456181614309565b9350602085013561457181614309565b925060408501356145818161431e565b9150606085013561459181614309565b939692955090935050565b6000806000806000608086880312156145b457600080fd5b85356145bf81614309565b945060208601356145cf81614309565b935060408601356145df8161431e565b925060608601356001600160401b038111156145fa57600080fd5b61460688828901614347565b969995985093965092949392505050565b60008060008060006080868803121561462f57600080fd5b853561463a81614309565b9450602086013561464a8161431e565b93506145df60408701614330565b6000806000806080858703121561466e57600080fd5b843561467981614309565b9350602085013561468981614309565b925060408501356146998161431e565b9396929550929360600135925050565b6000806000606084860312156146be57600080fd5b83356146c981614309565b925060208401356146d981614309565b929592945050506040919091013590565b600080604083850312156146fd57600080fd5b823561470881614309565b9150602083013561471881614309565b809150509250929050565b600081518084526020808501945080840160005b8381101561475c5781516001600160801b031687529582019590820190600101614737565b509495945050505050565b606080825284519082018190526000906020906080840190828801845b828110156147a95781516001600160a01b031684529284019290840190600101614784565b5050508381038285015285518082528683019183019060005b818110156147e457835163ffffffff16835292840192918401916001016147c2565b505084810360408601526147f88187614723565b98975050505050505050565b60008060008060006080868803121561481c57600080fd5b853561482781614309565b945060208601356148378161431e565b93506040860135925060608601356001600160401b038111156145fa57600080fd5b6000806040838503121561486c57600080fd5b823561487781614309565b946020939093013593505050565b6000806000806060858703121561489b57600080fd5b84356148a681614309565b935060208501356148b68161431e565b925060408501356001600160401b038111156148d157600080fd5b6148dd87828801614347565b95989497509550505050565b634e487b7160e01b600052601160045260246000fd5b80820180821115612ce557612ce56148e9565b81810381811115612ce557612ce56148e9565b600081518084526020808501945080840160005b8381101561475c57815187529582019590820190600101614939565b828152604060208201526000613f026040830184614925565b6001600160801b0381811683821601908082111561498e5761498e6148e9565b5092915050565b6001600160801b0382811682821603908082111561498e5761498e6148e9565b80820260008212600160ff1b841416156149d1576149d16148e9565b8181058314821517612ce557612ce56148e9565b6000600160ff1b82016149fa576149fa6148e9565b5060000390565b6001600160a01b03929092168252602082015260400190565b6001600160a01b03841681526001600160801b0383166020820152606060408201819052600090614a4d9083018461443e565b95945050505050565b6001600160a01b038516815263ffffffff841660208201526001600160801b0383166040820152608060608201819052600090614a959083018461443e565b9695505050505050565b6001600160a01b0383168152604060208201819052600090613f029083018461443e565b6001600160a01b038416815263ffffffff83166020820152606060408201819052600090614a4d9083018461443e565b600060208284031215614b0557600080fd5b5051919050565b8082028115828204841417612ce557612ce56148e9565b600082614b4057634e487b7160e01b600052601260045260246000fd5b500490565b634e487b7160e01b600052603260045260246000fd5b634e487b7160e01b600052600160045260246000fd5b6001600160a01b0394851681529290931660208301526040820152606081019190915260800190565b634e487b7160e01b600052604160045260246000fd5b60405161016081016001600160401b0381118282101715614bd357614bd3614b9a565b60405290565b604051601f8201601f191681016001600160401b0381118282101715614c0157614c01614b9a565b604052919050565b60006001600160401b03821115614c2257614c22614b9a565b5060051b60200190565b600082601f830112614c3d57600080fd5b81516020614c52614c4d83614c09565b614bd9565b82815260059290921b84018101918181019086841115614c7157600080fd5b8286015b84811015614c8c5780518352918301918301614c75565b509695505050505050565b600060208284031215614ca957600080fd5b81516001600160401b03811115614cbf57600080fd5b613f0284828501614c2c565b8082018281126000831280158216821582161715614ceb57614ceb6148e9565b505092915050565b600063ffffffff808316818103614d0c57614d0c6148e9565b6001019392505050565b805161410781614309565b600060208284031215614d3357600080fd5b815161453981614309565b8051801515811461410757600080fd5b600060208284031215614d6057600080fd5b612ce282614d3e565b805160ff8116811461410757600080fd5b80516001600160e01b03198116811461410757600080fd5b600082601f830112614da357600080fd5b81516001600160401b03811115614dbc57614dbc614b9a565b614dcf601f8201601f1916602001614bd9565b818152846020838601011115614de457600080fd5b613f0282602083016020870161441a565b600060208284031215614e0757600080fd5b81516001600160401b0380821115614e1e57600080fd5b908301906101608286031215614e3357600080fd5b614e3b614bb0565b614e4483614d69565b8152614e5260208401614d69565b602082015260408301516040820152614e6d60608401614d16565b6060820152614e7e60808401614d7a565b608082015260a083015182811115614e9557600080fd5b614ea187828601614d92565b60a08301525060c083015160c082015260e083015160e0820152610100915081830151828201526101209150614ed8828401614d16565b828201526101409150614eec828401614d16565b91810191909152949350505050565b600080600060608486031215614f1057600080fd5b614f1984614d3e565b9250614f2760208501614d3e565b9150604084015190509250925092565b6001600160a01b038681168252851660208201526040810184905260a060608201819052600090614f6a9083018561443e565b82810360808401526147f8818561443e565b6001600160a01b0385168152608060208201819052600090614fa09083018661443e565b84151560408401528281036060840152614fba818561443e565b979650505050505050565b600060208284031215614fd757600080fd5b81516001600160401b03811115614fed57600080fd5b613f0284828501614d92565b60018060a01b0384168152826020820152606060408201526000614a4d6060830184614925565b6001600160a01b038781168252861660208201526040810185905260c0606082018190526000906150539083018661443e565b8281036080840152615065818661443e565b905082810360a0840152615079818561443e565b9998505050505050505050565b60006001600160801b0380881683528087166020840152808616604084015280851660608401525060a06080830152614fba60a083018461443e565b600080604083850312156150d557600080fd5b82516001600160401b03808211156150ec57600080fd5b818501915085601f83011261510057600080fd5b81516020615110614c4d83614c09565b82815260059290921b8401810191818101908984111561512f57600080fd5b948201945b838610156151565785516151478161431e565b82529482019490820190615134565b9188015191965090935050508082111561516f57600080fd5b5061517c85828601614c2c565b9150509250929050565b600060018201615198576151986148e9565b5060010190565b6000602082840312156151b157600080fd5b81516145398161431e565b60a0815260006151cf60a083018861443e565b6001600160a01b0396871660208401526040830195909552506060810192909252909216608090920191909152919050565b604081526000615214604083018561443e565b9050826020830152939250505056fea2646970667358221220d7a00019a5e2056dc5c18cf9a9921601cce161405fc5084ad4070383c77fc4ff64736f6c63430008130033",
    "linkReferences": {
      "node_modules/@superfluid-finance/ethereum-contracts/contracts/libs/SlotsBitmapLibrary.sol": {
        "SlotsBitmapLibrary": [
          {
            "start": 586,
            "length": 20
          },
          {
            "start": 14167,
            "length": 20
          },
          {
            "start": 15428,
            "length": 20
          },
          {
            "start": 16184,
            "length": 20
          }
        ]
      }
    }
  },
  "methodIdentifiers": {
    "SLOTS_BITMAP_LIBRARY_ADDRESS()": "3fd4176a",
    "agreementType()": "7730599e",
    "approveSubscription(address,address,uint32,bytes)": "acf4a6c2",
    "calculateDistribution(address,address,uint32,uint256)": "899baaec",
    "castrate()": "9903ad38",
    "claim(address,address,uint32,address,bytes)": "acafa1b8",
    "createIndex(address,uint32,bytes)": "d787840a",
    "deleteSubscription(address,address,uint32,address,bytes)": "2e5e74c6",
    "distribute(address,uint32,uint256,bytes)": "b96731c2",
    "getCodeAddress()": "50d75d25",
    "getIndex(address,address,uint32)": "23fc23f3",
    "getSubscription(address,address,uint32,address)": "5b534051",
    "getSubscriptionByID(address,bytes32)": "cd7245c5",
    "listSubscriptions(address,address)": "b6dacdb8",
    "proxiableUUID()": "52d1902d",
    "realtimeBalanceOf(address,address,uint256)": "9b2e48bc",
    "revokeSubscription(address,address,uint32,bytes)": "6041ae96",
    "updateCode(address)": "46951954",
    "updateIndex(address,uint32,uint128,bytes)": "7fbc7639",
    "updateSubscription(address,uint32,address,uint128,bytes)": "232d2b58"
  },
  "id": 48
}