{
  "abi": [
    {
      "inputs": [
        {
          "internalType": "address",
          "name": "superTokenFactoryAddress",
          "type": "address"
        },
        {
          "internalType": "address",
          "name": "resolverAddress",
          "type": "address"
        }
      ],
      "stateMutability": "nonpayable",
      "type": "constructor"
    },
    {
      "inputs": [],
      "name": "RESOLVER_BASE_SUPER_TOKEN_KEY",
      "outputs": [
        {
          "internalType": "string",
          "name": "",
          "type": "string"
        }
      ],
      "stateMutability": "view",
      "type": "function"
    },
    {
      "inputs": [],
      "name": "RESOLVER_BASE_TOKEN_KEY",
      "outputs": [
        {
          "internalType": "string",
          "name": "",
          "type": "string"
        }
      ],
      "stateMutability": "view",
      "type": "function"
    },
    {
      "inputs": [
        {
          "internalType": "string",
          "name": "_name",
          "type": "string"
        },
        {
          "internalType": "string",
          "name": "_symbol",
          "type": "string"
        }
      ],
      "name": "deployNativeAssetSuperToken",
      "outputs": [
        {
          "internalType": "contract ISETH",
          "name": "nativeAssetSuperToken",
          "type": "address"
        }
      ],
      "stateMutability": "nonpayable",
      "type": "function"
    },
    {
      "inputs": [
        {
          "internalType": "string",
          "name": "_name",
          "type": "string"
        },
        {
          "internalType": "string",
          "name": "_symbol",
          "type": "string"
        },
        {
          "internalType": "uint256",
          "name": "_initialSupply",
          "type": "uint256"
        }
      ],
      "name": "deployPureSuperToken",
      "outputs": [
        {
          "internalType": "contract IPureSuperToken",
          "name": "pureSuperToken",
          "type": "address"
        }
      ],
      "stateMutability": "nonpayable",
      "type": "function"
    },
    {
      "inputs": [
        {
          "internalType": "string",
          "name": "_underlyingName",
          "type": "string"
        },
        {
          "internalType": "string",
          "name": "_underlyingSymbol",
          "type": "string"
        },
        {
          "internalType": "uint8",
          "name": "_decimals",
          "type": "uint8"
        },
        {
          "internalType": "uint256",
          "name": "_mintLimit",
          "type": "uint256"
        }
      ],
      "name": "deployWrapperSuperToken",
      "outputs": [
        {
          "internalType": "contract TestToken",
          "name": "underlyingToken",
          "type": "address"
        },
        {
          "internalType": "contract SuperToken",
          "name": "superToken",
          "type": "address"
        }
      ],
      "stateMutability": "nonpayable",
      "type": "function"
    },
    {
      "inputs": [
        {
          "internalType": "address",
          "name": "newOwner",
          "type": "address"
        }
      ],
      "name": "transferOwnership",
      "outputs": [],
      "stateMutability": "nonpayable",
      "type": "function"
    }
  ],
  "bytecode": {
    "object": "0x608060405234801561001057600080fd5b506040516126d63803806126d683398101604081905261002f9161007c565b600080546001600160a01b039384166001600160a01b031991821617909155600180549290931691161790556100af565b80516001600160a01b038116811461007757600080fd5b919050565b6000806040838503121561008f57600080fd5b61009883610060565b91506100a660208401610060565b90509250929050565b612618806100be6000396000f3fe60806040523480156200001157600080fd5b50600436106200006a5760003560e01c80633df285fe146200006f57806362a32e1e14620000b85780637dc2dc1214620000e4578063cbcd7449146200011c578063f2fde38b146200014c578063fa0215fc1462000165575b600080fd5b620000a06040518060400160405280601181526020017039bab832b93a37b5b2b739973a32b9ba1760791b81525081565b604051620000af91906200091e565b60405180910390f35b620000a06040518060400160405280600c81526020016b3a37b5b2b739973a32b9ba1760a11b81525081565b620000fb620000f536600462000986565b6200017c565b604080516001600160a01b03938416815292909116602083015201620000af565b620001336200012d36600462000a20565b6200041d565b6040516001600160a01b039091168152602001620000af565b620001636200015d36600462000aac565b6200056e565b005b620001336200017636600462000acc565b62000667565b6000808787878787876040516200019390620008a0565b620001a49695949392919062000b70565b604051809103906000f080158015620001c1573d6000803e3d6000fd5b50915060008686604051602001620001db92919062000bb4565b60408051601f19818403018152908290526000549092506001600160a01b03169063431f148190859060019062000219908c908c9060200162000bca565b604051602081830303815290604052856040518563ffffffff1660e01b81526004016200024a949392919062000bec565b6020604051808303816000875af11580156200026a573d6000803e3d6000fd5b505050506040513d601f19601f8201168201806040525081019062000290919062000c54565b91506200034f60016040518060400160405280600c81526020016b3a37b5b2b739973a32b9ba1760a11b815250856001600160a01b03166395d89b416040518163ffffffff1660e01b8152600401600060405180830381865afa158015620002fc573d6000803e3d6000fd5b505050506040513d6000823e601f3d908101601f1916820160405262000326919081019062000c8a565b6040516020016200033992919062000d38565b604051602081830303815290604052856200082b565b6200041160016040518060400160405280601181526020017039bab832b93a37b5b2b739973a32b9ba1760791b815250846001600160a01b03166395d89b416040518163ffffffff1660e01b8152600401600060405180830381865afa158015620003be573d6000803e3d6000fd5b505050506040513d6000823e601f3d908101601f19168201604052620003e8919081019062000c8a565b604051602001620003fb92919062000d38565b604051602081830303815290604052846200082b565b50965096945050505050565b6000806040516200042e90620008ae565b604051809103906000f0801580156200044b573d6000803e3d6000fd5b50600054604051633504b4d160e21b81526001600160a01b03808416600483015292945084935091169063d412d34490602401600060405180830381600087803b1580156200049957600080fd5b505af1158015620004ae573d6000803e3d6000fd5b50506040516285fc1360e71b81526001600160a01b03851692506342fe09809150620004eb906000906012908b908b908b908b9060040162000d6b565b600060405180830381600087803b1580156200050657600080fd5b505af11580156200051b573d6000803e3d6000fd5b505050506200056560016040518060400160405280601181526020017039bab832b93a37b5b2b739973a32b9ba1760791b8152508686604051602001620003fb9392919062000dbd565b50949350505050565b60015460405163349f642f60e11b815260206004820152601360248201527215195cdd11dbdd995c9b985b98d94b9d195cdd606a1b60448201526000916001600160a01b03169063693ec85e90606401602060405180830381865afa158015620005dc573d6000803e3d6000fd5b505050506040513d601f19601f8201168201806040525081019062000602919062000c54565b60405163f2fde38b60e01b81526001600160a01b0384811660048301529192509082169063f2fde38b90602401600060405180830381600087803b1580156200064a57600080fd5b505af11580156200065f573d6000803e3d6000fd5b505050505050565b6000806040516200067890620008bc565b604051809103906000f08015801562000695573d6000803e3d6000fd5b50600054604051633504b4d160e21b81526001600160a01b03808416600483015292935091169063d412d34490602401600060405180830381600087803b158015620006e057600080fd5b505af1158015620006f5573d6000803e3d6000fd5b505060405163588ca48760e11b81526001600160a01b038416925063b119490e91506200072f908a908a908a908a908a9060040162000de7565b600060405180830381600087803b1580156200074a57600080fd5b505af11580156200075f573d6000803e3d6000fd5b50505050809150620007ac60016040518060400160405280601181526020017039bab832b93a37b5b2b739973a32b9ba1760791b8152508787604051602001620003fb9392919062000dbd565b60405163a9059cbb60e01b8152336004820152602481018490526001600160a01b0383169063a9059cbb906044016020604051808303816000875af1158015620007fa573d6000803e3d6000fd5b505050506040513d601f19601f8201168201806040525081019062000820919062000e25565b505095945050505050565b82156200089b5760015460405163a815ff1560e01b81526001600160a01b039091169063a815ff159062000866908590859060040162000e49565b600060405180830381600087803b1580156200088157600080fd5b505af115801562000896573d6000803e3d6000fd5b505050505b505050565b610cce8062000e7683390190565b6105c48062001b4483390190565b6104db806200210883390190565b60005b83811015620008e7578181015183820152602001620008cd565b50506000910152565b600081518084526200090a816020860160208601620008ca565b601f01601f19169290920160200192915050565b602081526000620009336020830184620008f0565b9392505050565b60008083601f8401126200094d57600080fd5b50813567ffffffffffffffff8111156200096657600080fd5b6020830191508360208285010111156200097f57600080fd5b9250929050565b60008060008060008060808789031215620009a057600080fd5b863567ffffffffffffffff80821115620009b957600080fd5b620009c78a838b016200093a565b90985096506020890135915080821115620009e157600080fd5b50620009f089828a016200093a565b909550935050604087013560ff8116811462000a0b57600080fd5b80925050606087013590509295509295509295565b6000806000806040858703121562000a3757600080fd5b843567ffffffffffffffff8082111562000a5057600080fd5b62000a5e888389016200093a565b9096509450602087013591508082111562000a7857600080fd5b5062000a87878288016200093a565b95989497509550505050565b6001600160a01b038116811462000aa957600080fd5b50565b60006020828403121562000abf57600080fd5b8135620009338162000a93565b60008060008060006060868803121562000ae557600080fd5b853567ffffffffffffffff8082111562000afe57600080fd5b62000b0c89838a016200093a565b9097509550602088013591508082111562000b2657600080fd5b5062000b35888289016200093a565b96999598509660400135949350505050565b81835281816020850137506000828201602090810191909152601f909101601f19169091010190565b60808152600062000b8660808301888a62000b47565b828103602084015262000b9b81878962000b47565b60ff959095166040840152505060600152949350505050565b81838237600f60fb1b9101908152600101919050565b65029bab832b9160d51b81528183600683013760009101600601908152919050565b6001600160a01b038516815260006003851062000c1957634e487b7160e01b600052602160045260246000fd5b8460208301526080604083015262000c356080830185620008f0565b828103606084015262000c498185620008f0565b979650505050505050565b60006020828403121562000c6757600080fd5b8151620009338162000a93565b634e487b7160e01b600052604160045260246000fd5b60006020828403121562000c9d57600080fd5b815167ffffffffffffffff8082111562000cb657600080fd5b818401915084601f83011262000ccb57600080fd5b81518181111562000ce05762000ce062000c74565b604051601f8201601f19908116603f0116810190838211818310171562000d0b5762000d0b62000c74565b8160405282815287602084870101111562000d2557600080fd5b62000c49836020830160208801620008ca565b6000835162000d4c818460208801620008ca565b83519083019062000d62818360208801620008ca565b01949350505050565b6001600160a01b038716815260ff8616602082015260806040820181905260009062000d9b908301868862000b47565b828103606084015262000db081858762000b47565b9998505050505050505050565b6000845162000dd1818460208901620008ca565b8201838582376000930192835250909392505050565b60608152600062000dfd60608301878962000b47565b828103602084015262000e1281868862000b47565b9150508260408301529695505050505050565b60006020828403121562000e3857600080fd5b815180151581146200093357600080fd5b60408152600062000e5e6040830185620008f0565b905060018060a01b0383166020830152939250505056fe60a06040523480156200001157600080fd5b5060405162000cce38038062000cce83398101604081905262000034916200013c565b8383600362000044838262000256565b50600462000053828262000256565b50506005805460ff191660ff94909416939093179092556080525062000322915050565b634e487b7160e01b600052604160045260246000fd5b600082601f8301126200009f57600080fd5b81516001600160401b0380821115620000bc57620000bc62000077565b604051601f8301601f19908116603f01168101908282118183101715620000e757620000e762000077565b816040528381526020925086838588010111156200010457600080fd5b600091505b8382101562000128578582018301518183018401529082019062000109565b600093810190920192909252949350505050565b600080600080608085870312156200015357600080fd5b84516001600160401b03808211156200016b57600080fd5b62000179888389016200008d565b955060208701519150808211156200019057600080fd5b506200019f878288016200008d565b935050604085015160ff81168114620001b757600080fd5b6060959095015193969295505050565b600181811c90821680620001dc57607f821691505b602082108103620001fd57634e487b7160e01b600052602260045260246000fd5b50919050565b601f8211156200025157600081815260208120601f850160051c810160208610156200022c5750805b601f850160051c820191505b818110156200024d5782815560010162000238565b5050505b505050565b81516001600160401b0381111562000272576200027262000077565b6200028a81620002838454620001c7565b8462000203565b602080601f831160018114620002c25760008415620002a95750858301515b600019600386901b1c1916600185901b1785556200024d565b600085815260208120601f198616915b82811015620002f357888601518255948401946001909101908401620002d2565b5085821015620003125787850151600019600388901b60f8161c191681555b5050505050600190811b01905550565b6080516109906200033e60003960006102ba01526109906000f3fe608060405234801561001057600080fd5b50600436106100b45760003560e01c806340c10f191161007157806340c10f191461014757806370a082311461015a57806395d89b4114610183578063a457c2d71461018b578063a9059cbb1461019e578063dd62ed3e146101b157600080fd5b806306fdde03146100b9578063095ea7b3146100d757806318160ddd146100fa57806323b872dd1461010c578063313ce5671461011f5780633950935114610134575b600080fd5b6100c16101c4565b6040516100ce91906107c4565b60405180910390f35b6100ea6100e536600461082e565b610256565b60405190151581526020016100ce565b6002545b6040519081526020016100ce565b6100ea61011a366004610858565b610270565b60055460405160ff90911681526020016100ce565b6100ea61014236600461082e565b610294565b6100ea61015536600461082e565b6102b6565b6100fe610168366004610894565b6001600160a01b031660009081526020819052604090205490565b6100c16102fb565b6100ea61019936600461082e565b61030a565b6100ea6101ac36600461082e565b61038a565b6100fe6101bf3660046108b6565b610398565b6060600380546101d3906108e9565b80601f01602080910402602001604051908101604052809291908181526020018280546101ff906108e9565b801561024c5780601f106102215761010080835404028352916020019161024c565b820191906000526020600020905b81548152906001019060200180831161022f57829003601f168201915b5050505050905090565b6000336102648185856103c3565b60019150505b92915050565b60003361027e8582856104e7565b610289858585610561565b506001949350505050565b6000336102648185856102a78383610398565b6102b19190610923565b6103c3565b60007f00000000000000000000000000000000000000000000000000000000000000008211156102e8576102e8610944565b6102f28383610705565b50600192915050565b6060600480546101d3906108e9565b600033816103188286610398565b90508381101561037d5760405162461bcd60e51b815260206004820152602560248201527f45524332303a2064656372656173656420616c6c6f77616e63652062656c6f77604482015264207a65726f60d81b60648201526084015b60405180910390fd5b61028982868684036103c3565b600033610264818585610561565b6001600160a01b03918216600090815260016020908152604080832093909416825291909152205490565b6001600160a01b0383166104255760405162461bcd60e51b8152602060048201526024808201527f45524332303a20617070726f76652066726f6d20746865207a65726f206164646044820152637265737360e01b6064820152608401610374565b6001600160a01b0382166104865760405162461bcd60e51b815260206004820152602260248201527f45524332303a20617070726f766520746f20746865207a65726f206164647265604482015261737360f01b6064820152608401610374565b6001600160a01b0383811660008181526001602090815260408083209487168084529482529182902085905590518481527f8c5be1e5ebec7d5bd14f71427d1e84f3dd0314c0f7b2291e5b200ac8c7c3b925910160405180910390a3505050565b60006104f38484610398565b9050600019811461055b578181101561054e5760405162461bcd60e51b815260206004820152601d60248201527f45524332303a20696e73756666696369656e7420616c6c6f77616e63650000006044820152606401610374565b61055b84848484036103c3565b50505050565b6001600160a01b0383166105c55760405162461bcd60e51b815260206004820152602560248201527f45524332303a207472616e736665722066726f6d20746865207a65726f206164604482015264647265737360d81b6064820152608401610374565b6001600160a01b0382166106275760405162461bcd60e51b815260206004820152602360248201527f45524332303a207472616e7366657220746f20746865207a65726f206164647260448201526265737360e81b6064820152608401610374565b6001600160a01b0383166000908152602081905260409020548181101561069f5760405162461bcd60e51b815260206004820152602660248201527f45524332303a207472616e7366657220616d6f756e7420657863656564732062604482015265616c616e636560d01b6064820152608401610374565b6001600160a01b03848116600081815260208181526040808320878703905593871680835291849020805487019055925185815290927fddf252ad1be2c89b69c2b068fc378daa952ba7f163c4a11628f55a4df523b3ef910160405180910390a361055b565b6001600160a01b03821661075b5760405162461bcd60e51b815260206004820152601f60248201527f45524332303a206d696e7420746f20746865207a65726f2061646472657373006044820152606401610374565b806002600082825461076d9190610923565b90915550506001600160a01b038216600081815260208181526040808320805486019055518481527fddf252ad1be2c89b69c2b068fc378daa952ba7f163c4a11628f55a4df523b3ef910160405180910390a35050565b600060208083528351808285015260005b818110156107f1578581018301518582016040015282016107d5565b506000604082860101526040601f19601f8301168501019250505092915050565b80356001600160a01b038116811461082957600080fd5b919050565b6000806040838503121561084157600080fd5b61084a83610812565b946020939093013593505050565b60008060006060848603121561086d57600080fd5b61087684610812565b925061088460208501610812565b9150604084013590509250925092565b6000602082840312156108a657600080fd5b6108af82610812565b9392505050565b600080604083850312156108c957600080fd5b6108d283610812565b91506108e060208401610812565b90509250929050565b600181811c908216806108fd57607f821691505b60208210810361091d57634e487b7160e01b600052602260045260246000fd5b50919050565b8082018082111561026a57634e487b7160e01b600052601160045260246000fd5b634e487b7160e01b600052600160045260246000fdfea264697066735822122005c46d98e4d25d58ea64bec8c7f17a7a3e66d21cf4f258883c37e684278b73d664736f6c63430008130033608060405234801561001057600080fd5b506105a4806100206000396000f3fe6080604052600436106100435760003560e01c8063160e8be3146100ef5780634a0687ef1461010f5780637687d19b1461012f578063cf81464b14610142576100e5565b366100e5576040805160008152602081019182905263c68d428360e01b909152309063c68d42839061007c9033903490602481016104c0565b600060405180830381600087803b15801561009657600080fd5b505af11580156100aa573d6000803e3d6000fd5b50506040513481523392507f25ca84076773b0455db53621c459ddc84fe40840e4932a62706a032566f399df915060200160405180910390a2005b6100ed61014a565b005b3480156100fb57600080fd5b506100ed61010a366004610525565b61015c565b34801561011b57600080fd5b506100ed61012a36600461053e565b610229565b6100ed61013d36600461053e565b61032f565b6100ed6103d0565b61015a61015561046d565b61049c565b565b60408051600081526020810191829052639d87674160e01b9091523090639d876741906101909033908590602481016104c0565b600060405180830381600087803b1580156101aa57600080fd5b505af11580156101be573d6000803e3d6000fd5b505060405133925083156108fc02915083906000818181858888f193505050501580156101ef573d6000803e3d6000fd5b5060405181815233907f3bc27981aebbb57f9247dc00fde9d6cd91e4b230083fec3238fedbcba1f9ab3d906020015b60405180910390a250565b6001600160a01b0381166102845760405162461bcd60e51b815260206004820152601760248201527f5555505350726f78793a207a65726f206164647265737300000000000000000060448201526064015b60405180910390fd5b60006102ae7f360894a13ba1a3210667c828492db98dca3e2076cc3735a920a3ca505d382bbc5490565b6001600160a01b0316146103045760405162461bcd60e51b815260206004820152601e60248201527f5555505350726f78793a20616c726561647920696e697469616c697a65640000604482015260640161027b565b61032c817f360894a13ba1a3210667c828492db98dca3e2076cc3735a920a3ca505d382bbc55565b50565b6040805160008152602081019182905263c68d428360e01b909152309063c68d4283906103639084903490602481016104c0565b600060405180830381600087803b15801561037d57600080fd5b505af1158015610391573d6000803e3d6000fd5b50505050806001600160a01b03167f25ca84076773b0455db53621c459ddc84fe40840e4932a62706a032566f399df3460405161021e91815260200190565b6040805160008152602081019182905263c68d428360e01b909152309063c68d4283906104049033903490602481016104c0565b600060405180830381600087803b15801561041e57600080fd5b505af1158015610432573d6000803e3d6000fd5b50506040513481523392507f25ca84076773b0455db53621c459ddc84fe40840e4932a62706a032566f399df915060200160405180910390a2565b60006104977f360894a13ba1a3210667c828492db98dca3e2076cc3735a920a3ca505d382bbc5490565b905090565b3660008037600080366000845af43d6000803e8080156104bb573d6000f35b3d6000fd5b60018060a01b038416815260006020848184015260606040840152835180606085015260005b81811015610502578581018301518582016080015282016104e6565b506000608082860101526080601f19601f83011685010192505050949350505050565b60006020828403121561053757600080fd5b5035919050565b60006020828403121561055057600080fd5b81356001600160a01b038116811461056757600080fd5b939250505056fea26469706673582212203222874007ae6c284782965b8f647454c77ebcd614d011a9cbb7646945466ffe64736f6c63430008130033608060405234801561001057600080fd5b506104bb806100206000396000f3fe60806040526004361061002d5760003560e01c80634a0687ef14610044578063b119490e146100645761003c565b3661003c5761003a610084565b005b61003a610084565b34801561005057600080fd5b5061003a61005f3660046102bc565b610096565b34801561007057600080fd5b5061003a61007f366004610335565b61019c565b61009461008f610269565b610298565b565b6001600160a01b0381166100f15760405162461bcd60e51b815260206004820152601760248201527f5555505350726f78793a207a65726f206164647265737300000000000000000060448201526064015b60405180910390fd5b600061011b7f360894a13ba1a3210667c828492db98dca3e2076cc3735a920a3ca505d382bbc5490565b6001600160a01b0316146101715760405162461bcd60e51b815260206004820152601e60248201527f5555505350726f78793a20616c726561647920696e697469616c697a6564000060448201526064016100e8565b610199817f360894a13ba1a3210667c828492db98dca3e2076cc3735a920a3ca505d382bbc55565b50565b6040516285fc1360e71b815230906342fe0980906101ca906000906012908a908a908a908a906004016103d2565b600060405180830381600087803b1580156101e457600080fd5b505af11580156101f8573d6000803e3d6000fd5b50506040805160008152602081019182905263c68d428360e01b90915230925063c68d42839150610230903390859060248101610420565b600060405180830381600087803b15801561024a57600080fd5b505af115801561025e573d6000803e3d6000fd5b505050505050505050565b60006102937f360894a13ba1a3210667c828492db98dca3e2076cc3735a920a3ca505d382bbc5490565b905090565b3660008037600080366000845af43d6000803e8080156102b7573d6000f35b3d6000fd5b6000602082840312156102ce57600080fd5b81356001600160a01b03811681146102e557600080fd5b9392505050565b60008083601f8401126102fe57600080fd5b50813567ffffffffffffffff81111561031657600080fd5b60208301915083602082850101111561032e57600080fd5b9250929050565b60008060008060006060868803121561034d57600080fd5b853567ffffffffffffffff8082111561036557600080fd5b61037189838a016102ec565b9097509550602088013591508082111561038a57600080fd5b50610397888289016102ec565b96999598509660400135949350505050565b81835281816020850137506000828201602090810191909152601f909101601f19169091010190565b6001600160a01b038716815260ff8616602082015260806040820181905260009061040090830186886103a9565b82810360608401526104138185876103a9565b9998505050505050505050565b60018060a01b038416815260006020848184015260606040840152835180606085015260005b8181101561046257858101830151858201608001528201610446565b506000608082860101526080601f19601f8301168501019250505094935050505056fea2646970667358221220fc837828e4e56b1571cb9b6da0a3d335ba11557a77ffa22e8f079eaf9468b25164736f6c63430008130033a2646970667358221220978605ee046e795122839e28fac28a61cf3581f246417f142f3a3a43630a752f64736f6c63430008130033",
    "linkReferences": {}
  },
  "methodIdentifiers": {
    "RESOLVER_BASE_SUPER_TOKEN_KEY()": "3df285fe",
    "RESOLVER_BASE_TOKEN_KEY()": "62a32e1e",
    "deployNativeAssetSuperToken(string,string)": "cbcd7449",
    "deployPureSuperToken(string,string,uint256)": "fa0215fc",
    "deployWrapperSuperToken(string,string,uint8,uint256)": "7dc2dc12",
    "transferOwnership(address)": "f2fde38b"
  },
  "id": 99
}